{
	"data": {
		"bytecode": {
			"linkReferences": {},
			"object": "6080604052348015600e575f5ffd5b506103ef8061001c5f395ff3fe608060405234801561000f575f5ffd5b5060043610610029575f3560e01c80632c499d0c1461002d575b5f5ffd5b61004760048036038101906100429190610163565b61005d565b60405161005491906101c2565b60405180910390f35b5f5f83108061006c5750606483115b156100ac576040517fb8193eff0000000000000000000000000000000000000000000000000000000081526004016100a390610235565b60405180910390fd5b60018210156100f0576040517f9db9c6140000000000000000000000000000000000000000000000000000000081526004016100e79061029d565b60405180910390fd5b5f606483858761010091906102e8565b61010a91906102e8565b6101149190610356565b8561011f9190610386565b9050809150509392505050565b5f5ffd5b5f819050919050565b61014281610130565b811461014c575f5ffd5b50565b5f8135905061015d81610139565b92915050565b5f5f5f6060848603121561017a5761017961012c565b5b5f6101878682870161014f565b93505060206101988682870161014f565b92505060406101a98682870161014f565b9150509250925092565b6101bc81610130565b82525050565b5f6020820190506101d55f8301846101b3565b92915050565b5f82825260208201905092915050565b7f4d757374206265206265747765656e2030202d203130300000000000000000005f82015250565b5f61021f6017836101db565b915061022a826101eb565b602082019050919050565b5f6020820190508181035f83015261024c81610213565b9050919050565b7f4d7573742062652061746c6561737420312079656172000000000000000000005f82015250565b5f6102876016836101db565b915061029282610253565b602082019050919050565b5f6020820190508181035f8301526102b48161027b565b9050919050565b7f4e487b71000000000000000000000000000000000000000000000000000000005f52601160045260245ffd5b5f6102f282610130565b91506102fd83610130565b925082820261030b81610130565b91508282048414831517610322576103216102bb565b5b5092915050565b7f4e487b71000000000000000000000000000000000000000000000000000000005f52601260045260245ffd5b5f61036082610130565b915061036b83610130565b92508261037b5761037a610329565b5b828204905092915050565b5f61039082610130565b915061039b83610130565b92508282019050808211156103b3576103b26102bb565b5b9291505056fea26469706673582212202ac819886d5fddfee07adccd020b720eb8ae9f15eb4cbbb265c4a2013663783764736f6c634300081c0033",
			"opcodes": "PUSH1 0x80 PUSH1 0x40 MSTORE CALLVALUE DUP1 ISZERO PUSH1 0xE JUMPI PUSH0 PUSH0 REVERT JUMPDEST POP PUSH2 0x3EF DUP1 PUSH2 0x1C PUSH0 CODECOPY PUSH0 RETURN INVALID PUSH1 0x80 PUSH1 0x40 MSTORE CALLVALUE DUP1 ISZERO PUSH2 0xF JUMPI PUSH0 PUSH0 REVERT JUMPDEST POP PUSH1 0x4 CALLDATASIZE LT PUSH2 0x29 JUMPI PUSH0 CALLDATALOAD PUSH1 0xE0 SHR DUP1 PUSH4 0x2C499D0C EQ PUSH2 0x2D JUMPI JUMPDEST PUSH0 PUSH0 REVERT JUMPDEST PUSH2 0x47 PUSH1 0x4 DUP1 CALLDATASIZE SUB DUP2 ADD SWAP1 PUSH2 0x42 SWAP2 SWAP1 PUSH2 0x163 JUMP JUMPDEST PUSH2 0x5D JUMP JUMPDEST PUSH1 0x40 MLOAD PUSH2 0x54 SWAP2 SWAP1 PUSH2 0x1C2 JUMP JUMPDEST PUSH1 0x40 MLOAD DUP1 SWAP2 SUB SWAP1 RETURN JUMPDEST PUSH0 PUSH0 DUP4 LT DUP1 PUSH2 0x6C JUMPI POP PUSH1 0x64 DUP4 GT JUMPDEST ISZERO PUSH2 0xAC JUMPI PUSH1 0x40 MLOAD PUSH32 0xB8193EFF00000000000000000000000000000000000000000000000000000000 DUP2 MSTORE PUSH1 0x4 ADD PUSH2 0xA3 SWAP1 PUSH2 0x235 JUMP JUMPDEST PUSH1 0x40 MLOAD DUP1 SWAP2 SUB SWAP1 REVERT JUMPDEST PUSH1 0x1 DUP3 LT ISZERO PUSH2 0xF0 JUMPI PUSH1 0x40 MLOAD PUSH32 0x9DB9C61400000000000000000000000000000000000000000000000000000000 DUP2 MSTORE PUSH1 0x4 ADD PUSH2 0xE7 SWAP1 PUSH2 0x29D JUMP JUMPDEST PUSH1 0x40 MLOAD DUP1 SWAP2 SUB SWAP1 REVERT JUMPDEST PUSH0 PUSH1 0x64 DUP4 DUP6 DUP8 PUSH2 0x100 SWAP2 SWAP1 PUSH2 0x2E8 JUMP JUMPDEST PUSH2 0x10A SWAP2 SWAP1 PUSH2 0x2E8 JUMP JUMPDEST PUSH2 0x114 SWAP2 SWAP1 PUSH2 0x356 JUMP JUMPDEST DUP6 PUSH2 0x11F SWAP2 SWAP1 PUSH2 0x386 JUMP JUMPDEST SWAP1 POP DUP1 SWAP2 POP POP SWAP4 SWAP3 POP POP POP JUMP JUMPDEST PUSH0 PUSH0 REVERT JUMPDEST PUSH0 DUP2 SWAP1 POP SWAP2 SWAP1 POP JUMP JUMPDEST PUSH2 0x142 DUP2 PUSH2 0x130 JUMP JUMPDEST DUP2 EQ PUSH2 0x14C JUMPI PUSH0 PUSH0 REVERT JUMPDEST POP JUMP JUMPDEST PUSH0 DUP2 CALLDATALOAD SWAP1 POP PUSH2 0x15D DUP2 PUSH2 0x139 JUMP JUMPDEST SWAP3 SWAP2 POP POP JUMP JUMPDEST PUSH0 PUSH0 PUSH0 PUSH1 0x60 DUP5 DUP7 SUB SLT ISZERO PUSH2 0x17A JUMPI PUSH2 0x179 PUSH2 0x12C JUMP JUMPDEST JUMPDEST PUSH0 PUSH2 0x187 DUP7 DUP3 DUP8 ADD PUSH2 0x14F JUMP JUMPDEST SWAP4 POP POP PUSH1 0x20 PUSH2 0x198 DUP7 DUP3 DUP8 ADD PUSH2 0x14F JUMP JUMPDEST SWAP3 POP POP PUSH1 0x40 PUSH2 0x1A9 DUP7 DUP3 DUP8 ADD PUSH2 0x14F JUMP JUMPDEST SWAP2 POP POP SWAP3 POP SWAP3 POP SWAP3 JUMP JUMPDEST PUSH2 0x1BC DUP2 PUSH2 0x130 JUMP JUMPDEST DUP3 MSTORE POP POP JUMP JUMPDEST PUSH0 PUSH1 0x20 DUP3 ADD SWAP1 POP PUSH2 0x1D5 PUSH0 DUP4 ADD DUP5 PUSH2 0x1B3 JUMP JUMPDEST SWAP3 SWAP2 POP POP JUMP JUMPDEST PUSH0 DUP3 DUP3 MSTORE PUSH1 0x20 DUP3 ADD SWAP1 POP SWAP3 SWAP2 POP POP JUMP JUMPDEST PUSH32 0x4D757374206265206265747765656E2030202D20313030000000000000000000 PUSH0 DUP3 ADD MSTORE POP JUMP JUMPDEST PUSH0 PUSH2 0x21F PUSH1 0x17 DUP4 PUSH2 0x1DB JUMP JUMPDEST SWAP2 POP PUSH2 0x22A DUP3 PUSH2 0x1EB JUMP JUMPDEST PUSH1 0x20 DUP3 ADD SWAP1 POP SWAP2 SWAP1 POP JUMP JUMPDEST PUSH0 PUSH1 0x20 DUP3 ADD SWAP1 POP DUP2 DUP2 SUB PUSH0 DUP4 ADD MSTORE PUSH2 0x24C DUP2 PUSH2 0x213 JUMP JUMPDEST SWAP1 POP SWAP2 SWAP1 POP JUMP JUMPDEST PUSH32 0x4D7573742062652061746C656173742031207965617200000000000000000000 PUSH0 DUP3 ADD MSTORE POP JUMP JUMPDEST PUSH0 PUSH2 0x287 PUSH1 0x16 DUP4 PUSH2 0x1DB JUMP JUMPDEST SWAP2 POP PUSH2 0x292 DUP3 PUSH2 0x253 JUMP JUMPDEST PUSH1 0x20 DUP3 ADD SWAP1 POP SWAP2 SWAP1 POP JUMP JUMPDEST PUSH0 PUSH1 0x20 DUP3 ADD SWAP1 POP DUP2 DUP2 SUB PUSH0 DUP4 ADD MSTORE PUSH2 0x2B4 DUP2 PUSH2 0x27B JUMP JUMPDEST SWAP1 POP SWAP2 SWAP1 POP JUMP JUMPDEST PUSH32 0x4E487B7100000000000000000000000000000000000000000000000000000000 PUSH0 MSTORE PUSH1 0x11 PUSH1 0x4 MSTORE PUSH1 0x24 PUSH0 REVERT JUMPDEST PUSH0 PUSH2 0x2F2 DUP3 PUSH2 0x130 JUMP JUMPDEST SWAP2 POP PUSH2 0x2FD DUP4 PUSH2 0x130 JUMP JUMPDEST SWAP3 POP DUP3 DUP3 MUL PUSH2 0x30B DUP2 PUSH2 0x130 JUMP JUMPDEST SWAP2 POP DUP3 DUP3 DIV DUP5 EQ DUP4 ISZERO OR PUSH2 0x322 JUMPI PUSH2 0x321 PUSH2 0x2BB JUMP JUMPDEST JUMPDEST POP SWAP3 SWAP2 POP POP JUMP JUMPDEST PUSH32 0x4E487B7100000000000000000000000000000000000000000000000000000000 PUSH0 MSTORE PUSH1 0x12 PUSH1 0x4 MSTORE PUSH1 0x24 PUSH0 REVERT JUMPDEST PUSH0 PUSH2 0x360 DUP3 PUSH2 0x130 JUMP JUMPDEST SWAP2 POP PUSH2 0x36B DUP4 PUSH2 0x130 JUMP JUMPDEST SWAP3 POP DUP3 PUSH2 0x37B JUMPI PUSH2 0x37A PUSH2 0x329 JUMP JUMPDEST JUMPDEST DUP3 DUP3 DIV SWAP1 POP SWAP3 SWAP2 POP POP JUMP JUMPDEST PUSH0 PUSH2 0x390 DUP3 PUSH2 0x130 JUMP JUMPDEST SWAP2 POP PUSH2 0x39B DUP4 PUSH2 0x130 JUMP JUMPDEST SWAP3 POP DUP3 DUP3 ADD SWAP1 POP DUP1 DUP3 GT ISZERO PUSH2 0x3B3 JUMPI PUSH2 0x3B2 PUSH2 0x2BB JUMP JUMPDEST JUMPDEST SWAP3 SWAP2 POP POP JUMP INVALID LOG2 PUSH5 0x6970667358 0x22 SLT KECCAK256 0x2A 0xC8 NOT DUP9 PUSH14 0x5FDDFEE07ADCCD020B720EB8AE9F ISZERO 0xEB 0x4C 0xBB 0xB2 PUSH6 0xC4A201366378 CALLDATACOPY PUSH5 0x736F6C6343 STOP ADDMOD SHR STOP CALLER "
		},
		"gasEstimates": {
			"creation": {
				"codeDepositCost": "201400",
				"executionCost": "243",
				"totalCost": "201643"
			},
			"external": {
				"calculateTotalPayable(uint256,uint256,uint256)": "infinite"
			}
		},
		"methodIdentifiers": {
			"calculateTotalPayable(uint256,uint256,uint256)": "2c499d0c"
		}
	},
	"abi": [
		{
			"inputs": [
				{
					"internalType": "string",
					"name": "",
					"type": "string"
				}
			],
			"name": "interestRateOutOfBoundries",
			"type": "error"
		},
		{
			"inputs": [
				{
					"internalType": "string",
					"name": "",
					"type": "string"
				}
			],
			"name": "loanPeriodTooShort",
			"type": "error"
		},
		{
			"inputs": [
				{
					"internalType": "uint256",
					"name": "principal",
					"type": "uint256"
				},
				{
					"internalType": "uint256",
					"name": "rate",
					"type": "uint256"
				},
				{
					"internalType": "uint256",
					"name": "loanYears",
					"type": "uint256"
				}
			],
			"name": "calculateTotalPayable",
			"outputs": [
				{
					"internalType": "uint256",
					"name": "",
					"type": "uint256"
				}
			],
			"stateMutability": "pure",
			"type": "function"
		}
	]
}