{
	"data": {
		"bytecode": {
			"linkReferences": {},
			"object": "6080604052348015600e575f5ffd5b506102ed8061001c5f395ff3fe608060405234801561000f575f5ffd5b5060043610610034575f3560e01c80632fde3f1a14610038578063b78ca55014610068575b5f5ffd5b610052600480360381019061004d9190610133565b610098565b60405161005f919061016d565b60405180910390f35b610082600480360381019061007d9190610133565b6100ca565b60405161008f919061016d565b60405180910390f35b5f5f600960056020856100ab91906101b3565b6100b591906101e6565b6100bf9190610254565b905080915050919050565b5f5f602060056009856100dd91906101e6565b6100e79190610254565b6100f19190610284565b905080915050919050565b5f5ffd5b5f819050919050565b61011281610100565b811461011c575f5ffd5b50565b5f8135905061012d81610109565b92915050565b5f60208284031215610148576101476100fc565b5b5f6101558482850161011f565b91505092915050565b61016781610100565b82525050565b5f6020820190506101805f83018461015e565b92915050565b7f4e487b71000000000000000000000000000000000000000000000000000000005f52601160045260245ffd5b5f6101bd82610100565b91506101c883610100565b92508282039050818111156101e0576101df610186565b5b92915050565b5f6101f082610100565b91506101fb83610100565b925082820261020981610100565b915082820484148315176102205761021f610186565b5b5092915050565b7f4e487b71000000000000000000000000000000000000000000000000000000005f52601260045260245ffd5b5f61025e82610100565b915061026983610100565b92508261027957610278610227565b5b828204905092915050565b5f61028e82610100565b915061029983610100565b92508282019050808211156102b1576102b0610186565b5b9291505056fea2646970667358221220ef78eb2dd4d7ac78c436e85d5cf70f7b24bbeb8f49c07ad5237b6dcd917fea1864736f6c634300081c0033",
			"opcodes": "PUSH1 0x80 PUSH1 0x40 MSTORE CALLVALUE DUP1 ISZERO PUSH1 0xE JUMPI PUSH0 PUSH0 REVERT JUMPDEST POP PUSH2 0x2ED DUP1 PUSH2 0x1C PUSH0 CODECOPY PUSH0 RETURN INVALID PUSH1 0x80 PUSH1 0x40 MSTORE CALLVALUE DUP1 ISZERO PUSH2 0xF JUMPI PUSH0 PUSH0 REVERT JUMPDEST POP PUSH1 0x4 CALLDATASIZE LT PUSH2 0x34 JUMPI PUSH0 CALLDATALOAD PUSH1 0xE0 SHR DUP1 PUSH4 0x2FDE3F1A EQ PUSH2 0x38 JUMPI DUP1 PUSH4 0xB78CA550 EQ PUSH2 0x68 JUMPI JUMPDEST PUSH0 PUSH0 REVERT JUMPDEST PUSH2 0x52 PUSH1 0x4 DUP1 CALLDATASIZE SUB DUP2 ADD SWAP1 PUSH2 0x4D SWAP2 SWAP1 PUSH2 0x133 JUMP JUMPDEST PUSH2 0x98 JUMP JUMPDEST PUSH1 0x40 MLOAD PUSH2 0x5F SWAP2 SWAP1 PUSH2 0x16D JUMP JUMPDEST PUSH1 0x40 MLOAD DUP1 SWAP2 SUB SWAP1 RETURN JUMPDEST PUSH2 0x82 PUSH1 0x4 DUP1 CALLDATASIZE SUB DUP2 ADD SWAP1 PUSH2 0x7D SWAP2 SWAP1 PUSH2 0x133 JUMP JUMPDEST PUSH2 0xCA JUMP JUMPDEST PUSH1 0x40 MLOAD PUSH2 0x8F SWAP2 SWAP1 PUSH2 0x16D JUMP JUMPDEST PUSH1 0x40 MLOAD DUP1 SWAP2 SUB SWAP1 RETURN JUMPDEST PUSH0 PUSH0 PUSH1 0x9 PUSH1 0x5 PUSH1 0x20 DUP6 PUSH2 0xAB SWAP2 SWAP1 PUSH2 0x1B3 JUMP JUMPDEST PUSH2 0xB5 SWAP2 SWAP1 PUSH2 0x1E6 JUMP JUMPDEST PUSH2 0xBF SWAP2 SWAP1 PUSH2 0x254 JUMP JUMPDEST SWAP1 POP DUP1 SWAP2 POP POP SWAP2 SWAP1 POP JUMP JUMPDEST PUSH0 PUSH0 PUSH1 0x20 PUSH1 0x5 PUSH1 0x9 DUP6 PUSH2 0xDD SWAP2 SWAP1 PUSH2 0x1E6 JUMP JUMPDEST PUSH2 0xE7 SWAP2 SWAP1 PUSH2 0x254 JUMP JUMPDEST PUSH2 0xF1 SWAP2 SWAP1 PUSH2 0x284 JUMP JUMPDEST SWAP1 POP DUP1 SWAP2 POP POP SWAP2 SWAP1 POP JUMP JUMPDEST PUSH0 PUSH0 REVERT JUMPDEST PUSH0 DUP2 SWAP1 POP SWAP2 SWAP1 POP JUMP JUMPDEST PUSH2 0x112 DUP2 PUSH2 0x100 JUMP JUMPDEST DUP2 EQ PUSH2 0x11C JUMPI PUSH0 PUSH0 REVERT JUMPDEST POP JUMP JUMPDEST PUSH0 DUP2 CALLDATALOAD SWAP1 POP PUSH2 0x12D DUP2 PUSH2 0x109 JUMP JUMPDEST SWAP3 SWAP2 POP POP JUMP JUMPDEST PUSH0 PUSH1 0x20 DUP3 DUP5 SUB SLT ISZERO PUSH2 0x148 JUMPI PUSH2 0x147 PUSH2 0xFC JUMP JUMPDEST JUMPDEST PUSH0 PUSH2 0x155 DUP5 DUP3 DUP6 ADD PUSH2 0x11F JUMP JUMPDEST SWAP2 POP POP SWAP3 SWAP2 POP POP JUMP JUMPDEST PUSH2 0x167 DUP2 PUSH2 0x100 JUMP JUMPDEST DUP3 MSTORE POP POP JUMP JUMPDEST PUSH0 PUSH1 0x20 DUP3 ADD SWAP1 POP PUSH2 0x180 PUSH0 DUP4 ADD DUP5 PUSH2 0x15E JUMP JUMPDEST SWAP3 SWAP2 POP POP JUMP JUMPDEST PUSH32 0x4E487B7100000000000000000000000000000000000000000000000000000000 PUSH0 MSTORE PUSH1 0x11 PUSH1 0x4 MSTORE PUSH1 0x24 PUSH0 REVERT JUMPDEST PUSH0 PUSH2 0x1BD DUP3 PUSH2 0x100 JUMP JUMPDEST SWAP2 POP PUSH2 0x1C8 DUP4 PUSH2 0x100 JUMP JUMPDEST SWAP3 POP DUP3 DUP3 SUB SWAP1 POP DUP2 DUP2 GT ISZERO PUSH2 0x1E0 JUMPI PUSH2 0x1DF PUSH2 0x186 JUMP JUMPDEST JUMPDEST SWAP3 SWAP2 POP POP JUMP JUMPDEST PUSH0 PUSH2 0x1F0 DUP3 PUSH2 0x100 JUMP JUMPDEST SWAP2 POP PUSH2 0x1FB DUP4 PUSH2 0x100 JUMP JUMPDEST SWAP3 POP DUP3 DUP3 MUL PUSH2 0x209 DUP2 PUSH2 0x100 JUMP JUMPDEST SWAP2 POP DUP3 DUP3 DIV DUP5 EQ DUP4 ISZERO OR PUSH2 0x220 JUMPI PUSH2 0x21F PUSH2 0x186 JUMP JUMPDEST JUMPDEST POP SWAP3 SWAP2 POP POP JUMP JUMPDEST PUSH32 0x4E487B7100000000000000000000000000000000000000000000000000000000 PUSH0 MSTORE PUSH1 0x12 PUSH1 0x4 MSTORE PUSH1 0x24 PUSH0 REVERT JUMPDEST PUSH0 PUSH2 0x25E DUP3 PUSH2 0x100 JUMP JUMPDEST SWAP2 POP PUSH2 0x269 DUP4 PUSH2 0x100 JUMP JUMPDEST SWAP3 POP DUP3 PUSH2 0x279 JUMPI PUSH2 0x278 PUSH2 0x227 JUMP JUMPDEST JUMPDEST DUP3 DUP3 DIV SWAP1 POP SWAP3 SWAP2 POP POP JUMP JUMPDEST PUSH0 PUSH2 0x28E DUP3 PUSH2 0x100 JUMP JUMPDEST SWAP2 POP PUSH2 0x299 DUP4 PUSH2 0x100 JUMP JUMPDEST SWAP3 POP DUP3 DUP3 ADD SWAP1 POP DUP1 DUP3 GT ISZERO PUSH2 0x2B1 JUMPI PUSH2 0x2B0 PUSH2 0x186 JUMP JUMPDEST JUMPDEST SWAP3 SWAP2 POP POP JUMP INVALID LOG2 PUSH5 0x6970667358 0x22 SLT KECCAK256 0xEF PUSH25 0xEB2DD4D7AC78C436E85D5CF70F7B24BBEB8F49C07AD5237B6D 0xCD SWAP2 PUSH32 0xEA1864736F6C634300081C003300000000000000000000000000000000000000 "
		},
		"gasEstimates": {
			"creation": {
				"codeDepositCost": "149800",
				"executionCost": "194",
				"totalCost": "149994"
			},
			"external": {
				"toCelsius(uint256)": "infinite",
				"toFahrenheit(uint256)": "infinite"
			}
		},
		"methodIdentifiers": {
			"toCelsius(uint256)": "2fde3f1a",
			"toFahrenheit(uint256)": "b78ca550"
		}
	},
	"abi": [
		{
			"inputs": [
				{
					"internalType": "uint256",
					"name": "fahrenheitTemp",
					"type": "uint256"
				}
			],
			"name": "toCelsius",
			"outputs": [
				{
					"internalType": "uint256",
					"name": "",
					"type": "uint256"
				}
			],
			"stateMutability": "pure",
			"type": "function"
		},
		{
			"inputs": [
				{
					"internalType": "uint256",
					"name": "celsiusTemp",
					"type": "uint256"
				}
			],
			"name": "toFahrenheit",
			"outputs": [
				{
					"internalType": "uint256",
					"name": "",
					"type": "uint256"
				}
			],
			"stateMutability": "pure",
			"type": "function"
		}
	]
}