{
	"01-exercise/01-compoundInterestCalculator.sol": {
		"compaundInterestCalculator": {
			"abi": [
				{
					"inputs": [],
					"name": "DECIMALS",
					"outputs": [
						{
							"internalType": "uint256",
							"name": "",
							"type": "uint256"
						}
					],
					"stateMutability": "view",
					"type": "function"
				},
				{
					"inputs": [
						{
							"internalType": "uint256",
							"name": "principal",
							"type": "uint256"
						},
						{
							"internalType": "uint256",
							"name": "interestRate",
							"type": "uint256"
						},
						{
							"internalType": "uint256",
							"name": "timeInYears",
							"type": "uint256"
						}
					],
					"name": "calculateCompoundInterest",
					"outputs": [
						{
							"internalType": "uint256",
							"name": "",
							"type": "uint256"
						}
					],
					"stateMutability": "pure",
					"type": "function"
				}
			],
			"devdoc": {
				"kind": "dev",
				"methods": {},
				"version": 1
			},
			"evm": {
				"assembly": "    /* \"01-exercise/01-compoundInterestCalculator.sol\":66:932  contract compaundInterestCalculator{... */\n  mstore(0x40, 0x80)\n  callvalue\n  dup1\n  iszero\n  tag_1\n  jumpi\n  revert(0x00, 0x00)\ntag_1:\n  pop\n  dataSize(sub_0)\n  dup1\n  dataOffset(sub_0)\n  0x00\n  codecopy\n  0x00\n  return\nstop\n\nsub_0: assembly {\n        /* \"01-exercise/01-compoundInterestCalculator.sol\":66:932  contract compaundInterestCalculator{... */\n      mstore(0x40, 0x80)\n      callvalue\n      dup1\n      iszero\n      tag_1\n      jumpi\n      revert(0x00, 0x00)\n    tag_1:\n      pop\n      jumpi(tag_2, lt(calldatasize, 0x04))\n      shr(0xe0, calldataload(0x00))\n      dup1\n      0x2e0f2625\n      eq\n      tag_3\n      jumpi\n      dup1\n      0xe088abdd\n      eq\n      tag_4\n      jumpi\n    tag_2:\n      revert(0x00, 0x00)\n        /* \"01-exercise/01-compoundInterestCalculator.sol\":493:532  uint256 public constant DECIMALS = 1e18 */\n    tag_3:\n      tag_5\n      tag_6\n      jump\t// in\n    tag_5:\n      mload(0x40)\n      tag_7\n      swap2\n      swap1\n      tag_8\n      jump\t// in\n    tag_7:\n      mload(0x40)\n      dup1\n      swap2\n      sub\n      swap1\n      return\n        /* \"01-exercise/01-compoundInterestCalculator.sol\":539:927  function calculateCompoundInterest(uint256 principal, uint256 interestRate, uint256 timeInYears) external pure returns (uint256) {... */\n    tag_4:\n      tag_9\n      0x04\n      dup1\n      calldatasize\n      sub\n      dup2\n      add\n      swap1\n      tag_10\n      swap2\n      swap1\n      tag_11\n      jump\t// in\n    tag_10:\n      tag_12\n      jump\t// in\n    tag_9:\n      mload(0x40)\n      tag_13\n      swap2\n      swap1\n      tag_8\n      jump\t// in\n    tag_13:\n      mload(0x40)\n      dup1\n      swap2\n      sub\n      swap1\n      return\n        /* \"01-exercise/01-compoundInterestCalculator.sol\":493:532  uint256 public constant DECIMALS = 1e18 */\n    tag_6:\n        /* \"01-exercise/01-compoundInterestCalculator.sol\":528:532  1e18 */\n      0x0de0b6b3a7640000\n        /* \"01-exercise/01-compoundInterestCalculator.sol\":493:532  uint256 public constant DECIMALS = 1e18 */\n      dup2\n      jump\t// out\n        /* \"01-exercise/01-compoundInterestCalculator.sol\":539:927  function calculateCompoundInterest(uint256 principal, uint256 interestRate, uint256 timeInYears) external pure returns (uint256) {... */\n    tag_12:\n        /* \"01-exercise/01-compoundInterestCalculator.sol\":659:666  uint256 */\n      0x00\n        /* \"01-exercise/01-compoundInterestCalculator.sol\":679:695  uint256 interest */\n      0x00\n        /* \"01-exercise/01-compoundInterestCalculator.sol\":736:739  100 */\n      0x64\n        /* \"01-exercise/01-compoundInterestCalculator.sol\":528:532  1e18 */\n      0x0de0b6b3a7640000\n        /* \"01-exercise/01-compoundInterestCalculator.sol\":710:722  interestRate */\n      dup6\n        /* \"01-exercise/01-compoundInterestCalculator.sol\":710:733  interestRate * DECIMALS */\n      tag_15\n      swap2\n      swap1\n      tag_16\n      jump\t// in\n    tag_15:\n        /* \"01-exercise/01-compoundInterestCalculator.sol\":710:739  interestRate * DECIMALS / 100 */\n      tag_17\n      swap2\n      swap1\n      tag_18\n      jump\t// in\n    tag_17:\n        /* \"01-exercise/01-compoundInterestCalculator.sol\":528:532  1e18 */\n      0x0de0b6b3a7640000\n        /* \"01-exercise/01-compoundInterestCalculator.sol\":698:740  DECIMALS + (interestRate * DECIMALS / 100) */\n      tag_19\n      swap2\n      swap1\n      tag_20\n      jump\t// in\n    tag_19:\n        /* \"01-exercise/01-compoundInterestCalculator.sol\":679:740  uint256 interest = DECIMALS + (interestRate * DECIMALS / 100) */\n      swap1\n      pop\n        /* \"01-exercise/01-compoundInterestCalculator.sol\":751:767  uint256 compaund */\n      0x00\n        /* \"01-exercise/01-compoundInterestCalculator.sol\":770:779  principal */\n      dup6\n        /* \"01-exercise/01-compoundInterestCalculator.sol\":751:779  uint256 compaund = principal */\n      swap1\n      pop\n        /* \"01-exercise/01-compoundInterestCalculator.sol\":794:803  uint256 i */\n      0x00\n        /* \"01-exercise/01-compoundInterestCalculator.sol\":806:807  0 */\n      0x00\n        /* \"01-exercise/01-compoundInterestCalculator.sol\":794:807  uint256 i = 0 */\n      swap1\n      pop\n        /* \"01-exercise/01-compoundInterestCalculator.sol\":790:898  for(uint256 i = 0; i < timeInYears; i++){... */\n    tag_21:\n        /* \"01-exercise/01-compoundInterestCalculator.sol\":813:824  timeInYears */\n      dup5\n        /* \"01-exercise/01-compoundInterestCalculator.sol\":809:810  i */\n      dup2\n        /* \"01-exercise/01-compoundInterestCalculator.sol\":809:824  i < timeInYears */\n      lt\n        /* \"01-exercise/01-compoundInterestCalculator.sol\":790:898  for(uint256 i = 0; i < timeInYears; i++){... */\n      iszero\n      tag_22\n      jumpi\n        /* \"01-exercise/01-compoundInterestCalculator.sol\":528:532  1e18 */\n      0x0de0b6b3a7640000\n        /* \"01-exercise/01-compoundInterestCalculator.sol\":867:875  interest */\n      dup4\n        /* \"01-exercise/01-compoundInterestCalculator.sol\":856:864  compaund */\n      dup4\n        /* \"01-exercise/01-compoundInterestCalculator.sol\":856:875  compaund * interest */\n      tag_24\n      swap2\n      swap1\n      tag_16\n      jump\t// in\n    tag_24:\n        /* \"01-exercise/01-compoundInterestCalculator.sol\":856:886  compaund * interest / DECIMALS */\n      tag_25\n      swap2\n      swap1\n      tag_18\n      jump\t// in\n    tag_25:\n        /* \"01-exercise/01-compoundInterestCalculator.sol\":845:886  compaund = compaund * interest / DECIMALS */\n      swap2\n      pop\n        /* \"01-exercise/01-compoundInterestCalculator.sol\":826:829  i++ */\n      dup1\n      dup1\n      0x01\n      add\n      swap2\n      pop\n      pop\n        /* \"01-exercise/01-compoundInterestCalculator.sol\":790:898  for(uint256 i = 0; i < timeInYears; i++){... */\n      jump(tag_21)\n    tag_22:\n      pop\n        /* \"01-exercise/01-compoundInterestCalculator.sol\":915:923  compaund */\n      dup1\n        /* \"01-exercise/01-compoundInterestCalculator.sol\":908:923  return compaund */\n      swap3\n      pop\n      pop\n      pop\n        /* \"01-exercise/01-compoundInterestCalculator.sol\":539:927  function calculateCompoundInterest(uint256 principal, uint256 interestRate, uint256 timeInYears) external pure returns (uint256) {... */\n      swap4\n      swap3\n      pop\n      pop\n      pop\n      jump\t// out\n        /* \"#utility.yul\":7:84   */\n    tag_26:\n        /* \"#utility.yul\":44:51   */\n      0x00\n        /* \"#utility.yul\":73:78   */\n      dup2\n        /* \"#utility.yul\":62:78   */\n      swap1\n      pop\n        /* \"#utility.yul\":7:84   */\n      swap2\n      swap1\n      pop\n      jump\t// out\n        /* \"#utility.yul\":90:208   */\n    tag_27:\n        /* \"#utility.yul\":177:201   */\n      tag_38\n        /* \"#utility.yul\":195:200   */\n      dup2\n        /* \"#utility.yul\":177:201   */\n      tag_26\n      jump\t// in\n    tag_38:\n        /* \"#utility.yul\":172:175   */\n      dup3\n        /* \"#utility.yul\":165:202   */\n      mstore\n        /* \"#utility.yul\":90:208   */\n      pop\n      pop\n      jump\t// out\n        /* \"#utility.yul\":214:436   */\n    tag_8:\n        /* \"#utility.yul\":307:311   */\n      0x00\n        /* \"#utility.yul\":345:347   */\n      0x20\n        /* \"#utility.yul\":334:343   */\n      dup3\n        /* \"#utility.yul\":330:348   */\n      add\n        /* \"#utility.yul\":322:348   */\n      swap1\n      pop\n        /* \"#utility.yul\":358:429   */\n      tag_40\n        /* \"#utility.yul\":426:427   */\n      0x00\n        /* \"#utility.yul\":415:424   */\n      dup4\n        /* \"#utility.yul\":411:428   */\n      add\n        /* \"#utility.yul\":402:408   */\n      dup5\n        /* \"#utility.yul\":358:429   */\n      tag_27\n      jump\t// in\n    tag_40:\n        /* \"#utility.yul\":214:436   */\n      swap3\n      swap2\n      pop\n      pop\n      jump\t// out\n        /* \"#utility.yul\":523:640   */\n    tag_29:\n        /* \"#utility.yul\":632:633   */\n      0x00\n        /* \"#utility.yul\":629:630   */\n      0x00\n        /* \"#utility.yul\":622:634   */\n      revert\n        /* \"#utility.yul\":769:891   */\n    tag_31:\n        /* \"#utility.yul\":842:866   */\n      tag_45\n        /* \"#utility.yul\":860:865   */\n      dup2\n        /* \"#utility.yul\":842:866   */\n      tag_26\n      jump\t// in\n    tag_45:\n        /* \"#utility.yul\":835:840   */\n      dup2\n        /* \"#utility.yul\":832:867   */\n      eq\n        /* \"#utility.yul\":822:885   */\n      tag_46\n      jumpi\n        /* \"#utility.yul\":881:882   */\n      0x00\n        /* \"#utility.yul\":878:879   */\n      0x00\n        /* \"#utility.yul\":871:883   */\n      revert\n        /* \"#utility.yul\":822:885   */\n    tag_46:\n        /* \"#utility.yul\":769:891   */\n      pop\n      jump\t// out\n        /* \"#utility.yul\":897:1036   */\n    tag_32:\n        /* \"#utility.yul\":943:948   */\n      0x00\n        /* \"#utility.yul\":981:987   */\n      dup2\n        /* \"#utility.yul\":968:988   */\n      calldataload\n        /* \"#utility.yul\":959:988   */\n      swap1\n      pop\n        /* \"#utility.yul\":997:1030   */\n      tag_48\n        /* \"#utility.yul\":1024:1029   */\n      dup2\n        /* \"#utility.yul\":997:1030   */\n      tag_31\n      jump\t// in\n    tag_48:\n        /* \"#utility.yul\":897:1036   */\n      swap3\n      swap2\n      pop\n      pop\n      jump\t// out\n        /* \"#utility.yul\":1042:1661   */\n    tag_11:\n        /* \"#utility.yul\":1119:1125   */\n      0x00\n        /* \"#utility.yul\":1127:1133   */\n      0x00\n        /* \"#utility.yul\":1135:1141   */\n      0x00\n        /* \"#utility.yul\":1184:1186   */\n      0x60\n        /* \"#utility.yul\":1172:1181   */\n      dup5\n        /* \"#utility.yul\":1163:1170   */\n      dup7\n        /* \"#utility.yul\":1159:1182   */\n      sub\n        /* \"#utility.yul\":1155:1187   */\n      slt\n        /* \"#utility.yul\":1152:1271   */\n      iszero\n      tag_50\n      jumpi\n        /* \"#utility.yul\":1190:1269   */\n      tag_51\n      tag_29\n      jump\t// in\n    tag_51:\n        /* \"#utility.yul\":1152:1271   */\n    tag_50:\n        /* \"#utility.yul\":1310:1311   */\n      0x00\n        /* \"#utility.yul\":1335:1388   */\n      tag_52\n        /* \"#utility.yul\":1380:1387   */\n      dup7\n        /* \"#utility.yul\":1371:1377   */\n      dup3\n        /* \"#utility.yul\":1360:1369   */\n      dup8\n        /* \"#utility.yul\":1356:1378   */\n      add\n        /* \"#utility.yul\":1335:1388   */\n      tag_32\n      jump\t// in\n    tag_52:\n        /* \"#utility.yul\":1325:1388   */\n      swap4\n      pop\n        /* \"#utility.yul\":1281:1398   */\n      pop\n        /* \"#utility.yul\":1437:1439   */\n      0x20\n        /* \"#utility.yul\":1463:1516   */\n      tag_53\n        /* \"#utility.yul\":1508:1515   */\n      dup7\n        /* \"#utility.yul\":1499:1505   */\n      dup3\n        /* \"#utility.yul\":1488:1497   */\n      dup8\n        /* \"#utility.yul\":1484:1506   */\n      add\n        /* \"#utility.yul\":1463:1516   */\n      tag_32\n      jump\t// in\n    tag_53:\n        /* \"#utility.yul\":1453:1516   */\n      swap3\n      pop\n        /* \"#utility.yul\":1408:1526   */\n      pop\n        /* \"#utility.yul\":1565:1567   */\n      0x40\n        /* \"#utility.yul\":1591:1644   */\n      tag_54\n        /* \"#utility.yul\":1636:1643   */\n      dup7\n        /* \"#utility.yul\":1627:1633   */\n      dup3\n        /* \"#utility.yul\":1616:1625   */\n      dup8\n        /* \"#utility.yul\":1612:1634   */\n      add\n        /* \"#utility.yul\":1591:1644   */\n      tag_32\n      jump\t// in\n    tag_54:\n        /* \"#utility.yul\":1581:1644   */\n      swap2\n      pop\n        /* \"#utility.yul\":1536:1654   */\n      pop\n        /* \"#utility.yul\":1042:1661   */\n      swap3\n      pop\n      swap3\n      pop\n      swap3\n      jump\t// out\n        /* \"#utility.yul\":1667:1847   */\n    tag_33:\n        /* \"#utility.yul\":1715:1792   */\n      0x4e487b7100000000000000000000000000000000000000000000000000000000\n        /* \"#utility.yul\":1712:1713   */\n      0x00\n        /* \"#utility.yul\":1705:1793   */\n      mstore\n        /* \"#utility.yul\":1812:1816   */\n      0x11\n        /* \"#utility.yul\":1809:1810   */\n      0x04\n        /* \"#utility.yul\":1802:1817   */\n      mstore\n        /* \"#utility.yul\":1836:1840   */\n      0x24\n        /* \"#utility.yul\":1833:1834   */\n      0x00\n        /* \"#utility.yul\":1826:1841   */\n      revert\n        /* \"#utility.yul\":1853:2263   */\n    tag_16:\n        /* \"#utility.yul\":1893:1900   */\n      0x00\n        /* \"#utility.yul\":1916:1936   */\n      tag_57\n        /* \"#utility.yul\":1934:1935   */\n      dup3\n        /* \"#utility.yul\":1916:1936   */\n      tag_26\n      jump\t// in\n    tag_57:\n        /* \"#utility.yul\":1911:1936   */\n      swap2\n      pop\n        /* \"#utility.yul\":1950:1970   */\n      tag_58\n        /* \"#utility.yul\":1968:1969   */\n      dup4\n        /* \"#utility.yul\":1950:1970   */\n      tag_26\n      jump\t// in\n    tag_58:\n        /* \"#utility.yul\":1945:1970   */\n      swap3\n      pop\n        /* \"#utility.yul\":2005:2006   */\n      dup3\n        /* \"#utility.yul\":2002:2003   */\n      dup3\n        /* \"#utility.yul\":1998:2007   */\n      mul\n        /* \"#utility.yul\":2027:2057   */\n      tag_59\n        /* \"#utility.yul\":2045:2056   */\n      dup2\n        /* \"#utility.yul\":2027:2057   */\n      tag_26\n      jump\t// in\n    tag_59:\n        /* \"#utility.yul\":2016:2057   */\n      swap2\n      pop\n        /* \"#utility.yul\":2206:2207   */\n      dup3\n        /* \"#utility.yul\":2197:2204   */\n      dup3\n        /* \"#utility.yul\":2193:2208   */\n      div\n        /* \"#utility.yul\":2190:2191   */\n      dup5\n        /* \"#utility.yul\":2187:2209   */\n      eq\n        /* \"#utility.yul\":2167:2168   */\n      dup4\n        /* \"#utility.yul\":2160:2169   */\n      iszero\n        /* \"#utility.yul\":2140:2223   */\n      or\n        /* \"#utility.yul\":2117:2256   */\n      tag_60\n      jumpi\n        /* \"#utility.yul\":2236:2254   */\n      tag_61\n      tag_33\n      jump\t// in\n    tag_61:\n        /* \"#utility.yul\":2117:2256   */\n    tag_60:\n        /* \"#utility.yul\":1901:2263   */\n      pop\n        /* \"#utility.yul\":1853:2263   */\n      swap3\n      swap2\n      pop\n      pop\n      jump\t// out\n        /* \"#utility.yul\":2269:2449   */\n    tag_34:\n        /* \"#utility.yul\":2317:2394   */\n      0x4e487b7100000000000000000000000000000000000000000000000000000000\n        /* \"#utility.yul\":2314:2315   */\n      0x00\n        /* \"#utility.yul\":2307:2395   */\n      mstore\n        /* \"#utility.yul\":2414:2418   */\n      0x12\n        /* \"#utility.yul\":2411:2412   */\n      0x04\n        /* \"#utility.yul\":2404:2419   */\n      mstore\n        /* \"#utility.yul\":2438:2442   */\n      0x24\n        /* \"#utility.yul\":2435:2436   */\n      0x00\n        /* \"#utility.yul\":2428:2443   */\n      revert\n        /* \"#utility.yul\":2455:2640   */\n    tag_18:\n        /* \"#utility.yul\":2495:2496   */\n      0x00\n        /* \"#utility.yul\":2512:2532   */\n      tag_64\n        /* \"#utility.yul\":2530:2531   */\n      dup3\n        /* \"#utility.yul\":2512:2532   */\n      tag_26\n      jump\t// in\n    tag_64:\n        /* \"#utility.yul\":2507:2532   */\n      swap2\n      pop\n        /* \"#utility.yul\":2546:2566   */\n      tag_65\n        /* \"#utility.yul\":2564:2565   */\n      dup4\n        /* \"#utility.yul\":2546:2566   */\n      tag_26\n      jump\t// in\n    tag_65:\n        /* \"#utility.yul\":2541:2566   */\n      swap3\n      pop\n        /* \"#utility.yul\":2585:2586   */\n      dup3\n        /* \"#utility.yul\":2575:2610   */\n      tag_66\n      jumpi\n        /* \"#utility.yul\":2590:2608   */\n      tag_67\n      tag_34\n      jump\t// in\n    tag_67:\n        /* \"#utility.yul\":2575:2610   */\n    tag_66:\n        /* \"#utility.yul\":2632:2633   */\n      dup3\n        /* \"#utility.yul\":2629:2630   */\n      dup3\n        /* \"#utility.yul\":2625:2634   */\n      div\n        /* \"#utility.yul\":2620:2634   */\n      swap1\n      pop\n        /* \"#utility.yul\":2455:2640   */\n      swap3\n      swap2\n      pop\n      pop\n      jump\t// out\n        /* \"#utility.yul\":2646:2837   */\n    tag_20:\n        /* \"#utility.yul\":2686:2689   */\n      0x00\n        /* \"#utility.yul\":2705:2725   */\n      tag_69\n        /* \"#utility.yul\":2723:2724   */\n      dup3\n        /* \"#utility.yul\":2705:2725   */\n      tag_26\n      jump\t// in\n    tag_69:\n        /* \"#utility.yul\":2700:2725   */\n      swap2\n      pop\n        /* \"#utility.yul\":2739:2759   */\n      tag_70\n        /* \"#utility.yul\":2757:2758   */\n      dup4\n        /* \"#utility.yul\":2739:2759   */\n      tag_26\n      jump\t// in\n    tag_70:\n        /* \"#utility.yul\":2734:2759   */\n      swap3\n      pop\n        /* \"#utility.yul\":2782:2783   */\n      dup3\n        /* \"#utility.yul\":2779:2780   */\n      dup3\n        /* \"#utility.yul\":2775:2784   */\n      add\n        /* \"#utility.yul\":2768:2784   */\n      swap1\n      pop\n        /* \"#utility.yul\":2803:2806   */\n      dup1\n        /* \"#utility.yul\":2800:2801   */\n      dup3\n        /* \"#utility.yul\":2797:2807   */\n      gt\n        /* \"#utility.yul\":2794:2830   */\n      iszero\n      tag_71\n      jumpi\n        /* \"#utility.yul\":2810:2828   */\n      tag_72\n      tag_33\n      jump\t// in\n    tag_72:\n        /* \"#utility.yul\":2794:2830   */\n    tag_71:\n        /* \"#utility.yul\":2646:2837   */\n      swap3\n      swap2\n      pop\n      pop\n      jump\t// out\n\n    auxdata: 0xa2646970667358221220849b565526fa2519d624d8de450168c9c3360cfa0b98a27d80485cf66935e65664736f6c634300081c0033\n}\n",
				"bytecode": {
					"linkReferences": {},
					"object": "6080604052348015600e575f5ffd5b506102f88061001c5f395ff3fe608060405234801561000f575f5ffd5b5060043610610034575f3560e01c80632e0f262514610038578063e088abdd14610056575b5f5ffd5b610040610086565b60405161004d919061012d565b60405180910390f35b610070600480360381019061006b9190610174565b610092565b60405161007d919061012d565b60405180910390f35b670de0b6b3a764000081565b5f5f6064670de0b6b3a7640000856100aa91906101f1565b6100b4919061025f565b670de0b6b3a76400006100c7919061028f565b90505f8590505f5f90505b8481101561010857670de0b6b3a764000083836100ef91906101f1565b6100f9919061025f565b915080806001019150506100d2565b5080925050509392505050565b5f819050919050565b61012781610115565b82525050565b5f6020820190506101405f83018461011e565b92915050565b5f5ffd5b61015381610115565b811461015d575f5ffd5b50565b5f8135905061016e8161014a565b92915050565b5f5f5f6060848603121561018b5761018a610146565b5b5f61019886828701610160565b93505060206101a986828701610160565b92505060406101ba86828701610160565b9150509250925092565b7f4e487b71000000000000000000000000000000000000000000000000000000005f52601160045260245ffd5b5f6101fb82610115565b915061020683610115565b925082820261021481610115565b9150828204841483151761022b5761022a6101c4565b5b5092915050565b7f4e487b71000000000000000000000000000000000000000000000000000000005f52601260045260245ffd5b5f61026982610115565b915061027483610115565b92508261028457610283610232565b5b828204905092915050565b5f61029982610115565b91506102a483610115565b92508282019050808211156102bc576102bb6101c4565b5b9291505056fea2646970667358221220849b565526fa2519d624d8de450168c9c3360cfa0b98a27d80485cf66935e65664736f6c634300081c0033",
					"opcodes": "PUSH1 0x80 PUSH1 0x40 MSTORE CALLVALUE DUP1 ISZERO PUSH1 0xE JUMPI PUSH0 PUSH0 REVERT JUMPDEST POP PUSH2 0x2F8 DUP1 PUSH2 0x1C PUSH0 CODECOPY PUSH0 RETURN INVALID PUSH1 0x80 PUSH1 0x40 MSTORE CALLVALUE DUP1 ISZERO PUSH2 0xF JUMPI PUSH0 PUSH0 REVERT JUMPDEST POP PUSH1 0x4 CALLDATASIZE LT PUSH2 0x34 JUMPI PUSH0 CALLDATALOAD PUSH1 0xE0 SHR DUP1 PUSH4 0x2E0F2625 EQ PUSH2 0x38 JUMPI DUP1 PUSH4 0xE088ABDD EQ PUSH2 0x56 JUMPI JUMPDEST PUSH0 PUSH0 REVERT JUMPDEST PUSH2 0x40 PUSH2 0x86 JUMP JUMPDEST PUSH1 0x40 MLOAD PUSH2 0x4D SWAP2 SWAP1 PUSH2 0x12D JUMP JUMPDEST PUSH1 0x40 MLOAD DUP1 SWAP2 SUB SWAP1 RETURN JUMPDEST PUSH2 0x70 PUSH1 0x4 DUP1 CALLDATASIZE SUB DUP2 ADD SWAP1 PUSH2 0x6B SWAP2 SWAP1 PUSH2 0x174 JUMP JUMPDEST PUSH2 0x92 JUMP JUMPDEST PUSH1 0x40 MLOAD PUSH2 0x7D SWAP2 SWAP1 PUSH2 0x12D JUMP JUMPDEST PUSH1 0x40 MLOAD DUP1 SWAP2 SUB SWAP1 RETURN JUMPDEST PUSH8 0xDE0B6B3A7640000 DUP2 JUMP JUMPDEST PUSH0 PUSH0 PUSH1 0x64 PUSH8 0xDE0B6B3A7640000 DUP6 PUSH2 0xAA SWAP2 SWAP1 PUSH2 0x1F1 JUMP JUMPDEST PUSH2 0xB4 SWAP2 SWAP1 PUSH2 0x25F JUMP JUMPDEST PUSH8 0xDE0B6B3A7640000 PUSH2 0xC7 SWAP2 SWAP1 PUSH2 0x28F JUMP JUMPDEST SWAP1 POP PUSH0 DUP6 SWAP1 POP PUSH0 PUSH0 SWAP1 POP JUMPDEST DUP5 DUP2 LT ISZERO PUSH2 0x108 JUMPI PUSH8 0xDE0B6B3A7640000 DUP4 DUP4 PUSH2 0xEF SWAP2 SWAP1 PUSH2 0x1F1 JUMP JUMPDEST PUSH2 0xF9 SWAP2 SWAP1 PUSH2 0x25F JUMP JUMPDEST SWAP2 POP DUP1 DUP1 PUSH1 0x1 ADD SWAP2 POP POP PUSH2 0xD2 JUMP JUMPDEST POP DUP1 SWAP3 POP POP POP SWAP4 SWAP3 POP POP POP JUMP JUMPDEST PUSH0 DUP2 SWAP1 POP SWAP2 SWAP1 POP JUMP JUMPDEST PUSH2 0x127 DUP2 PUSH2 0x115 JUMP JUMPDEST DUP3 MSTORE POP POP JUMP JUMPDEST PUSH0 PUSH1 0x20 DUP3 ADD SWAP1 POP PUSH2 0x140 PUSH0 DUP4 ADD DUP5 PUSH2 0x11E JUMP JUMPDEST SWAP3 SWAP2 POP POP JUMP JUMPDEST PUSH0 PUSH0 REVERT JUMPDEST PUSH2 0x153 DUP2 PUSH2 0x115 JUMP JUMPDEST DUP2 EQ PUSH2 0x15D JUMPI PUSH0 PUSH0 REVERT JUMPDEST POP JUMP JUMPDEST PUSH0 DUP2 CALLDATALOAD SWAP1 POP PUSH2 0x16E DUP2 PUSH2 0x14A JUMP JUMPDEST SWAP3 SWAP2 POP POP JUMP JUMPDEST PUSH0 PUSH0 PUSH0 PUSH1 0x60 DUP5 DUP7 SUB SLT ISZERO PUSH2 0x18B JUMPI PUSH2 0x18A PUSH2 0x146 JUMP JUMPDEST JUMPDEST PUSH0 PUSH2 0x198 DUP7 DUP3 DUP8 ADD PUSH2 0x160 JUMP JUMPDEST SWAP4 POP POP PUSH1 0x20 PUSH2 0x1A9 DUP7 DUP3 DUP8 ADD PUSH2 0x160 JUMP JUMPDEST SWAP3 POP POP PUSH1 0x40 PUSH2 0x1BA DUP7 DUP3 DUP8 ADD PUSH2 0x160 JUMP JUMPDEST SWAP2 POP POP SWAP3 POP SWAP3 POP SWAP3 JUMP JUMPDEST PUSH32 0x4E487B7100000000000000000000000000000000000000000000000000000000 PUSH0 MSTORE PUSH1 0x11 PUSH1 0x4 MSTORE PUSH1 0x24 PUSH0 REVERT JUMPDEST PUSH0 PUSH2 0x1FB DUP3 PUSH2 0x115 JUMP JUMPDEST SWAP2 POP PUSH2 0x206 DUP4 PUSH2 0x115 JUMP JUMPDEST SWAP3 POP DUP3 DUP3 MUL PUSH2 0x214 DUP2 PUSH2 0x115 JUMP JUMPDEST SWAP2 POP DUP3 DUP3 DIV DUP5 EQ DUP4 ISZERO OR PUSH2 0x22B JUMPI PUSH2 0x22A PUSH2 0x1C4 JUMP JUMPDEST JUMPDEST POP SWAP3 SWAP2 POP POP JUMP JUMPDEST PUSH32 0x4E487B7100000000000000000000000000000000000000000000000000000000 PUSH0 MSTORE PUSH1 0x12 PUSH1 0x4 MSTORE PUSH1 0x24 PUSH0 REVERT JUMPDEST PUSH0 PUSH2 0x269 DUP3 PUSH2 0x115 JUMP JUMPDEST SWAP2 POP PUSH2 0x274 DUP4 PUSH2 0x115 JUMP JUMPDEST SWAP3 POP DUP3 PUSH2 0x284 JUMPI PUSH2 0x283 PUSH2 0x232 JUMP JUMPDEST JUMPDEST DUP3 DUP3 DIV SWAP1 POP SWAP3 SWAP2 POP POP JUMP JUMPDEST PUSH0 PUSH2 0x299 DUP3 PUSH2 0x115 JUMP JUMPDEST SWAP2 POP PUSH2 0x2A4 DUP4 PUSH2 0x115 JUMP JUMPDEST SWAP3 POP DUP3 DUP3 ADD SWAP1 POP DUP1 DUP3 GT ISZERO PUSH2 0x2BC JUMPI PUSH2 0x2BB PUSH2 0x1C4 JUMP JUMPDEST JUMPDEST SWAP3 SWAP2 POP POP JUMP INVALID LOG2 PUSH5 0x6970667358 0x22 SLT KECCAK256 DUP5 SWAP12 JUMP SSTORE 0x26 STATICCALL 0x25 NOT 0xD6 0x24 0xD8 0xDE GASLIMIT ADD PUSH9 0xC9C3360CFA0B98A27D DUP1 BASEFEE TLOAD 0xF6 PUSH10 0x35E65664736F6C634300 ADDMOD SHR STOP CALLER "
				},
				"gasEstimates": {
					"creation": {
						"codeDepositCost": "152000",
						"executionCost": "194",
						"totalCost": "152194"
					},
					"external": {
						"DECIMALS()": "303",
						"calculateCompoundInterest(uint256,uint256,uint256)": "infinite"
					}
				},
				"methodIdentifiers": {
					"DECIMALS()": "2e0f2625",
					"calculateCompoundInterest(uint256,uint256,uint256)": "e088abdd"
				}
			},
			"storageLayout": {
				"storage": [],
				"types": null
			},
			"userdoc": {
				"kind": "user",
				"methods": {},
				"version": 1
			}
		}
	}
}