{
	"BlockchainFundamentals/solidity101/fundMe/fundMe.sol": {
		"FundMe": {
			"abi": [
				{
					"inputs": [],
					"stateMutability": "nonpayable",
					"type": "constructor"
				},
				{
					"inputs": [],
					"name": "MINIMUM_USD",
					"outputs": [
						{
							"internalType": "uint256",
							"name": "",
							"type": "uint256"
						}
					],
					"stateMutability": "view",
					"type": "function"
				},
				{
					"inputs": [
						{
							"internalType": "address",
							"name": "funder",
							"type": "address"
						}
					],
					"name": "addressToAmountFunded",
					"outputs": [
						{
							"internalType": "uint256",
							"name": "amountFunded",
							"type": "uint256"
						}
					],
					"stateMutability": "view",
					"type": "function"
				},
				{
					"inputs": [],
					"name": "fund",
					"outputs": [],
					"stateMutability": "payable",
					"type": "function"
				},
				{
					"inputs": [
						{
							"internalType": "uint256",
							"name": "",
							"type": "uint256"
						}
					],
					"name": "funders",
					"outputs": [
						{
							"internalType": "address",
							"name": "",
							"type": "address"
						}
					],
					"stateMutability": "view",
					"type": "function"
				},
				{
					"inputs": [],
					"name": "owner",
					"outputs": [
						{
							"internalType": "address",
							"name": "",
							"type": "address"
						}
					],
					"stateMutability": "view",
					"type": "function"
				},
				{
					"inputs": [],
					"name": "withdraw",
					"outputs": [],
					"stateMutability": "nonpayable",
					"type": "function"
				}
			],
			"devdoc": {
				"kind": "dev",
				"methods": {},
				"version": 1
			},
			"evm": {
				"assembly": "    /* \"BlockchainFundamentals/solidity101/fundMe/fundMe.sol\":229:1310  contract FundMe {... */\n  mstore(0x40, 0x80)\n    /* \"BlockchainFundamentals/solidity101/fundMe/fundMe.sol\":487:538  constructor (){... */\n  callvalue\n  dup1\n  iszero\n  tag_1\n  jumpi\n  0x00\n  dup1\n  revert\ntag_1:\n  pop\n    /* \"BlockchainFundamentals/solidity101/fundMe/fundMe.sol\":520:530  msg.sender */\n  caller\n    /* \"BlockchainFundamentals/solidity101/fundMe/fundMe.sol\":512:517  owner */\n  0x02\n  0x00\n    /* \"BlockchainFundamentals/solidity101/fundMe/fundMe.sol\":512:530  owner = msg.sender */\n  0x0100\n  exp\n  dup2\n  sload\n  dup2\n  0xffffffffffffffffffffffffffffffffffffffff\n  mul\n  not\n  and\n  swap1\n  dup4\n  0xffffffffffffffffffffffffffffffffffffffff\n  and\n  mul\n  or\n  swap1\n  sstore\n  pop\n    /* \"BlockchainFundamentals/solidity101/fundMe/fundMe.sol\":229:1310  contract FundMe {... */\n  dataSize(sub_0)\n  dup1\n  dataOffset(sub_0)\n  0x00\n  codecopy\n  0x00\n  return\nstop\n\nsub_0: assembly {\n        /* \"BlockchainFundamentals/solidity101/fundMe/fundMe.sol\":229:1310  contract FundMe {... */\n      mstore(0x40, 0x80)\n      jumpi(tag_1, lt(calldatasize, 0x04))\n      shr(0xe0, calldataload(0x00))\n      dup1\n      0x3ccfd60b\n      eq\n      tag_2\n      jumpi\n      dup1\n      0x3e47d6f3\n      eq\n      tag_3\n      jumpi\n      dup1\n      0x6b69a592\n      eq\n      tag_4\n      jumpi\n      dup1\n      0x8da5cb5b\n      eq\n      tag_5\n      jumpi\n      dup1\n      0xb60d4288\n      eq\n      tag_6\n      jumpi\n      dup1\n      0xdc0d3dff\n      eq\n      tag_7\n      jumpi\n    tag_1:\n      0x00\n      dup1\n      revert\n        /* \"BlockchainFundamentals/solidity101/fundMe/fundMe.sol\":797:1217  function withdraw () public onlyOwner{... */\n    tag_2:\n      callvalue\n      dup1\n      iszero\n      tag_8\n      jumpi\n      0x00\n      dup1\n      revert\n    tag_8:\n      pop\n      tag_9\n      tag_10\n      jump\t// in\n    tag_9:\n      stop\n        /* \"BlockchainFundamentals/solidity101/fundMe/fundMe.sol\":376:453  mapping (address funder => uint256 amountFunded) public addressToAmountFunded */\n    tag_3:\n      callvalue\n      dup1\n      iszero\n      tag_11\n      jumpi\n      0x00\n      dup1\n      revert\n    tag_11:\n      pop\n      tag_12\n      0x04\n      dup1\n      calldatasize\n      sub\n      dup2\n      add\n      swap1\n      tag_13\n      swap2\n      swap1\n      tag_14\n      jump\t// in\n    tag_13:\n      tag_15\n      jump\t// in\n    tag_12:\n      mload(0x40)\n      tag_16\n      swap2\n      swap1\n      tag_17\n      jump\t// in\n    tag_16:\n      mload(0x40)\n      dup1\n      swap2\n      sub\n      swap1\n      return\n        /* \"BlockchainFundamentals/solidity101/fundMe/fundMe.sol\":293:335  uint256 public constant MINIMUM_USD = 5e18 */\n    tag_4:\n      callvalue\n      dup1\n      iszero\n      tag_18\n      jumpi\n      0x00\n      dup1\n      revert\n    tag_18:\n      pop\n      tag_19\n      tag_20\n      jump\t// in\n    tag_19:\n      mload(0x40)\n      tag_21\n      swap2\n      swap1\n      tag_17\n      jump\t// in\n    tag_21:\n      mload(0x40)\n      dup1\n      swap2\n      sub\n      swap1\n      return\n        /* \"BlockchainFundamentals/solidity101/fundMe/fundMe.sol\":460:480  address public owner */\n    tag_5:\n      callvalue\n      dup1\n      iszero\n      tag_22\n      jumpi\n      0x00\n      dup1\n      revert\n    tag_22:\n      pop\n      tag_23\n      tag_24\n      jump\t// in\n    tag_23:\n      mload(0x40)\n      tag_25\n      swap2\n      swap1\n      tag_26\n      jump\t// in\n    tag_25:\n      mload(0x40)\n      dup1\n      swap2\n      sub\n      swap1\n      return\n        /* \"BlockchainFundamentals/solidity101/fundMe/fundMe.sol\":546:791  function fund() public payable {... */\n    tag_6:\n      tag_27\n      tag_28\n      jump\t// in\n    tag_27:\n      stop\n        /* \"BlockchainFundamentals/solidity101/fundMe/fundMe.sol\":345:369  address[] public funders */\n    tag_7:\n      callvalue\n      dup1\n      iszero\n      tag_29\n      jumpi\n      0x00\n      dup1\n      revert\n    tag_29:\n      pop\n      tag_30\n      0x04\n      dup1\n      calldatasize\n      sub\n      dup2\n      add\n      swap1\n      tag_31\n      swap2\n      swap1\n      tag_32\n      jump\t// in\n    tag_31:\n      tag_33\n      jump\t// in\n    tag_30:\n      mload(0x40)\n      tag_34\n      swap2\n      swap1\n      tag_26\n      jump\t// in\n    tag_34:\n      mload(0x40)\n      dup1\n      swap2\n      sub\n      swap1\n      return\n        /* \"BlockchainFundamentals/solidity101/fundMe/fundMe.sol\":797:1217  function withdraw () public onlyOwner{... */\n    tag_10:\n        /* \"BlockchainFundamentals/solidity101/fundMe/fundMe.sol\":1270:1280  msg.sender */\n      caller\n        /* \"BlockchainFundamentals/solidity101/fundMe/fundMe.sol\":1261:1280  owner == msg.sender */\n      0xffffffffffffffffffffffffffffffffffffffff\n      and\n        /* \"BlockchainFundamentals/solidity101/fundMe/fundMe.sol\":1261:1266  owner */\n      0x02\n      0x00\n      swap1\n      sload\n      swap1\n      0x0100\n      exp\n      swap1\n      div\n      0xffffffffffffffffffffffffffffffffffffffff\n      and\n        /* \"BlockchainFundamentals/solidity101/fundMe/fundMe.sol\":1261:1280  owner == msg.sender */\n      0xffffffffffffffffffffffffffffffffffffffff\n      and\n      eq\n        /* \"BlockchainFundamentals/solidity101/fundMe/fundMe.sol\":1253:1281  require(owner == msg.sender) */\n      tag_36\n      jumpi\n      0x00\n      dup1\n      revert\n    tag_36:\n        /* \"BlockchainFundamentals/solidity101/fundMe/fundMe.sol\":849:868  uint256 funderIndex */\n      0x00\n        /* \"BlockchainFundamentals/solidity101/fundMe/fundMe.sol\":845:1210  for(uint256 funderIndex = 0; funderIndex < funders.length; funderIndex++){... */\n    tag_38:\n        /* \"BlockchainFundamentals/solidity101/fundMe/fundMe.sol\":888:895  funders */\n      0x00\n        /* \"BlockchainFundamentals/solidity101/fundMe/fundMe.sol\":888:902  funders.length */\n      dup1\n      sload\n      swap1\n      pop\n        /* \"BlockchainFundamentals/solidity101/fundMe/fundMe.sol\":874:885  funderIndex */\n      dup2\n        /* \"BlockchainFundamentals/solidity101/fundMe/fundMe.sol\":874:902  funderIndex < funders.length */\n      lt\n        /* \"BlockchainFundamentals/solidity101/fundMe/fundMe.sol\":845:1210  for(uint256 funderIndex = 0; funderIndex < funders.length; funderIndex++){... */\n      iszero\n      tag_39\n      jumpi\n        /* \"BlockchainFundamentals/solidity101/fundMe/fundMe.sol\":933:947  address funder */\n      0x00\n        /* \"BlockchainFundamentals/solidity101/fundMe/fundMe.sol\":950:957  funders */\n      dup1\n        /* \"BlockchainFundamentals/solidity101/fundMe/fundMe.sol\":958:969  funderIndex */\n      dup3\n        /* \"BlockchainFundamentals/solidity101/fundMe/fundMe.sol\":950:970  funders[funderIndex] */\n      dup2\n      sload\n      dup2\n      lt\n      tag_41\n      jumpi\n      tag_42\n      tag_43\n      jump\t// in\n    tag_42:\n    tag_41:\n      swap1\n      0x00\n      mstore\n      keccak256(0x00, 0x20)\n      add\n      0x00\n      swap1\n      sload\n      swap1\n      0x0100\n      exp\n      swap1\n      div\n      0xffffffffffffffffffffffffffffffffffffffff\n      and\n        /* \"BlockchainFundamentals/solidity101/fundMe/fundMe.sol\":933:970  address funder = funders[funderIndex] */\n      swap1\n      pop\n        /* \"BlockchainFundamentals/solidity101/fundMe/fundMe.sol\":1017:1018  0 */\n      0x00\n        /* \"BlockchainFundamentals/solidity101/fundMe/fundMe.sol\":985:1006  addressToAmountFunded */\n      0x01\n        /* \"BlockchainFundamentals/solidity101/fundMe/fundMe.sol\":985:1014  addressToAmountFunded[funder] */\n      0x00\n        /* \"BlockchainFundamentals/solidity101/fundMe/fundMe.sol\":1007:1013  funder */\n      dup4\n        /* \"BlockchainFundamentals/solidity101/fundMe/fundMe.sol\":985:1014  addressToAmountFunded[funder] */\n      0xffffffffffffffffffffffffffffffffffffffff\n      and\n      0xffffffffffffffffffffffffffffffffffffffff\n      and\n      dup2\n      mstore\n      0x20\n      add\n      swap1\n      dup2\n      mstore\n      0x20\n      add\n      0x00\n      keccak256\n        /* \"BlockchainFundamentals/solidity101/fundMe/fundMe.sol\":985:1018  addressToAmountFunded[funder] = 0 */\n      dup2\n      swap1\n      sstore\n      pop\n        /* \"BlockchainFundamentals/solidity101/fundMe/fundMe.sol\":1058:1059  0 */\n      0x00\n        /* \"BlockchainFundamentals/solidity101/fundMe/fundMe.sol\":1044:1060  new address[](0) */\n      0xffffffffffffffff\n      dup2\n      gt\n      iszero\n      tag_45\n      jumpi\n      tag_46\n      tag_47\n      jump\t// in\n    tag_46:\n    tag_45:\n      mload(0x40)\n      swap1\n      dup1\n      dup3\n      mstore\n      dup1\n      0x20\n      mul\n      0x20\n      add\n      dup3\n      add\n      0x40\n      mstore\n      dup1\n      iszero\n      tag_48\n      jumpi\n      dup2\n      0x20\n      add\n      0x20\n      dup3\n      mul\n      dup1\n      calldatasize\n      dup4\n      calldatacopy\n      dup1\n      dup3\n      add\n      swap2\n      pop\n      pop\n      swap1\n      pop\n    tag_48:\n      pop\n        /* \"BlockchainFundamentals/solidity101/fundMe/fundMe.sol\":1034:1041  funders */\n      0x00\n        /* \"BlockchainFundamentals/solidity101/fundMe/fundMe.sol\":1034:1060  funders = new address[](0) */\n      swap1\n      dup1\n      mload\n      swap1\n      0x20\n      add\n      swap1\n      tag_49\n      swap3\n      swap2\n      swap1\n      tag_50\n      jump\t// in\n    tag_49:\n      pop\n        /* \"BlockchainFundamentals/solidity101/fundMe/fundMe.sol\":1076:1088  bool success */\n      0x00\n        /* \"BlockchainFundamentals/solidity101/fundMe/fundMe.sol\":1102:1112  msg.sender */\n      caller\n        /* \"BlockchainFundamentals/solidity101/fundMe/fundMe.sol\":1094:1118  payable(msg.sender).call */\n      0xffffffffffffffffffffffffffffffffffffffff\n      and\n        /* \"BlockchainFundamentals/solidity101/fundMe/fundMe.sol\":1126:1147  address(this).balance */\n      selfbalance\n        /* \"BlockchainFundamentals/solidity101/fundMe/fundMe.sol\":1094:1152  payable(msg.sender).call{value: address(this).balance}(\"\") */\n      mload(0x40)\n      tag_51\n      swap1\n      tag_52\n      jump\t// in\n    tag_51:\n      0x00\n      mload(0x40)\n      dup1\n      dup4\n      sub\n      dup2\n      dup6\n      dup8\n      gas\n      call\n      swap3\n      pop\n      pop\n      pop\n      returndatasize\n      dup1\n      0x00\n      dup2\n      eq\n      tag_55\n      jumpi\n      mload(0x40)\n      swap2\n      pop\n      and(add(returndatasize, 0x3f), not(0x1f))\n      dup3\n      add\n      0x40\n      mstore\n      returndatasize\n      dup3\n      mstore\n      returndatasize\n      0x00\n      0x20\n      dup5\n      add\n      returndatacopy\n      jump(tag_54)\n    tag_55:\n      0x60\n      swap2\n      pop\n    tag_54:\n      pop\n        /* \"BlockchainFundamentals/solidity101/fundMe/fundMe.sol\":1075:1152  (bool success, ) = payable(msg.sender).call{value: address(this).balance}(\"\") */\n      pop\n      swap1\n      pop\n        /* \"BlockchainFundamentals/solidity101/fundMe/fundMe.sol\":1175:1182  success */\n      dup1\n        /* \"BlockchainFundamentals/solidity101/fundMe/fundMe.sol\":1167:1198  require(success, \"Call failed\") */\n      tag_56\n      jumpi\n      mload(0x40)\n      0x08c379a000000000000000000000000000000000000000000000000000000000\n      dup2\n      mstore\n      0x04\n      add\n      tag_57\n      swap1\n      tag_58\n      jump\t// in\n    tag_57:\n      mload(0x40)\n      dup1\n      swap2\n      sub\n      swap1\n      revert\n    tag_56:\n        /* \"BlockchainFundamentals/solidity101/fundMe/fundMe.sol\":918:1210  {... */\n      pop\n      pop\n        /* \"BlockchainFundamentals/solidity101/fundMe/fundMe.sol\":904:917  funderIndex++ */\n      dup1\n      dup1\n      0x01\n      add\n      swap2\n      pop\n      pop\n        /* \"BlockchainFundamentals/solidity101/fundMe/fundMe.sol\":845:1210  for(uint256 funderIndex = 0; funderIndex < funders.length; funderIndex++){... */\n      jump(tag_38)\n    tag_39:\n      pop\n        /* \"BlockchainFundamentals/solidity101/fundMe/fundMe.sol\":797:1217  function withdraw () public onlyOwner{... */\n      jump\t// out\n        /* \"BlockchainFundamentals/solidity101/fundMe/fundMe.sol\":376:453  mapping (address funder => uint256 amountFunded) public addressToAmountFunded */\n    tag_15:\n      mstore(0x20, 0x01)\n      dup1\n      0x00\n      mstore\n      keccak256(0x00, 0x40)\n      0x00\n      swap2\n      pop\n      swap1\n      pop\n      sload\n      dup2\n      jump\t// out\n        /* \"BlockchainFundamentals/solidity101/fundMe/fundMe.sol\":293:335  uint256 public constant MINIMUM_USD = 5e18 */\n    tag_20:\n        /* \"BlockchainFundamentals/solidity101/fundMe/fundMe.sol\":331:335  5e18 */\n      0x4563918244f40000\n        /* \"BlockchainFundamentals/solidity101/fundMe/fundMe.sol\":293:335  uint256 public constant MINIMUM_USD = 5e18 */\n      dup2\n      jump\t// out\n        /* \"BlockchainFundamentals/solidity101/fundMe/fundMe.sol\":460:480  address public owner */\n    tag_24:\n      0x02\n      0x00\n      swap1\n      sload\n      swap1\n      0x0100\n      exp\n      swap1\n      div\n      0xffffffffffffffffffffffffffffffffffffffff\n      and\n      dup2\n      jump\t// out\n        /* \"BlockchainFundamentals/solidity101/fundMe/fundMe.sol\":546:791  function fund() public payable {... */\n    tag_28:\n        /* \"BlockchainFundamentals/solidity101/fundMe/fundMe.sol\":331:335  5e18 */\n      0x4563918244f40000\n        /* \"BlockchainFundamentals/solidity101/fundMe/fundMe.sol\":605:636  msg.value.getConversationRate() */\n      tag_60\n        /* \"BlockchainFundamentals/solidity101/fundMe/fundMe.sol\":605:614  msg.value */\n      callvalue\n        /* \"BlockchainFundamentals/solidity101/fundMe/fundMe.sol\":605:634  msg.value.getConversationRate */\n      tag_61\n        /* \"BlockchainFundamentals/solidity101/fundMe/fundMe.sol\":605:636  msg.value.getConversationRate() */\n      jump\t// in\n    tag_60:\n        /* \"BlockchainFundamentals/solidity101/fundMe/fundMe.sol\":605:650  msg.value.getConversationRate() > MINIMUM_USD */\n      gt\n        /* \"BlockchainFundamentals/solidity101/fundMe/fundMe.sol\":597:689  require(msg.value.getConversationRate() > MINIMUM_USD,\"You must send more than the minimum\") */\n      tag_62\n      jumpi\n      mload(0x40)\n      0x08c379a000000000000000000000000000000000000000000000000000000000\n      dup2\n      mstore\n      0x04\n      add\n      tag_63\n      swap1\n      tag_64\n      jump\t// in\n    tag_63:\n      mload(0x40)\n      dup1\n      swap2\n      sub\n      swap1\n      revert\n    tag_62:\n        /* \"BlockchainFundamentals/solidity101/fundMe/fundMe.sol\":700:707  funders */\n      0x00\n        /* \"BlockchainFundamentals/solidity101/fundMe/fundMe.sol\":713:723  msg.sender */\n      caller\n        /* \"BlockchainFundamentals/solidity101/fundMe/fundMe.sol\":700:724  funders.push(msg.sender) */\n      swap1\n      dup1\n      0x01\n      dup2\n      sload\n      add\n      dup1\n      dup3\n      sstore\n      dup1\n      swap2\n      pop\n      pop\n      0x01\n      swap1\n      sub\n      swap1\n      0x00\n      mstore\n      keccak256(0x00, 0x20)\n      add\n      0x00\n      swap1\n      swap2\n      swap1\n      swap2\n      swap1\n      swap2\n      0x0100\n      exp\n      dup2\n      sload\n      dup2\n      0xffffffffffffffffffffffffffffffffffffffff\n      mul\n      not\n      and\n      swap1\n      dup4\n      0xffffffffffffffffffffffffffffffffffffffff\n      and\n      mul\n      or\n      swap1\n      sstore\n      pop\n        /* \"BlockchainFundamentals/solidity101/fundMe/fundMe.sol\":772:781  msg.value */\n      callvalue\n        /* \"BlockchainFundamentals/solidity101/fundMe/fundMe.sol\":735:756  addressToAmountFunded */\n      0x01\n        /* \"BlockchainFundamentals/solidity101/fundMe/fundMe.sol\":735:768  addressToAmountFunded[msg.sender] */\n      0x00\n        /* \"BlockchainFundamentals/solidity101/fundMe/fundMe.sol\":757:767  msg.sender */\n      caller\n        /* \"BlockchainFundamentals/solidity101/fundMe/fundMe.sol\":735:768  addressToAmountFunded[msg.sender] */\n      0xffffffffffffffffffffffffffffffffffffffff\n      and\n      0xffffffffffffffffffffffffffffffffffffffff\n      and\n      dup2\n      mstore\n      0x20\n      add\n      swap1\n      dup2\n      mstore\n      0x20\n      add\n      0x00\n      keccak256\n      0x00\n        /* \"BlockchainFundamentals/solidity101/fundMe/fundMe.sol\":735:781  addressToAmountFunded[msg.sender] += msg.value */\n      dup3\n      dup3\n      sload\n      tag_66\n      swap2\n      swap1\n      tag_67\n      jump\t// in\n    tag_66:\n      swap3\n      pop\n      pop\n      dup2\n      swap1\n      sstore\n      pop\n        /* \"BlockchainFundamentals/solidity101/fundMe/fundMe.sol\":546:791  function fund() public payable {... */\n      jump\t// out\n        /* \"BlockchainFundamentals/solidity101/fundMe/fundMe.sol\":345:369  address[] public funders */\n    tag_33:\n      0x00\n      dup2\n      dup2\n      sload\n      dup2\n      lt\n      tag_68\n      jumpi\n      0x00\n      dup1\n      revert\n    tag_68:\n      swap1\n      0x00\n      mstore\n      keccak256(0x00, 0x20)\n      add\n      0x00\n      swap2\n      pop\n      sload\n      swap1\n      0x0100\n      exp\n      swap1\n      div\n      0xffffffffffffffffffffffffffffffffffffffff\n      and\n      dup2\n      jump\t// out\n        /* \"BlockchainFundamentals/solidity101/fundMe/priceConverter.sol\":481:706  function getConversationRate (uint256 ethAmount) internal view returns(uint256) {... */\n    tag_61:\n        /* \"BlockchainFundamentals/solidity101/fundMe/priceConverter.sol\":552:559  uint256 */\n      0x00\n        /* \"BlockchainFundamentals/solidity101/fundMe/priceConverter.sol\":572:588  uint256 ethPrice */\n      dup1\n        /* \"BlockchainFundamentals/solidity101/fundMe/priceConverter.sol\":591:601  getPrice() */\n      tag_71\n        /* \"BlockchainFundamentals/solidity101/fundMe/priceConverter.sol\":591:599  getPrice */\n      tag_72\n        /* \"BlockchainFundamentals/solidity101/fundMe/priceConverter.sol\":591:601  getPrice() */\n      jump\t// in\n    tag_71:\n        /* \"BlockchainFundamentals/solidity101/fundMe/priceConverter.sol\":572:601  uint256 ethPrice = getPrice() */\n      swap1\n      pop\n        /* \"BlockchainFundamentals/solidity101/fundMe/priceConverter.sol\":612:634  uint256 ethAmountInUSD */\n      0x00\n        /* \"BlockchainFundamentals/solidity101/fundMe/priceConverter.sol\":662:666  1e18 */\n      0x0de0b6b3a7640000\n        /* \"BlockchainFundamentals/solidity101/fundMe/priceConverter.sol\":649:658  ethAmount */\n      dup5\n        /* \"BlockchainFundamentals/solidity101/fundMe/priceConverter.sol\":638:646  ethPrice */\n      dup4\n        /* \"BlockchainFundamentals/solidity101/fundMe/priceConverter.sol\":638:658  ethPrice * ethAmount */\n      tag_73\n      swap2\n      swap1\n      tag_74\n      jump\t// in\n    tag_73:\n        /* \"BlockchainFundamentals/solidity101/fundMe/priceConverter.sol\":637:666  (ethPrice * ethAmount) / 1e18 */\n      tag_75\n      swap2\n      swap1\n      tag_76\n      jump\t// in\n    tag_75:\n        /* \"BlockchainFundamentals/solidity101/fundMe/priceConverter.sol\":612:666  uint256 ethAmountInUSD = (ethPrice * ethAmount) / 1e18 */\n      swap1\n      pop\n        /* \"BlockchainFundamentals/solidity101/fundMe/priceConverter.sol\":684:698  ethAmountInUSD */\n      dup1\n        /* \"BlockchainFundamentals/solidity101/fundMe/priceConverter.sol\":677:698  return ethAmountInUSD */\n      swap3\n      pop\n      pop\n      pop\n        /* \"BlockchainFundamentals/solidity101/fundMe/priceConverter.sol\":481:706  function getConversationRate (uint256 ethAmount) internal view returns(uint256) {... */\n      swap2\n      swap1\n      pop\n      jump\t// out\n        /* \"BlockchainFundamentals/solidity101/fundMe/priceConverter.sol\":205:473  function getPrice () internal view returns (uint256) {... */\n    tag_72:\n        /* \"BlockchainFundamentals/solidity101/fundMe/priceConverter.sol\":249:256  uint256 */\n      0x00\n        /* \"BlockchainFundamentals/solidity101/fundMe/priceConverter.sol\":268:299  AggregatorV3Interface priceFeed */\n      dup1\n        /* \"BlockchainFundamentals/solidity101/fundMe/priceConverter.sol\":324:366  0x694AA1769357215DE4FAC081bf1f309aDC325306 */\n      0x694aa1769357215de4fac081bf1f309adc325306\n        /* \"BlockchainFundamentals/solidity101/fundMe/priceConverter.sol\":268:367  AggregatorV3Interface priceFeed = AggregatorV3Interface(0x694AA1769357215DE4FAC081bf1f309aDC325306) */\n      swap1\n      pop\n        /* \"BlockchainFundamentals/solidity101/fundMe/priceConverter.sol\":380:392  int256 price */\n      0x00\n        /* \"BlockchainFundamentals/solidity101/fundMe/priceConverter.sol\":399:408  priceFeed */\n      dup2\n        /* \"BlockchainFundamentals/solidity101/fundMe/priceConverter.sol\":399:424  priceFeed.latestRoundData */\n      0xffffffffffffffffffffffffffffffffffffffff\n      and\n      0xfeaf968c\n        /* \"BlockchainFundamentals/solidity101/fundMe/priceConverter.sol\":399:426  priceFeed.latestRoundData() */\n      mload(0x40)\n      dup2\n      0xffffffff\n      and\n      0xe0\n      shl\n      dup2\n      mstore\n      0x04\n      add\n      0xa0\n      mload(0x40)\n      dup1\n      dup4\n      sub\n      dup2\n      dup7\n      gas\n      staticcall\n      iszero\n      dup1\n      iszero\n      tag_79\n      jumpi\n      returndatasize\n      0x00\n      dup1\n      returndatacopy\n      revert(0x00, returndatasize)\n    tag_79:\n      pop\n      pop\n      pop\n      pop\n      mload(0x40)\n      returndatasize\n      not(0x1f)\n      0x1f\n      dup3\n      add\n      and\n      dup3\n      add\n      dup1\n      0x40\n      mstore\n      pop\n      dup2\n      add\n      swap1\n      tag_80\n      swap2\n      swap1\n      tag_81\n      jump\t// in\n    tag_80:\n        /* \"BlockchainFundamentals/solidity101/fundMe/priceConverter.sol\":378:426  (,int256 price,,,) = priceFeed.latestRoundData() */\n      pop\n      pop\n      pop\n      swap2\n      pop\n      pop\n        /* \"BlockchainFundamentals/solidity101/fundMe/priceConverter.sol\":460:464  1e10 */\n      0x02540be400\n        /* \"BlockchainFundamentals/solidity101/fundMe/priceConverter.sol\":452:457  price */\n      dup2\n        /* \"BlockchainFundamentals/solidity101/fundMe/priceConverter.sol\":452:464  price * 1e10 */\n      tag_82\n      swap2\n      swap1\n      tag_83\n      jump\t// in\n    tag_82:\n        /* \"BlockchainFundamentals/solidity101/fundMe/priceConverter.sol\":437:465  return uint256(price * 1e10) */\n      swap3\n      pop\n      pop\n      pop\n        /* \"BlockchainFundamentals/solidity101/fundMe/priceConverter.sol\":205:473  function getPrice () internal view returns (uint256) {... */\n      swap1\n      jump\t// out\n    tag_50:\n      dup3\n      dup1\n      sload\n      dup3\n      dup3\n      sstore\n      swap1\n      0x00\n      mstore\n      keccak256(0x00, 0x20)\n      swap1\n      dup2\n      add\n      swap3\n      dup3\n      iszero\n      tag_84\n      jumpi\n      swap2\n      0x20\n      mul\n      dup3\n      add\n    tag_85:\n      dup3\n      dup2\n      gt\n      iszero\n      tag_86\n      jumpi\n      dup3\n      mload\n      dup3\n      exp(0x0100, 0x00)\n      dup2\n      sload\n      dup2\n      0xffffffffffffffffffffffffffffffffffffffff\n      mul\n      not\n      and\n      swap1\n      dup4\n      0xffffffffffffffffffffffffffffffffffffffff\n      and\n      mul\n      or\n      swap1\n      sstore\n      pop\n      swap2\n      0x20\n      add\n      swap2\n      swap1\n      0x01\n      add\n      swap1\n      jump(tag_85)\n    tag_86:\n    tag_84:\n      pop\n      swap1\n      pop\n      tag_87\n      swap2\n      swap1\n      tag_88\n      jump\t// in\n    tag_87:\n      pop\n      swap1\n      jump\t// out\n    tag_88:\n    tag_89:\n      dup1\n      dup3\n      gt\n      iszero\n      tag_90\n      jumpi\n      0x00\n      dup2\n      0x00\n      swap1\n      sstore\n      pop\n      0x01\n      add\n      jump(tag_89)\n    tag_90:\n      pop\n      swap1\n      jump\t// out\n        /* \"#utility.yul\":88:205   */\n    tag_92:\n        /* \"#utility.yul\":197:198   */\n      0x00\n        /* \"#utility.yul\":194:195   */\n      dup1\n        /* \"#utility.yul\":187:199   */\n      revert\n        /* \"#utility.yul\":334:460   */\n    tag_94:\n        /* \"#utility.yul\":371:378   */\n      0x00\n        /* \"#utility.yul\":411:453   */\n      0xffffffffffffffffffffffffffffffffffffffff\n        /* \"#utility.yul\":404:409   */\n      dup3\n        /* \"#utility.yul\":400:454   */\n      and\n        /* \"#utility.yul\":389:454   */\n      swap1\n      pop\n        /* \"#utility.yul\":334:460   */\n      swap2\n      swap1\n      pop\n      jump\t// out\n        /* \"#utility.yul\":466:562   */\n    tag_95:\n        /* \"#utility.yul\":503:510   */\n      0x00\n        /* \"#utility.yul\":532:556   */\n      tag_126\n        /* \"#utility.yul\":550:555   */\n      dup3\n        /* \"#utility.yul\":532:556   */\n      tag_94\n      jump\t// in\n    tag_126:\n        /* \"#utility.yul\":521:556   */\n      swap1\n      pop\n        /* \"#utility.yul\":466:562   */\n      swap2\n      swap1\n      pop\n      jump\t// out\n        /* \"#utility.yul\":568:690   */\n    tag_96:\n        /* \"#utility.yul\":641:665   */\n      tag_128\n        /* \"#utility.yul\":659:664   */\n      dup2\n        /* \"#utility.yul\":641:665   */\n      tag_95\n      jump\t// in\n    tag_128:\n        /* \"#utility.yul\":634:639   */\n      dup2\n        /* \"#utility.yul\":631:666   */\n      eq\n        /* \"#utility.yul\":621:684   */\n      tag_129\n      jumpi\n        /* \"#utility.yul\":680:681   */\n      0x00\n        /* \"#utility.yul\":677:678   */\n      dup1\n        /* \"#utility.yul\":670:682   */\n      revert\n        /* \"#utility.yul\":621:684   */\n    tag_129:\n        /* \"#utility.yul\":568:690   */\n      pop\n      jump\t// out\n        /* \"#utility.yul\":696:835   */\n    tag_97:\n        /* \"#utility.yul\":742:747   */\n      0x00\n        /* \"#utility.yul\":780:786   */\n      dup2\n        /* \"#utility.yul\":767:787   */\n      calldataload\n        /* \"#utility.yul\":758:787   */\n      swap1\n      pop\n        /* \"#utility.yul\":796:829   */\n      tag_131\n        /* \"#utility.yul\":823:828   */\n      dup2\n        /* \"#utility.yul\":796:829   */\n      tag_96\n      jump\t// in\n    tag_131:\n        /* \"#utility.yul\":696:835   */\n      swap3\n      swap2\n      pop\n      pop\n      jump\t// out\n        /* \"#utility.yul\":841:1170   */\n    tag_14:\n        /* \"#utility.yul\":900:906   */\n      0x00\n        /* \"#utility.yul\":949:951   */\n      0x20\n        /* \"#utility.yul\":937:946   */\n      dup3\n        /* \"#utility.yul\":928:935   */\n      dup5\n        /* \"#utility.yul\":924:947   */\n      sub\n        /* \"#utility.yul\":920:952   */\n      slt\n        /* \"#utility.yul\":917:1036   */\n      iszero\n      tag_133\n      jumpi\n        /* \"#utility.yul\":955:1034   */\n      tag_134\n      tag_92\n      jump\t// in\n    tag_134:\n        /* \"#utility.yul\":917:1036   */\n    tag_133:\n        /* \"#utility.yul\":1075:1076   */\n      0x00\n        /* \"#utility.yul\":1100:1153   */\n      tag_135\n        /* \"#utility.yul\":1145:1152   */\n      dup5\n        /* \"#utility.yul\":1136:1142   */\n      dup3\n        /* \"#utility.yul\":1125:1134   */\n      dup6\n        /* \"#utility.yul\":1121:1143   */\n      add\n        /* \"#utility.yul\":1100:1153   */\n      tag_97\n      jump\t// in\n    tag_135:\n        /* \"#utility.yul\":1090:1153   */\n      swap2\n      pop\n        /* \"#utility.yul\":1046:1163   */\n      pop\n        /* \"#utility.yul\":841:1170   */\n      swap3\n      swap2\n      pop\n      pop\n      jump\t// out\n        /* \"#utility.yul\":1176:1253   */\n    tag_98:\n        /* \"#utility.yul\":1213:1220   */\n      0x00\n        /* \"#utility.yul\":1242:1247   */\n      dup2\n        /* \"#utility.yul\":1231:1247   */\n      swap1\n      pop\n        /* \"#utility.yul\":1176:1253   */\n      swap2\n      swap1\n      pop\n      jump\t// out\n        /* \"#utility.yul\":1259:1377   */\n    tag_99:\n        /* \"#utility.yul\":1346:1370   */\n      tag_138\n        /* \"#utility.yul\":1364:1369   */\n      dup2\n        /* \"#utility.yul\":1346:1370   */\n      tag_98\n      jump\t// in\n    tag_138:\n        /* \"#utility.yul\":1341:1344   */\n      dup3\n        /* \"#utility.yul\":1334:1371   */\n      mstore\n        /* \"#utility.yul\":1259:1377   */\n      pop\n      pop\n      jump\t// out\n        /* \"#utility.yul\":1383:1605   */\n    tag_17:\n        /* \"#utility.yul\":1476:1480   */\n      0x00\n        /* \"#utility.yul\":1514:1516   */\n      0x20\n        /* \"#utility.yul\":1503:1512   */\n      dup3\n        /* \"#utility.yul\":1499:1517   */\n      add\n        /* \"#utility.yul\":1491:1517   */\n      swap1\n      pop\n        /* \"#utility.yul\":1527:1598   */\n      tag_140\n        /* \"#utility.yul\":1595:1596   */\n      0x00\n        /* \"#utility.yul\":1584:1593   */\n      dup4\n        /* \"#utility.yul\":1580:1597   */\n      add\n        /* \"#utility.yul\":1571:1577   */\n      dup5\n        /* \"#utility.yul\":1527:1598   */\n      tag_99\n      jump\t// in\n    tag_140:\n        /* \"#utility.yul\":1383:1605   */\n      swap3\n      swap2\n      pop\n      pop\n      jump\t// out\n        /* \"#utility.yul\":1611:1729   */\n    tag_100:\n        /* \"#utility.yul\":1698:1722   */\n      tag_142\n        /* \"#utility.yul\":1716:1721   */\n      dup2\n        /* \"#utility.yul\":1698:1722   */\n      tag_95\n      jump\t// in\n    tag_142:\n        /* \"#utility.yul\":1693:1696   */\n      dup3\n        /* \"#utility.yul\":1686:1723   */\n      mstore\n        /* \"#utility.yul\":1611:1729   */\n      pop\n      pop\n      jump\t// out\n        /* \"#utility.yul\":1735:1957   */\n    tag_26:\n        /* \"#utility.yul\":1828:1832   */\n      0x00\n        /* \"#utility.yul\":1866:1868   */\n      0x20\n        /* \"#utility.yul\":1855:1864   */\n      dup3\n        /* \"#utility.yul\":1851:1869   */\n      add\n        /* \"#utility.yul\":1843:1869   */\n      swap1\n      pop\n        /* \"#utility.yul\":1879:1950   */\n      tag_144\n        /* \"#utility.yul\":1947:1948   */\n      0x00\n        /* \"#utility.yul\":1936:1945   */\n      dup4\n        /* \"#utility.yul\":1932:1949   */\n      add\n        /* \"#utility.yul\":1923:1929   */\n      dup5\n        /* \"#utility.yul\":1879:1950   */\n      tag_100\n      jump\t// in\n    tag_144:\n        /* \"#utility.yul\":1735:1957   */\n      swap3\n      swap2\n      pop\n      pop\n      jump\t// out\n        /* \"#utility.yul\":1963:2085   */\n    tag_101:\n        /* \"#utility.yul\":2036:2060   */\n      tag_146\n        /* \"#utility.yul\":2054:2059   */\n      dup2\n        /* \"#utility.yul\":2036:2060   */\n      tag_98\n      jump\t// in\n    tag_146:\n        /* \"#utility.yul\":2029:2034   */\n      dup2\n        /* \"#utility.yul\":2026:2061   */\n      eq\n        /* \"#utility.yul\":2016:2079   */\n      tag_147\n      jumpi\n        /* \"#utility.yul\":2075:2076   */\n      0x00\n        /* \"#utility.yul\":2072:2073   */\n      dup1\n        /* \"#utility.yul\":2065:2077   */\n      revert\n        /* \"#utility.yul\":2016:2079   */\n    tag_147:\n        /* \"#utility.yul\":1963:2085   */\n      pop\n      jump\t// out\n        /* \"#utility.yul\":2091:2230   */\n    tag_102:\n        /* \"#utility.yul\":2137:2142   */\n      0x00\n        /* \"#utility.yul\":2175:2181   */\n      dup2\n        /* \"#utility.yul\":2162:2182   */\n      calldataload\n        /* \"#utility.yul\":2153:2182   */\n      swap1\n      pop\n        /* \"#utility.yul\":2191:2224   */\n      tag_149\n        /* \"#utility.yul\":2218:2223   */\n      dup2\n        /* \"#utility.yul\":2191:2224   */\n      tag_101\n      jump\t// in\n    tag_149:\n        /* \"#utility.yul\":2091:2230   */\n      swap3\n      swap2\n      pop\n      pop\n      jump\t// out\n        /* \"#utility.yul\":2236:2565   */\n    tag_32:\n        /* \"#utility.yul\":2295:2301   */\n      0x00\n        /* \"#utility.yul\":2344:2346   */\n      0x20\n        /* \"#utility.yul\":2332:2341   */\n      dup3\n        /* \"#utility.yul\":2323:2330   */\n      dup5\n        /* \"#utility.yul\":2319:2342   */\n      sub\n        /* \"#utility.yul\":2315:2347   */\n      slt\n        /* \"#utility.yul\":2312:2431   */\n      iszero\n      tag_151\n      jumpi\n        /* \"#utility.yul\":2350:2429   */\n      tag_152\n      tag_92\n      jump\t// in\n    tag_152:\n        /* \"#utility.yul\":2312:2431   */\n    tag_151:\n        /* \"#utility.yul\":2470:2471   */\n      0x00\n        /* \"#utility.yul\":2495:2548   */\n      tag_153\n        /* \"#utility.yul\":2540:2547   */\n      dup5\n        /* \"#utility.yul\":2531:2537   */\n      dup3\n        /* \"#utility.yul\":2520:2529   */\n      dup6\n        /* \"#utility.yul\":2516:2538   */\n      add\n        /* \"#utility.yul\":2495:2548   */\n      tag_102\n      jump\t// in\n    tag_153:\n        /* \"#utility.yul\":2485:2548   */\n      swap2\n      pop\n        /* \"#utility.yul\":2441:2558   */\n      pop\n        /* \"#utility.yul\":2236:2565   */\n      swap3\n      swap2\n      pop\n      pop\n      jump\t// out\n        /* \"#utility.yul\":2571:2751   */\n    tag_43:\n        /* \"#utility.yul\":2619:2696   */\n      0x4e487b7100000000000000000000000000000000000000000000000000000000\n        /* \"#utility.yul\":2616:2617   */\n      0x00\n        /* \"#utility.yul\":2609:2697   */\n      mstore\n        /* \"#utility.yul\":2716:2720   */\n      0x32\n        /* \"#utility.yul\":2713:2714   */\n      0x04\n        /* \"#utility.yul\":2706:2721   */\n      mstore\n        /* \"#utility.yul\":2740:2744   */\n      0x24\n        /* \"#utility.yul\":2737:2738   */\n      0x00\n        /* \"#utility.yul\":2730:2745   */\n      revert\n        /* \"#utility.yul\":2757:2937   */\n    tag_47:\n        /* \"#utility.yul\":2805:2882   */\n      0x4e487b7100000000000000000000000000000000000000000000000000000000\n        /* \"#utility.yul\":2802:2803   */\n      0x00\n        /* \"#utility.yul\":2795:2883   */\n      mstore\n        /* \"#utility.yul\":2902:2906   */\n      0x41\n        /* \"#utility.yul\":2899:2900   */\n      0x04\n        /* \"#utility.yul\":2892:2907   */\n      mstore\n        /* \"#utility.yul\":2926:2930   */\n      0x24\n        /* \"#utility.yul\":2923:2924   */\n      0x00\n        /* \"#utility.yul\":2916:2931   */\n      revert\n        /* \"#utility.yul\":2943:3090   */\n    tag_103:\n        /* \"#utility.yul\":3044:3055   */\n      0x00\n        /* \"#utility.yul\":3081:3084   */\n      dup2\n        /* \"#utility.yul\":3066:3084   */\n      swap1\n      pop\n        /* \"#utility.yul\":2943:3090   */\n      swap3\n      swap2\n      pop\n      pop\n      jump\t// out\n        /* \"#utility.yul\":3096:3210   */\n    tag_104:\n      pop\n      jump\t// out\n        /* \"#utility.yul\":3216:3614   */\n    tag_105:\n        /* \"#utility.yul\":3375:3378   */\n      0x00\n        /* \"#utility.yul\":3396:3479   */\n      tag_159\n        /* \"#utility.yul\":3477:3478   */\n      0x00\n        /* \"#utility.yul\":3472:3475   */\n      dup4\n        /* \"#utility.yul\":3396:3479   */\n      tag_103\n      jump\t// in\n    tag_159:\n        /* \"#utility.yul\":3389:3479   */\n      swap2\n      pop\n        /* \"#utility.yul\":3488:3581   */\n      tag_160\n        /* \"#utility.yul\":3577:3580   */\n      dup3\n        /* \"#utility.yul\":3488:3581   */\n      tag_104\n      jump\t// in\n    tag_160:\n        /* \"#utility.yul\":3606:3607   */\n      0x00\n        /* \"#utility.yul\":3601:3604   */\n      dup3\n        /* \"#utility.yul\":3597:3608   */\n      add\n        /* \"#utility.yul\":3590:3608   */\n      swap1\n      pop\n        /* \"#utility.yul\":3216:3614   */\n      swap2\n      swap1\n      pop\n      jump\t// out\n        /* \"#utility.yul\":3620:3999   */\n    tag_52:\n        /* \"#utility.yul\":3804:3807   */\n      0x00\n        /* \"#utility.yul\":3826:3973   */\n      tag_162\n        /* \"#utility.yul\":3969:3972   */\n      dup3\n        /* \"#utility.yul\":3826:3973   */\n      tag_105\n      jump\t// in\n    tag_162:\n        /* \"#utility.yul\":3819:3973   */\n      swap2\n      pop\n        /* \"#utility.yul\":3990:3993   */\n      dup2\n        /* \"#utility.yul\":3983:3993   */\n      swap1\n      pop\n        /* \"#utility.yul\":3620:3999   */\n      swap2\n      swap1\n      pop\n      jump\t// out\n        /* \"#utility.yul\":4005:4174   */\n    tag_106:\n        /* \"#utility.yul\":4089:4100   */\n      0x00\n        /* \"#utility.yul\":4123:4129   */\n      dup3\n        /* \"#utility.yul\":4118:4121   */\n      dup3\n        /* \"#utility.yul\":4111:4130   */\n      mstore\n        /* \"#utility.yul\":4163:4167   */\n      0x20\n        /* \"#utility.yul\":4158:4161   */\n      dup3\n        /* \"#utility.yul\":4154:4168   */\n      add\n        /* \"#utility.yul\":4139:4168   */\n      swap1\n      pop\n        /* \"#utility.yul\":4005:4174   */\n      swap3\n      swap2\n      pop\n      pop\n      jump\t// out\n        /* \"#utility.yul\":4180:4341   */\n    tag_107:\n        /* \"#utility.yul\":4320:4333   */\n      0x43616c6c206661696c6564000000000000000000000000000000000000000000\n        /* \"#utility.yul\":4316:4317   */\n      0x00\n        /* \"#utility.yul\":4308:4314   */\n      dup3\n        /* \"#utility.yul\":4304:4318   */\n      add\n        /* \"#utility.yul\":4297:4334   */\n      mstore\n        /* \"#utility.yul\":4180:4341   */\n      pop\n      jump\t// out\n        /* \"#utility.yul\":4347:4713   */\n    tag_108:\n        /* \"#utility.yul\":4489:4492   */\n      0x00\n        /* \"#utility.yul\":4510:4577   */\n      tag_166\n        /* \"#utility.yul\":4574:4576   */\n      0x0b\n        /* \"#utility.yul\":4569:4572   */\n      dup4\n        /* \"#utility.yul\":4510:4577   */\n      tag_106\n      jump\t// in\n    tag_166:\n        /* \"#utility.yul\":4503:4577   */\n      swap2\n      pop\n        /* \"#utility.yul\":4586:4679   */\n      tag_167\n        /* \"#utility.yul\":4675:4678   */\n      dup3\n        /* \"#utility.yul\":4586:4679   */\n      tag_107\n      jump\t// in\n    tag_167:\n        /* \"#utility.yul\":4704:4706   */\n      0x20\n        /* \"#utility.yul\":4699:4702   */\n      dup3\n        /* \"#utility.yul\":4695:4707   */\n      add\n        /* \"#utility.yul\":4688:4707   */\n      swap1\n      pop\n        /* \"#utility.yul\":4347:4713   */\n      swap2\n      swap1\n      pop\n      jump\t// out\n        /* \"#utility.yul\":4719:5138   */\n    tag_58:\n        /* \"#utility.yul\":4885:4889   */\n      0x00\n        /* \"#utility.yul\":4923:4925   */\n      0x20\n        /* \"#utility.yul\":4912:4921   */\n      dup3\n        /* \"#utility.yul\":4908:4926   */\n      add\n        /* \"#utility.yul\":4900:4926   */\n      swap1\n      pop\n        /* \"#utility.yul\":4972:4981   */\n      dup2\n        /* \"#utility.yul\":4966:4970   */\n      dup2\n        /* \"#utility.yul\":4962:4982   */\n      sub\n        /* \"#utility.yul\":4958:4959   */\n      0x00\n        /* \"#utility.yul\":4947:4956   */\n      dup4\n        /* \"#utility.yul\":4943:4960   */\n      add\n        /* \"#utility.yul\":4936:4983   */\n      mstore\n        /* \"#utility.yul\":5000:5131   */\n      tag_169\n        /* \"#utility.yul\":5126:5130   */\n      dup2\n        /* \"#utility.yul\":5000:5131   */\n      tag_108\n      jump\t// in\n    tag_169:\n        /* \"#utility.yul\":4992:5131   */\n      swap1\n      pop\n        /* \"#utility.yul\":4719:5138   */\n      swap2\n      swap1\n      pop\n      jump\t// out\n        /* \"#utility.yul\":5144:5366   */\n    tag_109:\n        /* \"#utility.yul\":5284:5318   */\n      0x596f75206d7573742073656e64206d6f7265207468616e20746865206d696e69\n        /* \"#utility.yul\":5280:5281   */\n      0x00\n        /* \"#utility.yul\":5272:5278   */\n      dup3\n        /* \"#utility.yul\":5268:5282   */\n      add\n        /* \"#utility.yul\":5261:5319   */\n      mstore\n        /* \"#utility.yul\":5353:5358   */\n      0x6d756d0000000000000000000000000000000000000000000000000000000000\n        /* \"#utility.yul\":5348:5350   */\n      0x20\n        /* \"#utility.yul\":5340:5346   */\n      dup3\n        /* \"#utility.yul\":5336:5351   */\n      add\n        /* \"#utility.yul\":5329:5359   */\n      mstore\n        /* \"#utility.yul\":5144:5366   */\n      pop\n      jump\t// out\n        /* \"#utility.yul\":5372:5738   */\n    tag_110:\n        /* \"#utility.yul\":5514:5517   */\n      0x00\n        /* \"#utility.yul\":5535:5602   */\n      tag_172\n        /* \"#utility.yul\":5599:5601   */\n      0x23\n        /* \"#utility.yul\":5594:5597   */\n      dup4\n        /* \"#utility.yul\":5535:5602   */\n      tag_106\n      jump\t// in\n    tag_172:\n        /* \"#utility.yul\":5528:5602   */\n      swap2\n      pop\n        /* \"#utility.yul\":5611:5704   */\n      tag_173\n        /* \"#utility.yul\":5700:5703   */\n      dup3\n        /* \"#utility.yul\":5611:5704   */\n      tag_109\n      jump\t// in\n    tag_173:\n        /* \"#utility.yul\":5729:5731   */\n      0x40\n        /* \"#utility.yul\":5724:5727   */\n      dup3\n        /* \"#utility.yul\":5720:5732   */\n      add\n        /* \"#utility.yul\":5713:5732   */\n      swap1\n      pop\n        /* \"#utility.yul\":5372:5738   */\n      swap2\n      swap1\n      pop\n      jump\t// out\n        /* \"#utility.yul\":5744:6163   */\n    tag_64:\n        /* \"#utility.yul\":5910:5914   */\n      0x00\n        /* \"#utility.yul\":5948:5950   */\n      0x20\n        /* \"#utility.yul\":5937:5946   */\n      dup3\n        /* \"#utility.yul\":5933:5951   */\n      add\n        /* \"#utility.yul\":5925:5951   */\n      swap1\n      pop\n        /* \"#utility.yul\":5997:6006   */\n      dup2\n        /* \"#utility.yul\":5991:5995   */\n      dup2\n        /* \"#utility.yul\":5987:6007   */\n      sub\n        /* \"#utility.yul\":5983:5984   */\n      0x00\n        /* \"#utility.yul\":5972:5981   */\n      dup4\n        /* \"#utility.yul\":5968:5985   */\n      add\n        /* \"#utility.yul\":5961:6008   */\n      mstore\n        /* \"#utility.yul\":6025:6156   */\n      tag_175\n        /* \"#utility.yul\":6151:6155   */\n      dup2\n        /* \"#utility.yul\":6025:6156   */\n      tag_110\n      jump\t// in\n    tag_175:\n        /* \"#utility.yul\":6017:6156   */\n      swap1\n      pop\n        /* \"#utility.yul\":5744:6163   */\n      swap2\n      swap1\n      pop\n      jump\t// out\n        /* \"#utility.yul\":6169:6349   */\n    tag_111:\n        /* \"#utility.yul\":6217:6294   */\n      0x4e487b7100000000000000000000000000000000000000000000000000000000\n        /* \"#utility.yul\":6214:6215   */\n      0x00\n        /* \"#utility.yul\":6207:6295   */\n      mstore\n        /* \"#utility.yul\":6314:6318   */\n      0x11\n        /* \"#utility.yul\":6311:6312   */\n      0x04\n        /* \"#utility.yul\":6304:6319   */\n      mstore\n        /* \"#utility.yul\":6338:6342   */\n      0x24\n        /* \"#utility.yul\":6335:6336   */\n      0x00\n        /* \"#utility.yul\":6328:6343   */\n      revert\n        /* \"#utility.yul\":6355:6546   */\n    tag_67:\n        /* \"#utility.yul\":6395:6398   */\n      0x00\n        /* \"#utility.yul\":6414:6434   */\n      tag_178\n        /* \"#utility.yul\":6432:6433   */\n      dup3\n        /* \"#utility.yul\":6414:6434   */\n      tag_98\n      jump\t// in\n    tag_178:\n        /* \"#utility.yul\":6409:6434   */\n      swap2\n      pop\n        /* \"#utility.yul\":6448:6468   */\n      tag_179\n        /* \"#utility.yul\":6466:6467   */\n      dup4\n        /* \"#utility.yul\":6448:6468   */\n      tag_98\n      jump\t// in\n    tag_179:\n        /* \"#utility.yul\":6443:6468   */\n      swap3\n      pop\n        /* \"#utility.yul\":6491:6492   */\n      dup3\n        /* \"#utility.yul\":6488:6489   */\n      dup3\n        /* \"#utility.yul\":6484:6493   */\n      add\n        /* \"#utility.yul\":6477:6493   */\n      swap1\n      pop\n        /* \"#utility.yul\":6512:6515   */\n      dup1\n        /* \"#utility.yul\":6509:6510   */\n      dup3\n        /* \"#utility.yul\":6506:6516   */\n      gt\n        /* \"#utility.yul\":6503:6539   */\n      iszero\n      tag_180\n      jumpi\n        /* \"#utility.yul\":6519:6537   */\n      tag_181\n      tag_111\n      jump\t// in\n    tag_181:\n        /* \"#utility.yul\":6503:6539   */\n    tag_180:\n        /* \"#utility.yul\":6355:6546   */\n      swap3\n      swap2\n      pop\n      pop\n      jump\t// out\n        /* \"#utility.yul\":6552:6962   */\n    tag_74:\n        /* \"#utility.yul\":6592:6599   */\n      0x00\n        /* \"#utility.yul\":6615:6635   */\n      tag_183\n        /* \"#utility.yul\":6633:6634   */\n      dup3\n        /* \"#utility.yul\":6615:6635   */\n      tag_98\n      jump\t// in\n    tag_183:\n        /* \"#utility.yul\":6610:6635   */\n      swap2\n      pop\n        /* \"#utility.yul\":6649:6669   */\n      tag_184\n        /* \"#utility.yul\":6667:6668   */\n      dup4\n        /* \"#utility.yul\":6649:6669   */\n      tag_98\n      jump\t// in\n    tag_184:\n        /* \"#utility.yul\":6644:6669   */\n      swap3\n      pop\n        /* \"#utility.yul\":6704:6705   */\n      dup3\n        /* \"#utility.yul\":6701:6702   */\n      dup3\n        /* \"#utility.yul\":6697:6706   */\n      mul\n        /* \"#utility.yul\":6726:6756   */\n      tag_185\n        /* \"#utility.yul\":6744:6755   */\n      dup2\n        /* \"#utility.yul\":6726:6756   */\n      tag_98\n      jump\t// in\n    tag_185:\n        /* \"#utility.yul\":6715:6756   */\n      swap2\n      pop\n        /* \"#utility.yul\":6905:6906   */\n      dup3\n        /* \"#utility.yul\":6896:6903   */\n      dup3\n        /* \"#utility.yul\":6892:6907   */\n      div\n        /* \"#utility.yul\":6889:6890   */\n      dup5\n        /* \"#utility.yul\":6886:6908   */\n      eq\n        /* \"#utility.yul\":6866:6867   */\n      dup4\n        /* \"#utility.yul\":6859:6868   */\n      iszero\n        /* \"#utility.yul\":6839:6922   */\n      or\n        /* \"#utility.yul\":6816:6955   */\n      tag_186\n      jumpi\n        /* \"#utility.yul\":6935:6953   */\n      tag_187\n      tag_111\n      jump\t// in\n    tag_187:\n        /* \"#utility.yul\":6816:6955   */\n    tag_186:\n        /* \"#utility.yul\":6600:6962   */\n      pop\n        /* \"#utility.yul\":6552:6962   */\n      swap3\n      swap2\n      pop\n      pop\n      jump\t// out\n        /* \"#utility.yul\":6968:7148   */\n    tag_112:\n        /* \"#utility.yul\":7016:7093   */\n      0x4e487b7100000000000000000000000000000000000000000000000000000000\n        /* \"#utility.yul\":7013:7014   */\n      0x00\n        /* \"#utility.yul\":7006:7094   */\n      mstore\n        /* \"#utility.yul\":7113:7117   */\n      0x12\n        /* \"#utility.yul\":7110:7111   */\n      0x04\n        /* \"#utility.yul\":7103:7118   */\n      mstore\n        /* \"#utility.yul\":7137:7141   */\n      0x24\n        /* \"#utility.yul\":7134:7135   */\n      0x00\n        /* \"#utility.yul\":7127:7142   */\n      revert\n        /* \"#utility.yul\":7154:7339   */\n    tag_76:\n        /* \"#utility.yul\":7194:7195   */\n      0x00\n        /* \"#utility.yul\":7211:7231   */\n      tag_190\n        /* \"#utility.yul\":7229:7230   */\n      dup3\n        /* \"#utility.yul\":7211:7231   */\n      tag_98\n      jump\t// in\n    tag_190:\n        /* \"#utility.yul\":7206:7231   */\n      swap2\n      pop\n        /* \"#utility.yul\":7245:7265   */\n      tag_191\n        /* \"#utility.yul\":7263:7264   */\n      dup4\n        /* \"#utility.yul\":7245:7265   */\n      tag_98\n      jump\t// in\n    tag_191:\n        /* \"#utility.yul\":7240:7265   */\n      swap3\n      pop\n        /* \"#utility.yul\":7284:7285   */\n      dup3\n        /* \"#utility.yul\":7274:7309   */\n      tag_192\n      jumpi\n        /* \"#utility.yul\":7289:7307   */\n      tag_193\n      tag_112\n      jump\t// in\n    tag_193:\n        /* \"#utility.yul\":7274:7309   */\n    tag_192:\n        /* \"#utility.yul\":7331:7332   */\n      dup3\n        /* \"#utility.yul\":7328:7329   */\n      dup3\n        /* \"#utility.yul\":7324:7333   */\n      div\n        /* \"#utility.yul\":7319:7333   */\n      swap1\n      pop\n        /* \"#utility.yul\":7154:7339   */\n      swap3\n      swap2\n      pop\n      pop\n      jump\t// out\n        /* \"#utility.yul\":7345:7450   */\n    tag_113:\n        /* \"#utility.yul\":7381:7388   */\n      0x00\n        /* \"#utility.yul\":7421:7443   */\n      0xffffffffffffffffffff\n        /* \"#utility.yul\":7414:7419   */\n      dup3\n        /* \"#utility.yul\":7410:7444   */\n      and\n        /* \"#utility.yul\":7399:7444   */\n      swap1\n      pop\n        /* \"#utility.yul\":7345:7450   */\n      swap2\n      swap1\n      pop\n      jump\t// out\n        /* \"#utility.yul\":7456:7576   */\n    tag_114:\n        /* \"#utility.yul\":7528:7551   */\n      tag_196\n        /* \"#utility.yul\":7545:7550   */\n      dup2\n        /* \"#utility.yul\":7528:7551   */\n      tag_113\n      jump\t// in\n    tag_196:\n        /* \"#utility.yul\":7521:7526   */\n      dup2\n        /* \"#utility.yul\":7518:7552   */\n      eq\n        /* \"#utility.yul\":7508:7570   */\n      tag_197\n      jumpi\n        /* \"#utility.yul\":7566:7567   */\n      0x00\n        /* \"#utility.yul\":7563:7564   */\n      dup1\n        /* \"#utility.yul\":7556:7568   */\n      revert\n        /* \"#utility.yul\":7508:7570   */\n    tag_197:\n        /* \"#utility.yul\":7456:7576   */\n      pop\n      jump\t// out\n        /* \"#utility.yul\":7582:7723   */\n    tag_115:\n        /* \"#utility.yul\":7638:7643   */\n      0x00\n        /* \"#utility.yul\":7669:7675   */\n      dup2\n        /* \"#utility.yul\":7663:7676   */\n      mload\n        /* \"#utility.yul\":7654:7676   */\n      swap1\n      pop\n        /* \"#utility.yul\":7685:7717   */\n      tag_199\n        /* \"#utility.yul\":7711:7716   */\n      dup2\n        /* \"#utility.yul\":7685:7717   */\n      tag_114\n      jump\t// in\n    tag_199:\n        /* \"#utility.yul\":7582:7723   */\n      swap3\n      swap2\n      pop\n      pop\n      jump\t// out\n        /* \"#utility.yul\":7729:7805   */\n    tag_116:\n        /* \"#utility.yul\":7765:7772   */\n      0x00\n        /* \"#utility.yul\":7794:7799   */\n      dup2\n        /* \"#utility.yul\":7783:7799   */\n      swap1\n      pop\n        /* \"#utility.yul\":7729:7805   */\n      swap2\n      swap1\n      pop\n      jump\t// out\n        /* \"#utility.yul\":7811:7931   */\n    tag_117:\n        /* \"#utility.yul\":7883:7906   */\n      tag_202\n        /* \"#utility.yul\":7900:7905   */\n      dup2\n        /* \"#utility.yul\":7883:7906   */\n      tag_116\n      jump\t// in\n    tag_202:\n        /* \"#utility.yul\":7876:7881   */\n      dup2\n        /* \"#utility.yul\":7873:7907   */\n      eq\n        /* \"#utility.yul\":7863:7925   */\n      tag_203\n      jumpi\n        /* \"#utility.yul\":7921:7922   */\n      0x00\n        /* \"#utility.yul\":7918:7919   */\n      dup1\n        /* \"#utility.yul\":7911:7923   */\n      revert\n        /* \"#utility.yul\":7863:7925   */\n    tag_203:\n        /* \"#utility.yul\":7811:7931   */\n      pop\n      jump\t// out\n        /* \"#utility.yul\":7937:8078   */\n    tag_118:\n        /* \"#utility.yul\":7993:7998   */\n      0x00\n        /* \"#utility.yul\":8024:8030   */\n      dup2\n        /* \"#utility.yul\":8018:8031   */\n      mload\n        /* \"#utility.yul\":8009:8031   */\n      swap1\n      pop\n        /* \"#utility.yul\":8040:8072   */\n      tag_205\n        /* \"#utility.yul\":8066:8071   */\n      dup2\n        /* \"#utility.yul\":8040:8072   */\n      tag_117\n      jump\t// in\n    tag_205:\n        /* \"#utility.yul\":7937:8078   */\n      swap3\n      swap2\n      pop\n      pop\n      jump\t// out\n        /* \"#utility.yul\":8084:8227   */\n    tag_119:\n        /* \"#utility.yul\":8141:8146   */\n      0x00\n        /* \"#utility.yul\":8172:8178   */\n      dup2\n        /* \"#utility.yul\":8166:8179   */\n      mload\n        /* \"#utility.yul\":8157:8179   */\n      swap1\n      pop\n        /* \"#utility.yul\":8188:8221   */\n      tag_207\n        /* \"#utility.yul\":8215:8220   */\n      dup2\n        /* \"#utility.yul\":8188:8221   */\n      tag_101\n      jump\t// in\n    tag_207:\n        /* \"#utility.yul\":8084:8227   */\n      swap3\n      swap2\n      pop\n      pop\n      jump\t// out\n        /* \"#utility.yul\":8233:9204   */\n    tag_81:\n        /* \"#utility.yul\":8336:8342   */\n      0x00\n        /* \"#utility.yul\":8344:8350   */\n      dup1\n        /* \"#utility.yul\":8352:8358   */\n      0x00\n        /* \"#utility.yul\":8360:8366   */\n      dup1\n        /* \"#utility.yul\":8368:8374   */\n      0x00\n        /* \"#utility.yul\":8417:8420   */\n      0xa0\n        /* \"#utility.yul\":8405:8414   */\n      dup7\n        /* \"#utility.yul\":8396:8403   */\n      dup9\n        /* \"#utility.yul\":8392:8415   */\n      sub\n        /* \"#utility.yul\":8388:8421   */\n      slt\n        /* \"#utility.yul\":8385:8505   */\n      iszero\n      tag_209\n      jumpi\n        /* \"#utility.yul\":8424:8503   */\n      tag_210\n      tag_92\n      jump\t// in\n    tag_210:\n        /* \"#utility.yul\":8385:8505   */\n    tag_209:\n        /* \"#utility.yul\":8544:8545   */\n      0x00\n        /* \"#utility.yul\":8569:8632   */\n      tag_211\n        /* \"#utility.yul\":8624:8631   */\n      dup9\n        /* \"#utility.yul\":8615:8621   */\n      dup3\n        /* \"#utility.yul\":8604:8613   */\n      dup10\n        /* \"#utility.yul\":8600:8622   */\n      add\n        /* \"#utility.yul\":8569:8632   */\n      tag_115\n      jump\t// in\n    tag_211:\n        /* \"#utility.yul\":8559:8632   */\n      swap6\n      pop\n        /* \"#utility.yul\":8515:8642   */\n      pop\n        /* \"#utility.yul\":8681:8683   */\n      0x20\n        /* \"#utility.yul\":8707:8770   */\n      tag_212\n        /* \"#utility.yul\":8762:8769   */\n      dup9\n        /* \"#utility.yul\":8753:8759   */\n      dup3\n        /* \"#utility.yul\":8742:8751   */\n      dup10\n        /* \"#utility.yul\":8738:8760   */\n      add\n        /* \"#utility.yul\":8707:8770   */\n      tag_118\n      jump\t// in\n    tag_212:\n        /* \"#utility.yul\":8697:8770   */\n      swap5\n      pop\n        /* \"#utility.yul\":8652:8780   */\n      pop\n        /* \"#utility.yul\":8819:8821   */\n      0x40\n        /* \"#utility.yul\":8845:8909   */\n      tag_213\n        /* \"#utility.yul\":8901:8908   */\n      dup9\n        /* \"#utility.yul\":8892:8898   */\n      dup3\n        /* \"#utility.yul\":8881:8890   */\n      dup10\n        /* \"#utility.yul\":8877:8899   */\n      add\n        /* \"#utility.yul\":8845:8909   */\n      tag_119\n      jump\t// in\n    tag_213:\n        /* \"#utility.yul\":8835:8909   */\n      swap4\n      pop\n        /* \"#utility.yul\":8790:8919   */\n      pop\n        /* \"#utility.yul\":8958:8960   */\n      0x60\n        /* \"#utility.yul\":8984:9048   */\n      tag_214\n        /* \"#utility.yul\":9040:9047   */\n      dup9\n        /* \"#utility.yul\":9031:9037   */\n      dup3\n        /* \"#utility.yul\":9020:9029   */\n      dup10\n        /* \"#utility.yul\":9016:9038   */\n      add\n        /* \"#utility.yul\":8984:9048   */\n      tag_119\n      jump\t// in\n    tag_214:\n        /* \"#utility.yul\":8974:9048   */\n      swap3\n      pop\n        /* \"#utility.yul\":8929:9058   */\n      pop\n        /* \"#utility.yul\":9097:9100   */\n      0x80\n        /* \"#utility.yul\":9124:9187   */\n      tag_215\n        /* \"#utility.yul\":9179:9186   */\n      dup9\n        /* \"#utility.yul\":9170:9176   */\n      dup3\n        /* \"#utility.yul\":9159:9168   */\n      dup10\n        /* \"#utility.yul\":9155:9177   */\n      add\n        /* \"#utility.yul\":9124:9187   */\n      tag_115\n      jump\t// in\n    tag_215:\n        /* \"#utility.yul\":9114:9187   */\n      swap2\n      pop\n        /* \"#utility.yul\":9068:9197   */\n      pop\n        /* \"#utility.yul\":8233:9204   */\n      swap3\n      swap6\n      pop\n      swap3\n      swap6\n      swap1\n      swap4\n      pop\n      jump\t// out\n        /* \"#utility.yul\":9210:9766   */\n    tag_83:\n        /* \"#utility.yul\":9249:9256   */\n      0x00\n        /* \"#utility.yul\":9272:9291   */\n      tag_217\n        /* \"#utility.yul\":9289:9290   */\n      dup3\n        /* \"#utility.yul\":9272:9291   */\n      tag_116\n      jump\t// in\n    tag_217:\n        /* \"#utility.yul\":9267:9291   */\n      swap2\n      pop\n        /* \"#utility.yul\":9305:9324   */\n      tag_218\n        /* \"#utility.yul\":9322:9323   */\n      dup4\n        /* \"#utility.yul\":9305:9324   */\n      tag_116\n      jump\t// in\n    tag_218:\n        /* \"#utility.yul\":9300:9324   */\n      swap3\n      pop\n        /* \"#utility.yul\":9359:9360   */\n      dup3\n        /* \"#utility.yul\":9356:9357   */\n      dup3\n        /* \"#utility.yul\":9352:9361   */\n      mul\n        /* \"#utility.yul\":9381:9410   */\n      tag_219\n        /* \"#utility.yul\":9398:9409   */\n      dup2\n        /* \"#utility.yul\":9381:9410   */\n      tag_116\n      jump\t// in\n    tag_219:\n        /* \"#utility.yul\":9370:9410   */\n      swap2\n      pop\n        /* \"#utility.yul\":9468:9534   */\n      0x8000000000000000000000000000000000000000000000000000000000000000\n        /* \"#utility.yul\":9465:9466   */\n      dup5\n        /* \"#utility.yul\":9462:9535   */\n      eq\n        /* \"#utility.yul\":9458:9459   */\n      0x00\n        /* \"#utility.yul\":9455:9456   */\n      dup5\n        /* \"#utility.yul\":9451:9460   */\n      slt\n        /* \"#utility.yul\":9447:9536   */\n      and\n        /* \"#utility.yul\":9444:9559   */\n      iszero\n      tag_220\n      jumpi\n        /* \"#utility.yul\":9539:9557   */\n      tag_221\n      tag_111\n      jump\t// in\n    tag_221:\n        /* \"#utility.yul\":9444:9559   */\n    tag_220:\n        /* \"#utility.yul\":9709:9710   */\n      dup3\n        /* \"#utility.yul\":9700:9707   */\n      dup3\n        /* \"#utility.yul\":9695:9711   */\n      sdiv\n        /* \"#utility.yul\":9692:9693   */\n      dup5\n        /* \"#utility.yul\":9689:9712   */\n      eq\n        /* \"#utility.yul\":9669:9670   */\n      dup4\n        /* \"#utility.yul\":9662:9671   */\n      iszero\n        /* \"#utility.yul\":9642:9726   */\n      or\n        /* \"#utility.yul\":9619:9759   */\n      tag_222\n      jumpi\n        /* \"#utility.yul\":9739:9757   */\n      tag_223\n      tag_111\n      jump\t// in\n    tag_223:\n        /* \"#utility.yul\":9619:9759   */\n    tag_222:\n        /* \"#utility.yul\":9257:9766   */\n      pop\n        /* \"#utility.yul\":9210:9766   */\n      swap3\n      swap2\n      pop\n      pop\n      jump\t// out\n\n    auxdata: 0xa26469706673582212201a3c9661d3a0f639296f0e27612ee8297e674923cdc44978adc0da86fae96f9064736f6c63430008180033\n}\n",
				"bytecode": {
					"linkReferences": {},
					"object": "608060405234801561000f575f80fd5b503360025f6101000a81548173ffffffffffffffffffffffffffffffffffffffff021916908373ffffffffffffffffffffffffffffffffffffffff160217905550610bc68061005d5f395ff3fe608060405260043610610054575f3560e01c80633ccfd60b146100585780633e47d6f31461006e5780636b69a592146100aa5780638da5cb5b146100d4578063b60d4288146100fe578063dc0d3dff14610108575b5f80fd5b348015610063575f80fd5b5061006c610144565b005b348015610079575f80fd5b50610094600480360381019061008f91906106a5565b610342565b6040516100a191906106e8565b60405180910390f35b3480156100b5575f80fd5b506100be610357565b6040516100cb91906106e8565b60405180910390f35b3480156100df575f80fd5b506100e8610363565b6040516100f59190610710565b60405180910390f35b610106610388565b005b348015610113575f80fd5b5061012e60048036038101906101299190610753565b61048e565b60405161013b9190610710565b60405180910390f35b3373ffffffffffffffffffffffffffffffffffffffff1660025f9054906101000a900473ffffffffffffffffffffffffffffffffffffffff1673ffffffffffffffffffffffffffffffffffffffff161461019c575f80fd5b5f5b5f8054905081101561033f575f8082815481106101be576101bd61077e565b5b905f5260205f20015f9054906101000a900473ffffffffffffffffffffffffffffffffffffffff1690505f60015f8373ffffffffffffffffffffffffffffffffffffffff1673ffffffffffffffffffffffffffffffffffffffff1681526020019081526020015f20819055505f67ffffffffffffffff811115610244576102436107ab565b5b6040519080825280602002602001820160405280156102725781602001602082028036833780820191505090505b505f90805190602001906102879291906105a5565b505f3373ffffffffffffffffffffffffffffffffffffffff16476040516102ad90610805565b5f6040518083038185875af1925050503d805f81146102e7576040519150601f19603f3d011682016040523d82523d5f602084013e6102ec565b606091505b5050905080610330576040517f08c379a000000000000000000000000000000000000000000000000000000000815260040161032790610873565b60405180910390fd5b5050808060010191505061019e565b50565b6001602052805f5260405f205f915090505481565b674563918244f4000081565b60025f9054906101000a900473ffffffffffffffffffffffffffffffffffffffff1681565b674563918244f4000061039a346104c8565b116103da576040517f08c379a00000000000000000000000000000000000000000000000000000000081526004016103d190610901565b60405180910390fd5b5f33908060018154018082558091505060019003905f5260205f20015f9091909190916101000a81548173ffffffffffffffffffffffffffffffffffffffff021916908373ffffffffffffffffffffffffffffffffffffffff1602179055503460015f3373ffffffffffffffffffffffffffffffffffffffff1673ffffffffffffffffffffffffffffffffffffffff1681526020019081526020015f205f828254610485919061094c565b92505081905550565b5f818154811061049c575f80fd5b905f5260205f20015f915054906101000a900473ffffffffffffffffffffffffffffffffffffffff1681565b5f806104d2610500565b90505f670de0b6b3a764000084836104ea919061097f565b6104f491906109ed565b90508092505050919050565b5f8073694aa1769357215de4fac081bf1f309adc32530690505f8173ffffffffffffffffffffffffffffffffffffffff1663feaf968c6040518163ffffffff1660e01b815260040160a060405180830381865afa158015610563573d5f803e3d5ffd5b505050506040513d601f19601f820116820180604052508101906105879190610aa3565b5050509150506402540be4008161059e9190610b1a565b9250505090565b828054828255905f5260205f2090810192821561061b579160200282015b8281111561061a578251825f6101000a81548173ffffffffffffffffffffffffffffffffffffffff021916908373ffffffffffffffffffffffffffffffffffffffff160217905550916020019190600101906105c3565b5b509050610628919061062c565b5090565b5b80821115610643575f815f90555060010161062d565b5090565b5f80fd5b5f73ffffffffffffffffffffffffffffffffffffffff82169050919050565b5f6106748261064b565b9050919050565b6106848161066a565b811461068e575f80fd5b50565b5f8135905061069f8161067b565b92915050565b5f602082840312156106ba576106b9610647565b5b5f6106c784828501610691565b91505092915050565b5f819050919050565b6106e2816106d0565b82525050565b5f6020820190506106fb5f8301846106d9565b92915050565b61070a8161066a565b82525050565b5f6020820190506107235f830184610701565b92915050565b610732816106d0565b811461073c575f80fd5b50565b5f8135905061074d81610729565b92915050565b5f6020828403121561076857610767610647565b5b5f6107758482850161073f565b91505092915050565b7f4e487b71000000000000000000000000000000000000000000000000000000005f52603260045260245ffd5b7f4e487b71000000000000000000000000000000000000000000000000000000005f52604160045260245ffd5b5f81905092915050565b50565b5f6107f05f836107d8565b91506107fb826107e2565b5f82019050919050565b5f61080f826107e5565b9150819050919050565b5f82825260208201905092915050565b7f43616c6c206661696c65640000000000000000000000000000000000000000005f82015250565b5f61085d600b83610819565b915061086882610829565b602082019050919050565b5f6020820190508181035f83015261088a81610851565b9050919050565b7f596f75206d7573742073656e64206d6f7265207468616e20746865206d696e695f8201527f6d756d0000000000000000000000000000000000000000000000000000000000602082015250565b5f6108eb602383610819565b91506108f682610891565b604082019050919050565b5f6020820190508181035f830152610918816108df565b9050919050565b7f4e487b71000000000000000000000000000000000000000000000000000000005f52601160045260245ffd5b5f610956826106d0565b9150610961836106d0565b92508282019050808211156109795761097861091f565b5b92915050565b5f610989826106d0565b9150610994836106d0565b92508282026109a2816106d0565b915082820484148315176109b9576109b861091f565b5b5092915050565b7f4e487b71000000000000000000000000000000000000000000000000000000005f52601260045260245ffd5b5f6109f7826106d0565b9150610a02836106d0565b925082610a1257610a116109c0565b5b828204905092915050565b5f69ffffffffffffffffffff82169050919050565b610a3b81610a1d565b8114610a45575f80fd5b50565b5f81519050610a5681610a32565b92915050565b5f819050919050565b610a6e81610a5c565b8114610a78575f80fd5b50565b5f81519050610a8981610a65565b92915050565b5f81519050610a9d81610729565b92915050565b5f805f805f60a08688031215610abc57610abb610647565b5b5f610ac988828901610a48565b9550506020610ada88828901610a7b565b9450506040610aeb88828901610a8f565b9350506060610afc88828901610a8f565b9250506080610b0d88828901610a48565b9150509295509295909350565b5f610b2482610a5c565b9150610b2f83610a5c565b9250828202610b3d81610a5c565b91507f800000000000000000000000000000000000000000000000000000000000000084145f84121615610b7457610b7361091f565b5b8282058414831517610b8957610b8861091f565b5b509291505056fea26469706673582212201a3c9661d3a0f639296f0e27612ee8297e674923cdc44978adc0da86fae96f9064736f6c63430008180033",
					"opcodes": "PUSH1 0x80 PUSH1 0x40 MSTORE CALLVALUE DUP1 ISZERO PUSH2 0xF JUMPI PUSH0 DUP1 REVERT JUMPDEST POP CALLER PUSH1 0x2 PUSH0 PUSH2 0x100 EXP DUP2 SLOAD DUP2 PUSH20 0xFFFFFFFFFFFFFFFFFFFFFFFFFFFFFFFFFFFFFFFF MUL NOT AND SWAP1 DUP4 PUSH20 0xFFFFFFFFFFFFFFFFFFFFFFFFFFFFFFFFFFFFFFFF AND MUL OR SWAP1 SSTORE POP PUSH2 0xBC6 DUP1 PUSH2 0x5D PUSH0 CODECOPY PUSH0 RETURN INVALID PUSH1 0x80 PUSH1 0x40 MSTORE PUSH1 0x4 CALLDATASIZE LT PUSH2 0x54 JUMPI PUSH0 CALLDATALOAD PUSH1 0xE0 SHR DUP1 PUSH4 0x3CCFD60B EQ PUSH2 0x58 JUMPI DUP1 PUSH4 0x3E47D6F3 EQ PUSH2 0x6E JUMPI DUP1 PUSH4 0x6B69A592 EQ PUSH2 0xAA JUMPI DUP1 PUSH4 0x8DA5CB5B EQ PUSH2 0xD4 JUMPI DUP1 PUSH4 0xB60D4288 EQ PUSH2 0xFE JUMPI DUP1 PUSH4 0xDC0D3DFF EQ PUSH2 0x108 JUMPI JUMPDEST PUSH0 DUP1 REVERT JUMPDEST CALLVALUE DUP1 ISZERO PUSH2 0x63 JUMPI PUSH0 DUP1 REVERT JUMPDEST POP PUSH2 0x6C PUSH2 0x144 JUMP JUMPDEST STOP JUMPDEST CALLVALUE DUP1 ISZERO PUSH2 0x79 JUMPI PUSH0 DUP1 REVERT JUMPDEST POP PUSH2 0x94 PUSH1 0x4 DUP1 CALLDATASIZE SUB DUP2 ADD SWAP1 PUSH2 0x8F SWAP2 SWAP1 PUSH2 0x6A5 JUMP JUMPDEST PUSH2 0x342 JUMP JUMPDEST PUSH1 0x40 MLOAD PUSH2 0xA1 SWAP2 SWAP1 PUSH2 0x6E8 JUMP JUMPDEST PUSH1 0x40 MLOAD DUP1 SWAP2 SUB SWAP1 RETURN JUMPDEST CALLVALUE DUP1 ISZERO PUSH2 0xB5 JUMPI PUSH0 DUP1 REVERT JUMPDEST POP PUSH2 0xBE PUSH2 0x357 JUMP JUMPDEST PUSH1 0x40 MLOAD PUSH2 0xCB SWAP2 SWAP1 PUSH2 0x6E8 JUMP JUMPDEST PUSH1 0x40 MLOAD DUP1 SWAP2 SUB SWAP1 RETURN JUMPDEST CALLVALUE DUP1 ISZERO PUSH2 0xDF JUMPI PUSH0 DUP1 REVERT JUMPDEST POP PUSH2 0xE8 PUSH2 0x363 JUMP JUMPDEST PUSH1 0x40 MLOAD PUSH2 0xF5 SWAP2 SWAP1 PUSH2 0x710 JUMP JUMPDEST PUSH1 0x40 MLOAD DUP1 SWAP2 SUB SWAP1 RETURN JUMPDEST PUSH2 0x106 PUSH2 0x388 JUMP JUMPDEST STOP JUMPDEST CALLVALUE DUP1 ISZERO PUSH2 0x113 JUMPI PUSH0 DUP1 REVERT JUMPDEST POP PUSH2 0x12E PUSH1 0x4 DUP1 CALLDATASIZE SUB DUP2 ADD SWAP1 PUSH2 0x129 SWAP2 SWAP1 PUSH2 0x753 JUMP JUMPDEST PUSH2 0x48E JUMP JUMPDEST PUSH1 0x40 MLOAD PUSH2 0x13B SWAP2 SWAP1 PUSH2 0x710 JUMP JUMPDEST PUSH1 0x40 MLOAD DUP1 SWAP2 SUB SWAP1 RETURN JUMPDEST CALLER PUSH20 0xFFFFFFFFFFFFFFFFFFFFFFFFFFFFFFFFFFFFFFFF AND PUSH1 0x2 PUSH0 SWAP1 SLOAD SWAP1 PUSH2 0x100 EXP SWAP1 DIV PUSH20 0xFFFFFFFFFFFFFFFFFFFFFFFFFFFFFFFFFFFFFFFF AND PUSH20 0xFFFFFFFFFFFFFFFFFFFFFFFFFFFFFFFFFFFFFFFF AND EQ PUSH2 0x19C JUMPI PUSH0 DUP1 REVERT JUMPDEST PUSH0 JUMPDEST PUSH0 DUP1 SLOAD SWAP1 POP DUP2 LT ISZERO PUSH2 0x33F JUMPI PUSH0 DUP1 DUP3 DUP2 SLOAD DUP2 LT PUSH2 0x1BE JUMPI PUSH2 0x1BD PUSH2 0x77E JUMP JUMPDEST JUMPDEST SWAP1 PUSH0 MSTORE PUSH1 0x20 PUSH0 KECCAK256 ADD PUSH0 SWAP1 SLOAD SWAP1 PUSH2 0x100 EXP SWAP1 DIV PUSH20 0xFFFFFFFFFFFFFFFFFFFFFFFFFFFFFFFFFFFFFFFF AND SWAP1 POP PUSH0 PUSH1 0x1 PUSH0 DUP4 PUSH20 0xFFFFFFFFFFFFFFFFFFFFFFFFFFFFFFFFFFFFFFFF AND PUSH20 0xFFFFFFFFFFFFFFFFFFFFFFFFFFFFFFFFFFFFFFFF AND DUP2 MSTORE PUSH1 0x20 ADD SWAP1 DUP2 MSTORE PUSH1 0x20 ADD PUSH0 KECCAK256 DUP2 SWAP1 SSTORE POP PUSH0 PUSH8 0xFFFFFFFFFFFFFFFF DUP2 GT ISZERO PUSH2 0x244 JUMPI PUSH2 0x243 PUSH2 0x7AB JUMP JUMPDEST JUMPDEST PUSH1 0x40 MLOAD SWAP1 DUP1 DUP3 MSTORE DUP1 PUSH1 0x20 MUL PUSH1 0x20 ADD DUP3 ADD PUSH1 0x40 MSTORE DUP1 ISZERO PUSH2 0x272 JUMPI DUP2 PUSH1 0x20 ADD PUSH1 0x20 DUP3 MUL DUP1 CALLDATASIZE DUP4 CALLDATACOPY DUP1 DUP3 ADD SWAP2 POP POP SWAP1 POP JUMPDEST POP PUSH0 SWAP1 DUP1 MLOAD SWAP1 PUSH1 0x20 ADD SWAP1 PUSH2 0x287 SWAP3 SWAP2 SWAP1 PUSH2 0x5A5 JUMP JUMPDEST POP PUSH0 CALLER PUSH20 0xFFFFFFFFFFFFFFFFFFFFFFFFFFFFFFFFFFFFFFFF AND SELFBALANCE PUSH1 0x40 MLOAD PUSH2 0x2AD SWAP1 PUSH2 0x805 JUMP JUMPDEST PUSH0 PUSH1 0x40 MLOAD DUP1 DUP4 SUB DUP2 DUP6 DUP8 GAS CALL SWAP3 POP POP POP RETURNDATASIZE DUP1 PUSH0 DUP2 EQ PUSH2 0x2E7 JUMPI PUSH1 0x40 MLOAD SWAP2 POP PUSH1 0x1F NOT PUSH1 0x3F RETURNDATASIZE ADD AND DUP3 ADD PUSH1 0x40 MSTORE RETURNDATASIZE DUP3 MSTORE RETURNDATASIZE PUSH0 PUSH1 0x20 DUP5 ADD RETURNDATACOPY PUSH2 0x2EC JUMP JUMPDEST PUSH1 0x60 SWAP2 POP JUMPDEST POP POP SWAP1 POP DUP1 PUSH2 0x330 JUMPI PUSH1 0x40 MLOAD PUSH32 0x8C379A000000000000000000000000000000000000000000000000000000000 DUP2 MSTORE PUSH1 0x4 ADD PUSH2 0x327 SWAP1 PUSH2 0x873 JUMP JUMPDEST PUSH1 0x40 MLOAD DUP1 SWAP2 SUB SWAP1 REVERT JUMPDEST POP POP DUP1 DUP1 PUSH1 0x1 ADD SWAP2 POP POP PUSH2 0x19E JUMP JUMPDEST POP JUMP JUMPDEST PUSH1 0x1 PUSH1 0x20 MSTORE DUP1 PUSH0 MSTORE PUSH1 0x40 PUSH0 KECCAK256 PUSH0 SWAP2 POP SWAP1 POP SLOAD DUP2 JUMP JUMPDEST PUSH8 0x4563918244F40000 DUP2 JUMP JUMPDEST PUSH1 0x2 PUSH0 SWAP1 SLOAD SWAP1 PUSH2 0x100 EXP SWAP1 DIV PUSH20 0xFFFFFFFFFFFFFFFFFFFFFFFFFFFFFFFFFFFFFFFF AND DUP2 JUMP JUMPDEST PUSH8 0x4563918244F40000 PUSH2 0x39A CALLVALUE PUSH2 0x4C8 JUMP JUMPDEST GT PUSH2 0x3DA JUMPI PUSH1 0x40 MLOAD PUSH32 0x8C379A000000000000000000000000000000000000000000000000000000000 DUP2 MSTORE PUSH1 0x4 ADD PUSH2 0x3D1 SWAP1 PUSH2 0x901 JUMP JUMPDEST PUSH1 0x40 MLOAD DUP1 SWAP2 SUB SWAP1 REVERT JUMPDEST PUSH0 CALLER SWAP1 DUP1 PUSH1 0x1 DUP2 SLOAD ADD DUP1 DUP3 SSTORE DUP1 SWAP2 POP POP PUSH1 0x1 SWAP1 SUB SWAP1 PUSH0 MSTORE PUSH1 0x20 PUSH0 KECCAK256 ADD PUSH0 SWAP1 SWAP2 SWAP1 SWAP2 SWAP1 SWAP2 PUSH2 0x100 EXP DUP2 SLOAD DUP2 PUSH20 0xFFFFFFFFFFFFFFFFFFFFFFFFFFFFFFFFFFFFFFFF MUL NOT AND SWAP1 DUP4 PUSH20 0xFFFFFFFFFFFFFFFFFFFFFFFFFFFFFFFFFFFFFFFF AND MUL OR SWAP1 SSTORE POP CALLVALUE PUSH1 0x1 PUSH0 CALLER PUSH20 0xFFFFFFFFFFFFFFFFFFFFFFFFFFFFFFFFFFFFFFFF AND PUSH20 0xFFFFFFFFFFFFFFFFFFFFFFFFFFFFFFFFFFFFFFFF AND DUP2 MSTORE PUSH1 0x20 ADD SWAP1 DUP2 MSTORE PUSH1 0x20 ADD PUSH0 KECCAK256 PUSH0 DUP3 DUP3 SLOAD PUSH2 0x485 SWAP2 SWAP1 PUSH2 0x94C JUMP JUMPDEST SWAP3 POP POP DUP2 SWAP1 SSTORE POP JUMP JUMPDEST PUSH0 DUP2 DUP2 SLOAD DUP2 LT PUSH2 0x49C JUMPI PUSH0 DUP1 REVERT JUMPDEST SWAP1 PUSH0 MSTORE PUSH1 0x20 PUSH0 KECCAK256 ADD PUSH0 SWAP2 POP SLOAD SWAP1 PUSH2 0x100 EXP SWAP1 DIV PUSH20 0xFFFFFFFFFFFFFFFFFFFFFFFFFFFFFFFFFFFFFFFF AND DUP2 JUMP JUMPDEST PUSH0 DUP1 PUSH2 0x4D2 PUSH2 0x500 JUMP JUMPDEST SWAP1 POP PUSH0 PUSH8 0xDE0B6B3A7640000 DUP5 DUP4 PUSH2 0x4EA SWAP2 SWAP1 PUSH2 0x97F JUMP JUMPDEST PUSH2 0x4F4 SWAP2 SWAP1 PUSH2 0x9ED JUMP JUMPDEST SWAP1 POP DUP1 SWAP3 POP POP POP SWAP2 SWAP1 POP JUMP JUMPDEST PUSH0 DUP1 PUSH20 0x694AA1769357215DE4FAC081BF1F309ADC325306 SWAP1 POP PUSH0 DUP2 PUSH20 0xFFFFFFFFFFFFFFFFFFFFFFFFFFFFFFFFFFFFFFFF AND PUSH4 0xFEAF968C PUSH1 0x40 MLOAD DUP2 PUSH4 0xFFFFFFFF AND PUSH1 0xE0 SHL DUP2 MSTORE PUSH1 0x4 ADD PUSH1 0xA0 PUSH1 0x40 MLOAD DUP1 DUP4 SUB DUP2 DUP7 GAS STATICCALL ISZERO DUP1 ISZERO PUSH2 0x563 JUMPI RETURNDATASIZE PUSH0 DUP1 RETURNDATACOPY RETURNDATASIZE PUSH0 REVERT JUMPDEST POP POP POP POP PUSH1 0x40 MLOAD RETURNDATASIZE PUSH1 0x1F NOT PUSH1 0x1F DUP3 ADD AND DUP3 ADD DUP1 PUSH1 0x40 MSTORE POP DUP2 ADD SWAP1 PUSH2 0x587 SWAP2 SWAP1 PUSH2 0xAA3 JUMP JUMPDEST POP POP POP SWAP2 POP POP PUSH5 0x2540BE400 DUP2 PUSH2 0x59E SWAP2 SWAP1 PUSH2 0xB1A JUMP JUMPDEST SWAP3 POP POP POP SWAP1 JUMP JUMPDEST DUP3 DUP1 SLOAD DUP3 DUP3 SSTORE SWAP1 PUSH0 MSTORE PUSH1 0x20 PUSH0 KECCAK256 SWAP1 DUP2 ADD SWAP3 DUP3 ISZERO PUSH2 0x61B JUMPI SWAP2 PUSH1 0x20 MUL DUP3 ADD JUMPDEST DUP3 DUP2 GT ISZERO PUSH2 0x61A JUMPI DUP3 MLOAD DUP3 PUSH0 PUSH2 0x100 EXP DUP2 SLOAD DUP2 PUSH20 0xFFFFFFFFFFFFFFFFFFFFFFFFFFFFFFFFFFFFFFFF MUL NOT AND SWAP1 DUP4 PUSH20 0xFFFFFFFFFFFFFFFFFFFFFFFFFFFFFFFFFFFFFFFF AND MUL OR SWAP1 SSTORE POP SWAP2 PUSH1 0x20 ADD SWAP2 SWAP1 PUSH1 0x1 ADD SWAP1 PUSH2 0x5C3 JUMP JUMPDEST JUMPDEST POP SWAP1 POP PUSH2 0x628 SWAP2 SWAP1 PUSH2 0x62C JUMP JUMPDEST POP SWAP1 JUMP JUMPDEST JUMPDEST DUP1 DUP3 GT ISZERO PUSH2 0x643 JUMPI PUSH0 DUP2 PUSH0 SWAP1 SSTORE POP PUSH1 0x1 ADD PUSH2 0x62D JUMP JUMPDEST POP SWAP1 JUMP JUMPDEST PUSH0 DUP1 REVERT JUMPDEST PUSH0 PUSH20 0xFFFFFFFFFFFFFFFFFFFFFFFFFFFFFFFFFFFFFFFF DUP3 AND SWAP1 POP SWAP2 SWAP1 POP JUMP JUMPDEST PUSH0 PUSH2 0x674 DUP3 PUSH2 0x64B JUMP JUMPDEST SWAP1 POP SWAP2 SWAP1 POP JUMP JUMPDEST PUSH2 0x684 DUP2 PUSH2 0x66A JUMP JUMPDEST DUP2 EQ PUSH2 0x68E JUMPI PUSH0 DUP1 REVERT JUMPDEST POP JUMP JUMPDEST PUSH0 DUP2 CALLDATALOAD SWAP1 POP PUSH2 0x69F DUP2 PUSH2 0x67B JUMP JUMPDEST SWAP3 SWAP2 POP POP JUMP JUMPDEST PUSH0 PUSH1 0x20 DUP3 DUP5 SUB SLT ISZERO PUSH2 0x6BA JUMPI PUSH2 0x6B9 PUSH2 0x647 JUMP JUMPDEST JUMPDEST PUSH0 PUSH2 0x6C7 DUP5 DUP3 DUP6 ADD PUSH2 0x691 JUMP JUMPDEST SWAP2 POP POP SWAP3 SWAP2 POP POP JUMP JUMPDEST PUSH0 DUP2 SWAP1 POP SWAP2 SWAP1 POP JUMP JUMPDEST PUSH2 0x6E2 DUP2 PUSH2 0x6D0 JUMP JUMPDEST DUP3 MSTORE POP POP JUMP JUMPDEST PUSH0 PUSH1 0x20 DUP3 ADD SWAP1 POP PUSH2 0x6FB PUSH0 DUP4 ADD DUP5 PUSH2 0x6D9 JUMP JUMPDEST SWAP3 SWAP2 POP POP JUMP JUMPDEST PUSH2 0x70A DUP2 PUSH2 0x66A JUMP JUMPDEST DUP3 MSTORE POP POP JUMP JUMPDEST PUSH0 PUSH1 0x20 DUP3 ADD SWAP1 POP PUSH2 0x723 PUSH0 DUP4 ADD DUP5 PUSH2 0x701 JUMP JUMPDEST SWAP3 SWAP2 POP POP JUMP JUMPDEST PUSH2 0x732 DUP2 PUSH2 0x6D0 JUMP JUMPDEST DUP2 EQ PUSH2 0x73C JUMPI PUSH0 DUP1 REVERT JUMPDEST POP JUMP JUMPDEST PUSH0 DUP2 CALLDATALOAD SWAP1 POP PUSH2 0x74D DUP2 PUSH2 0x729 JUMP JUMPDEST SWAP3 SWAP2 POP POP JUMP JUMPDEST PUSH0 PUSH1 0x20 DUP3 DUP5 SUB SLT ISZERO PUSH2 0x768 JUMPI PUSH2 0x767 PUSH2 0x647 JUMP JUMPDEST JUMPDEST PUSH0 PUSH2 0x775 DUP5 DUP3 DUP6 ADD PUSH2 0x73F JUMP JUMPDEST SWAP2 POP POP SWAP3 SWAP2 POP POP JUMP JUMPDEST PUSH32 0x4E487B7100000000000000000000000000000000000000000000000000000000 PUSH0 MSTORE PUSH1 0x32 PUSH1 0x4 MSTORE PUSH1 0x24 PUSH0 REVERT JUMPDEST PUSH32 0x4E487B7100000000000000000000000000000000000000000000000000000000 PUSH0 MSTORE PUSH1 0x41 PUSH1 0x4 MSTORE PUSH1 0x24 PUSH0 REVERT JUMPDEST PUSH0 DUP2 SWAP1 POP SWAP3 SWAP2 POP POP JUMP JUMPDEST POP JUMP JUMPDEST PUSH0 PUSH2 0x7F0 PUSH0 DUP4 PUSH2 0x7D8 JUMP JUMPDEST SWAP2 POP PUSH2 0x7FB DUP3 PUSH2 0x7E2 JUMP JUMPDEST PUSH0 DUP3 ADD SWAP1 POP SWAP2 SWAP1 POP JUMP JUMPDEST PUSH0 PUSH2 0x80F DUP3 PUSH2 0x7E5 JUMP JUMPDEST SWAP2 POP DUP2 SWAP1 POP SWAP2 SWAP1 POP JUMP JUMPDEST PUSH0 DUP3 DUP3 MSTORE PUSH1 0x20 DUP3 ADD SWAP1 POP SWAP3 SWAP2 POP POP JUMP JUMPDEST PUSH32 0x43616C6C206661696C6564000000000000000000000000000000000000000000 PUSH0 DUP3 ADD MSTORE POP JUMP JUMPDEST PUSH0 PUSH2 0x85D PUSH1 0xB DUP4 PUSH2 0x819 JUMP JUMPDEST SWAP2 POP PUSH2 0x868 DUP3 PUSH2 0x829 JUMP JUMPDEST PUSH1 0x20 DUP3 ADD SWAP1 POP SWAP2 SWAP1 POP JUMP JUMPDEST PUSH0 PUSH1 0x20 DUP3 ADD SWAP1 POP DUP2 DUP2 SUB PUSH0 DUP4 ADD MSTORE PUSH2 0x88A DUP2 PUSH2 0x851 JUMP JUMPDEST SWAP1 POP SWAP2 SWAP1 POP JUMP JUMPDEST PUSH32 0x596F75206D7573742073656E64206D6F7265207468616E20746865206D696E69 PUSH0 DUP3 ADD MSTORE PUSH32 0x6D756D0000000000000000000000000000000000000000000000000000000000 PUSH1 0x20 DUP3 ADD MSTORE POP JUMP JUMPDEST PUSH0 PUSH2 0x8EB PUSH1 0x23 DUP4 PUSH2 0x819 JUMP JUMPDEST SWAP2 POP PUSH2 0x8F6 DUP3 PUSH2 0x891 JUMP JUMPDEST PUSH1 0x40 DUP3 ADD SWAP1 POP SWAP2 SWAP1 POP JUMP JUMPDEST PUSH0 PUSH1 0x20 DUP3 ADD SWAP1 POP DUP2 DUP2 SUB PUSH0 DUP4 ADD MSTORE PUSH2 0x918 DUP2 PUSH2 0x8DF JUMP JUMPDEST SWAP1 POP SWAP2 SWAP1 POP JUMP JUMPDEST PUSH32 0x4E487B7100000000000000000000000000000000000000000000000000000000 PUSH0 MSTORE PUSH1 0x11 PUSH1 0x4 MSTORE PUSH1 0x24 PUSH0 REVERT JUMPDEST PUSH0 PUSH2 0x956 DUP3 PUSH2 0x6D0 JUMP JUMPDEST SWAP2 POP PUSH2 0x961 DUP4 PUSH2 0x6D0 JUMP JUMPDEST SWAP3 POP DUP3 DUP3 ADD SWAP1 POP DUP1 DUP3 GT ISZERO PUSH2 0x979 JUMPI PUSH2 0x978 PUSH2 0x91F JUMP JUMPDEST JUMPDEST SWAP3 SWAP2 POP POP JUMP JUMPDEST PUSH0 PUSH2 0x989 DUP3 PUSH2 0x6D0 JUMP JUMPDEST SWAP2 POP PUSH2 0x994 DUP4 PUSH2 0x6D0 JUMP JUMPDEST SWAP3 POP DUP3 DUP3 MUL PUSH2 0x9A2 DUP2 PUSH2 0x6D0 JUMP JUMPDEST SWAP2 POP DUP3 DUP3 DIV DUP5 EQ DUP4 ISZERO OR PUSH2 0x9B9 JUMPI PUSH2 0x9B8 PUSH2 0x91F JUMP JUMPDEST JUMPDEST POP SWAP3 SWAP2 POP POP JUMP JUMPDEST PUSH32 0x4E487B7100000000000000000000000000000000000000000000000000000000 PUSH0 MSTORE PUSH1 0x12 PUSH1 0x4 MSTORE PUSH1 0x24 PUSH0 REVERT JUMPDEST PUSH0 PUSH2 0x9F7 DUP3 PUSH2 0x6D0 JUMP JUMPDEST SWAP2 POP PUSH2 0xA02 DUP4 PUSH2 0x6D0 JUMP JUMPDEST SWAP3 POP DUP3 PUSH2 0xA12 JUMPI PUSH2 0xA11 PUSH2 0x9C0 JUMP JUMPDEST JUMPDEST DUP3 DUP3 DIV SWAP1 POP SWAP3 SWAP2 POP POP JUMP JUMPDEST PUSH0 PUSH10 0xFFFFFFFFFFFFFFFFFFFF DUP3 AND SWAP1 POP SWAP2 SWAP1 POP JUMP JUMPDEST PUSH2 0xA3B DUP2 PUSH2 0xA1D JUMP JUMPDEST DUP2 EQ PUSH2 0xA45 JUMPI PUSH0 DUP1 REVERT JUMPDEST POP JUMP JUMPDEST PUSH0 DUP2 MLOAD SWAP1 POP PUSH2 0xA56 DUP2 PUSH2 0xA32 JUMP JUMPDEST SWAP3 SWAP2 POP POP JUMP JUMPDEST PUSH0 DUP2 SWAP1 POP SWAP2 SWAP1 POP JUMP JUMPDEST PUSH2 0xA6E DUP2 PUSH2 0xA5C JUMP JUMPDEST DUP2 EQ PUSH2 0xA78 JUMPI PUSH0 DUP1 REVERT JUMPDEST POP JUMP JUMPDEST PUSH0 DUP2 MLOAD SWAP1 POP PUSH2 0xA89 DUP2 PUSH2 0xA65 JUMP JUMPDEST SWAP3 SWAP2 POP POP JUMP JUMPDEST PUSH0 DUP2 MLOAD SWAP1 POP PUSH2 0xA9D DUP2 PUSH2 0x729 JUMP JUMPDEST SWAP3 SWAP2 POP POP JUMP JUMPDEST PUSH0 DUP1 PUSH0 DUP1 PUSH0 PUSH1 0xA0 DUP7 DUP9 SUB SLT ISZERO PUSH2 0xABC JUMPI PUSH2 0xABB PUSH2 0x647 JUMP JUMPDEST JUMPDEST PUSH0 PUSH2 0xAC9 DUP9 DUP3 DUP10 ADD PUSH2 0xA48 JUMP JUMPDEST SWAP6 POP POP PUSH1 0x20 PUSH2 0xADA DUP9 DUP3 DUP10 ADD PUSH2 0xA7B JUMP JUMPDEST SWAP5 POP POP PUSH1 0x40 PUSH2 0xAEB DUP9 DUP3 DUP10 ADD PUSH2 0xA8F JUMP JUMPDEST SWAP4 POP POP PUSH1 0x60 PUSH2 0xAFC DUP9 DUP3 DUP10 ADD PUSH2 0xA8F JUMP JUMPDEST SWAP3 POP POP PUSH1 0x80 PUSH2 0xB0D DUP9 DUP3 DUP10 ADD PUSH2 0xA48 JUMP JUMPDEST SWAP2 POP POP SWAP3 SWAP6 POP SWAP3 SWAP6 SWAP1 SWAP4 POP JUMP JUMPDEST PUSH0 PUSH2 0xB24 DUP3 PUSH2 0xA5C JUMP JUMPDEST SWAP2 POP PUSH2 0xB2F DUP4 PUSH2 0xA5C JUMP JUMPDEST SWAP3 POP DUP3 DUP3 MUL PUSH2 0xB3D DUP2 PUSH2 0xA5C JUMP JUMPDEST SWAP2 POP PUSH32 0x8000000000000000000000000000000000000000000000000000000000000000 DUP5 EQ PUSH0 DUP5 SLT AND ISZERO PUSH2 0xB74 JUMPI PUSH2 0xB73 PUSH2 0x91F JUMP JUMPDEST JUMPDEST DUP3 DUP3 SDIV DUP5 EQ DUP4 ISZERO OR PUSH2 0xB89 JUMPI PUSH2 0xB88 PUSH2 0x91F JUMP JUMPDEST JUMPDEST POP SWAP3 SWAP2 POP POP JUMP INVALID LOG2 PUSH5 0x6970667358 0x22 SLT KECCAK256 BYTE EXTCODECOPY SWAP7 PUSH2 0xD3A0 0xF6 CODECOPY 0x29 PUSH16 0xE27612EE8297E674923CDC44978ADC0 0xDA DUP7 STATICCALL 0xE9 PUSH16 0x9064736F6C6343000818003300000000 "
				},
				"gasEstimates": {
					"creation": {
						"codeDepositCost": "602800",
						"executionCost": "24901",
						"totalCost": "627701"
					},
					"external": {
						"MINIMUM_USD()": "347",
						"addressToAmountFunded(address)": "2802",
						"fund()": "infinite",
						"funders(uint256)": "5031",
						"owner()": "2552",
						"withdraw()": "infinite"
					}
				},
				"methodIdentifiers": {
					"MINIMUM_USD()": "6b69a592",
					"addressToAmountFunded(address)": "3e47d6f3",
					"fund()": "b60d4288",
					"funders(uint256)": "dc0d3dff",
					"owner()": "8da5cb5b",
					"withdraw()": "3ccfd60b"
				}
			},
			"storageLayout": {
				"storage": [
					{
						"astId": 60,
						"contract": "BlockchainFundamentals/solidity101/fundMe/fundMe.sol:FundMe",
						"label": "funders",
						"offset": 0,
						"slot": "0",
						"type": "t_array(t_address)dyn_storage"
					},
					{
						"astId": 64,
						"contract": "BlockchainFundamentals/solidity101/fundMe/fundMe.sol:FundMe",
						"label": "addressToAmountFunded",
						"offset": 0,
						"slot": "1",
						"type": "t_mapping(t_address,t_uint256)"
					},
					{
						"astId": 66,
						"contract": "BlockchainFundamentals/solidity101/fundMe/fundMe.sol:FundMe",
						"label": "owner",
						"offset": 0,
						"slot": "2",
						"type": "t_address"
					}
				],
				"types": {
					"t_address": {
						"encoding": "inplace",
						"label": "address",
						"numberOfBytes": "20"
					},
					"t_array(t_address)dyn_storage": {
						"base": "t_address",
						"encoding": "dynamic_array",
						"label": "address[]",
						"numberOfBytes": "32"
					},
					"t_mapping(t_address,t_uint256)": {
						"encoding": "mapping",
						"key": "t_address",
						"label": "mapping(address => uint256)",
						"numberOfBytes": "32",
						"value": "t_uint256"
					},
					"t_uint256": {
						"encoding": "inplace",
						"label": "uint256",
						"numberOfBytes": "32"
					}
				}
			},
			"userdoc": {
				"kind": "user",
				"methods": {},
				"version": 1
			}
		}
	}
}