{
	"data": {
		"bytecode": {
			"linkReferences": {},
			"object": "60a060405234801561000f575f5ffd5b506040516145af3803806145af833981810160405281019061003191906100c9565b8073ffffffffffffffffffffffffffffffffffffffff1660808173ffffffffffffffffffffffffffffffffffffffff1681525050506100f4565b5f5ffd5b5f73ffffffffffffffffffffffffffffffffffffffff82169050919050565b5f6100988261006f565b9050919050565b6100a88161008e565b81146100b2575f5ffd5b50565b5f815190506100c38161009f565b92915050565b5f602082840312156100de576100dd61006b565b5b5f6100eb848285016100b5565b91505092915050565b60805161449561011a5f395f8181610456015281816107ff0152610b7201526144955ff3fe60806040526004361061009a575f3560e01c8063808af97311610063578063808af9731461018857806387696d56146101b25780638bf7c2b8146101ee578063a5f8cdbb1461020a578063cc85f08014610226578063d5274202146102625761009a565b8062362a771461009e5780630ccf2156146100ba5780633194bfe1146100e45780635469a708146101225780636207d5411461015e575b5f5ffd5b6100b860048036038101906100b39190610eee565b61028a565b005b3480156100c5575f5ffd5b506100ce6103f3565b6040516100db9190610f31565b60405180910390f35b3480156100ef575f5ffd5b5061010a60048036038101906101059190610eee565b6103f9565b60405161011993929190610fbd565b60405180910390f35b34801561012d575f5ffd5b5061014860048036038101906101439190610ff2565b61042a565b604051610155919061104a565b60405180910390f35b348015610169575f5ffd5b50610172610454565b60405161017f9190611072565b60405180910390f35b348015610193575f5ffd5b5061019c610478565b6040516101a99190610f31565b60405180910390f35b3480156101bd575f5ffd5b506101d860048036038101906101d391906110d8565b61047f565b6040516101e59190611072565b60405180910390f35b6102086004803603810190610203919061113c565b610568565b005b610224600480360381019061021f9190610eee565b6108db565b005b348015610231575f5ffd5b5061024c60048036038101906102479190610eee565b610c48565b6040516102599190610f31565b60405180910390f35b34801561026d575f5ffd5b50610288600480360381019061028391906112f2565b610c5d565b005b5f60015f3373ffffffffffffffffffffffffffffffffffffffff1673ffffffffffffffffffffffffffffffffffffffff1681526020019081526020015f205490505f60015f3373ffffffffffffffffffffffffffffffffffffffff1673ffffffffffffffffffffffffffffffffffffffff1681526020019081526020015f20819055505f810361034f576040517fd647364f00000000000000000000000000000000000000000000000000000000815260040161034690611448565b60405180910390fd5b5f8273ffffffffffffffffffffffffffffffffffffffff168260405161037490611493565b5f6040518083038185875af1925050503d805f81146103ae576040519150601f19603f3d011682016040523d82523d5f602084013e6103b3565b606091505b50509050806103ee576040517f4c22002500000000000000000000000000000000000000000000000000000000815260040160405180910390fd5b505050565b60035481565b5f602052805f5260405f205f91509050805f015490806001015f9054906101000a900460ff16908060020154905083565b6002602052815f5260405f20602052805f5260405f205f915091509054906101000a900460ff1681565b7f000000000000000000000000000000000000000000000000000000000000000081565b6201518081565b5f8473ffffffffffffffffffffffffffffffffffffffff1663612032656040518163ffffffff1660e01b8152600401602060405180830381865afa1580156104c9573d5f5f3e3d5ffd5b505050506040513d601f19601f820116820180604052508101906104ed91906114bb565b73ffffffffffffffffffffffffffffffffffffffff163373ffffffffffffffffffffffffffffffffffffffff1614610551576040517f76ca2c8800000000000000000000000000000000000000000000000000000000815260040160405180910390fd5b61055d85858585610cfa565b849050949350505050565b5f600181111561057b5761057a610f4a565b5b5f5f8573ffffffffffffffffffffffffffffffffffffffff1673ffffffffffffffffffffffffffffffffffffffff1681526020019081526020015f206001015f9054906101000a900460ff1660018111156105d9576105d8610f4a565b5b14610610576040517fb07e326700000000000000000000000000000000000000000000000000000000815260040160405180910390fd5b345f5f8573ffffffffffffffffffffffffffffffffffffffff1673ffffffffffffffffffffffffffffffffffffffff1681526020019081526020015f205f015414610690576040517fd647364f00000000000000000000000000000000000000000000000000000000815260040161068790611530565b60405180910390fd5b6064600a5f5f8673ffffffffffffffffffffffffffffffffffffffff1673ffffffffffffffffffffffffffffffffffffffff1681526020019081526020015f205f01546106dd919061157b565b6106e791906115e9565b6003819055506003545f5f8573ffffffffffffffffffffffffffffffffffffffff1673ffffffffffffffffffffffffffffffffffffffff1681526020019081526020015f205f01546107399190611619565b60015f8573ffffffffffffffffffffffffffffffffffffffff1663612032656040518163ffffffff1660e01b8152600401602060405180830381865afa158015610785573d5f5f3e3d5ffd5b505050506040513d601f19601f820116820180604052508101906107a991906114bb565b73ffffffffffffffffffffffffffffffffffffffff1673ffffffffffffffffffffffffffffffffffffffff1681526020019081526020015f205f8282546107f0919061164c565b9250508190555060035460015f7f000000000000000000000000000000000000000000000000000000000000000073ffffffffffffffffffffffffffffffffffffffff1673ffffffffffffffffffffffffffffffffffffffff1681526020019081526020015f205f828254610865919061164c565b925050819055508273ffffffffffffffffffffffffffffffffffffffff166342842e0e8233856040518463ffffffff1660e01b81526004016108a99392919061167f565b5f604051808303815f87803b1580156108c0575f5ffd5b505af11580156108d2573d5f5f3e3d5ffd5b50505050505050565b5f60018111156108ee576108ed610f4a565b5b5f5f8373ffffffffffffffffffffffffffffffffffffffff1673ffffffffffffffffffffffffffffffffffffffff1681526020019081526020015f206001015f9054906101000a900460ff16600181111561094c5761094b610f4a565b5b14610983576040517fb07e326700000000000000000000000000000000000000000000000000000000815260040160405180910390fd5b345f5f8373ffffffffffffffffffffffffffffffffffffffff1673ffffffffffffffffffffffffffffffffffffffff1681526020019081526020015f205f015414610a03576040517fd647364f0000000000000000000000000000000000000000000000000000000081526004016109fa90611530565b60405180910390fd5b6064600a5f5f8473ffffffffffffffffffffffffffffffffffffffff1673ffffffffffffffffffffffffffffffffffffffff1681526020019081526020015f205f0154610a50919061157b565b610a5a91906115e9565b6003819055506003545f5f8373ffffffffffffffffffffffffffffffffffffffff1673ffffffffffffffffffffffffffffffffffffffff1681526020019081526020015f205f0154610aac9190611619565b60015f8373ffffffffffffffffffffffffffffffffffffffff1663612032656040518163ffffffff1660e01b8152600401602060405180830381865afa158015610af8573d5f5f3e3d5ffd5b505050506040513d601f19601f82011682018060405250810190610b1c91906114bb565b73ffffffffffffffffffffffffffffffffffffffff1673ffffffffffffffffffffffffffffffffffffffff1681526020019081526020015f205f828254610b63919061164c565b9250508190555060035460015f7f000000000000000000000000000000000000000000000000000000000000000073ffffffffffffffffffffffffffffffffffffffff1673ffffffffffffffffffffffffffffffffffffffff1681526020019081526020015f205f828254610bd8919061164c565b925050819055508073ffffffffffffffffffffffffffffffffffffffff166340d097c3336040518263ffffffff1660e01b8152600401610c189190611072565b5f604051808303815f87803b158015610c2f575f5ffd5b505af1158015610c41573d5f5f3e3d5ffd5b5050505050565b6001602052805f5260405f205f915090505481565b5f308a8a8a33888888604051610c7290610e76565b610c83989796959493929190611704565b604051809103905ff080158015610c9c573d5f5f3e3d5ffd5b5090508073ffffffffffffffffffffffffffffffffffffffff167f0227e3b2fb10ea87b3ce0fe9b23554ad992c666dd128c13c0a6ef2d73dd80ba060405160405180910390a2610cee81888888610cfa565b50505050505050505050565b6201518042610d09919061164c565b811015610d4b576040517fd647364f000000000000000000000000000000000000000000000000000000008152600401610d42906117fe565b60405180910390fd5b5f5f5f8673ffffffffffffffffffffffffffffffffffffffff1673ffffffffffffffffffffffffffffffffffffffff1681526020019081526020015f206002015414610dc3576040517fa3d582ec00000000000000000000000000000000000000000000000000000000815260040160405180910390fd5b6040518060600160405280848152602001836001811115610de757610de6610f4a565b5b8152602001828152505f5f8673ffffffffffffffffffffffffffffffffffffffff1673ffffffffffffffffffffffffffffffffffffffff1681526020019081526020015f205f820151815f01556020820151816001015f6101000a81548160ff02191690836001811115610e5e57610e5d610f4a565b5b02179055506040820151816002015590505050505050565b612c438061181d83390190565b5f604051905090565b5f5ffd5b5f5ffd5b5f73ffffffffffffffffffffffffffffffffffffffff82169050919050565b5f610ebd82610e94565b9050919050565b610ecd81610eb3565b8114610ed7575f5ffd5b50565b5f81359050610ee881610ec4565b92915050565b5f60208284031215610f0357610f02610e8c565b5b5f610f1084828501610eda565b91505092915050565b5f819050919050565b610f2b81610f19565b82525050565b5f602082019050610f445f830184610f22565b92915050565b7f4e487b71000000000000000000000000000000000000000000000000000000005f52602160045260245ffd5b60028110610f8857610f87610f4a565b5b50565b5f819050610f9882610f77565b919050565b5f610fa782610f8b565b9050919050565b610fb781610f9d565b82525050565b5f606082019050610fd05f830186610f22565b610fdd6020830185610fae565b610fea6040830184610f22565b949350505050565b5f5f6040838503121561100857611007610e8c565b5b5f61101585828601610eda565b925050602061102685828601610eda565b9150509250929050565b5f8115159050919050565b61104481611030565b82525050565b5f60208201905061105d5f83018461103b565b92915050565b61106c81610eb3565b82525050565b5f6020820190506110855f830184611063565b92915050565b61109481610f19565b811461109e575f5ffd5b50565b5f813590506110af8161108b565b92915050565b600281106110c1575f5ffd5b50565b5f813590506110d2816110b5565b92915050565b5f5f5f5f608085870312156110f0576110ef610e8c565b5b5f6110fd87828801610eda565b945050602061110e878288016110a1565b935050604061111f878288016110c4565b9250506060611130878288016110a1565b91505092959194509250565b5f5f5f6060848603121561115357611152610e8c565b5b5f61116086828701610eda565b9350506020611171868287016110a1565b925050604061118286828701610eda565b9150509250925092565b5f5ffd5b5f5ffd5b5f601f19601f8301169050919050565b7f4e487b71000000000000000000000000000000000000000000000000000000005f52604160045260245ffd5b6111da82611194565b810181811067ffffffffffffffff821117156111f9576111f86111a4565b5b80604052505050565b5f61120b610e83565b905061121782826111d1565b919050565b5f67ffffffffffffffff821115611236576112356111a4565b5b61123f82611194565b9050602081019050919050565b828183375f83830152505050565b5f61126c6112678461121c565b611202565b90508281526020810184848401111561128857611287611190565b5b61129384828561124c565b509392505050565b5f82601f8301126112af576112ae61118c565b5b81356112bf84826020860161125a565b91505092915050565b6112d181611030565b81146112db575f5ffd5b50565b5f813590506112ec816112c8565b92915050565b5f5f5f5f5f5f5f5f5f6101208a8c0312156113105761130f610e8c565b5b5f8a013567ffffffffffffffff81111561132d5761132c610e90565b5b6113398c828d0161129b565b995050602061134a8c828d016110a1565b98505060408a013567ffffffffffffffff81111561136b5761136a610e90565b5b6113778c828d0161129b565b97505060606113888c828d016110a1565b96505060806113998c828d016110c4565b95505060a06113aa8c828d016110a1565b94505060c06113bb8c828d016112de565b93505060e06113cc8c828d01610eda565b9250506101006113de8c828d016110a1565b9150509295985092959850929598565b5f82825260208201905092915050565b7f62616c616e6365206973207a65726f00000000000000000000000000000000005f82015250565b5f611432600f836113ee565b915061143d826113fe565b602082019050919050565b5f6020820190508181035f83015261145f81611426565b9050919050565b5f81905092915050565b50565b5f61147e5f83611466565b915061148982611470565b5f82019050919050565b5f61149d82611473565b9150819050919050565b5f815190506114b581610ec4565b92915050565b5f602082840312156114d0576114cf610e8c565b5b5f6114dd848285016114a7565b91505092915050565b7f73656e642076616c756520696e636f72726563740000000000000000000000005f82015250565b5f61151a6014836113ee565b9150611525826114e6565b602082019050919050565b5f6020820190508181035f8301526115478161150e565b9050919050565b7f4e487b71000000000000000000000000000000000000000000000000000000005f52601160045260245ffd5b5f61158582610f19565b915061159083610f19565b925082820261159e81610f19565b915082820484148315176115b5576115b461154e565b5b5092915050565b7f4e487b71000000000000000000000000000000000000000000000000000000005f52601260045260245ffd5b5f6115f382610f19565b91506115fe83610f19565b92508261160e5761160d6115bc565b5b828204905092915050565b5f61162382610f19565b915061162e83610f19565b92508282039050818111156116465761164561154e565b5b92915050565b5f61165682610f19565b915061166183610f19565b92508282019050808211156116795761167861154e565b5b92915050565b5f6060820190506116925f830186611063565b61169f6020830185611063565b6116ac6040830184610f22565b949350505050565b5f81519050919050565b8281835e5f83830152505050565b5f6116d6826116b4565b6116e081856113ee565b93506116f08185602086016116be565b6116f981611194565b840191505092915050565b5f610100820190506117185f83018b611063565b818103602083015261172a818a6116cc565b90506117396040830189610f22565b818103606083015261174b81886116cc565b905061175a6080830187611063565b61176760a083018661103b565b61177460c0830185611063565b61178160e0830184610f22565b9998505050505050505050565b7f4d696e696d756d2073616c6520706572696f64206f6e652064617920696e20745f8201527f6865206675747572650000000000000000000000000000000000000000000000602082015250565b5f6117e86029836113ee565b91506117f38261178e565b604082019050919050565b5f6020820190508181035f830152611815816117dc565b905091905056fe60c060405234801561000f575f5ffd5b50604051612c43380380612c438339818101604052810190610031919061047e565b878760405180602001604052805f815250815f9081610050919061076e565b508060019081610060919061076e565b5050505f73ffffffffffffffffffffffffffffffffffffffff168173ffffffffffffffffffffffffffffffffffffffff16036100d3575f6040517f1e4fbdf70000000000000000000000000000000000000000000000000000000081526004016100ca919061084c565b60405180910390fd5b6100e2816101ac60201b60201c565b50856080818152505084600790816100fa919061076e565b50600a60088190555083600a5f6101000a81548173ffffffffffffffffffffffffffffffffffffffff021916908373ffffffffffffffffffffffffffffffffffffffff16021790555082151560a0811515815250508060088190555060a0511561019f5781600b5f6101000a81548173ffffffffffffffffffffffffffffffffffffffff021916908373ffffffffffffffffffffffffffffffffffffffff1602179055505b5050505050505050610865565b5f60065f9054906101000a900473ffffffffffffffffffffffffffffffffffffffff1690508160065f6101000a81548173ffffffffffffffffffffffffffffffffffffffff021916908373ffffffffffffffffffffffffffffffffffffffff1602179055508173ffffffffffffffffffffffffffffffffffffffff168173ffffffffffffffffffffffffffffffffffffffff167f8be0079c531659141344cd1fd0a4f28419497f9722a3daafe3b4186f6b6457e060405160405180910390a35050565b5f604051905090565b5f5ffd5b5f5ffd5b5f73ffffffffffffffffffffffffffffffffffffffff82169050919050565b5f6102a982610280565b9050919050565b6102b98161029f565b81146102c3575f5ffd5b50565b5f815190506102d4816102b0565b92915050565b5f5ffd5b5f5ffd5b5f601f19601f8301169050919050565b7f4e487b71000000000000000000000000000000000000000000000000000000005f52604160045260245ffd5b610328826102e2565b810181811067ffffffffffffffff82111715610347576103466102f2565b5b80604052505050565b5f61035961026f565b9050610365828261031f565b919050565b5f67ffffffffffffffff821115610384576103836102f2565b5b61038d826102e2565b9050602081019050919050565b8281835e5f83830152505050565b5f6103ba6103b58461036a565b610350565b9050828152602081018484840111156103d6576103d56102de565b5b6103e184828561039a565b509392505050565b5f82601f8301126103fd576103fc6102da565b5b815161040d8482602086016103a8565b91505092915050565b5f819050919050565b61042881610416565b8114610432575f5ffd5b50565b5f815190506104438161041f565b92915050565b5f8115159050919050565b61045d81610449565b8114610467575f5ffd5b50565b5f8151905061047881610454565b92915050565b5f5f5f5f5f5f5f5f610100898b03121561049b5761049a610278565b5b5f6104a88b828c016102c6565b985050602089015167ffffffffffffffff8111156104c9576104c861027c565b5b6104d58b828c016103e9565b97505060406104e68b828c01610435565b965050606089015167ffffffffffffffff8111156105075761050661027c565b5b6105138b828c016103e9565b95505060806105248b828c016102c6565b94505060a06105358b828c0161046a565b93505060c06105468b828c016102c6565b92505060e06105578b828c01610435565b9150509295985092959890939650565b5f81519050919050565b7f4e487b71000000000000000000000000000000000000000000000000000000005f52602260045260245ffd5b5f60028204905060018216806105b557607f821691505b6020821081036105c8576105c7610571565b5b50919050565b5f819050815f5260205f209050919050565b5f6020601f8301049050919050565b5f82821b905092915050565b5f6008830261062a7fffffffffffffffffffffffffffffffffffffffffffffffffffffffffffffffff826105ef565b61063486836105ef565b95508019841693508086168417925050509392505050565b5f819050919050565b5f61066f61066a61066584610416565b61064c565b610416565b9050919050565b5f819050919050565b61068883610655565b61069c61069482610676565b8484546105fb565b825550505050565b5f5f905090565b6106b36106a4565b6106be81848461067f565b505050565b5b818110156106e1576106d65f826106ab565b6001810190506106c4565b5050565b601f821115610726576106f7816105ce565b610700846105e0565b8101602085101561070f578190505b61072361071b856105e0565b8301826106c3565b50505b505050565b5f82821c905092915050565b5f6107465f198460080261072b565b1980831691505092915050565b5f61075e8383610737565b9150826002028217905092915050565b61077782610567565b67ffffffffffffffff8111156107905761078f6102f2565b5b61079a825461059e565b6107a58282856106e5565b5f60209050601f8311600181146107d6575f84156107c4578287015190505b6107ce8582610753565b865550610835565b601f1984166107e4866105ce565b5f5b8281101561080b578489015182556001820191506020850194506020810190506107e6565b868310156108285784890151610824601f891682610737565b8355505b6001600288020188555050505b505050505050565b6108468161029f565b82525050565b5f60208201905061085f5f83018461083d565b92915050565b60805160a0516123b661088d5f395f8181610bd90152610d3f01525f61071601526123b65ff3fe608060405234801561000f575f5ffd5b5060043610610156575f3560e01c806370a08231116100c1578063b88d4fde1161007a578063b88d4fde146103a0578063c87b56dd146103bc578063c9b53900146103ec578063e985e9c51461040a578063f2fde38b1461043a578063f615cb5a1461045657610156565b806370a08231146102f0578063715018a61461032057806375794a3c1461032a5780638da5cb5b1461034857806395d89b4114610366578063a22cb4651461038457610156565b806340d097c31161011357806340d097c31461022e57806342842e0e1461024a578063516f279e1461026657806354d060091461028457806361203265146102a25780636352211e146102c057610156565b806301ffc9a71461015a57806306fdde031461018a578063081812fc146101a8578063095ea7b3146101d857806323b872dd146101f4578063323046b114610210575b5f5ffd5b610174600480360381019061016f9190611bf9565b610474565b6040516101819190611c3e565b60405180910390f35b610192610555565b60405161019f9190611cc7565b60405180910390f35b6101c260048036038101906101bd9190611d1a565b6105e4565b6040516101cf9190611d84565b60405180910390f35b6101f260048036038101906101ed9190611dc7565b6105ff565b005b61020e60048036038101906102099190611e05565b610615565b005b610218610714565b6040516102259190611e64565b60405180910390f35b61024860048036038101906102439190611e7d565b610738565b005b610264600480360381019061025f9190611e05565b610791565b005b61026e6107b0565b60405161027b9190611cc7565b60405180910390f35b61028c61083c565b6040516102999190611d84565b60405180910390f35b6102aa610861565b6040516102b79190611d84565b60405180910390f35b6102da60048036038101906102d59190611d1a565b610886565b6040516102e79190611d84565b60405180910390f35b61030a60048036038101906103059190611e7d565b610897565b6040516103179190611e64565b60405180910390f35b61032861094d565b005b610332610960565b60405161033f9190611e64565b60405180910390f35b610350610966565b60405161035d9190611d84565b60405180910390f35b61036e61098e565b60405161037b9190611cc7565b60405180910390f35b61039e60048036038101906103999190611ed2565b610a1e565b005b6103ba60048036038101906103b5919061203c565b610a34565b005b6103d660048036038101906103d19190611d1a565b610a59565b6040516103e39190611cc7565b60405180910390f35b6103f4610abf565b6040516104019190611e64565b60405180910390f35b610424600480360381019061041f91906120bc565b610ac5565b6040516104319190611c3e565b60405180910390f35b610454600480360381019061044f9190611e7d565b610b53565b005b61045e610bd7565b60405161046b9190611c3e565b60405180910390f35b5f7f80ac58cd000000000000000000000000000000000000000000000000000000007bffffffffffffffffffffffffffffffffffffffffffffffffffffffff1916827bffffffffffffffffffffffffffffffffffffffffffffffffffffffff1916148061053e57507f5b5e139f000000000000000000000000000000000000000000000000000000007bffffffffffffffffffffffffffffffffffffffffffffffffffffffff1916827bffffffffffffffffffffffffffffffffffffffffffffffffffffffff1916145b8061054e575061054d82610bfb565b5b9050919050565b60605f805461056390612127565b80601f016020809104026020016040519081016040528092919081815260200182805461058f90612127565b80156105da5780601f106105b1576101008083540402835291602001916105da565b820191905f5260205f20905b8154815290600101906020018083116105bd57829003601f168201915b5050505050905090565b5f6105ee82610c64565b506105f882610cea565b9050919050565b610611828261060c610d23565b610d2a565b5050565b5f73ffffffffffffffffffffffffffffffffffffffff168273ffffffffffffffffffffffffffffffffffffffff1603610685575f6040517f64a0ae9200000000000000000000000000000000000000000000000000000000815260040161067c9190611d84565b60405180910390fd5b5f6106988383610693610d23565b610d3c565b90508373ffffffffffffffffffffffffffffffffffffffff168173ffffffffffffffffffffffffffffffffffffffff161461070e578382826040517f64283d7b00000000000000000000000000000000000000000000000000000000815260040161070593929190612157565b60405180910390fd5b50505050565b7f000000000000000000000000000000000000000000000000000000000000000081565b610740610e4a565b6008546009540361077d576040517ff04cbd4a00000000000000000000000000000000000000000000000000000000815260040160405180910390fd5b5f600954905061078d8282610ed1565b5050565b6107ab83838360405180602001604052805f815250610a34565b505050565b600780546107bd90612127565b80601f01602080910402602001604051908101604052809291908181526020018280546107e990612127565b80156108345780601f1061080b57610100808354040283529160200191610834565b820191905f5260205f20905b81548152906001019060200180831161081757829003601f168201915b505050505081565b600b5f9054906101000a900473ffffffffffffffffffffffffffffffffffffffff1681565b600a5f9054906101000a900473ffffffffffffffffffffffffffffffffffffffff1681565b5f61089082610c64565b9050919050565b5f5f73ffffffffffffffffffffffffffffffffffffffff168273ffffffffffffffffffffffffffffffffffffffff1603610908575f6040517f89c62b640000000000000000000000000000000000000000000000000000000081526004016108ff9190611d84565b60405180910390fd5b60035f8373ffffffffffffffffffffffffffffffffffffffff1673ffffffffffffffffffffffffffffffffffffffff1681526020019081526020015f20549050919050565b610955610e4a565b61095e5f610eee565b565b60095481565b5f60065f9054906101000a900473ffffffffffffffffffffffffffffffffffffffff16905090565b60606001805461099d90612127565b80601f01602080910402602001604051908101604052809291908181526020018280546109c990612127565b8015610a145780601f106109eb57610100808354040283529160200191610a14565b820191905f5260205f20905b8154815290600101906020018083116109f757829003601f168201915b5050505050905090565b610a30610a29610d23565b8383610fb1565b5050565b610a3f848484610615565b610a53610a4a610d23565b8585858561111a565b50505050565b6060610a6482610c64565b505f610a6e6112c6565b90505f815111610a8c5760405180602001604052805f815250610ab7565b80610a96846112dc565b604051602001610aa79291906121c6565b6040516020818303038152906040525b915050919050565b60085481565b5f60055f8473ffffffffffffffffffffffffffffffffffffffff1673ffffffffffffffffffffffffffffffffffffffff1681526020019081526020015f205f8373ffffffffffffffffffffffffffffffffffffffff1673ffffffffffffffffffffffffffffffffffffffff1681526020019081526020015f205f9054906101000a900460ff16905092915050565b610b5b610e4a565b5f73ffffffffffffffffffffffffffffffffffffffff168173ffffffffffffffffffffffffffffffffffffffff1603610bcb575f6040517f1e4fbdf7000000000000000000000000000000000000000000000000000000008152600401610bc29190611d84565b60405180910390fd5b610bd481610eee565b50565b7f000000000000000000000000000000000000000000000000000000000000000081565b5f7f01ffc9a7000000000000000000000000000000000000000000000000000000007bffffffffffffffffffffffffffffffffffffffffffffffffffffffff1916827bffffffffffffffffffffffffffffffffffffffffffffffffffffffff1916149050919050565b5f5f610c6f836113a6565b90505f73ffffffffffffffffffffffffffffffffffffffff168173ffffffffffffffffffffffffffffffffffffffff1603610ce157826040517f7e273289000000000000000000000000000000000000000000000000000000008152600401610cd89190611e64565b60405180910390fd5b80915050919050565b5f60045f8381526020019081526020015f205f9054906101000a900473ffffffffffffffffffffffffffffffffffffffff169050919050565b5f33905090565b610d3783838360016113df565b505050565b5f7f00000000000000000000000000000000000000000000000000000000000000008015610d9d5750610d6d610966565b73ffffffffffffffffffffffffffffffffffffffff163373ffffffffffffffffffffffffffffffffffffffff1614155b8015610df657508373ffffffffffffffffffffffffffffffffffffffff16600b5f9054906101000a900473ffffffffffffffffffffffffffffffffffffffff1673ffffffffffffffffffffffffffffffffffffffff1614155b15610e36576040517f08c379a0000000000000000000000000000000000000000000000000000000008152600401610e2d90612233565b60405180910390fd5b610e4184848461159e565b90509392505050565b610e52610d23565b73ffffffffffffffffffffffffffffffffffffffff16610e70610966565b73ffffffffffffffffffffffffffffffffffffffff1614610ecf57610e93610d23565b6040517f118cdaa7000000000000000000000000000000000000000000000000000000008152600401610ec69190611d84565b60405180910390fd5b565b610eea828260405180602001604052805f8152506117a9565b5050565b5f60065f9054906101000a900473ffffffffffffffffffffffffffffffffffffffff1690508160065f6101000a81548173ffffffffffffffffffffffffffffffffffffffff021916908373ffffffffffffffffffffffffffffffffffffffff1602179055508173ffffffffffffffffffffffffffffffffffffffff168173ffffffffffffffffffffffffffffffffffffffff167f8be0079c531659141344cd1fd0a4f28419497f9722a3daafe3b4186f6b6457e060405160405180910390a35050565b5f73ffffffffffffffffffffffffffffffffffffffff168273ffffffffffffffffffffffffffffffffffffffff160361102157816040517f5b08ba180000000000000000000000000000000000000000000000000000000081526004016110189190611d84565b60405180910390fd5b8060055f8573ffffffffffffffffffffffffffffffffffffffff1673ffffffffffffffffffffffffffffffffffffffff1681526020019081526020015f205f8473ffffffffffffffffffffffffffffffffffffffff1673ffffffffffffffffffffffffffffffffffffffff1681526020019081526020015f205f6101000a81548160ff0219169083151502179055508173ffffffffffffffffffffffffffffffffffffffff168373ffffffffffffffffffffffffffffffffffffffff167f17307eab39ab6107e8899845ad3d59bd9653f200f220920489ca2b5937696c318360405161110d9190611c3e565b60405180910390a3505050565b5f8373ffffffffffffffffffffffffffffffffffffffff163b11156112bf578273ffffffffffffffffffffffffffffffffffffffff1663150b7a02868685856040518563ffffffff1660e01b815260040161117894939291906122a3565b6020604051808303815f875af19250505080156111b357506040513d601f19601f820116820180604052508101906111b09190612301565b60015b611234573d805f81146111e1576040519150601f19603f3d011682016040523d82523d5f602084013e6111e6565b606091505b505f81510361122c57836040517f64a0ae920000000000000000000000000000000000000000000000000000000081526004016112239190611d84565b60405180910390fd5b805181602001fd5b63150b7a0260e01b7bffffffffffffffffffffffffffffffffffffffffffffffffffffffff1916817bffffffffffffffffffffffffffffffffffffffffffffffffffffffff1916146112bd57836040517f64a0ae920000000000000000000000000000000000000000000000000000000081526004016112b49190611d84565b60405180910390fd5b505b5050505050565b606060405180602001604052805f815250905090565b60605f60016112ea846117cc565b0190505f8167ffffffffffffffff81111561130857611307611f18565b5b6040519080825280601f01601f19166020018201604052801561133a5781602001600182028036833780820191505090505b5090505f82602001820190505b60011561139b578080600190039150507f3031323334353637383961626364656600000000000000000000000000000000600a86061a8153600a85816113905761138f61232c565b5b0494505f8503611347575b819350505050919050565b5f60025f8381526020019081526020015f205f9054906101000a900473ffffffffffffffffffffffffffffffffffffffff169050919050565b808061141757505f73ffffffffffffffffffffffffffffffffffffffff168273ffffffffffffffffffffffffffffffffffffffff1614155b15611549575f61142684610c64565b90505f73ffffffffffffffffffffffffffffffffffffffff168373ffffffffffffffffffffffffffffffffffffffff161415801561149057508273ffffffffffffffffffffffffffffffffffffffff168173ffffffffffffffffffffffffffffffffffffffff1614155b80156114a357506114a18184610ac5565b155b156114e557826040517fa9fbf51f0000000000000000000000000000000000000000000000000000000081526004016114dc9190611d84565b60405180910390fd5b811561154757838573ffffffffffffffffffffffffffffffffffffffff168273ffffffffffffffffffffffffffffffffffffffff167f8c5be1e5ebec7d5bd14f71427d1e84f3dd0314c0f7b2291e5b200ac8c7c3b92560405160405180910390a45b505b8360045f8581526020019081526020015f205f6101000a81548173ffffffffffffffffffffffffffffffffffffffff021916908373ffffffffffffffffffffffffffffffffffffffff16021790555050505050565b5f5f6115a9846113a6565b90505f73ffffffffffffffffffffffffffffffffffffffff168373ffffffffffffffffffffffffffffffffffffffff16146115ea576115e981848661191d565b5b5f73ffffffffffffffffffffffffffffffffffffffff168173ffffffffffffffffffffffffffffffffffffffff1614611675576116295f855f5f6113df565b600160035f8373ffffffffffffffffffffffffffffffffffffffff1673ffffffffffffffffffffffffffffffffffffffff1681526020019081526020015f205f82825403925050819055505b5f73ffffffffffffffffffffffffffffffffffffffff168573ffffffffffffffffffffffffffffffffffffffff16146116f457600160035f8773ffffffffffffffffffffffffffffffffffffffff1673ffffffffffffffffffffffffffffffffffffffff1681526020019081526020015f205f82825401925050819055505b8460025f8681526020019081526020015f205f6101000a81548173ffffffffffffffffffffffffffffffffffffffff021916908373ffffffffffffffffffffffffffffffffffffffff160217905550838573ffffffffffffffffffffffffffffffffffffffff168273ffffffffffffffffffffffffffffffffffffffff167fddf252ad1be2c89b69c2b068fc378daa952ba7f163c4a11628f55a4df523b3ef60405160405180910390a4809150509392505050565b6117b383836119e0565b6117c76117be610d23565b5f85858561111a565b505050565b5f5f5f90507a184f03e93ff9f4daa797ed6e38ed64bf6a1f0100000000000000008310611828577a184f03e93ff9f4daa797ed6e38ed64bf6a1f010000000000000000838161181e5761181d61232c565b5b0492506040810190505b6d04ee2d6d415b85acef81000000008310611865576d04ee2d6d415b85acef8100000000838161185b5761185a61232c565b5b0492506020810190505b662386f26fc10000831061189457662386f26fc10000838161188a5761188961232c565b5b0492506010810190505b6305f5e10083106118bd576305f5e10083816118b3576118b261232c565b5b0492506008810190505b61271083106118e25761271083816118d8576118d761232c565b5b0492506004810190505b6064831061190557606483816118fb576118fa61232c565b5b0492506002810190505b600a8310611914576001810190505b80915050919050565b611928838383611ad3565b6119db575f73ffffffffffffffffffffffffffffffffffffffff168373ffffffffffffffffffffffffffffffffffffffff160361199c57806040517f7e2732890000000000000000000000000000000000000000000000000000000081526004016119939190611e64565b60405180910390fd5b81816040517f177e802f0000000000000000000000000000000000000000000000000000000081526004016119d2929190612359565b60405180910390fd5b505050565b5f73ffffffffffffffffffffffffffffffffffffffff168273ffffffffffffffffffffffffffffffffffffffff1603611a50575f6040517f64a0ae92000000000000000000000000000000000000000000000000000000008152600401611a479190611d84565b60405180910390fd5b5f611a5c83835f610d3c565b90505f73ffffffffffffffffffffffffffffffffffffffff168173ffffffffffffffffffffffffffffffffffffffff1614611ace575f6040517f73c6ac6e000000000000000000000000000000000000000000000000000000008152600401611ac59190611d84565b60405180910390fd5b505050565b5f5f73ffffffffffffffffffffffffffffffffffffffff168373ffffffffffffffffffffffffffffffffffffffff1614158015611b8a57508273ffffffffffffffffffffffffffffffffffffffff168473ffffffffffffffffffffffffffffffffffffffff161480611b4b5750611b4a8484610ac5565b5b80611b8957508273ffffffffffffffffffffffffffffffffffffffff16611b7183610cea565b73ffffffffffffffffffffffffffffffffffffffff16145b5b90509392505050565b5f604051905090565b5f5ffd5b5f5ffd5b5f7fffffffff0000000000000000000000000000000000000000000000000000000082169050919050565b611bd881611ba4565b8114611be2575f5ffd5b50565b5f81359050611bf381611bcf565b92915050565b5f60208284031215611c0e57611c0d611b9c565b5b5f611c1b84828501611be5565b91505092915050565b5f8115159050919050565b611c3881611c24565b82525050565b5f602082019050611c515f830184611c2f565b92915050565b5f81519050919050565b5f82825260208201905092915050565b8281835e5f83830152505050565b5f601f19601f8301169050919050565b5f611c9982611c57565b611ca38185611c61565b9350611cb3818560208601611c71565b611cbc81611c7f565b840191505092915050565b5f6020820190508181035f830152611cdf8184611c8f565b905092915050565b5f819050919050565b611cf981611ce7565b8114611d03575f5ffd5b50565b5f81359050611d1481611cf0565b92915050565b5f60208284031215611d2f57611d2e611b9c565b5b5f611d3c84828501611d06565b91505092915050565b5f73ffffffffffffffffffffffffffffffffffffffff82169050919050565b5f611d6e82611d45565b9050919050565b611d7e81611d64565b82525050565b5f602082019050611d975f830184611d75565b92915050565b611da681611d64565b8114611db0575f5ffd5b50565b5f81359050611dc181611d9d565b92915050565b5f5f60408385031215611ddd57611ddc611b9c565b5b5f611dea85828601611db3565b9250506020611dfb85828601611d06565b9150509250929050565b5f5f5f60608486031215611e1c57611e1b611b9c565b5b5f611e2986828701611db3565b9350506020611e3a86828701611db3565b9250506040611e4b86828701611d06565b9150509250925092565b611e5e81611ce7565b82525050565b5f602082019050611e775f830184611e55565b92915050565b5f60208284031215611e9257611e91611b9c565b5b5f611e9f84828501611db3565b91505092915050565b611eb181611c24565b8114611ebb575f5ffd5b50565b5f81359050611ecc81611ea8565b92915050565b5f5f60408385031215611ee857611ee7611b9c565b5b5f611ef585828601611db3565b9250506020611f0685828601611ebe565b9150509250929050565b5f5ffd5b5f5ffd5b7f4e487b71000000000000000000000000000000000000000000000000000000005f52604160045260245ffd5b611f4e82611c7f565b810181811067ffffffffffffffff82111715611f6d57611f6c611f18565b5b80604052505050565b5f611f7f611b93565b9050611f8b8282611f45565b919050565b5f67ffffffffffffffff821115611faa57611fa9611f18565b5b611fb382611c7f565b9050602081019050919050565b828183375f83830152505050565b5f611fe0611fdb84611f90565b611f76565b905082815260208101848484011115611ffc57611ffb611f14565b5b612007848285611fc0565b509392505050565b5f82601f83011261202357612022611f10565b5b8135612033848260208601611fce565b91505092915050565b5f5f5f5f6080858703121561205457612053611b9c565b5b5f61206187828801611db3565b945050602061207287828801611db3565b935050604061208387828801611d06565b925050606085013567ffffffffffffffff8111156120a4576120a3611ba0565b5b6120b08782880161200f565b91505092959194509250565b5f5f604083850312156120d2576120d1611b9c565b5b5f6120df85828601611db3565b92505060206120f085828601611db3565b9150509250929050565b7f4e487b71000000000000000000000000000000000000000000000000000000005f52602260045260245ffd5b5f600282049050600182168061213e57607f821691505b602082108103612151576121506120fa565b5b50919050565b5f60608201905061216a5f830186611d75565b6121776020830185611e55565b6121846040830184611d75565b949350505050565b5f81905092915050565b5f6121a082611c57565b6121aa818561218c565b93506121ba818560208601611c71565b80840191505092915050565b5f6121d18285612196565b91506121dd8284612196565b91508190509392505050565b7f696e76616c6964207472616e73666572202870726963652063617029000000005f82015250565b5f61221d601c83611c61565b9150612228826121e9565b602082019050919050565b5f6020820190508181035f83015261224a81612211565b9050919050565b5f81519050919050565b5f82825260208201905092915050565b5f61227582612251565b61227f818561225b565b935061228f818560208601611c71565b61229881611c7f565b840191505092915050565b5f6080820190506122b65f830187611d75565b6122c36020830186611d75565b6122d06040830185611e55565b81810360608301526122e2818461226b565b905095945050505050565b5f815190506122fb81611bcf565b92915050565b5f6020828403121561231657612315611b9c565b5b5f612323848285016122ed565b91505092915050565b7f4e487b71000000000000000000000000000000000000000000000000000000005f52601260045260245ffd5b5f60408201905061236c5f830185611d75565b6123796020830184611e55565b939250505056fea26469706673582212209d0119bc77614dd9510105a589d06abc813778899756fba8d6866a48e7b00a1c64736f6c634300081c0033a2646970667358221220494cd4a7a9a3df655feeda0cc4eddd2e4c1192c1b6caba9071b12289a6cf2d6f64736f6c634300081c0033",
			"opcodes": "PUSH1 0xA0 PUSH1 0x40 MSTORE CALLVALUE DUP1 ISZERO PUSH2 0xF JUMPI PUSH0 PUSH0 REVERT JUMPDEST POP PUSH1 0x40 MLOAD PUSH2 0x45AF CODESIZE SUB DUP1 PUSH2 0x45AF DUP4 CODECOPY DUP2 DUP2 ADD PUSH1 0x40 MSTORE DUP2 ADD SWAP1 PUSH2 0x31 SWAP2 SWAP1 PUSH2 0xC9 JUMP JUMPDEST DUP1 PUSH20 0xFFFFFFFFFFFFFFFFFFFFFFFFFFFFFFFFFFFFFFFF AND PUSH1 0x80 DUP2 PUSH20 0xFFFFFFFFFFFFFFFFFFFFFFFFFFFFFFFFFFFFFFFF AND DUP2 MSTORE POP POP POP PUSH2 0xF4 JUMP JUMPDEST PUSH0 PUSH0 REVERT JUMPDEST PUSH0 PUSH20 0xFFFFFFFFFFFFFFFFFFFFFFFFFFFFFFFFFFFFFFFF DUP3 AND SWAP1 POP SWAP2 SWAP1 POP JUMP JUMPDEST PUSH0 PUSH2 0x98 DUP3 PUSH2 0x6F JUMP JUMPDEST SWAP1 POP SWAP2 SWAP1 POP JUMP JUMPDEST PUSH2 0xA8 DUP2 PUSH2 0x8E JUMP JUMPDEST DUP2 EQ PUSH2 0xB2 JUMPI PUSH0 PUSH0 REVERT JUMPDEST POP JUMP JUMPDEST PUSH0 DUP2 MLOAD SWAP1 POP PUSH2 0xC3 DUP2 PUSH2 0x9F JUMP JUMPDEST SWAP3 SWAP2 POP POP JUMP JUMPDEST PUSH0 PUSH1 0x20 DUP3 DUP5 SUB SLT ISZERO PUSH2 0xDE JUMPI PUSH2 0xDD PUSH2 0x6B JUMP JUMPDEST JUMPDEST PUSH0 PUSH2 0xEB DUP5 DUP3 DUP6 ADD PUSH2 0xB5 JUMP JUMPDEST SWAP2 POP POP SWAP3 SWAP2 POP POP JUMP JUMPDEST PUSH1 0x80 MLOAD PUSH2 0x4495 PUSH2 0x11A PUSH0 CODECOPY PUSH0 DUP2 DUP2 PUSH2 0x456 ADD MSTORE DUP2 DUP2 PUSH2 0x7FF ADD MSTORE PUSH2 0xB72 ADD MSTORE PUSH2 0x4495 PUSH0 RETURN INVALID PUSH1 0x80 PUSH1 0x40 MSTORE PUSH1 0x4 CALLDATASIZE LT PUSH2 0x9A JUMPI PUSH0 CALLDATALOAD PUSH1 0xE0 SHR DUP1 PUSH4 0x808AF973 GT PUSH2 0x63 JUMPI DUP1 PUSH4 0x808AF973 EQ PUSH2 0x188 JUMPI DUP1 PUSH4 0x87696D56 EQ PUSH2 0x1B2 JUMPI DUP1 PUSH4 0x8BF7C2B8 EQ PUSH2 0x1EE JUMPI DUP1 PUSH4 0xA5F8CDBB EQ PUSH2 0x20A JUMPI DUP1 PUSH4 0xCC85F080 EQ PUSH2 0x226 JUMPI DUP1 PUSH4 0xD5274202 EQ PUSH2 0x262 JUMPI PUSH2 0x9A JUMP JUMPDEST DUP1 PUSH3 0x362A77 EQ PUSH2 0x9E JUMPI DUP1 PUSH4 0xCCF2156 EQ PUSH2 0xBA JUMPI DUP1 PUSH4 0x3194BFE1 EQ PUSH2 0xE4 JUMPI DUP1 PUSH4 0x5469A708 EQ PUSH2 0x122 JUMPI DUP1 PUSH4 0x6207D541 EQ PUSH2 0x15E JUMPI JUMPDEST PUSH0 PUSH0 REVERT JUMPDEST PUSH2 0xB8 PUSH1 0x4 DUP1 CALLDATASIZE SUB DUP2 ADD SWAP1 PUSH2 0xB3 SWAP2 SWAP1 PUSH2 0xEEE JUMP JUMPDEST PUSH2 0x28A JUMP JUMPDEST STOP JUMPDEST CALLVALUE DUP1 ISZERO PUSH2 0xC5 JUMPI PUSH0 PUSH0 REVERT JUMPDEST POP PUSH2 0xCE PUSH2 0x3F3 JUMP JUMPDEST PUSH1 0x40 MLOAD PUSH2 0xDB SWAP2 SWAP1 PUSH2 0xF31 JUMP JUMPDEST PUSH1 0x40 MLOAD DUP1 SWAP2 SUB SWAP1 RETURN JUMPDEST CALLVALUE DUP1 ISZERO PUSH2 0xEF JUMPI PUSH0 PUSH0 REVERT JUMPDEST POP PUSH2 0x10A PUSH1 0x4 DUP1 CALLDATASIZE SUB DUP2 ADD SWAP1 PUSH2 0x105 SWAP2 SWAP1 PUSH2 0xEEE JUMP JUMPDEST PUSH2 0x3F9 JUMP JUMPDEST PUSH1 0x40 MLOAD PUSH2 0x119 SWAP4 SWAP3 SWAP2 SWAP1 PUSH2 0xFBD JUMP JUMPDEST PUSH1 0x40 MLOAD DUP1 SWAP2 SUB SWAP1 RETURN JUMPDEST CALLVALUE DUP1 ISZERO PUSH2 0x12D JUMPI PUSH0 PUSH0 REVERT JUMPDEST POP PUSH2 0x148 PUSH1 0x4 DUP1 CALLDATASIZE SUB DUP2 ADD SWAP1 PUSH2 0x143 SWAP2 SWAP1 PUSH2 0xFF2 JUMP JUMPDEST PUSH2 0x42A JUMP JUMPDEST PUSH1 0x40 MLOAD PUSH2 0x155 SWAP2 SWAP1 PUSH2 0x104A JUMP JUMPDEST PUSH1 0x40 MLOAD DUP1 SWAP2 SUB SWAP1 RETURN JUMPDEST CALLVALUE DUP1 ISZERO PUSH2 0x169 JUMPI PUSH0 PUSH0 REVERT JUMPDEST POP PUSH2 0x172 PUSH2 0x454 JUMP JUMPDEST PUSH1 0x40 MLOAD PUSH2 0x17F SWAP2 SWAP1 PUSH2 0x1072 JUMP JUMPDEST PUSH1 0x40 MLOAD DUP1 SWAP2 SUB SWAP1 RETURN JUMPDEST CALLVALUE DUP1 ISZERO PUSH2 0x193 JUMPI PUSH0 PUSH0 REVERT JUMPDEST POP PUSH2 0x19C PUSH2 0x478 JUMP JUMPDEST PUSH1 0x40 MLOAD PUSH2 0x1A9 SWAP2 SWAP1 PUSH2 0xF31 JUMP JUMPDEST PUSH1 0x40 MLOAD DUP1 SWAP2 SUB SWAP1 RETURN JUMPDEST CALLVALUE DUP1 ISZERO PUSH2 0x1BD JUMPI PUSH0 PUSH0 REVERT JUMPDEST POP PUSH2 0x1D8 PUSH1 0x4 DUP1 CALLDATASIZE SUB DUP2 ADD SWAP1 PUSH2 0x1D3 SWAP2 SWAP1 PUSH2 0x10D8 JUMP JUMPDEST PUSH2 0x47F JUMP JUMPDEST PUSH1 0x40 MLOAD PUSH2 0x1E5 SWAP2 SWAP1 PUSH2 0x1072 JUMP JUMPDEST PUSH1 0x40 MLOAD DUP1 SWAP2 SUB SWAP1 RETURN JUMPDEST PUSH2 0x208 PUSH1 0x4 DUP1 CALLDATASIZE SUB DUP2 ADD SWAP1 PUSH2 0x203 SWAP2 SWAP1 PUSH2 0x113C JUMP JUMPDEST PUSH2 0x568 JUMP JUMPDEST STOP JUMPDEST PUSH2 0x224 PUSH1 0x4 DUP1 CALLDATASIZE SUB DUP2 ADD SWAP1 PUSH2 0x21F SWAP2 SWAP1 PUSH2 0xEEE JUMP JUMPDEST PUSH2 0x8DB JUMP JUMPDEST STOP JUMPDEST CALLVALUE DUP1 ISZERO PUSH2 0x231 JUMPI PUSH0 PUSH0 REVERT JUMPDEST POP PUSH2 0x24C PUSH1 0x4 DUP1 CALLDATASIZE SUB DUP2 ADD SWAP1 PUSH2 0x247 SWAP2 SWAP1 PUSH2 0xEEE JUMP JUMPDEST PUSH2 0xC48 JUMP JUMPDEST PUSH1 0x40 MLOAD PUSH2 0x259 SWAP2 SWAP1 PUSH2 0xF31 JUMP JUMPDEST PUSH1 0x40 MLOAD DUP1 SWAP2 SUB SWAP1 RETURN JUMPDEST CALLVALUE DUP1 ISZERO PUSH2 0x26D JUMPI PUSH0 PUSH0 REVERT JUMPDEST POP PUSH2 0x288 PUSH1 0x4 DUP1 CALLDATASIZE SUB DUP2 ADD SWAP1 PUSH2 0x283 SWAP2 SWAP1 PUSH2 0x12F2 JUMP JUMPDEST PUSH2 0xC5D JUMP JUMPDEST STOP JUMPDEST PUSH0 PUSH1 0x1 PUSH0 CALLER PUSH20 0xFFFFFFFFFFFFFFFFFFFFFFFFFFFFFFFFFFFFFFFF AND PUSH20 0xFFFFFFFFFFFFFFFFFFFFFFFFFFFFFFFFFFFFFFFF AND DUP2 MSTORE PUSH1 0x20 ADD SWAP1 DUP2 MSTORE PUSH1 0x20 ADD PUSH0 KECCAK256 SLOAD SWAP1 POP PUSH0 PUSH1 0x1 PUSH0 CALLER PUSH20 0xFFFFFFFFFFFFFFFFFFFFFFFFFFFFFFFFFFFFFFFF AND PUSH20 0xFFFFFFFFFFFFFFFFFFFFFFFFFFFFFFFFFFFFFFFF AND DUP2 MSTORE PUSH1 0x20 ADD SWAP1 DUP2 MSTORE PUSH1 0x20 ADD PUSH0 KECCAK256 DUP2 SWAP1 SSTORE POP PUSH0 DUP2 SUB PUSH2 0x34F JUMPI PUSH1 0x40 MLOAD PUSH32 0xD647364F00000000000000000000000000000000000000000000000000000000 DUP2 MSTORE PUSH1 0x4 ADD PUSH2 0x346 SWAP1 PUSH2 0x1448 JUMP JUMPDEST PUSH1 0x40 MLOAD DUP1 SWAP2 SUB SWAP1 REVERT JUMPDEST PUSH0 DUP3 PUSH20 0xFFFFFFFFFFFFFFFFFFFFFFFFFFFFFFFFFFFFFFFF AND DUP3 PUSH1 0x40 MLOAD PUSH2 0x374 SWAP1 PUSH2 0x1493 JUMP JUMPDEST PUSH0 PUSH1 0x40 MLOAD DUP1 DUP4 SUB DUP2 DUP6 DUP8 GAS CALL SWAP3 POP POP POP RETURNDATASIZE DUP1 PUSH0 DUP2 EQ PUSH2 0x3AE JUMPI PUSH1 0x40 MLOAD SWAP2 POP PUSH1 0x1F NOT PUSH1 0x3F RETURNDATASIZE ADD AND DUP3 ADD PUSH1 0x40 MSTORE RETURNDATASIZE DUP3 MSTORE RETURNDATASIZE PUSH0 PUSH1 0x20 DUP5 ADD RETURNDATACOPY PUSH2 0x3B3 JUMP JUMPDEST PUSH1 0x60 SWAP2 POP JUMPDEST POP POP SWAP1 POP DUP1 PUSH2 0x3EE JUMPI PUSH1 0x40 MLOAD PUSH32 0x4C22002500000000000000000000000000000000000000000000000000000000 DUP2 MSTORE PUSH1 0x4 ADD PUSH1 0x40 MLOAD DUP1 SWAP2 SUB SWAP1 REVERT JUMPDEST POP POP POP JUMP JUMPDEST PUSH1 0x3 SLOAD DUP2 JUMP JUMPDEST PUSH0 PUSH1 0x20 MSTORE DUP1 PUSH0 MSTORE PUSH1 0x40 PUSH0 KECCAK256 PUSH0 SWAP2 POP SWAP1 POP DUP1 PUSH0 ADD SLOAD SWAP1 DUP1 PUSH1 0x1 ADD PUSH0 SWAP1 SLOAD SWAP1 PUSH2 0x100 EXP SWAP1 DIV PUSH1 0xFF AND SWAP1 DUP1 PUSH1 0x2 ADD SLOAD SWAP1 POP DUP4 JUMP JUMPDEST PUSH1 0x2 PUSH1 0x20 MSTORE DUP2 PUSH0 MSTORE PUSH1 0x40 PUSH0 KECCAK256 PUSH1 0x20 MSTORE DUP1 PUSH0 MSTORE PUSH1 0x40 PUSH0 KECCAK256 PUSH0 SWAP2 POP SWAP2 POP SWAP1 SLOAD SWAP1 PUSH2 0x100 EXP SWAP1 DIV PUSH1 0xFF AND DUP2 JUMP JUMPDEST PUSH32 0x0 DUP2 JUMP JUMPDEST PUSH3 0x15180 DUP2 JUMP JUMPDEST PUSH0 DUP5 PUSH20 0xFFFFFFFFFFFFFFFFFFFFFFFFFFFFFFFFFFFFFFFF AND PUSH4 0x61203265 PUSH1 0x40 MLOAD DUP2 PUSH4 0xFFFFFFFF AND PUSH1 0xE0 SHL DUP2 MSTORE PUSH1 0x4 ADD PUSH1 0x20 PUSH1 0x40 MLOAD DUP1 DUP4 SUB DUP2 DUP7 GAS STATICCALL ISZERO DUP1 ISZERO PUSH2 0x4C9 JUMPI RETURNDATASIZE PUSH0 PUSH0 RETURNDATACOPY RETURNDATASIZE PUSH0 REVERT JUMPDEST POP POP POP POP PUSH1 0x40 MLOAD RETURNDATASIZE PUSH1 0x1F NOT PUSH1 0x1F DUP3 ADD AND DUP3 ADD DUP1 PUSH1 0x40 MSTORE POP DUP2 ADD SWAP1 PUSH2 0x4ED SWAP2 SWAP1 PUSH2 0x14BB JUMP JUMPDEST PUSH20 0xFFFFFFFFFFFFFFFFFFFFFFFFFFFFFFFFFFFFFFFF AND CALLER PUSH20 0xFFFFFFFFFFFFFFFFFFFFFFFFFFFFFFFFFFFFFFFF AND EQ PUSH2 0x551 JUMPI PUSH1 0x40 MLOAD PUSH32 0x76CA2C8800000000000000000000000000000000000000000000000000000000 DUP2 MSTORE PUSH1 0x4 ADD PUSH1 0x40 MLOAD DUP1 SWAP2 SUB SWAP1 REVERT JUMPDEST PUSH2 0x55D DUP6 DUP6 DUP6 DUP6 PUSH2 0xCFA JUMP JUMPDEST DUP5 SWAP1 POP SWAP5 SWAP4 POP POP POP POP JUMP JUMPDEST PUSH0 PUSH1 0x1 DUP2 GT ISZERO PUSH2 0x57B JUMPI PUSH2 0x57A PUSH2 0xF4A JUMP JUMPDEST JUMPDEST PUSH0 PUSH0 DUP6 PUSH20 0xFFFFFFFFFFFFFFFFFFFFFFFFFFFFFFFFFFFFFFFF AND PUSH20 0xFFFFFFFFFFFFFFFFFFFFFFFFFFFFFFFFFFFFFFFF AND DUP2 MSTORE PUSH1 0x20 ADD SWAP1 DUP2 MSTORE PUSH1 0x20 ADD PUSH0 KECCAK256 PUSH1 0x1 ADD PUSH0 SWAP1 SLOAD SWAP1 PUSH2 0x100 EXP SWAP1 DIV PUSH1 0xFF AND PUSH1 0x1 DUP2 GT ISZERO PUSH2 0x5D9 JUMPI PUSH2 0x5D8 PUSH2 0xF4A JUMP JUMPDEST JUMPDEST EQ PUSH2 0x610 JUMPI PUSH1 0x40 MLOAD PUSH32 0xB07E326700000000000000000000000000000000000000000000000000000000 DUP2 MSTORE PUSH1 0x4 ADD PUSH1 0x40 MLOAD DUP1 SWAP2 SUB SWAP1 REVERT JUMPDEST CALLVALUE PUSH0 PUSH0 DUP6 PUSH20 0xFFFFFFFFFFFFFFFFFFFFFFFFFFFFFFFFFFFFFFFF AND PUSH20 0xFFFFFFFFFFFFFFFFFFFFFFFFFFFFFFFFFFFFFFFF AND DUP2 MSTORE PUSH1 0x20 ADD SWAP1 DUP2 MSTORE PUSH1 0x20 ADD PUSH0 KECCAK256 PUSH0 ADD SLOAD EQ PUSH2 0x690 JUMPI PUSH1 0x40 MLOAD PUSH32 0xD647364F00000000000000000000000000000000000000000000000000000000 DUP2 MSTORE PUSH1 0x4 ADD PUSH2 0x687 SWAP1 PUSH2 0x1530 JUMP JUMPDEST PUSH1 0x40 MLOAD DUP1 SWAP2 SUB SWAP1 REVERT JUMPDEST PUSH1 0x64 PUSH1 0xA PUSH0 PUSH0 DUP7 PUSH20 0xFFFFFFFFFFFFFFFFFFFFFFFFFFFFFFFFFFFFFFFF AND PUSH20 0xFFFFFFFFFFFFFFFFFFFFFFFFFFFFFFFFFFFFFFFF AND DUP2 MSTORE PUSH1 0x20 ADD SWAP1 DUP2 MSTORE PUSH1 0x20 ADD PUSH0 KECCAK256 PUSH0 ADD SLOAD PUSH2 0x6DD SWAP2 SWAP1 PUSH2 0x157B JUMP JUMPDEST PUSH2 0x6E7 SWAP2 SWAP1 PUSH2 0x15E9 JUMP JUMPDEST PUSH1 0x3 DUP2 SWAP1 SSTORE POP PUSH1 0x3 SLOAD PUSH0 PUSH0 DUP6 PUSH20 0xFFFFFFFFFFFFFFFFFFFFFFFFFFFFFFFFFFFFFFFF AND PUSH20 0xFFFFFFFFFFFFFFFFFFFFFFFFFFFFFFFFFFFFFFFF AND DUP2 MSTORE PUSH1 0x20 ADD SWAP1 DUP2 MSTORE PUSH1 0x20 ADD PUSH0 KECCAK256 PUSH0 ADD SLOAD PUSH2 0x739 SWAP2 SWAP1 PUSH2 0x1619 JUMP JUMPDEST PUSH1 0x1 PUSH0 DUP6 PUSH20 0xFFFFFFFFFFFFFFFFFFFFFFFFFFFFFFFFFFFFFFFF AND PUSH4 0x61203265 PUSH1 0x40 MLOAD DUP2 PUSH4 0xFFFFFFFF AND PUSH1 0xE0 SHL DUP2 MSTORE PUSH1 0x4 ADD PUSH1 0x20 PUSH1 0x40 MLOAD DUP1 DUP4 SUB DUP2 DUP7 GAS STATICCALL ISZERO DUP1 ISZERO PUSH2 0x785 JUMPI RETURNDATASIZE PUSH0 PUSH0 RETURNDATACOPY RETURNDATASIZE PUSH0 REVERT JUMPDEST POP POP POP POP PUSH1 0x40 MLOAD RETURNDATASIZE PUSH1 0x1F NOT PUSH1 0x1F DUP3 ADD AND DUP3 ADD DUP1 PUSH1 0x40 MSTORE POP DUP2 ADD SWAP1 PUSH2 0x7A9 SWAP2 SWAP1 PUSH2 0x14BB JUMP JUMPDEST PUSH20 0xFFFFFFFFFFFFFFFFFFFFFFFFFFFFFFFFFFFFFFFF AND PUSH20 0xFFFFFFFFFFFFFFFFFFFFFFFFFFFFFFFFFFFFFFFF AND DUP2 MSTORE PUSH1 0x20 ADD SWAP1 DUP2 MSTORE PUSH1 0x20 ADD PUSH0 KECCAK256 PUSH0 DUP3 DUP3 SLOAD PUSH2 0x7F0 SWAP2 SWAP1 PUSH2 0x164C JUMP JUMPDEST SWAP3 POP POP DUP2 SWAP1 SSTORE POP PUSH1 0x3 SLOAD PUSH1 0x1 PUSH0 PUSH32 0x0 PUSH20 0xFFFFFFFFFFFFFFFFFFFFFFFFFFFFFFFFFFFFFFFF AND PUSH20 0xFFFFFFFFFFFFFFFFFFFFFFFFFFFFFFFFFFFFFFFF AND DUP2 MSTORE PUSH1 0x20 ADD SWAP1 DUP2 MSTORE PUSH1 0x20 ADD PUSH0 KECCAK256 PUSH0 DUP3 DUP3 SLOAD PUSH2 0x865 SWAP2 SWAP1 PUSH2 0x164C JUMP JUMPDEST SWAP3 POP POP DUP2 SWAP1 SSTORE POP DUP3 PUSH20 0xFFFFFFFFFFFFFFFFFFFFFFFFFFFFFFFFFFFFFFFF AND PUSH4 0x42842E0E DUP3 CALLER DUP6 PUSH1 0x40 MLOAD DUP5 PUSH4 0xFFFFFFFF AND PUSH1 0xE0 SHL DUP2 MSTORE PUSH1 0x4 ADD PUSH2 0x8A9 SWAP4 SWAP3 SWAP2 SWAP1 PUSH2 0x167F JUMP JUMPDEST PUSH0 PUSH1 0x40 MLOAD DUP1 DUP4 SUB DUP2 PUSH0 DUP8 DUP1 EXTCODESIZE ISZERO DUP1 ISZERO PUSH2 0x8C0 JUMPI PUSH0 PUSH0 REVERT JUMPDEST POP GAS CALL ISZERO DUP1 ISZERO PUSH2 0x8D2 JUMPI RETURNDATASIZE PUSH0 PUSH0 RETURNDATACOPY RETURNDATASIZE PUSH0 REVERT JUMPDEST POP POP POP POP POP POP POP JUMP JUMPDEST PUSH0 PUSH1 0x1 DUP2 GT ISZERO PUSH2 0x8EE JUMPI PUSH2 0x8ED PUSH2 0xF4A JUMP JUMPDEST JUMPDEST PUSH0 PUSH0 DUP4 PUSH20 0xFFFFFFFFFFFFFFFFFFFFFFFFFFFFFFFFFFFFFFFF AND PUSH20 0xFFFFFFFFFFFFFFFFFFFFFFFFFFFFFFFFFFFFFFFF AND DUP2 MSTORE PUSH1 0x20 ADD SWAP1 DUP2 MSTORE PUSH1 0x20 ADD PUSH0 KECCAK256 PUSH1 0x1 ADD PUSH0 SWAP1 SLOAD SWAP1 PUSH2 0x100 EXP SWAP1 DIV PUSH1 0xFF AND PUSH1 0x1 DUP2 GT ISZERO PUSH2 0x94C JUMPI PUSH2 0x94B PUSH2 0xF4A JUMP JUMPDEST JUMPDEST EQ PUSH2 0x983 JUMPI PUSH1 0x40 MLOAD PUSH32 0xB07E326700000000000000000000000000000000000000000000000000000000 DUP2 MSTORE PUSH1 0x4 ADD PUSH1 0x40 MLOAD DUP1 SWAP2 SUB SWAP1 REVERT JUMPDEST CALLVALUE PUSH0 PUSH0 DUP4 PUSH20 0xFFFFFFFFFFFFFFFFFFFFFFFFFFFFFFFFFFFFFFFF AND PUSH20 0xFFFFFFFFFFFFFFFFFFFFFFFFFFFFFFFFFFFFFFFF AND DUP2 MSTORE PUSH1 0x20 ADD SWAP1 DUP2 MSTORE PUSH1 0x20 ADD PUSH0 KECCAK256 PUSH0 ADD SLOAD EQ PUSH2 0xA03 JUMPI PUSH1 0x40 MLOAD PUSH32 0xD647364F00000000000000000000000000000000000000000000000000000000 DUP2 MSTORE PUSH1 0x4 ADD PUSH2 0x9FA SWAP1 PUSH2 0x1530 JUMP JUMPDEST PUSH1 0x40 MLOAD DUP1 SWAP2 SUB SWAP1 REVERT JUMPDEST PUSH1 0x64 PUSH1 0xA PUSH0 PUSH0 DUP5 PUSH20 0xFFFFFFFFFFFFFFFFFFFFFFFFFFFFFFFFFFFFFFFF AND PUSH20 0xFFFFFFFFFFFFFFFFFFFFFFFFFFFFFFFFFFFFFFFF AND DUP2 MSTORE PUSH1 0x20 ADD SWAP1 DUP2 MSTORE PUSH1 0x20 ADD PUSH0 KECCAK256 PUSH0 ADD SLOAD PUSH2 0xA50 SWAP2 SWAP1 PUSH2 0x157B JUMP JUMPDEST PUSH2 0xA5A SWAP2 SWAP1 PUSH2 0x15E9 JUMP JUMPDEST PUSH1 0x3 DUP2 SWAP1 SSTORE POP PUSH1 0x3 SLOAD PUSH0 PUSH0 DUP4 PUSH20 0xFFFFFFFFFFFFFFFFFFFFFFFFFFFFFFFFFFFFFFFF AND PUSH20 0xFFFFFFFFFFFFFFFFFFFFFFFFFFFFFFFFFFFFFFFF AND DUP2 MSTORE PUSH1 0x20 ADD SWAP1 DUP2 MSTORE PUSH1 0x20 ADD PUSH0 KECCAK256 PUSH0 ADD SLOAD PUSH2 0xAAC SWAP2 SWAP1 PUSH2 0x1619 JUMP JUMPDEST PUSH1 0x1 PUSH0 DUP4 PUSH20 0xFFFFFFFFFFFFFFFFFFFFFFFFFFFFFFFFFFFFFFFF AND PUSH4 0x61203265 PUSH1 0x40 MLOAD DUP2 PUSH4 0xFFFFFFFF AND PUSH1 0xE0 SHL DUP2 MSTORE PUSH1 0x4 ADD PUSH1 0x20 PUSH1 0x40 MLOAD DUP1 DUP4 SUB DUP2 DUP7 GAS STATICCALL ISZERO DUP1 ISZERO PUSH2 0xAF8 JUMPI RETURNDATASIZE PUSH0 PUSH0 RETURNDATACOPY RETURNDATASIZE PUSH0 REVERT JUMPDEST POP POP POP POP PUSH1 0x40 MLOAD RETURNDATASIZE PUSH1 0x1F NOT PUSH1 0x1F DUP3 ADD AND DUP3 ADD DUP1 PUSH1 0x40 MSTORE POP DUP2 ADD SWAP1 PUSH2 0xB1C SWAP2 SWAP1 PUSH2 0x14BB JUMP JUMPDEST PUSH20 0xFFFFFFFFFFFFFFFFFFFFFFFFFFFFFFFFFFFFFFFF AND PUSH20 0xFFFFFFFFFFFFFFFFFFFFFFFFFFFFFFFFFFFFFFFF AND DUP2 MSTORE PUSH1 0x20 ADD SWAP1 DUP2 MSTORE PUSH1 0x20 ADD PUSH0 KECCAK256 PUSH0 DUP3 DUP3 SLOAD PUSH2 0xB63 SWAP2 SWAP1 PUSH2 0x164C JUMP JUMPDEST SWAP3 POP POP DUP2 SWAP1 SSTORE POP PUSH1 0x3 SLOAD PUSH1 0x1 PUSH0 PUSH32 0x0 PUSH20 0xFFFFFFFFFFFFFFFFFFFFFFFFFFFFFFFFFFFFFFFF AND PUSH20 0xFFFFFFFFFFFFFFFFFFFFFFFFFFFFFFFFFFFFFFFF AND DUP2 MSTORE PUSH1 0x20 ADD SWAP1 DUP2 MSTORE PUSH1 0x20 ADD PUSH0 KECCAK256 PUSH0 DUP3 DUP3 SLOAD PUSH2 0xBD8 SWAP2 SWAP1 PUSH2 0x164C JUMP JUMPDEST SWAP3 POP POP DUP2 SWAP1 SSTORE POP DUP1 PUSH20 0xFFFFFFFFFFFFFFFFFFFFFFFFFFFFFFFFFFFFFFFF AND PUSH4 0x40D097C3 CALLER PUSH1 0x40 MLOAD DUP3 PUSH4 0xFFFFFFFF AND PUSH1 0xE0 SHL DUP2 MSTORE PUSH1 0x4 ADD PUSH2 0xC18 SWAP2 SWAP1 PUSH2 0x1072 JUMP JUMPDEST PUSH0 PUSH1 0x40 MLOAD DUP1 DUP4 SUB DUP2 PUSH0 DUP8 DUP1 EXTCODESIZE ISZERO DUP1 ISZERO PUSH2 0xC2F JUMPI PUSH0 PUSH0 REVERT JUMPDEST POP GAS CALL ISZERO DUP1 ISZERO PUSH2 0xC41 JUMPI RETURNDATASIZE PUSH0 PUSH0 RETURNDATACOPY RETURNDATASIZE PUSH0 REVERT JUMPDEST POP POP POP POP POP JUMP JUMPDEST PUSH1 0x1 PUSH1 0x20 MSTORE DUP1 PUSH0 MSTORE PUSH1 0x40 PUSH0 KECCAK256 PUSH0 SWAP2 POP SWAP1 POP SLOAD DUP2 JUMP JUMPDEST PUSH0 ADDRESS DUP11 DUP11 DUP11 CALLER DUP9 DUP9 DUP9 PUSH1 0x40 MLOAD PUSH2 0xC72 SWAP1 PUSH2 0xE76 JUMP JUMPDEST PUSH2 0xC83 SWAP9 SWAP8 SWAP7 SWAP6 SWAP5 SWAP4 SWAP3 SWAP2 SWAP1 PUSH2 0x1704 JUMP JUMPDEST PUSH1 0x40 MLOAD DUP1 SWAP2 SUB SWAP1 PUSH0 CREATE DUP1 ISZERO DUP1 ISZERO PUSH2 0xC9C JUMPI RETURNDATASIZE PUSH0 PUSH0 RETURNDATACOPY RETURNDATASIZE PUSH0 REVERT JUMPDEST POP SWAP1 POP DUP1 PUSH20 0xFFFFFFFFFFFFFFFFFFFFFFFFFFFFFFFFFFFFFFFF AND PUSH32 0x227E3B2FB10EA87B3CE0FE9B23554AD992C666DD128C13C0A6EF2D73DD80BA0 PUSH1 0x40 MLOAD PUSH1 0x40 MLOAD DUP1 SWAP2 SUB SWAP1 LOG2 PUSH2 0xCEE DUP2 DUP9 DUP9 DUP9 PUSH2 0xCFA JUMP JUMPDEST POP POP POP POP POP POP POP POP POP POP JUMP JUMPDEST PUSH3 0x15180 TIMESTAMP PUSH2 0xD09 SWAP2 SWAP1 PUSH2 0x164C JUMP JUMPDEST DUP2 LT ISZERO PUSH2 0xD4B JUMPI PUSH1 0x40 MLOAD PUSH32 0xD647364F00000000000000000000000000000000000000000000000000000000 DUP2 MSTORE PUSH1 0x4 ADD PUSH2 0xD42 SWAP1 PUSH2 0x17FE JUMP JUMPDEST PUSH1 0x40 MLOAD DUP1 SWAP2 SUB SWAP1 REVERT JUMPDEST PUSH0 PUSH0 PUSH0 DUP7 PUSH20 0xFFFFFFFFFFFFFFFFFFFFFFFFFFFFFFFFFFFFFFFF AND PUSH20 0xFFFFFFFFFFFFFFFFFFFFFFFFFFFFFFFFFFFFFFFF AND DUP2 MSTORE PUSH1 0x20 ADD SWAP1 DUP2 MSTORE PUSH1 0x20 ADD PUSH0 KECCAK256 PUSH1 0x2 ADD SLOAD EQ PUSH2 0xDC3 JUMPI PUSH1 0x40 MLOAD PUSH32 0xA3D582EC00000000000000000000000000000000000000000000000000000000 DUP2 MSTORE PUSH1 0x4 ADD PUSH1 0x40 MLOAD DUP1 SWAP2 SUB SWAP1 REVERT JUMPDEST PUSH1 0x40 MLOAD DUP1 PUSH1 0x60 ADD PUSH1 0x40 MSTORE DUP1 DUP5 DUP2 MSTORE PUSH1 0x20 ADD DUP4 PUSH1 0x1 DUP2 GT ISZERO PUSH2 0xDE7 JUMPI PUSH2 0xDE6 PUSH2 0xF4A JUMP JUMPDEST JUMPDEST DUP2 MSTORE PUSH1 0x20 ADD DUP3 DUP2 MSTORE POP PUSH0 PUSH0 DUP7 PUSH20 0xFFFFFFFFFFFFFFFFFFFFFFFFFFFFFFFFFFFFFFFF AND PUSH20 0xFFFFFFFFFFFFFFFFFFFFFFFFFFFFFFFFFFFFFFFF AND DUP2 MSTORE PUSH1 0x20 ADD SWAP1 DUP2 MSTORE PUSH1 0x20 ADD PUSH0 KECCAK256 PUSH0 DUP3 ADD MLOAD DUP2 PUSH0 ADD SSTORE PUSH1 0x20 DUP3 ADD MLOAD DUP2 PUSH1 0x1 ADD PUSH0 PUSH2 0x100 EXP DUP2 SLOAD DUP2 PUSH1 0xFF MUL NOT AND SWAP1 DUP4 PUSH1 0x1 DUP2 GT ISZERO PUSH2 0xE5E JUMPI PUSH2 0xE5D PUSH2 0xF4A JUMP JUMPDEST JUMPDEST MUL OR SWAP1 SSTORE POP PUSH1 0x40 DUP3 ADD MLOAD DUP2 PUSH1 0x2 ADD SSTORE SWAP1 POP POP POP POP POP POP JUMP JUMPDEST PUSH2 0x2C43 DUP1 PUSH2 0x181D DUP4 CODECOPY ADD SWAP1 JUMP JUMPDEST PUSH0 PUSH1 0x40 MLOAD SWAP1 POP SWAP1 JUMP JUMPDEST PUSH0 PUSH0 REVERT JUMPDEST PUSH0 PUSH0 REVERT JUMPDEST PUSH0 PUSH20 0xFFFFFFFFFFFFFFFFFFFFFFFFFFFFFFFFFFFFFFFF DUP3 AND SWAP1 POP SWAP2 SWAP1 POP JUMP JUMPDEST PUSH0 PUSH2 0xEBD DUP3 PUSH2 0xE94 JUMP JUMPDEST SWAP1 POP SWAP2 SWAP1 POP JUMP JUMPDEST PUSH2 0xECD DUP2 PUSH2 0xEB3 JUMP JUMPDEST DUP2 EQ PUSH2 0xED7 JUMPI PUSH0 PUSH0 REVERT JUMPDEST POP JUMP JUMPDEST PUSH0 DUP2 CALLDATALOAD SWAP1 POP PUSH2 0xEE8 DUP2 PUSH2 0xEC4 JUMP JUMPDEST SWAP3 SWAP2 POP POP JUMP JUMPDEST PUSH0 PUSH1 0x20 DUP3 DUP5 SUB SLT ISZERO PUSH2 0xF03 JUMPI PUSH2 0xF02 PUSH2 0xE8C JUMP JUMPDEST JUMPDEST PUSH0 PUSH2 0xF10 DUP5 DUP3 DUP6 ADD PUSH2 0xEDA JUMP JUMPDEST SWAP2 POP POP SWAP3 SWAP2 POP POP JUMP JUMPDEST PUSH0 DUP2 SWAP1 POP SWAP2 SWAP1 POP JUMP JUMPDEST PUSH2 0xF2B DUP2 PUSH2 0xF19 JUMP JUMPDEST DUP3 MSTORE POP POP JUMP JUMPDEST PUSH0 PUSH1 0x20 DUP3 ADD SWAP1 POP PUSH2 0xF44 PUSH0 DUP4 ADD DUP5 PUSH2 0xF22 JUMP JUMPDEST SWAP3 SWAP2 POP POP JUMP JUMPDEST PUSH32 0x4E487B7100000000000000000000000000000000000000000000000000000000 PUSH0 MSTORE PUSH1 0x21 PUSH1 0x4 MSTORE PUSH1 0x24 PUSH0 REVERT JUMPDEST PUSH1 0x2 DUP2 LT PUSH2 0xF88 JUMPI PUSH2 0xF87 PUSH2 0xF4A JUMP JUMPDEST JUMPDEST POP JUMP JUMPDEST PUSH0 DUP2 SWAP1 POP PUSH2 0xF98 DUP3 PUSH2 0xF77 JUMP JUMPDEST SWAP2 SWAP1 POP JUMP JUMPDEST PUSH0 PUSH2 0xFA7 DUP3 PUSH2 0xF8B JUMP JUMPDEST SWAP1 POP SWAP2 SWAP1 POP JUMP JUMPDEST PUSH2 0xFB7 DUP2 PUSH2 0xF9D JUMP JUMPDEST DUP3 MSTORE POP POP JUMP JUMPDEST PUSH0 PUSH1 0x60 DUP3 ADD SWAP1 POP PUSH2 0xFD0 PUSH0 DUP4 ADD DUP7 PUSH2 0xF22 JUMP JUMPDEST PUSH2 0xFDD PUSH1 0x20 DUP4 ADD DUP6 PUSH2 0xFAE JUMP JUMPDEST PUSH2 0xFEA PUSH1 0x40 DUP4 ADD DUP5 PUSH2 0xF22 JUMP JUMPDEST SWAP5 SWAP4 POP POP POP POP JUMP JUMPDEST PUSH0 PUSH0 PUSH1 0x40 DUP4 DUP6 SUB SLT ISZERO PUSH2 0x1008 JUMPI PUSH2 0x1007 PUSH2 0xE8C JUMP JUMPDEST JUMPDEST PUSH0 PUSH2 0x1015 DUP6 DUP3 DUP7 ADD PUSH2 0xEDA JUMP JUMPDEST SWAP3 POP POP PUSH1 0x20 PUSH2 0x1026 DUP6 DUP3 DUP7 ADD PUSH2 0xEDA JUMP JUMPDEST SWAP2 POP POP SWAP3 POP SWAP3 SWAP1 POP JUMP JUMPDEST PUSH0 DUP2 ISZERO ISZERO SWAP1 POP SWAP2 SWAP1 POP JUMP JUMPDEST PUSH2 0x1044 DUP2 PUSH2 0x1030 JUMP JUMPDEST DUP3 MSTORE POP POP JUMP JUMPDEST PUSH0 PUSH1 0x20 DUP3 ADD SWAP1 POP PUSH2 0x105D PUSH0 DUP4 ADD DUP5 PUSH2 0x103B JUMP JUMPDEST SWAP3 SWAP2 POP POP JUMP JUMPDEST PUSH2 0x106C DUP2 PUSH2 0xEB3 JUMP JUMPDEST DUP3 MSTORE POP POP JUMP JUMPDEST PUSH0 PUSH1 0x20 DUP3 ADD SWAP1 POP PUSH2 0x1085 PUSH0 DUP4 ADD DUP5 PUSH2 0x1063 JUMP JUMPDEST SWAP3 SWAP2 POP POP JUMP JUMPDEST PUSH2 0x1094 DUP2 PUSH2 0xF19 JUMP JUMPDEST DUP2 EQ PUSH2 0x109E JUMPI PUSH0 PUSH0 REVERT JUMPDEST POP JUMP JUMPDEST PUSH0 DUP2 CALLDATALOAD SWAP1 POP PUSH2 0x10AF DUP2 PUSH2 0x108B JUMP JUMPDEST SWAP3 SWAP2 POP POP JUMP JUMPDEST PUSH1 0x2 DUP2 LT PUSH2 0x10C1 JUMPI PUSH0 PUSH0 REVERT JUMPDEST POP JUMP JUMPDEST PUSH0 DUP2 CALLDATALOAD SWAP1 POP PUSH2 0x10D2 DUP2 PUSH2 0x10B5 JUMP JUMPDEST SWAP3 SWAP2 POP POP JUMP JUMPDEST PUSH0 PUSH0 PUSH0 PUSH0 PUSH1 0x80 DUP6 DUP8 SUB SLT ISZERO PUSH2 0x10F0 JUMPI PUSH2 0x10EF PUSH2 0xE8C JUMP JUMPDEST JUMPDEST PUSH0 PUSH2 0x10FD DUP8 DUP3 DUP9 ADD PUSH2 0xEDA JUMP JUMPDEST SWAP5 POP POP PUSH1 0x20 PUSH2 0x110E DUP8 DUP3 DUP9 ADD PUSH2 0x10A1 JUMP JUMPDEST SWAP4 POP POP PUSH1 0x40 PUSH2 0x111F DUP8 DUP3 DUP9 ADD PUSH2 0x10C4 JUMP JUMPDEST SWAP3 POP POP PUSH1 0x60 PUSH2 0x1130 DUP8 DUP3 DUP9 ADD PUSH2 0x10A1 JUMP JUMPDEST SWAP2 POP POP SWAP3 SWAP6 SWAP2 SWAP5 POP SWAP3 POP JUMP JUMPDEST PUSH0 PUSH0 PUSH0 PUSH1 0x60 DUP5 DUP7 SUB SLT ISZERO PUSH2 0x1153 JUMPI PUSH2 0x1152 PUSH2 0xE8C JUMP JUMPDEST JUMPDEST PUSH0 PUSH2 0x1160 DUP7 DUP3 DUP8 ADD PUSH2 0xEDA JUMP JUMPDEST SWAP4 POP POP PUSH1 0x20 PUSH2 0x1171 DUP7 DUP3 DUP8 ADD PUSH2 0x10A1 JUMP JUMPDEST SWAP3 POP POP PUSH1 0x40 PUSH2 0x1182 DUP7 DUP3 DUP8 ADD PUSH2 0xEDA JUMP JUMPDEST SWAP2 POP POP SWAP3 POP SWAP3 POP SWAP3 JUMP JUMPDEST PUSH0 PUSH0 REVERT JUMPDEST PUSH0 PUSH0 REVERT JUMPDEST PUSH0 PUSH1 0x1F NOT PUSH1 0x1F DUP4 ADD AND SWAP1 POP SWAP2 SWAP1 POP JUMP JUMPDEST PUSH32 0x4E487B7100000000000000000000000000000000000000000000000000000000 PUSH0 MSTORE PUSH1 0x41 PUSH1 0x4 MSTORE PUSH1 0x24 PUSH0 REVERT JUMPDEST PUSH2 0x11DA DUP3 PUSH2 0x1194 JUMP JUMPDEST DUP2 ADD DUP2 DUP2 LT PUSH8 0xFFFFFFFFFFFFFFFF DUP3 GT OR ISZERO PUSH2 0x11F9 JUMPI PUSH2 0x11F8 PUSH2 0x11A4 JUMP JUMPDEST JUMPDEST DUP1 PUSH1 0x40 MSTORE POP POP POP JUMP JUMPDEST PUSH0 PUSH2 0x120B PUSH2 0xE83 JUMP JUMPDEST SWAP1 POP PUSH2 0x1217 DUP3 DUP3 PUSH2 0x11D1 JUMP JUMPDEST SWAP2 SWAP1 POP JUMP JUMPDEST PUSH0 PUSH8 0xFFFFFFFFFFFFFFFF DUP3 GT ISZERO PUSH2 0x1236 JUMPI PUSH2 0x1235 PUSH2 0x11A4 JUMP JUMPDEST JUMPDEST PUSH2 0x123F DUP3 PUSH2 0x1194 JUMP JUMPDEST SWAP1 POP PUSH1 0x20 DUP2 ADD SWAP1 POP SWAP2 SWAP1 POP JUMP JUMPDEST DUP3 DUP2 DUP4 CALLDATACOPY PUSH0 DUP4 DUP4 ADD MSTORE POP POP POP JUMP JUMPDEST PUSH0 PUSH2 0x126C PUSH2 0x1267 DUP5 PUSH2 0x121C JUMP JUMPDEST PUSH2 0x1202 JUMP JUMPDEST SWAP1 POP DUP3 DUP2 MSTORE PUSH1 0x20 DUP2 ADD DUP5 DUP5 DUP5 ADD GT ISZERO PUSH2 0x1288 JUMPI PUSH2 0x1287 PUSH2 0x1190 JUMP JUMPDEST JUMPDEST PUSH2 0x1293 DUP5 DUP3 DUP6 PUSH2 0x124C JUMP JUMPDEST POP SWAP4 SWAP3 POP POP POP JUMP JUMPDEST PUSH0 DUP3 PUSH1 0x1F DUP4 ADD SLT PUSH2 0x12AF JUMPI PUSH2 0x12AE PUSH2 0x118C JUMP JUMPDEST JUMPDEST DUP2 CALLDATALOAD PUSH2 0x12BF DUP5 DUP3 PUSH1 0x20 DUP7 ADD PUSH2 0x125A JUMP JUMPDEST SWAP2 POP POP SWAP3 SWAP2 POP POP JUMP JUMPDEST PUSH2 0x12D1 DUP2 PUSH2 0x1030 JUMP JUMPDEST DUP2 EQ PUSH2 0x12DB JUMPI PUSH0 PUSH0 REVERT JUMPDEST POP JUMP JUMPDEST PUSH0 DUP2 CALLDATALOAD SWAP1 POP PUSH2 0x12EC DUP2 PUSH2 0x12C8 JUMP JUMPDEST SWAP3 SWAP2 POP POP JUMP JUMPDEST PUSH0 PUSH0 PUSH0 PUSH0 PUSH0 PUSH0 PUSH0 PUSH0 PUSH0 PUSH2 0x120 DUP11 DUP13 SUB SLT ISZERO PUSH2 0x1310 JUMPI PUSH2 0x130F PUSH2 0xE8C JUMP JUMPDEST JUMPDEST PUSH0 DUP11 ADD CALLDATALOAD PUSH8 0xFFFFFFFFFFFFFFFF DUP2 GT ISZERO PUSH2 0x132D JUMPI PUSH2 0x132C PUSH2 0xE90 JUMP JUMPDEST JUMPDEST PUSH2 0x1339 DUP13 DUP3 DUP14 ADD PUSH2 0x129B JUMP JUMPDEST SWAP10 POP POP PUSH1 0x20 PUSH2 0x134A DUP13 DUP3 DUP14 ADD PUSH2 0x10A1 JUMP JUMPDEST SWAP9 POP POP PUSH1 0x40 DUP11 ADD CALLDATALOAD PUSH8 0xFFFFFFFFFFFFFFFF DUP2 GT ISZERO PUSH2 0x136B JUMPI PUSH2 0x136A PUSH2 0xE90 JUMP JUMPDEST JUMPDEST PUSH2 0x1377 DUP13 DUP3 DUP14 ADD PUSH2 0x129B JUMP JUMPDEST SWAP8 POP POP PUSH1 0x60 PUSH2 0x1388 DUP13 DUP3 DUP14 ADD PUSH2 0x10A1 JUMP JUMPDEST SWAP7 POP POP PUSH1 0x80 PUSH2 0x1399 DUP13 DUP3 DUP14 ADD PUSH2 0x10C4 JUMP JUMPDEST SWAP6 POP POP PUSH1 0xA0 PUSH2 0x13AA DUP13 DUP3 DUP14 ADD PUSH2 0x10A1 JUMP JUMPDEST SWAP5 POP POP PUSH1 0xC0 PUSH2 0x13BB DUP13 DUP3 DUP14 ADD PUSH2 0x12DE JUMP JUMPDEST SWAP4 POP POP PUSH1 0xE0 PUSH2 0x13CC DUP13 DUP3 DUP14 ADD PUSH2 0xEDA JUMP JUMPDEST SWAP3 POP POP PUSH2 0x100 PUSH2 0x13DE DUP13 DUP3 DUP14 ADD PUSH2 0x10A1 JUMP JUMPDEST SWAP2 POP POP SWAP3 SWAP6 SWAP9 POP SWAP3 SWAP6 SWAP9 POP SWAP3 SWAP6 SWAP9 JUMP JUMPDEST PUSH0 DUP3 DUP3 MSTORE PUSH1 0x20 DUP3 ADD SWAP1 POP SWAP3 SWAP2 POP POP JUMP JUMPDEST PUSH32 0x62616C616E6365206973207A65726F0000000000000000000000000000000000 PUSH0 DUP3 ADD MSTORE POP JUMP JUMPDEST PUSH0 PUSH2 0x1432 PUSH1 0xF DUP4 PUSH2 0x13EE JUMP JUMPDEST SWAP2 POP PUSH2 0x143D DUP3 PUSH2 0x13FE JUMP JUMPDEST PUSH1 0x20 DUP3 ADD SWAP1 POP SWAP2 SWAP1 POP JUMP JUMPDEST PUSH0 PUSH1 0x20 DUP3 ADD SWAP1 POP DUP2 DUP2 SUB PUSH0 DUP4 ADD MSTORE PUSH2 0x145F DUP2 PUSH2 0x1426 JUMP JUMPDEST SWAP1 POP SWAP2 SWAP1 POP JUMP JUMPDEST PUSH0 DUP2 SWAP1 POP SWAP3 SWAP2 POP POP JUMP JUMPDEST POP JUMP JUMPDEST PUSH0 PUSH2 0x147E PUSH0 DUP4 PUSH2 0x1466 JUMP JUMPDEST SWAP2 POP PUSH2 0x1489 DUP3 PUSH2 0x1470 JUMP JUMPDEST PUSH0 DUP3 ADD SWAP1 POP SWAP2 SWAP1 POP JUMP JUMPDEST PUSH0 PUSH2 0x149D DUP3 PUSH2 0x1473 JUMP JUMPDEST SWAP2 POP DUP2 SWAP1 POP SWAP2 SWAP1 POP JUMP JUMPDEST PUSH0 DUP2 MLOAD SWAP1 POP PUSH2 0x14B5 DUP2 PUSH2 0xEC4 JUMP JUMPDEST SWAP3 SWAP2 POP POP JUMP JUMPDEST PUSH0 PUSH1 0x20 DUP3 DUP5 SUB SLT ISZERO PUSH2 0x14D0 JUMPI PUSH2 0x14CF PUSH2 0xE8C JUMP JUMPDEST JUMPDEST PUSH0 PUSH2 0x14DD DUP5 DUP3 DUP6 ADD PUSH2 0x14A7 JUMP JUMPDEST SWAP2 POP POP SWAP3 SWAP2 POP POP JUMP JUMPDEST PUSH32 0x73656E642076616C756520696E636F7272656374000000000000000000000000 PUSH0 DUP3 ADD MSTORE POP JUMP JUMPDEST PUSH0 PUSH2 0x151A PUSH1 0x14 DUP4 PUSH2 0x13EE JUMP JUMPDEST SWAP2 POP PUSH2 0x1525 DUP3 PUSH2 0x14E6 JUMP JUMPDEST PUSH1 0x20 DUP3 ADD SWAP1 POP SWAP2 SWAP1 POP JUMP JUMPDEST PUSH0 PUSH1 0x20 DUP3 ADD SWAP1 POP DUP2 DUP2 SUB PUSH0 DUP4 ADD MSTORE PUSH2 0x1547 DUP2 PUSH2 0x150E JUMP JUMPDEST SWAP1 POP SWAP2 SWAP1 POP JUMP JUMPDEST PUSH32 0x4E487B7100000000000000000000000000000000000000000000000000000000 PUSH0 MSTORE PUSH1 0x11 PUSH1 0x4 MSTORE PUSH1 0x24 PUSH0 REVERT JUMPDEST PUSH0 PUSH2 0x1585 DUP3 PUSH2 0xF19 JUMP JUMPDEST SWAP2 POP PUSH2 0x1590 DUP4 PUSH2 0xF19 JUMP JUMPDEST SWAP3 POP DUP3 DUP3 MUL PUSH2 0x159E DUP2 PUSH2 0xF19 JUMP JUMPDEST SWAP2 POP DUP3 DUP3 DIV DUP5 EQ DUP4 ISZERO OR PUSH2 0x15B5 JUMPI PUSH2 0x15B4 PUSH2 0x154E JUMP JUMPDEST JUMPDEST POP SWAP3 SWAP2 POP POP JUMP JUMPDEST PUSH32 0x4E487B7100000000000000000000000000000000000000000000000000000000 PUSH0 MSTORE PUSH1 0x12 PUSH1 0x4 MSTORE PUSH1 0x24 PUSH0 REVERT JUMPDEST PUSH0 PUSH2 0x15F3 DUP3 PUSH2 0xF19 JUMP JUMPDEST SWAP2 POP PUSH2 0x15FE DUP4 PUSH2 0xF19 JUMP JUMPDEST SWAP3 POP DUP3 PUSH2 0x160E JUMPI PUSH2 0x160D PUSH2 0x15BC JUMP JUMPDEST JUMPDEST DUP3 DUP3 DIV SWAP1 POP SWAP3 SWAP2 POP POP JUMP JUMPDEST PUSH0 PUSH2 0x1623 DUP3 PUSH2 0xF19 JUMP JUMPDEST SWAP2 POP PUSH2 0x162E DUP4 PUSH2 0xF19 JUMP JUMPDEST SWAP3 POP DUP3 DUP3 SUB SWAP1 POP DUP2 DUP2 GT ISZERO PUSH2 0x1646 JUMPI PUSH2 0x1645 PUSH2 0x154E JUMP JUMPDEST JUMPDEST SWAP3 SWAP2 POP POP JUMP JUMPDEST PUSH0 PUSH2 0x1656 DUP3 PUSH2 0xF19 JUMP JUMPDEST SWAP2 POP PUSH2 0x1661 DUP4 PUSH2 0xF19 JUMP JUMPDEST SWAP3 POP DUP3 DUP3 ADD SWAP1 POP DUP1 DUP3 GT ISZERO PUSH2 0x1679 JUMPI PUSH2 0x1678 PUSH2 0x154E JUMP JUMPDEST JUMPDEST SWAP3 SWAP2 POP POP JUMP JUMPDEST PUSH0 PUSH1 0x60 DUP3 ADD SWAP1 POP PUSH2 0x1692 PUSH0 DUP4 ADD DUP7 PUSH2 0x1063 JUMP JUMPDEST PUSH2 0x169F PUSH1 0x20 DUP4 ADD DUP6 PUSH2 0x1063 JUMP JUMPDEST PUSH2 0x16AC PUSH1 0x40 DUP4 ADD DUP5 PUSH2 0xF22 JUMP JUMPDEST SWAP5 SWAP4 POP POP POP POP JUMP JUMPDEST PUSH0 DUP2 MLOAD SWAP1 POP SWAP2 SWAP1 POP JUMP JUMPDEST DUP3 DUP2 DUP4 MCOPY PUSH0 DUP4 DUP4 ADD MSTORE POP POP POP JUMP JUMPDEST PUSH0 PUSH2 0x16D6 DUP3 PUSH2 0x16B4 JUMP JUMPDEST PUSH2 0x16E0 DUP2 DUP6 PUSH2 0x13EE JUMP JUMPDEST SWAP4 POP PUSH2 0x16F0 DUP2 DUP6 PUSH1 0x20 DUP7 ADD PUSH2 0x16BE JUMP JUMPDEST PUSH2 0x16F9 DUP2 PUSH2 0x1194 JUMP JUMPDEST DUP5 ADD SWAP2 POP POP SWAP3 SWAP2 POP POP JUMP JUMPDEST PUSH0 PUSH2 0x100 DUP3 ADD SWAP1 POP PUSH2 0x1718 PUSH0 DUP4 ADD DUP12 PUSH2 0x1063 JUMP JUMPDEST DUP2 DUP2 SUB PUSH1 0x20 DUP4 ADD MSTORE PUSH2 0x172A DUP2 DUP11 PUSH2 0x16CC JUMP JUMPDEST SWAP1 POP PUSH2 0x1739 PUSH1 0x40 DUP4 ADD DUP10 PUSH2 0xF22 JUMP JUMPDEST DUP2 DUP2 SUB PUSH1 0x60 DUP4 ADD MSTORE PUSH2 0x174B DUP2 DUP9 PUSH2 0x16CC JUMP JUMPDEST SWAP1 POP PUSH2 0x175A PUSH1 0x80 DUP4 ADD DUP8 PUSH2 0x1063 JUMP JUMPDEST PUSH2 0x1767 PUSH1 0xA0 DUP4 ADD DUP7 PUSH2 0x103B JUMP JUMPDEST PUSH2 0x1774 PUSH1 0xC0 DUP4 ADD DUP6 PUSH2 0x1063 JUMP JUMPDEST PUSH2 0x1781 PUSH1 0xE0 DUP4 ADD DUP5 PUSH2 0xF22 JUMP JUMPDEST SWAP10 SWAP9 POP POP POP POP POP POP POP POP POP JUMP JUMPDEST PUSH32 0x4D696E696D756D2073616C6520706572696F64206F6E652064617920696E2074 PUSH0 DUP3 ADD MSTORE PUSH32 0x6865206675747572650000000000000000000000000000000000000000000000 PUSH1 0x20 DUP3 ADD MSTORE POP JUMP JUMPDEST PUSH0 PUSH2 0x17E8 PUSH1 0x29 DUP4 PUSH2 0x13EE JUMP JUMPDEST SWAP2 POP PUSH2 0x17F3 DUP3 PUSH2 0x178E JUMP JUMPDEST PUSH1 0x40 DUP3 ADD SWAP1 POP SWAP2 SWAP1 POP JUMP JUMPDEST PUSH0 PUSH1 0x20 DUP3 ADD SWAP1 POP DUP2 DUP2 SUB PUSH0 DUP4 ADD MSTORE PUSH2 0x1815 DUP2 PUSH2 0x17DC JUMP JUMPDEST SWAP1 POP SWAP2 SWAP1 POP JUMP INVALID PUSH1 0xC0 PUSH1 0x40 MSTORE CALLVALUE DUP1 ISZERO PUSH2 0xF JUMPI PUSH0 PUSH0 REVERT JUMPDEST POP PUSH1 0x40 MLOAD PUSH2 0x2C43 CODESIZE SUB DUP1 PUSH2 0x2C43 DUP4 CODECOPY DUP2 DUP2 ADD PUSH1 0x40 MSTORE DUP2 ADD SWAP1 PUSH2 0x31 SWAP2 SWAP1 PUSH2 0x47E JUMP JUMPDEST DUP8 DUP8 PUSH1 0x40 MLOAD DUP1 PUSH1 0x20 ADD PUSH1 0x40 MSTORE DUP1 PUSH0 DUP2 MSTORE POP DUP2 PUSH0 SWAP1 DUP2 PUSH2 0x50 SWAP2 SWAP1 PUSH2 0x76E JUMP JUMPDEST POP DUP1 PUSH1 0x1 SWAP1 DUP2 PUSH2 0x60 SWAP2 SWAP1 PUSH2 0x76E JUMP JUMPDEST POP POP POP PUSH0 PUSH20 0xFFFFFFFFFFFFFFFFFFFFFFFFFFFFFFFFFFFFFFFF AND DUP2 PUSH20 0xFFFFFFFFFFFFFFFFFFFFFFFFFFFFFFFFFFFFFFFF AND SUB PUSH2 0xD3 JUMPI PUSH0 PUSH1 0x40 MLOAD PUSH32 0x1E4FBDF700000000000000000000000000000000000000000000000000000000 DUP2 MSTORE PUSH1 0x4 ADD PUSH2 0xCA SWAP2 SWAP1 PUSH2 0x84C JUMP JUMPDEST PUSH1 0x40 MLOAD DUP1 SWAP2 SUB SWAP1 REVERT JUMPDEST PUSH2 0xE2 DUP2 PUSH2 0x1AC PUSH1 0x20 SHL PUSH1 0x20 SHR JUMP JUMPDEST POP DUP6 PUSH1 0x80 DUP2 DUP2 MSTORE POP POP DUP5 PUSH1 0x7 SWAP1 DUP2 PUSH2 0xFA SWAP2 SWAP1 PUSH2 0x76E JUMP JUMPDEST POP PUSH1 0xA PUSH1 0x8 DUP2 SWAP1 SSTORE POP DUP4 PUSH1 0xA PUSH0 PUSH2 0x100 EXP DUP2 SLOAD DUP2 PUSH20 0xFFFFFFFFFFFFFFFFFFFFFFFFFFFFFFFFFFFFFFFF MUL NOT AND SWAP1 DUP4 PUSH20 0xFFFFFFFFFFFFFFFFFFFFFFFFFFFFFFFFFFFFFFFF AND MUL OR SWAP1 SSTORE POP DUP3 ISZERO ISZERO PUSH1 0xA0 DUP2 ISZERO ISZERO DUP2 MSTORE POP POP DUP1 PUSH1 0x8 DUP2 SWAP1 SSTORE POP PUSH1 0xA0 MLOAD ISZERO PUSH2 0x19F JUMPI DUP2 PUSH1 0xB PUSH0 PUSH2 0x100 EXP DUP2 SLOAD DUP2 PUSH20 0xFFFFFFFFFFFFFFFFFFFFFFFFFFFFFFFFFFFFFFFF MUL NOT AND SWAP1 DUP4 PUSH20 0xFFFFFFFFFFFFFFFFFFFFFFFFFFFFFFFFFFFFFFFF AND MUL OR SWAP1 SSTORE POP JUMPDEST POP POP POP POP POP POP POP POP PUSH2 0x865 JUMP JUMPDEST PUSH0 PUSH1 0x6 PUSH0 SWAP1 SLOAD SWAP1 PUSH2 0x100 EXP SWAP1 DIV PUSH20 0xFFFFFFFFFFFFFFFFFFFFFFFFFFFFFFFFFFFFFFFF AND SWAP1 POP DUP2 PUSH1 0x6 PUSH0 PUSH2 0x100 EXP DUP2 SLOAD DUP2 PUSH20 0xFFFFFFFFFFFFFFFFFFFFFFFFFFFFFFFFFFFFFFFF MUL NOT AND SWAP1 DUP4 PUSH20 0xFFFFFFFFFFFFFFFFFFFFFFFFFFFFFFFFFFFFFFFF AND MUL OR SWAP1 SSTORE POP DUP2 PUSH20 0xFFFFFFFFFFFFFFFFFFFFFFFFFFFFFFFFFFFFFFFF AND DUP2 PUSH20 0xFFFFFFFFFFFFFFFFFFFFFFFFFFFFFFFFFFFFFFFF AND PUSH32 0x8BE0079C531659141344CD1FD0A4F28419497F9722A3DAAFE3B4186F6B6457E0 PUSH1 0x40 MLOAD PUSH1 0x40 MLOAD DUP1 SWAP2 SUB SWAP1 LOG3 POP POP JUMP JUMPDEST PUSH0 PUSH1 0x40 MLOAD SWAP1 POP SWAP1 JUMP JUMPDEST PUSH0 PUSH0 REVERT JUMPDEST PUSH0 PUSH0 REVERT JUMPDEST PUSH0 PUSH20 0xFFFFFFFFFFFFFFFFFFFFFFFFFFFFFFFFFFFFFFFF DUP3 AND SWAP1 POP SWAP2 SWAP1 POP JUMP JUMPDEST PUSH0 PUSH2 0x2A9 DUP3 PUSH2 0x280 JUMP JUMPDEST SWAP1 POP SWAP2 SWAP1 POP JUMP JUMPDEST PUSH2 0x2B9 DUP2 PUSH2 0x29F JUMP JUMPDEST DUP2 EQ PUSH2 0x2C3 JUMPI PUSH0 PUSH0 REVERT JUMPDEST POP JUMP JUMPDEST PUSH0 DUP2 MLOAD SWAP1 POP PUSH2 0x2D4 DUP2 PUSH2 0x2B0 JUMP JUMPDEST SWAP3 SWAP2 POP POP JUMP JUMPDEST PUSH0 PUSH0 REVERT JUMPDEST PUSH0 PUSH0 REVERT JUMPDEST PUSH0 PUSH1 0x1F NOT PUSH1 0x1F DUP4 ADD AND SWAP1 POP SWAP2 SWAP1 POP JUMP JUMPDEST PUSH32 0x4E487B7100000000000000000000000000000000000000000000000000000000 PUSH0 MSTORE PUSH1 0x41 PUSH1 0x4 MSTORE PUSH1 0x24 PUSH0 REVERT JUMPDEST PUSH2 0x328 DUP3 PUSH2 0x2E2 JUMP JUMPDEST DUP2 ADD DUP2 DUP2 LT PUSH8 0xFFFFFFFFFFFFFFFF DUP3 GT OR ISZERO PUSH2 0x347 JUMPI PUSH2 0x346 PUSH2 0x2F2 JUMP JUMPDEST JUMPDEST DUP1 PUSH1 0x40 MSTORE POP POP POP JUMP JUMPDEST PUSH0 PUSH2 0x359 PUSH2 0x26F JUMP JUMPDEST SWAP1 POP PUSH2 0x365 DUP3 DUP3 PUSH2 0x31F JUMP JUMPDEST SWAP2 SWAP1 POP JUMP JUMPDEST PUSH0 PUSH8 0xFFFFFFFFFFFFFFFF DUP3 GT ISZERO PUSH2 0x384 JUMPI PUSH2 0x383 PUSH2 0x2F2 JUMP JUMPDEST JUMPDEST PUSH2 0x38D DUP3 PUSH2 0x2E2 JUMP JUMPDEST SWAP1 POP PUSH1 0x20 DUP2 ADD SWAP1 POP SWAP2 SWAP1 POP JUMP JUMPDEST DUP3 DUP2 DUP4 MCOPY PUSH0 DUP4 DUP4 ADD MSTORE POP POP POP JUMP JUMPDEST PUSH0 PUSH2 0x3BA PUSH2 0x3B5 DUP5 PUSH2 0x36A JUMP JUMPDEST PUSH2 0x350 JUMP JUMPDEST SWAP1 POP DUP3 DUP2 MSTORE PUSH1 0x20 DUP2 ADD DUP5 DUP5 DUP5 ADD GT ISZERO PUSH2 0x3D6 JUMPI PUSH2 0x3D5 PUSH2 0x2DE JUMP JUMPDEST JUMPDEST PUSH2 0x3E1 DUP5 DUP3 DUP6 PUSH2 0x39A JUMP JUMPDEST POP SWAP4 SWAP3 POP POP POP JUMP JUMPDEST PUSH0 DUP3 PUSH1 0x1F DUP4 ADD SLT PUSH2 0x3FD JUMPI PUSH2 0x3FC PUSH2 0x2DA JUMP JUMPDEST JUMPDEST DUP2 MLOAD PUSH2 0x40D DUP5 DUP3 PUSH1 0x20 DUP7 ADD PUSH2 0x3A8 JUMP JUMPDEST SWAP2 POP POP SWAP3 SWAP2 POP POP JUMP JUMPDEST PUSH0 DUP2 SWAP1 POP SWAP2 SWAP1 POP JUMP JUMPDEST PUSH2 0x428 DUP2 PUSH2 0x416 JUMP JUMPDEST DUP2 EQ PUSH2 0x432 JUMPI PUSH0 PUSH0 REVERT JUMPDEST POP JUMP JUMPDEST PUSH0 DUP2 MLOAD SWAP1 POP PUSH2 0x443 DUP2 PUSH2 0x41F JUMP JUMPDEST SWAP3 SWAP2 POP POP JUMP JUMPDEST PUSH0 DUP2 ISZERO ISZERO SWAP1 POP SWAP2 SWAP1 POP JUMP JUMPDEST PUSH2 0x45D DUP2 PUSH2 0x449 JUMP JUMPDEST DUP2 EQ PUSH2 0x467 JUMPI PUSH0 PUSH0 REVERT JUMPDEST POP JUMP JUMPDEST PUSH0 DUP2 MLOAD SWAP1 POP PUSH2 0x478 DUP2 PUSH2 0x454 JUMP JUMPDEST SWAP3 SWAP2 POP POP JUMP JUMPDEST PUSH0 PUSH0 PUSH0 PUSH0 PUSH0 PUSH0 PUSH0 PUSH0 PUSH2 0x100 DUP10 DUP12 SUB SLT ISZERO PUSH2 0x49B JUMPI PUSH2 0x49A PUSH2 0x278 JUMP JUMPDEST JUMPDEST PUSH0 PUSH2 0x4A8 DUP12 DUP3 DUP13 ADD PUSH2 0x2C6 JUMP JUMPDEST SWAP9 POP POP PUSH1 0x20 DUP10 ADD MLOAD PUSH8 0xFFFFFFFFFFFFFFFF DUP2 GT ISZERO PUSH2 0x4C9 JUMPI PUSH2 0x4C8 PUSH2 0x27C JUMP JUMPDEST JUMPDEST PUSH2 0x4D5 DUP12 DUP3 DUP13 ADD PUSH2 0x3E9 JUMP JUMPDEST SWAP8 POP POP PUSH1 0x40 PUSH2 0x4E6 DUP12 DUP3 DUP13 ADD PUSH2 0x435 JUMP JUMPDEST SWAP7 POP POP PUSH1 0x60 DUP10 ADD MLOAD PUSH8 0xFFFFFFFFFFFFFFFF DUP2 GT ISZERO PUSH2 0x507 JUMPI PUSH2 0x506 PUSH2 0x27C JUMP JUMPDEST JUMPDEST PUSH2 0x513 DUP12 DUP3 DUP13 ADD PUSH2 0x3E9 JUMP JUMPDEST SWAP6 POP POP PUSH1 0x80 PUSH2 0x524 DUP12 DUP3 DUP13 ADD PUSH2 0x2C6 JUMP JUMPDEST SWAP5 POP POP PUSH1 0xA0 PUSH2 0x535 DUP12 DUP3 DUP13 ADD PUSH2 0x46A JUMP JUMPDEST SWAP4 POP POP PUSH1 0xC0 PUSH2 0x546 DUP12 DUP3 DUP13 ADD PUSH2 0x2C6 JUMP JUMPDEST SWAP3 POP POP PUSH1 0xE0 PUSH2 0x557 DUP12 DUP3 DUP13 ADD PUSH2 0x435 JUMP JUMPDEST SWAP2 POP POP SWAP3 SWAP6 SWAP9 POP SWAP3 SWAP6 SWAP9 SWAP1 SWAP4 SWAP7 POP JUMP JUMPDEST PUSH0 DUP2 MLOAD SWAP1 POP SWAP2 SWAP1 POP JUMP JUMPDEST PUSH32 0x4E487B7100000000000000000000000000000000000000000000000000000000 PUSH0 MSTORE PUSH1 0x22 PUSH1 0x4 MSTORE PUSH1 0x24 PUSH0 REVERT JUMPDEST PUSH0 PUSH1 0x2 DUP3 DIV SWAP1 POP PUSH1 0x1 DUP3 AND DUP1 PUSH2 0x5B5 JUMPI PUSH1 0x7F DUP3 AND SWAP2 POP JUMPDEST PUSH1 0x20 DUP3 LT DUP2 SUB PUSH2 0x5C8 JUMPI PUSH2 0x5C7 PUSH2 0x571 JUMP JUMPDEST JUMPDEST POP SWAP2 SWAP1 POP JUMP JUMPDEST PUSH0 DUP2 SWAP1 POP DUP2 PUSH0 MSTORE PUSH1 0x20 PUSH0 KECCAK256 SWAP1 POP SWAP2 SWAP1 POP JUMP JUMPDEST PUSH0 PUSH1 0x20 PUSH1 0x1F DUP4 ADD DIV SWAP1 POP SWAP2 SWAP1 POP JUMP JUMPDEST PUSH0 DUP3 DUP3 SHL SWAP1 POP SWAP3 SWAP2 POP POP JUMP JUMPDEST PUSH0 PUSH1 0x8 DUP4 MUL PUSH2 0x62A PUSH32 0xFFFFFFFFFFFFFFFFFFFFFFFFFFFFFFFFFFFFFFFFFFFFFFFFFFFFFFFFFFFFFFFF DUP3 PUSH2 0x5EF JUMP JUMPDEST PUSH2 0x634 DUP7 DUP4 PUSH2 0x5EF JUMP JUMPDEST SWAP6 POP DUP1 NOT DUP5 AND SWAP4 POP DUP1 DUP7 AND DUP5 OR SWAP3 POP POP POP SWAP4 SWAP3 POP POP POP JUMP JUMPDEST PUSH0 DUP2 SWAP1 POP SWAP2 SWAP1 POP JUMP JUMPDEST PUSH0 PUSH2 0x66F PUSH2 0x66A PUSH2 0x665 DUP5 PUSH2 0x416 JUMP JUMPDEST PUSH2 0x64C JUMP JUMPDEST PUSH2 0x416 JUMP JUMPDEST SWAP1 POP SWAP2 SWAP1 POP JUMP JUMPDEST PUSH0 DUP2 SWAP1 POP SWAP2 SWAP1 POP JUMP JUMPDEST PUSH2 0x688 DUP4 PUSH2 0x655 JUMP JUMPDEST PUSH2 0x69C PUSH2 0x694 DUP3 PUSH2 0x676 JUMP JUMPDEST DUP5 DUP5 SLOAD PUSH2 0x5FB JUMP JUMPDEST DUP3 SSTORE POP POP POP POP JUMP JUMPDEST PUSH0 PUSH0 SWAP1 POP SWAP1 JUMP JUMPDEST PUSH2 0x6B3 PUSH2 0x6A4 JUMP JUMPDEST PUSH2 0x6BE DUP2 DUP5 DUP5 PUSH2 0x67F JUMP JUMPDEST POP POP POP JUMP JUMPDEST JUMPDEST DUP2 DUP2 LT ISZERO PUSH2 0x6E1 JUMPI PUSH2 0x6D6 PUSH0 DUP3 PUSH2 0x6AB JUMP JUMPDEST PUSH1 0x1 DUP2 ADD SWAP1 POP PUSH2 0x6C4 JUMP JUMPDEST POP POP JUMP JUMPDEST PUSH1 0x1F DUP3 GT ISZERO PUSH2 0x726 JUMPI PUSH2 0x6F7 DUP2 PUSH2 0x5CE JUMP JUMPDEST PUSH2 0x700 DUP5 PUSH2 0x5E0 JUMP JUMPDEST DUP2 ADD PUSH1 0x20 DUP6 LT ISZERO PUSH2 0x70F JUMPI DUP2 SWAP1 POP JUMPDEST PUSH2 0x723 PUSH2 0x71B DUP6 PUSH2 0x5E0 JUMP JUMPDEST DUP4 ADD DUP3 PUSH2 0x6C3 JUMP JUMPDEST POP POP JUMPDEST POP POP POP JUMP JUMPDEST PUSH0 DUP3 DUP3 SHR SWAP1 POP SWAP3 SWAP2 POP POP JUMP JUMPDEST PUSH0 PUSH2 0x746 PUSH0 NOT DUP5 PUSH1 0x8 MUL PUSH2 0x72B JUMP JUMPDEST NOT DUP1 DUP4 AND SWAP2 POP POP SWAP3 SWAP2 POP POP JUMP JUMPDEST PUSH0 PUSH2 0x75E DUP4 DUP4 PUSH2 0x737 JUMP JUMPDEST SWAP2 POP DUP3 PUSH1 0x2 MUL DUP3 OR SWAP1 POP SWAP3 SWAP2 POP POP JUMP JUMPDEST PUSH2 0x777 DUP3 PUSH2 0x567 JUMP JUMPDEST PUSH8 0xFFFFFFFFFFFFFFFF DUP2 GT ISZERO PUSH2 0x790 JUMPI PUSH2 0x78F PUSH2 0x2F2 JUMP JUMPDEST JUMPDEST PUSH2 0x79A DUP3 SLOAD PUSH2 0x59E JUMP JUMPDEST PUSH2 0x7A5 DUP3 DUP3 DUP6 PUSH2 0x6E5 JUMP JUMPDEST PUSH0 PUSH1 0x20 SWAP1 POP PUSH1 0x1F DUP4 GT PUSH1 0x1 DUP2 EQ PUSH2 0x7D6 JUMPI PUSH0 DUP5 ISZERO PUSH2 0x7C4 JUMPI DUP3 DUP8 ADD MLOAD SWAP1 POP JUMPDEST PUSH2 0x7CE DUP6 DUP3 PUSH2 0x753 JUMP JUMPDEST DUP7 SSTORE POP PUSH2 0x835 JUMP JUMPDEST PUSH1 0x1F NOT DUP5 AND PUSH2 0x7E4 DUP7 PUSH2 0x5CE JUMP JUMPDEST PUSH0 JUMPDEST DUP3 DUP2 LT ISZERO PUSH2 0x80B JUMPI DUP5 DUP10 ADD MLOAD DUP3 SSTORE PUSH1 0x1 DUP3 ADD SWAP2 POP PUSH1 0x20 DUP6 ADD SWAP5 POP PUSH1 0x20 DUP2 ADD SWAP1 POP PUSH2 0x7E6 JUMP JUMPDEST DUP7 DUP4 LT ISZERO PUSH2 0x828 JUMPI DUP5 DUP10 ADD MLOAD PUSH2 0x824 PUSH1 0x1F DUP10 AND DUP3 PUSH2 0x737 JUMP JUMPDEST DUP4 SSTORE POP JUMPDEST PUSH1 0x1 PUSH1 0x2 DUP9 MUL ADD DUP9 SSTORE POP POP POP JUMPDEST POP POP POP POP POP POP JUMP JUMPDEST PUSH2 0x846 DUP2 PUSH2 0x29F JUMP JUMPDEST DUP3 MSTORE POP POP JUMP JUMPDEST PUSH0 PUSH1 0x20 DUP3 ADD SWAP1 POP PUSH2 0x85F PUSH0 DUP4 ADD DUP5 PUSH2 0x83D JUMP JUMPDEST SWAP3 SWAP2 POP POP JUMP JUMPDEST PUSH1 0x80 MLOAD PUSH1 0xA0 MLOAD PUSH2 0x23B6 PUSH2 0x88D PUSH0 CODECOPY PUSH0 DUP2 DUP2 PUSH2 0xBD9 ADD MSTORE PUSH2 0xD3F ADD MSTORE PUSH0 PUSH2 0x716 ADD MSTORE PUSH2 0x23B6 PUSH0 RETURN INVALID PUSH1 0x80 PUSH1 0x40 MSTORE CALLVALUE DUP1 ISZERO PUSH2 0xF JUMPI PUSH0 PUSH0 REVERT JUMPDEST POP PUSH1 0x4 CALLDATASIZE LT PUSH2 0x156 JUMPI PUSH0 CALLDATALOAD PUSH1 0xE0 SHR DUP1 PUSH4 0x70A08231 GT PUSH2 0xC1 JUMPI DUP1 PUSH4 0xB88D4FDE GT PUSH2 0x7A JUMPI DUP1 PUSH4 0xB88D4FDE EQ PUSH2 0x3A0 JUMPI DUP1 PUSH4 0xC87B56DD EQ PUSH2 0x3BC JUMPI DUP1 PUSH4 0xC9B53900 EQ PUSH2 0x3EC JUMPI DUP1 PUSH4 0xE985E9C5 EQ PUSH2 0x40A JUMPI DUP1 PUSH4 0xF2FDE38B EQ PUSH2 0x43A JUMPI DUP1 PUSH4 0xF615CB5A EQ PUSH2 0x456 JUMPI PUSH2 0x156 JUMP JUMPDEST DUP1 PUSH4 0x70A08231 EQ PUSH2 0x2F0 JUMPI DUP1 PUSH4 0x715018A6 EQ PUSH2 0x320 JUMPI DUP1 PUSH4 0x75794A3C EQ PUSH2 0x32A JUMPI DUP1 PUSH4 0x8DA5CB5B EQ PUSH2 0x348 JUMPI DUP1 PUSH4 0x95D89B41 EQ PUSH2 0x366 JUMPI DUP1 PUSH4 0xA22CB465 EQ PUSH2 0x384 JUMPI PUSH2 0x156 JUMP JUMPDEST DUP1 PUSH4 0x40D097C3 GT PUSH2 0x113 JUMPI DUP1 PUSH4 0x40D097C3 EQ PUSH2 0x22E JUMPI DUP1 PUSH4 0x42842E0E EQ PUSH2 0x24A JUMPI DUP1 PUSH4 0x516F279E EQ PUSH2 0x266 JUMPI DUP1 PUSH4 0x54D06009 EQ PUSH2 0x284 JUMPI DUP1 PUSH4 0x61203265 EQ PUSH2 0x2A2 JUMPI DUP1 PUSH4 0x6352211E EQ PUSH2 0x2C0 JUMPI PUSH2 0x156 JUMP JUMPDEST DUP1 PUSH4 0x1FFC9A7 EQ PUSH2 0x15A JUMPI DUP1 PUSH4 0x6FDDE03 EQ PUSH2 0x18A JUMPI DUP1 PUSH4 0x81812FC EQ PUSH2 0x1A8 JUMPI DUP1 PUSH4 0x95EA7B3 EQ PUSH2 0x1D8 JUMPI DUP1 PUSH4 0x23B872DD EQ PUSH2 0x1F4 JUMPI DUP1 PUSH4 0x323046B1 EQ PUSH2 0x210 JUMPI JUMPDEST PUSH0 PUSH0 REVERT JUMPDEST PUSH2 0x174 PUSH1 0x4 DUP1 CALLDATASIZE SUB DUP2 ADD SWAP1 PUSH2 0x16F SWAP2 SWAP1 PUSH2 0x1BF9 JUMP JUMPDEST PUSH2 0x474 JUMP JUMPDEST PUSH1 0x40 MLOAD PUSH2 0x181 SWAP2 SWAP1 PUSH2 0x1C3E JUMP JUMPDEST PUSH1 0x40 MLOAD DUP1 SWAP2 SUB SWAP1 RETURN JUMPDEST PUSH2 0x192 PUSH2 0x555 JUMP JUMPDEST PUSH1 0x40 MLOAD PUSH2 0x19F SWAP2 SWAP1 PUSH2 0x1CC7 JUMP JUMPDEST PUSH1 0x40 MLOAD DUP1 SWAP2 SUB SWAP1 RETURN JUMPDEST PUSH2 0x1C2 PUSH1 0x4 DUP1 CALLDATASIZE SUB DUP2 ADD SWAP1 PUSH2 0x1BD SWAP2 SWAP1 PUSH2 0x1D1A JUMP JUMPDEST PUSH2 0x5E4 JUMP JUMPDEST PUSH1 0x40 MLOAD PUSH2 0x1CF SWAP2 SWAP1 PUSH2 0x1D84 JUMP JUMPDEST PUSH1 0x40 MLOAD DUP1 SWAP2 SUB SWAP1 RETURN JUMPDEST PUSH2 0x1F2 PUSH1 0x4 DUP1 CALLDATASIZE SUB DUP2 ADD SWAP1 PUSH2 0x1ED SWAP2 SWAP1 PUSH2 0x1DC7 JUMP JUMPDEST PUSH2 0x5FF JUMP JUMPDEST STOP JUMPDEST PUSH2 0x20E PUSH1 0x4 DUP1 CALLDATASIZE SUB DUP2 ADD SWAP1 PUSH2 0x209 SWAP2 SWAP1 PUSH2 0x1E05 JUMP JUMPDEST PUSH2 0x615 JUMP JUMPDEST STOP JUMPDEST PUSH2 0x218 PUSH2 0x714 JUMP JUMPDEST PUSH1 0x40 MLOAD PUSH2 0x225 SWAP2 SWAP1 PUSH2 0x1E64 JUMP JUMPDEST PUSH1 0x40 MLOAD DUP1 SWAP2 SUB SWAP1 RETURN JUMPDEST PUSH2 0x248 PUSH1 0x4 DUP1 CALLDATASIZE SUB DUP2 ADD SWAP1 PUSH2 0x243 SWAP2 SWAP1 PUSH2 0x1E7D JUMP JUMPDEST PUSH2 0x738 JUMP JUMPDEST STOP JUMPDEST PUSH2 0x264 PUSH1 0x4 DUP1 CALLDATASIZE SUB DUP2 ADD SWAP1 PUSH2 0x25F SWAP2 SWAP1 PUSH2 0x1E05 JUMP JUMPDEST PUSH2 0x791 JUMP JUMPDEST STOP JUMPDEST PUSH2 0x26E PUSH2 0x7B0 JUMP JUMPDEST PUSH1 0x40 MLOAD PUSH2 0x27B SWAP2 SWAP1 PUSH2 0x1CC7 JUMP JUMPDEST PUSH1 0x40 MLOAD DUP1 SWAP2 SUB SWAP1 RETURN JUMPDEST PUSH2 0x28C PUSH2 0x83C JUMP JUMPDEST PUSH1 0x40 MLOAD PUSH2 0x299 SWAP2 SWAP1 PUSH2 0x1D84 JUMP JUMPDEST PUSH1 0x40 MLOAD DUP1 SWAP2 SUB SWAP1 RETURN JUMPDEST PUSH2 0x2AA PUSH2 0x861 JUMP JUMPDEST PUSH1 0x40 MLOAD PUSH2 0x2B7 SWAP2 SWAP1 PUSH2 0x1D84 JUMP JUMPDEST PUSH1 0x40 MLOAD DUP1 SWAP2 SUB SWAP1 RETURN JUMPDEST PUSH2 0x2DA PUSH1 0x4 DUP1 CALLDATASIZE SUB DUP2 ADD SWAP1 PUSH2 0x2D5 SWAP2 SWAP1 PUSH2 0x1D1A JUMP JUMPDEST PUSH2 0x886 JUMP JUMPDEST PUSH1 0x40 MLOAD PUSH2 0x2E7 SWAP2 SWAP1 PUSH2 0x1D84 JUMP JUMPDEST PUSH1 0x40 MLOAD DUP1 SWAP2 SUB SWAP1 RETURN JUMPDEST PUSH2 0x30A PUSH1 0x4 DUP1 CALLDATASIZE SUB DUP2 ADD SWAP1 PUSH2 0x305 SWAP2 SWAP1 PUSH2 0x1E7D JUMP JUMPDEST PUSH2 0x897 JUMP JUMPDEST PUSH1 0x40 MLOAD PUSH2 0x317 SWAP2 SWAP1 PUSH2 0x1E64 JUMP JUMPDEST PUSH1 0x40 MLOAD DUP1 SWAP2 SUB SWAP1 RETURN JUMPDEST PUSH2 0x328 PUSH2 0x94D JUMP JUMPDEST STOP JUMPDEST PUSH2 0x332 PUSH2 0x960 JUMP JUMPDEST PUSH1 0x40 MLOAD PUSH2 0x33F SWAP2 SWAP1 PUSH2 0x1E64 JUMP JUMPDEST PUSH1 0x40 MLOAD DUP1 SWAP2 SUB SWAP1 RETURN JUMPDEST PUSH2 0x350 PUSH2 0x966 JUMP JUMPDEST PUSH1 0x40 MLOAD PUSH2 0x35D SWAP2 SWAP1 PUSH2 0x1D84 JUMP JUMPDEST PUSH1 0x40 MLOAD DUP1 SWAP2 SUB SWAP1 RETURN JUMPDEST PUSH2 0x36E PUSH2 0x98E JUMP JUMPDEST PUSH1 0x40 MLOAD PUSH2 0x37B SWAP2 SWAP1 PUSH2 0x1CC7 JUMP JUMPDEST PUSH1 0x40 MLOAD DUP1 SWAP2 SUB SWAP1 RETURN JUMPDEST PUSH2 0x39E PUSH1 0x4 DUP1 CALLDATASIZE SUB DUP2 ADD SWAP1 PUSH2 0x399 SWAP2 SWAP1 PUSH2 0x1ED2 JUMP JUMPDEST PUSH2 0xA1E JUMP JUMPDEST STOP JUMPDEST PUSH2 0x3BA PUSH1 0x4 DUP1 CALLDATASIZE SUB DUP2 ADD SWAP1 PUSH2 0x3B5 SWAP2 SWAP1 PUSH2 0x203C JUMP JUMPDEST PUSH2 0xA34 JUMP JUMPDEST STOP JUMPDEST PUSH2 0x3D6 PUSH1 0x4 DUP1 CALLDATASIZE SUB DUP2 ADD SWAP1 PUSH2 0x3D1 SWAP2 SWAP1 PUSH2 0x1D1A JUMP JUMPDEST PUSH2 0xA59 JUMP JUMPDEST PUSH1 0x40 MLOAD PUSH2 0x3E3 SWAP2 SWAP1 PUSH2 0x1CC7 JUMP JUMPDEST PUSH1 0x40 MLOAD DUP1 SWAP2 SUB SWAP1 RETURN JUMPDEST PUSH2 0x3F4 PUSH2 0xABF JUMP JUMPDEST PUSH1 0x40 MLOAD PUSH2 0x401 SWAP2 SWAP1 PUSH2 0x1E64 JUMP JUMPDEST PUSH1 0x40 MLOAD DUP1 SWAP2 SUB SWAP1 RETURN JUMPDEST PUSH2 0x424 PUSH1 0x4 DUP1 CALLDATASIZE SUB DUP2 ADD SWAP1 PUSH2 0x41F SWAP2 SWAP1 PUSH2 0x20BC JUMP JUMPDEST PUSH2 0xAC5 JUMP JUMPDEST PUSH1 0x40 MLOAD PUSH2 0x431 SWAP2 SWAP1 PUSH2 0x1C3E JUMP JUMPDEST PUSH1 0x40 MLOAD DUP1 SWAP2 SUB SWAP1 RETURN JUMPDEST PUSH2 0x454 PUSH1 0x4 DUP1 CALLDATASIZE SUB DUP2 ADD SWAP1 PUSH2 0x44F SWAP2 SWAP1 PUSH2 0x1E7D JUMP JUMPDEST PUSH2 0xB53 JUMP JUMPDEST STOP JUMPDEST PUSH2 0x45E PUSH2 0xBD7 JUMP JUMPDEST PUSH1 0x40 MLOAD PUSH2 0x46B SWAP2 SWAP1 PUSH2 0x1C3E JUMP JUMPDEST PUSH1 0x40 MLOAD DUP1 SWAP2 SUB SWAP1 RETURN JUMPDEST PUSH0 PUSH32 0x80AC58CD00000000000000000000000000000000000000000000000000000000 PUSH28 0xFFFFFFFFFFFFFFFFFFFFFFFFFFFFFFFFFFFFFFFFFFFFFFFFFFFFFFFF NOT AND DUP3 PUSH28 0xFFFFFFFFFFFFFFFFFFFFFFFFFFFFFFFFFFFFFFFFFFFFFFFFFFFFFFFF NOT AND EQ DUP1 PUSH2 0x53E JUMPI POP PUSH32 0x5B5E139F00000000000000000000000000000000000000000000000000000000 PUSH28 0xFFFFFFFFFFFFFFFFFFFFFFFFFFFFFFFFFFFFFFFFFFFFFFFFFFFFFFFF NOT AND DUP3 PUSH28 0xFFFFFFFFFFFFFFFFFFFFFFFFFFFFFFFFFFFFFFFFFFFFFFFFFFFFFFFF NOT AND EQ JUMPDEST DUP1 PUSH2 0x54E JUMPI POP PUSH2 0x54D DUP3 PUSH2 0xBFB JUMP JUMPDEST JUMPDEST SWAP1 POP SWAP2 SWAP1 POP JUMP JUMPDEST PUSH1 0x60 PUSH0 DUP1 SLOAD PUSH2 0x563 SWAP1 PUSH2 0x2127 JUMP JUMPDEST DUP1 PUSH1 0x1F ADD PUSH1 0x20 DUP1 SWAP2 DIV MUL PUSH1 0x20 ADD PUSH1 0x40 MLOAD SWAP1 DUP2 ADD PUSH1 0x40 MSTORE DUP1 SWAP3 SWAP2 SWAP1 DUP2 DUP2 MSTORE PUSH1 0x20 ADD DUP3 DUP1 SLOAD PUSH2 0x58F SWAP1 PUSH2 0x2127 JUMP JUMPDEST DUP1 ISZERO PUSH2 0x5DA JUMPI DUP1 PUSH1 0x1F LT PUSH2 0x5B1 JUMPI PUSH2 0x100 DUP1 DUP4 SLOAD DIV MUL DUP4 MSTORE SWAP2 PUSH1 0x20 ADD SWAP2 PUSH2 0x5DA JUMP JUMPDEST DUP3 ADD SWAP2 SWAP1 PUSH0 MSTORE PUSH1 0x20 PUSH0 KECCAK256 SWAP1 JUMPDEST DUP2 SLOAD DUP2 MSTORE SWAP1 PUSH1 0x1 ADD SWAP1 PUSH1 0x20 ADD DUP1 DUP4 GT PUSH2 0x5BD JUMPI DUP3 SWAP1 SUB PUSH1 0x1F AND DUP3 ADD SWAP2 JUMPDEST POP POP POP POP POP SWAP1 POP SWAP1 JUMP JUMPDEST PUSH0 PUSH2 0x5EE DUP3 PUSH2 0xC64 JUMP JUMPDEST POP PUSH2 0x5F8 DUP3 PUSH2 0xCEA JUMP JUMPDEST SWAP1 POP SWAP2 SWAP1 POP JUMP JUMPDEST PUSH2 0x611 DUP3 DUP3 PUSH2 0x60C PUSH2 0xD23 JUMP JUMPDEST PUSH2 0xD2A JUMP JUMPDEST POP POP JUMP JUMPDEST PUSH0 PUSH20 0xFFFFFFFFFFFFFFFFFFFFFFFFFFFFFFFFFFFFFFFF AND DUP3 PUSH20 0xFFFFFFFFFFFFFFFFFFFFFFFFFFFFFFFFFFFFFFFF AND SUB PUSH2 0x685 JUMPI PUSH0 PUSH1 0x40 MLOAD PUSH32 0x64A0AE9200000000000000000000000000000000000000000000000000000000 DUP2 MSTORE PUSH1 0x4 ADD PUSH2 0x67C SWAP2 SWAP1 PUSH2 0x1D84 JUMP JUMPDEST PUSH1 0x40 MLOAD DUP1 SWAP2 SUB SWAP1 REVERT JUMPDEST PUSH0 PUSH2 0x698 DUP4 DUP4 PUSH2 0x693 PUSH2 0xD23 JUMP JUMPDEST PUSH2 0xD3C JUMP JUMPDEST SWAP1 POP DUP4 PUSH20 0xFFFFFFFFFFFFFFFFFFFFFFFFFFFFFFFFFFFFFFFF AND DUP2 PUSH20 0xFFFFFFFFFFFFFFFFFFFFFFFFFFFFFFFFFFFFFFFF AND EQ PUSH2 0x70E JUMPI DUP4 DUP3 DUP3 PUSH1 0x40 MLOAD PUSH32 0x64283D7B00000000000000000000000000000000000000000000000000000000 DUP2 MSTORE PUSH1 0x4 ADD PUSH2 0x705 SWAP4 SWAP3 SWAP2 SWAP1 PUSH2 0x2157 JUMP JUMPDEST PUSH1 0x40 MLOAD DUP1 SWAP2 SUB SWAP1 REVERT JUMPDEST POP POP POP POP JUMP JUMPDEST PUSH32 0x0 DUP2 JUMP JUMPDEST PUSH2 0x740 PUSH2 0xE4A JUMP JUMPDEST PUSH1 0x8 SLOAD PUSH1 0x9 SLOAD SUB PUSH2 0x77D JUMPI PUSH1 0x40 MLOAD PUSH32 0xF04CBD4A00000000000000000000000000000000000000000000000000000000 DUP2 MSTORE PUSH1 0x4 ADD PUSH1 0x40 MLOAD DUP1 SWAP2 SUB SWAP1 REVERT JUMPDEST PUSH0 PUSH1 0x9 SLOAD SWAP1 POP PUSH2 0x78D DUP3 DUP3 PUSH2 0xED1 JUMP JUMPDEST POP POP JUMP JUMPDEST PUSH2 0x7AB DUP4 DUP4 DUP4 PUSH1 0x40 MLOAD DUP1 PUSH1 0x20 ADD PUSH1 0x40 MSTORE DUP1 PUSH0 DUP2 MSTORE POP PUSH2 0xA34 JUMP JUMPDEST POP POP POP JUMP JUMPDEST PUSH1 0x7 DUP1 SLOAD PUSH2 0x7BD SWAP1 PUSH2 0x2127 JUMP JUMPDEST DUP1 PUSH1 0x1F ADD PUSH1 0x20 DUP1 SWAP2 DIV MUL PUSH1 0x20 ADD PUSH1 0x40 MLOAD SWAP1 DUP2 ADD PUSH1 0x40 MSTORE DUP1 SWAP3 SWAP2 SWAP1 DUP2 DUP2 MSTORE PUSH1 0x20 ADD DUP3 DUP1 SLOAD PUSH2 0x7E9 SWAP1 PUSH2 0x2127 JUMP JUMPDEST DUP1 ISZERO PUSH2 0x834 JUMPI DUP1 PUSH1 0x1F LT PUSH2 0x80B JUMPI PUSH2 0x100 DUP1 DUP4 SLOAD DIV MUL DUP4 MSTORE SWAP2 PUSH1 0x20 ADD SWAP2 PUSH2 0x834 JUMP JUMPDEST DUP3 ADD SWAP2 SWAP1 PUSH0 MSTORE PUSH1 0x20 PUSH0 KECCAK256 SWAP1 JUMPDEST DUP2 SLOAD DUP2 MSTORE SWAP1 PUSH1 0x1 ADD SWAP1 PUSH1 0x20 ADD DUP1 DUP4 GT PUSH2 0x817 JUMPI DUP3 SWAP1 SUB PUSH1 0x1F AND DUP3 ADD SWAP2 JUMPDEST POP POP POP POP POP DUP2 JUMP JUMPDEST PUSH1 0xB PUSH0 SWAP1 SLOAD SWAP1 PUSH2 0x100 EXP SWAP1 DIV PUSH20 0xFFFFFFFFFFFFFFFFFFFFFFFFFFFFFFFFFFFFFFFF AND DUP2 JUMP JUMPDEST PUSH1 0xA PUSH0 SWAP1 SLOAD SWAP1 PUSH2 0x100 EXP SWAP1 DIV PUSH20 0xFFFFFFFFFFFFFFFFFFFFFFFFFFFFFFFFFFFFFFFF AND DUP2 JUMP JUMPDEST PUSH0 PUSH2 0x890 DUP3 PUSH2 0xC64 JUMP JUMPDEST SWAP1 POP SWAP2 SWAP1 POP JUMP JUMPDEST PUSH0 PUSH0 PUSH20 0xFFFFFFFFFFFFFFFFFFFFFFFFFFFFFFFFFFFFFFFF AND DUP3 PUSH20 0xFFFFFFFFFFFFFFFFFFFFFFFFFFFFFFFFFFFFFFFF AND SUB PUSH2 0x908 JUMPI PUSH0 PUSH1 0x40 MLOAD PUSH32 0x89C62B6400000000000000000000000000000000000000000000000000000000 DUP2 MSTORE PUSH1 0x4 ADD PUSH2 0x8FF SWAP2 SWAP1 PUSH2 0x1D84 JUMP JUMPDEST PUSH1 0x40 MLOAD DUP1 SWAP2 SUB SWAP1 REVERT JUMPDEST PUSH1 0x3 PUSH0 DUP4 PUSH20 0xFFFFFFFFFFFFFFFFFFFFFFFFFFFFFFFFFFFFFFFF AND PUSH20 0xFFFFFFFFFFFFFFFFFFFFFFFFFFFFFFFFFFFFFFFF AND DUP2 MSTORE PUSH1 0x20 ADD SWAP1 DUP2 MSTORE PUSH1 0x20 ADD PUSH0 KECCAK256 SLOAD SWAP1 POP SWAP2 SWAP1 POP JUMP JUMPDEST PUSH2 0x955 PUSH2 0xE4A JUMP JUMPDEST PUSH2 0x95E PUSH0 PUSH2 0xEEE JUMP JUMPDEST JUMP JUMPDEST PUSH1 0x9 SLOAD DUP2 JUMP JUMPDEST PUSH0 PUSH1 0x6 PUSH0 SWAP1 SLOAD SWAP1 PUSH2 0x100 EXP SWAP1 DIV PUSH20 0xFFFFFFFFFFFFFFFFFFFFFFFFFFFFFFFFFFFFFFFF AND SWAP1 POP SWAP1 JUMP JUMPDEST PUSH1 0x60 PUSH1 0x1 DUP1 SLOAD PUSH2 0x99D SWAP1 PUSH2 0x2127 JUMP JUMPDEST DUP1 PUSH1 0x1F ADD PUSH1 0x20 DUP1 SWAP2 DIV MUL PUSH1 0x20 ADD PUSH1 0x40 MLOAD SWAP1 DUP2 ADD PUSH1 0x40 MSTORE DUP1 SWAP3 SWAP2 SWAP1 DUP2 DUP2 MSTORE PUSH1 0x20 ADD DUP3 DUP1 SLOAD PUSH2 0x9C9 SWAP1 PUSH2 0x2127 JUMP JUMPDEST DUP1 ISZERO PUSH2 0xA14 JUMPI DUP1 PUSH1 0x1F LT PUSH2 0x9EB JUMPI PUSH2 0x100 DUP1 DUP4 SLOAD DIV MUL DUP4 MSTORE SWAP2 PUSH1 0x20 ADD SWAP2 PUSH2 0xA14 JUMP JUMPDEST DUP3 ADD SWAP2 SWAP1 PUSH0 MSTORE PUSH1 0x20 PUSH0 KECCAK256 SWAP1 JUMPDEST DUP2 SLOAD DUP2 MSTORE SWAP1 PUSH1 0x1 ADD SWAP1 PUSH1 0x20 ADD DUP1 DUP4 GT PUSH2 0x9F7 JUMPI DUP3 SWAP1 SUB PUSH1 0x1F AND DUP3 ADD SWAP2 JUMPDEST POP POP POP POP POP SWAP1 POP SWAP1 JUMP JUMPDEST PUSH2 0xA30 PUSH2 0xA29 PUSH2 0xD23 JUMP JUMPDEST DUP4 DUP4 PUSH2 0xFB1 JUMP JUMPDEST POP POP JUMP JUMPDEST PUSH2 0xA3F DUP5 DUP5 DUP5 PUSH2 0x615 JUMP JUMPDEST PUSH2 0xA53 PUSH2 0xA4A PUSH2 0xD23 JUMP JUMPDEST DUP6 DUP6 DUP6 DUP6 PUSH2 0x111A JUMP JUMPDEST POP POP POP POP JUMP JUMPDEST PUSH1 0x60 PUSH2 0xA64 DUP3 PUSH2 0xC64 JUMP JUMPDEST POP PUSH0 PUSH2 0xA6E PUSH2 0x12C6 JUMP JUMPDEST SWAP1 POP PUSH0 DUP2 MLOAD GT PUSH2 0xA8C JUMPI PUSH1 0x40 MLOAD DUP1 PUSH1 0x20 ADD PUSH1 0x40 MSTORE DUP1 PUSH0 DUP2 MSTORE POP PUSH2 0xAB7 JUMP JUMPDEST DUP1 PUSH2 0xA96 DUP5 PUSH2 0x12DC JUMP JUMPDEST PUSH1 0x40 MLOAD PUSH1 0x20 ADD PUSH2 0xAA7 SWAP3 SWAP2 SWAP1 PUSH2 0x21C6 JUMP JUMPDEST PUSH1 0x40 MLOAD PUSH1 0x20 DUP2 DUP4 SUB SUB DUP2 MSTORE SWAP1 PUSH1 0x40 MSTORE JUMPDEST SWAP2 POP POP SWAP2 SWAP1 POP JUMP JUMPDEST PUSH1 0x8 SLOAD DUP2 JUMP JUMPDEST PUSH0 PUSH1 0x5 PUSH0 DUP5 PUSH20 0xFFFFFFFFFFFFFFFFFFFFFFFFFFFFFFFFFFFFFFFF AND PUSH20 0xFFFFFFFFFFFFFFFFFFFFFFFFFFFFFFFFFFFFFFFF AND DUP2 MSTORE PUSH1 0x20 ADD SWAP1 DUP2 MSTORE PUSH1 0x20 ADD PUSH0 KECCAK256 PUSH0 DUP4 PUSH20 0xFFFFFFFFFFFFFFFFFFFFFFFFFFFFFFFFFFFFFFFF AND PUSH20 0xFFFFFFFFFFFFFFFFFFFFFFFFFFFFFFFFFFFFFFFF AND DUP2 MSTORE PUSH1 0x20 ADD SWAP1 DUP2 MSTORE PUSH1 0x20 ADD PUSH0 KECCAK256 PUSH0 SWAP1 SLOAD SWAP1 PUSH2 0x100 EXP SWAP1 DIV PUSH1 0xFF AND SWAP1 POP SWAP3 SWAP2 POP POP JUMP JUMPDEST PUSH2 0xB5B PUSH2 0xE4A JUMP JUMPDEST PUSH0 PUSH20 0xFFFFFFFFFFFFFFFFFFFFFFFFFFFFFFFFFFFFFFFF AND DUP2 PUSH20 0xFFFFFFFFFFFFFFFFFFFFFFFFFFFFFFFFFFFFFFFF AND SUB PUSH2 0xBCB JUMPI PUSH0 PUSH1 0x40 MLOAD PUSH32 0x1E4FBDF700000000000000000000000000000000000000000000000000000000 DUP2 MSTORE PUSH1 0x4 ADD PUSH2 0xBC2 SWAP2 SWAP1 PUSH2 0x1D84 JUMP JUMPDEST PUSH1 0x40 MLOAD DUP1 SWAP2 SUB SWAP1 REVERT JUMPDEST PUSH2 0xBD4 DUP2 PUSH2 0xEEE JUMP JUMPDEST POP JUMP JUMPDEST PUSH32 0x0 DUP2 JUMP JUMPDEST PUSH0 PUSH32 0x1FFC9A700000000000000000000000000000000000000000000000000000000 PUSH28 0xFFFFFFFFFFFFFFFFFFFFFFFFFFFFFFFFFFFFFFFFFFFFFFFFFFFFFFFF NOT AND DUP3 PUSH28 0xFFFFFFFFFFFFFFFFFFFFFFFFFFFFFFFFFFFFFFFFFFFFFFFFFFFFFFFF NOT AND EQ SWAP1 POP SWAP2 SWAP1 POP JUMP JUMPDEST PUSH0 PUSH0 PUSH2 0xC6F DUP4 PUSH2 0x13A6 JUMP JUMPDEST SWAP1 POP PUSH0 PUSH20 0xFFFFFFFFFFFFFFFFFFFFFFFFFFFFFFFFFFFFFFFF AND DUP2 PUSH20 0xFFFFFFFFFFFFFFFFFFFFFFFFFFFFFFFFFFFFFFFF AND SUB PUSH2 0xCE1 JUMPI DUP3 PUSH1 0x40 MLOAD PUSH32 0x7E27328900000000000000000000000000000000000000000000000000000000 DUP2 MSTORE PUSH1 0x4 ADD PUSH2 0xCD8 SWAP2 SWAP1 PUSH2 0x1E64 JUMP JUMPDEST PUSH1 0x40 MLOAD DUP1 SWAP2 SUB SWAP1 REVERT JUMPDEST DUP1 SWAP2 POP POP SWAP2 SWAP1 POP JUMP JUMPDEST PUSH0 PUSH1 0x4 PUSH0 DUP4 DUP2 MSTORE PUSH1 0x20 ADD SWAP1 DUP2 MSTORE PUSH1 0x20 ADD PUSH0 KECCAK256 PUSH0 SWAP1 SLOAD SWAP1 PUSH2 0x100 EXP SWAP1 DIV PUSH20 0xFFFFFFFFFFFFFFFFFFFFFFFFFFFFFFFFFFFFFFFF AND SWAP1 POP SWAP2 SWAP1 POP JUMP JUMPDEST PUSH0 CALLER SWAP1 POP SWAP1 JUMP JUMPDEST PUSH2 0xD37 DUP4 DUP4 DUP4 PUSH1 0x1 PUSH2 0x13DF JUMP JUMPDEST POP POP POP JUMP JUMPDEST PUSH0 PUSH32 0x0 DUP1 ISZERO PUSH2 0xD9D JUMPI POP PUSH2 0xD6D PUSH2 0x966 JUMP JUMPDEST PUSH20 0xFFFFFFFFFFFFFFFFFFFFFFFFFFFFFFFFFFFFFFFF AND CALLER PUSH20 0xFFFFFFFFFFFFFFFFFFFFFFFFFFFFFFFFFFFFFFFF AND EQ ISZERO JUMPDEST DUP1 ISZERO PUSH2 0xDF6 JUMPI POP DUP4 PUSH20 0xFFFFFFFFFFFFFFFFFFFFFFFFFFFFFFFFFFFFFFFF AND PUSH1 0xB PUSH0 SWAP1 SLOAD SWAP1 PUSH2 0x100 EXP SWAP1 DIV PUSH20 0xFFFFFFFFFFFFFFFFFFFFFFFFFFFFFFFFFFFFFFFF AND PUSH20 0xFFFFFFFFFFFFFFFFFFFFFFFFFFFFFFFFFFFFFFFF AND EQ ISZERO JUMPDEST ISZERO PUSH2 0xE36 JUMPI PUSH1 0x40 MLOAD PUSH32 0x8C379A000000000000000000000000000000000000000000000000000000000 DUP2 MSTORE PUSH1 0x4 ADD PUSH2 0xE2D SWAP1 PUSH2 0x2233 JUMP JUMPDEST PUSH1 0x40 MLOAD DUP1 SWAP2 SUB SWAP1 REVERT JUMPDEST PUSH2 0xE41 DUP5 DUP5 DUP5 PUSH2 0x159E JUMP JUMPDEST SWAP1 POP SWAP4 SWAP3 POP POP POP JUMP JUMPDEST PUSH2 0xE52 PUSH2 0xD23 JUMP JUMPDEST PUSH20 0xFFFFFFFFFFFFFFFFFFFFFFFFFFFFFFFFFFFFFFFF AND PUSH2 0xE70 PUSH2 0x966 JUMP JUMPDEST PUSH20 0xFFFFFFFFFFFFFFFFFFFFFFFFFFFFFFFFFFFFFFFF AND EQ PUSH2 0xECF JUMPI PUSH2 0xE93 PUSH2 0xD23 JUMP JUMPDEST PUSH1 0x40 MLOAD PUSH32 0x118CDAA700000000000000000000000000000000000000000000000000000000 DUP2 MSTORE PUSH1 0x4 ADD PUSH2 0xEC6 SWAP2 SWAP1 PUSH2 0x1D84 JUMP JUMPDEST PUSH1 0x40 MLOAD DUP1 SWAP2 SUB SWAP1 REVERT JUMPDEST JUMP JUMPDEST PUSH2 0xEEA DUP3 DUP3 PUSH1 0x40 MLOAD DUP1 PUSH1 0x20 ADD PUSH1 0x40 MSTORE DUP1 PUSH0 DUP2 MSTORE POP PUSH2 0x17A9 JUMP JUMPDEST POP POP JUMP JUMPDEST PUSH0 PUSH1 0x6 PUSH0 SWAP1 SLOAD SWAP1 PUSH2 0x100 EXP SWAP1 DIV PUSH20 0xFFFFFFFFFFFFFFFFFFFFFFFFFFFFFFFFFFFFFFFF AND SWAP1 POP DUP2 PUSH1 0x6 PUSH0 PUSH2 0x100 EXP DUP2 SLOAD DUP2 PUSH20 0xFFFFFFFFFFFFFFFFFFFFFFFFFFFFFFFFFFFFFFFF MUL NOT AND SWAP1 DUP4 PUSH20 0xFFFFFFFFFFFFFFFFFFFFFFFFFFFFFFFFFFFFFFFF AND MUL OR SWAP1 SSTORE POP DUP2 PUSH20 0xFFFFFFFFFFFFFFFFFFFFFFFFFFFFFFFFFFFFFFFF AND DUP2 PUSH20 0xFFFFFFFFFFFFFFFFFFFFFFFFFFFFFFFFFFFFFFFF AND PUSH32 0x8BE0079C531659141344CD1FD0A4F28419497F9722A3DAAFE3B4186F6B6457E0 PUSH1 0x40 MLOAD PUSH1 0x40 MLOAD DUP1 SWAP2 SUB SWAP1 LOG3 POP POP JUMP JUMPDEST PUSH0 PUSH20 0xFFFFFFFFFFFFFFFFFFFFFFFFFFFFFFFFFFFFFFFF AND DUP3 PUSH20 0xFFFFFFFFFFFFFFFFFFFFFFFFFFFFFFFFFFFFFFFF AND SUB PUSH2 0x1021 JUMPI DUP2 PUSH1 0x40 MLOAD PUSH32 0x5B08BA1800000000000000000000000000000000000000000000000000000000 DUP2 MSTORE PUSH1 0x4 ADD PUSH2 0x1018 SWAP2 SWAP1 PUSH2 0x1D84 JUMP JUMPDEST PUSH1 0x40 MLOAD DUP1 SWAP2 SUB SWAP1 REVERT JUMPDEST DUP1 PUSH1 0x5 PUSH0 DUP6 PUSH20 0xFFFFFFFFFFFFFFFFFFFFFFFFFFFFFFFFFFFFFFFF AND PUSH20 0xFFFFFFFFFFFFFFFFFFFFFFFFFFFFFFFFFFFFFFFF AND DUP2 MSTORE PUSH1 0x20 ADD SWAP1 DUP2 MSTORE PUSH1 0x20 ADD PUSH0 KECCAK256 PUSH0 DUP5 PUSH20 0xFFFFFFFFFFFFFFFFFFFFFFFFFFFFFFFFFFFFFFFF AND PUSH20 0xFFFFFFFFFFFFFFFFFFFFFFFFFFFFFFFFFFFFFFFF AND DUP2 MSTORE PUSH1 0x20 ADD SWAP1 DUP2 MSTORE PUSH1 0x20 ADD PUSH0 KECCAK256 PUSH0 PUSH2 0x100 EXP DUP2 SLOAD DUP2 PUSH1 0xFF MUL NOT AND SWAP1 DUP4 ISZERO ISZERO MUL OR SWAP1 SSTORE POP DUP2 PUSH20 0xFFFFFFFFFFFFFFFFFFFFFFFFFFFFFFFFFFFFFFFF AND DUP4 PUSH20 0xFFFFFFFFFFFFFFFFFFFFFFFFFFFFFFFFFFFFFFFF AND PUSH32 0x17307EAB39AB6107E8899845AD3D59BD9653F200F220920489CA2B5937696C31 DUP4 PUSH1 0x40 MLOAD PUSH2 0x110D SWAP2 SWAP1 PUSH2 0x1C3E JUMP JUMPDEST PUSH1 0x40 MLOAD DUP1 SWAP2 SUB SWAP1 LOG3 POP POP POP JUMP JUMPDEST PUSH0 DUP4 PUSH20 0xFFFFFFFFFFFFFFFFFFFFFFFFFFFFFFFFFFFFFFFF AND EXTCODESIZE GT ISZERO PUSH2 0x12BF JUMPI DUP3 PUSH20 0xFFFFFFFFFFFFFFFFFFFFFFFFFFFFFFFFFFFFFFFF AND PUSH4 0x150B7A02 DUP7 DUP7 DUP6 DUP6 PUSH1 0x40 MLOAD DUP6 PUSH4 0xFFFFFFFF AND PUSH1 0xE0 SHL DUP2 MSTORE PUSH1 0x4 ADD PUSH2 0x1178 SWAP5 SWAP4 SWAP3 SWAP2 SWAP1 PUSH2 0x22A3 JUMP JUMPDEST PUSH1 0x20 PUSH1 0x40 MLOAD DUP1 DUP4 SUB DUP2 PUSH0 DUP8 GAS CALL SWAP3 POP POP POP DUP1 ISZERO PUSH2 0x11B3 JUMPI POP PUSH1 0x40 MLOAD RETURNDATASIZE PUSH1 0x1F NOT PUSH1 0x1F DUP3 ADD AND DUP3 ADD DUP1 PUSH1 0x40 MSTORE POP DUP2 ADD SWAP1 PUSH2 0x11B0 SWAP2 SWAP1 PUSH2 0x2301 JUMP JUMPDEST PUSH1 0x1 JUMPDEST PUSH2 0x1234 JUMPI RETURNDATASIZE DUP1 PUSH0 DUP2 EQ PUSH2 0x11E1 JUMPI PUSH1 0x40 MLOAD SWAP2 POP PUSH1 0x1F NOT PUSH1 0x3F RETURNDATASIZE ADD AND DUP3 ADD PUSH1 0x40 MSTORE RETURNDATASIZE DUP3 MSTORE RETURNDATASIZE PUSH0 PUSH1 0x20 DUP5 ADD RETURNDATACOPY PUSH2 0x11E6 JUMP JUMPDEST PUSH1 0x60 SWAP2 POP JUMPDEST POP PUSH0 DUP2 MLOAD SUB PUSH2 0x122C JUMPI DUP4 PUSH1 0x40 MLOAD PUSH32 0x64A0AE9200000000000000000000000000000000000000000000000000000000 DUP2 MSTORE PUSH1 0x4 ADD PUSH2 0x1223 SWAP2 SWAP1 PUSH2 0x1D84 JUMP JUMPDEST PUSH1 0x40 MLOAD DUP1 SWAP2 SUB SWAP1 REVERT JUMPDEST DUP1 MLOAD DUP2 PUSH1 0x20 ADD REVERT JUMPDEST PUSH4 0x150B7A02 PUSH1 0xE0 SHL PUSH28 0xFFFFFFFFFFFFFFFFFFFFFFFFFFFFFFFFFFFFFFFFFFFFFFFFFFFFFFFF NOT AND DUP2 PUSH28 0xFFFFFFFFFFFFFFFFFFFFFFFFFFFFFFFFFFFFFFFFFFFFFFFFFFFFFFFF NOT AND EQ PUSH2 0x12BD JUMPI DUP4 PUSH1 0x40 MLOAD PUSH32 0x64A0AE9200000000000000000000000000000000000000000000000000000000 DUP2 MSTORE PUSH1 0x4 ADD PUSH2 0x12B4 SWAP2 SWAP1 PUSH2 0x1D84 JUMP JUMPDEST PUSH1 0x40 MLOAD DUP1 SWAP2 SUB SWAP1 REVERT JUMPDEST POP JUMPDEST POP POP POP POP POP JUMP JUMPDEST PUSH1 0x60 PUSH1 0x40 MLOAD DUP1 PUSH1 0x20 ADD PUSH1 0x40 MSTORE DUP1 PUSH0 DUP2 MSTORE POP SWAP1 POP SWAP1 JUMP JUMPDEST PUSH1 0x60 PUSH0 PUSH1 0x1 PUSH2 0x12EA DUP5 PUSH2 0x17CC JUMP JUMPDEST ADD SWAP1 POP PUSH0 DUP2 PUSH8 0xFFFFFFFFFFFFFFFF DUP2 GT ISZERO PUSH2 0x1308 JUMPI PUSH2 0x1307 PUSH2 0x1F18 JUMP JUMPDEST JUMPDEST PUSH1 0x40 MLOAD SWAP1 DUP1 DUP3 MSTORE DUP1 PUSH1 0x1F ADD PUSH1 0x1F NOT AND PUSH1 0x20 ADD DUP3 ADD PUSH1 0x40 MSTORE DUP1 ISZERO PUSH2 0x133A JUMPI DUP2 PUSH1 0x20 ADD PUSH1 0x1 DUP3 MUL DUP1 CALLDATASIZE DUP4 CALLDATACOPY DUP1 DUP3 ADD SWAP2 POP POP SWAP1 POP JUMPDEST POP SWAP1 POP PUSH0 DUP3 PUSH1 0x20 ADD DUP3 ADD SWAP1 POP JUMPDEST PUSH1 0x1 ISZERO PUSH2 0x139B JUMPI DUP1 DUP1 PUSH1 0x1 SWAP1 SUB SWAP2 POP POP PUSH32 0x3031323334353637383961626364656600000000000000000000000000000000 PUSH1 0xA DUP7 MOD BYTE DUP2 MSTORE8 PUSH1 0xA DUP6 DUP2 PUSH2 0x1390 JUMPI PUSH2 0x138F PUSH2 0x232C JUMP JUMPDEST JUMPDEST DIV SWAP5 POP PUSH0 DUP6 SUB PUSH2 0x1347 JUMPI JUMPDEST DUP2 SWAP4 POP POP POP POP SWAP2 SWAP1 POP JUMP JUMPDEST PUSH0 PUSH1 0x2 PUSH0 DUP4 DUP2 MSTORE PUSH1 0x20 ADD SWAP1 DUP2 MSTORE PUSH1 0x20 ADD PUSH0 KECCAK256 PUSH0 SWAP1 SLOAD SWAP1 PUSH2 0x100 EXP SWAP1 DIV PUSH20 0xFFFFFFFFFFFFFFFFFFFFFFFFFFFFFFFFFFFFFFFF AND SWAP1 POP SWAP2 SWAP1 POP JUMP JUMPDEST DUP1 DUP1 PUSH2 0x1417 JUMPI POP PUSH0 PUSH20 0xFFFFFFFFFFFFFFFFFFFFFFFFFFFFFFFFFFFFFFFF AND DUP3 PUSH20 0xFFFFFFFFFFFFFFFFFFFFFFFFFFFFFFFFFFFFFFFF AND EQ ISZERO JUMPDEST ISZERO PUSH2 0x1549 JUMPI PUSH0 PUSH2 0x1426 DUP5 PUSH2 0xC64 JUMP JUMPDEST SWAP1 POP PUSH0 PUSH20 0xFFFFFFFFFFFFFFFFFFFFFFFFFFFFFFFFFFFFFFFF AND DUP4 PUSH20 0xFFFFFFFFFFFFFFFFFFFFFFFFFFFFFFFFFFFFFFFF AND EQ ISZERO DUP1 ISZERO PUSH2 0x1490 JUMPI POP DUP3 PUSH20 0xFFFFFFFFFFFFFFFFFFFFFFFFFFFFFFFFFFFFFFFF AND DUP2 PUSH20 0xFFFFFFFFFFFFFFFFFFFFFFFFFFFFFFFFFFFFFFFF AND EQ ISZERO JUMPDEST DUP1 ISZERO PUSH2 0x14A3 JUMPI POP PUSH2 0x14A1 DUP2 DUP5 PUSH2 0xAC5 JUMP JUMPDEST ISZERO JUMPDEST ISZERO PUSH2 0x14E5 JUMPI DUP3 PUSH1 0x40 MLOAD PUSH32 0xA9FBF51F00000000000000000000000000000000000000000000000000000000 DUP2 MSTORE PUSH1 0x4 ADD PUSH2 0x14DC SWAP2 SWAP1 PUSH2 0x1D84 JUMP JUMPDEST PUSH1 0x40 MLOAD DUP1 SWAP2 SUB SWAP1 REVERT JUMPDEST DUP2 ISZERO PUSH2 0x1547 JUMPI DUP4 DUP6 PUSH20 0xFFFFFFFFFFFFFFFFFFFFFFFFFFFFFFFFFFFFFFFF AND DUP3 PUSH20 0xFFFFFFFFFFFFFFFFFFFFFFFFFFFFFFFFFFFFFFFF AND PUSH32 0x8C5BE1E5EBEC7D5BD14F71427D1E84F3DD0314C0F7B2291E5B200AC8C7C3B925 PUSH1 0x40 MLOAD PUSH1 0x40 MLOAD DUP1 SWAP2 SUB SWAP1 LOG4 JUMPDEST POP JUMPDEST DUP4 PUSH1 0x4 PUSH0 DUP6 DUP2 MSTORE PUSH1 0x20 ADD SWAP1 DUP2 MSTORE PUSH1 0x20 ADD PUSH0 KECCAK256 PUSH0 PUSH2 0x100 EXP DUP2 SLOAD DUP2 PUSH20 0xFFFFFFFFFFFFFFFFFFFFFFFFFFFFFFFFFFFFFFFF MUL NOT AND SWAP1 DUP4 PUSH20 0xFFFFFFFFFFFFFFFFFFFFFFFFFFFFFFFFFFFFFFFF AND MUL OR SWAP1 SSTORE POP POP POP POP POP JUMP JUMPDEST PUSH0 PUSH0 PUSH2 0x15A9 DUP5 PUSH2 0x13A6 JUMP JUMPDEST SWAP1 POP PUSH0 PUSH20 0xFFFFFFFFFFFFFFFFFFFFFFFFFFFFFFFFFFFFFFFF AND DUP4 PUSH20 0xFFFFFFFFFFFFFFFFFFFFFFFFFFFFFFFFFFFFFFFF AND EQ PUSH2 0x15EA JUMPI PUSH2 0x15E9 DUP2 DUP5 DUP7 PUSH2 0x191D JUMP JUMPDEST JUMPDEST PUSH0 PUSH20 0xFFFFFFFFFFFFFFFFFFFFFFFFFFFFFFFFFFFFFFFF AND DUP2 PUSH20 0xFFFFFFFFFFFFFFFFFFFFFFFFFFFFFFFFFFFFFFFF AND EQ PUSH2 0x1675 JUMPI PUSH2 0x1629 PUSH0 DUP6 PUSH0 PUSH0 PUSH2 0x13DF JUMP JUMPDEST PUSH1 0x1 PUSH1 0x3 PUSH0 DUP4 PUSH20 0xFFFFFFFFFFFFFFFFFFFFFFFFFFFFFFFFFFFFFFFF AND PUSH20 0xFFFFFFFFFFFFFFFFFFFFFFFFFFFFFFFFFFFFFFFF AND DUP2 MSTORE PUSH1 0x20 ADD SWAP1 DUP2 MSTORE PUSH1 0x20 ADD PUSH0 KECCAK256 PUSH0 DUP3 DUP3 SLOAD SUB SWAP3 POP POP DUP2 SWAP1 SSTORE POP JUMPDEST PUSH0 PUSH20 0xFFFFFFFFFFFFFFFFFFFFFFFFFFFFFFFFFFFFFFFF AND DUP6 PUSH20 0xFFFFFFFFFFFFFFFFFFFFFFFFFFFFFFFFFFFFFFFF AND EQ PUSH2 0x16F4 JUMPI PUSH1 0x1 PUSH1 0x3 PUSH0 DUP8 PUSH20 0xFFFFFFFFFFFFFFFFFFFFFFFFFFFFFFFFFFFFFFFF AND PUSH20 0xFFFFFFFFFFFFFFFFFFFFFFFFFFFFFFFFFFFFFFFF AND DUP2 MSTORE PUSH1 0x20 ADD SWAP1 DUP2 MSTORE PUSH1 0x20 ADD PUSH0 KECCAK256 PUSH0 DUP3 DUP3 SLOAD ADD SWAP3 POP POP DUP2 SWAP1 SSTORE POP JUMPDEST DUP5 PUSH1 0x2 PUSH0 DUP7 DUP2 MSTORE PUSH1 0x20 ADD SWAP1 DUP2 MSTORE PUSH1 0x20 ADD PUSH0 KECCAK256 PUSH0 PUSH2 0x100 EXP DUP2 SLOAD DUP2 PUSH20 0xFFFFFFFFFFFFFFFFFFFFFFFFFFFFFFFFFFFFFFFF MUL NOT AND SWAP1 DUP4 PUSH20 0xFFFFFFFFFFFFFFFFFFFFFFFFFFFFFFFFFFFFFFFF AND MUL OR SWAP1 SSTORE POP DUP4 DUP6 PUSH20 0xFFFFFFFFFFFFFFFFFFFFFFFFFFFFFFFFFFFFFFFF AND DUP3 PUSH20 0xFFFFFFFFFFFFFFFFFFFFFFFFFFFFFFFFFFFFFFFF AND PUSH32 0xDDF252AD1BE2C89B69C2B068FC378DAA952BA7F163C4A11628F55A4DF523B3EF PUSH1 0x40 MLOAD PUSH1 0x40 MLOAD DUP1 SWAP2 SUB SWAP1 LOG4 DUP1 SWAP2 POP POP SWAP4 SWAP3 POP POP POP JUMP JUMPDEST PUSH2 0x17B3 DUP4 DUP4 PUSH2 0x19E0 JUMP JUMPDEST PUSH2 0x17C7 PUSH2 0x17BE PUSH2 0xD23 JUMP JUMPDEST PUSH0 DUP6 DUP6 DUP6 PUSH2 0x111A JUMP JUMPDEST POP POP POP JUMP JUMPDEST PUSH0 PUSH0 PUSH0 SWAP1 POP PUSH27 0x184F03E93FF9F4DAA797ED6E38ED64BF6A1F010000000000000000 DUP4 LT PUSH2 0x1828 JUMPI PUSH27 0x184F03E93FF9F4DAA797ED6E38ED64BF6A1F010000000000000000 DUP4 DUP2 PUSH2 0x181E JUMPI PUSH2 0x181D PUSH2 0x232C JUMP JUMPDEST JUMPDEST DIV SWAP3 POP PUSH1 0x40 DUP2 ADD SWAP1 POP JUMPDEST PUSH14 0x4EE2D6D415B85ACEF8100000000 DUP4 LT PUSH2 0x1865 JUMPI PUSH14 0x4EE2D6D415B85ACEF8100000000 DUP4 DUP2 PUSH2 0x185B JUMPI PUSH2 0x185A PUSH2 0x232C JUMP JUMPDEST JUMPDEST DIV SWAP3 POP PUSH1 0x20 DUP2 ADD SWAP1 POP JUMPDEST PUSH7 0x2386F26FC10000 DUP4 LT PUSH2 0x1894 JUMPI PUSH7 0x2386F26FC10000 DUP4 DUP2 PUSH2 0x188A JUMPI PUSH2 0x1889 PUSH2 0x232C JUMP JUMPDEST JUMPDEST DIV SWAP3 POP PUSH1 0x10 DUP2 ADD SWAP1 POP JUMPDEST PUSH4 0x5F5E100 DUP4 LT PUSH2 0x18BD JUMPI PUSH4 0x5F5E100 DUP4 DUP2 PUSH2 0x18B3 JUMPI PUSH2 0x18B2 PUSH2 0x232C JUMP JUMPDEST JUMPDEST DIV SWAP3 POP PUSH1 0x8 DUP2 ADD SWAP1 POP JUMPDEST PUSH2 0x2710 DUP4 LT PUSH2 0x18E2 JUMPI PUSH2 0x2710 DUP4 DUP2 PUSH2 0x18D8 JUMPI PUSH2 0x18D7 PUSH2 0x232C JUMP JUMPDEST JUMPDEST DIV SWAP3 POP PUSH1 0x4 DUP2 ADD SWAP1 POP JUMPDEST PUSH1 0x64 DUP4 LT PUSH2 0x1905 JUMPI PUSH1 0x64 DUP4 DUP2 PUSH2 0x18FB JUMPI PUSH2 0x18FA PUSH2 0x232C JUMP JUMPDEST JUMPDEST DIV SWAP3 POP PUSH1 0x2 DUP2 ADD SWAP1 POP JUMPDEST PUSH1 0xA DUP4 LT PUSH2 0x1914 JUMPI PUSH1 0x1 DUP2 ADD SWAP1 POP JUMPDEST DUP1 SWAP2 POP POP SWAP2 SWAP1 POP JUMP JUMPDEST PUSH2 0x1928 DUP4 DUP4 DUP4 PUSH2 0x1AD3 JUMP JUMPDEST PUSH2 0x19DB JUMPI PUSH0 PUSH20 0xFFFFFFFFFFFFFFFFFFFFFFFFFFFFFFFFFFFFFFFF AND DUP4 PUSH20 0xFFFFFFFFFFFFFFFFFFFFFFFFFFFFFFFFFFFFFFFF AND SUB PUSH2 0x199C JUMPI DUP1 PUSH1 0x40 MLOAD PUSH32 0x7E27328900000000000000000000000000000000000000000000000000000000 DUP2 MSTORE PUSH1 0x4 ADD PUSH2 0x1993 SWAP2 SWAP1 PUSH2 0x1E64 JUMP JUMPDEST PUSH1 0x40 MLOAD DUP1 SWAP2 SUB SWAP1 REVERT JUMPDEST DUP2 DUP2 PUSH1 0x40 MLOAD PUSH32 0x177E802F00000000000000000000000000000000000000000000000000000000 DUP2 MSTORE PUSH1 0x4 ADD PUSH2 0x19D2 SWAP3 SWAP2 SWAP1 PUSH2 0x2359 JUMP JUMPDEST PUSH1 0x40 MLOAD DUP1 SWAP2 SUB SWAP1 REVERT JUMPDEST POP POP POP JUMP JUMPDEST PUSH0 PUSH20 0xFFFFFFFFFFFFFFFFFFFFFFFFFFFFFFFFFFFFFFFF AND DUP3 PUSH20 0xFFFFFFFFFFFFFFFFFFFFFFFFFFFFFFFFFFFFFFFF AND SUB PUSH2 0x1A50 JUMPI PUSH0 PUSH1 0x40 MLOAD PUSH32 0x64A0AE9200000000000000000000000000000000000000000000000000000000 DUP2 MSTORE PUSH1 0x4 ADD PUSH2 0x1A47 SWAP2 SWAP1 PUSH2 0x1D84 JUMP JUMPDEST PUSH1 0x40 MLOAD DUP1 SWAP2 SUB SWAP1 REVERT JUMPDEST PUSH0 PUSH2 0x1A5C DUP4 DUP4 PUSH0 PUSH2 0xD3C JUMP JUMPDEST SWAP1 POP PUSH0 PUSH20 0xFFFFFFFFFFFFFFFFFFFFFFFFFFFFFFFFFFFFFFFF AND DUP2 PUSH20 0xFFFFFFFFFFFFFFFFFFFFFFFFFFFFFFFFFFFFFFFF AND EQ PUSH2 0x1ACE JUMPI PUSH0 PUSH1 0x40 MLOAD PUSH32 0x73C6AC6E00000000000000000000000000000000000000000000000000000000 DUP2 MSTORE PUSH1 0x4 ADD PUSH2 0x1AC5 SWAP2 SWAP1 PUSH2 0x1D84 JUMP JUMPDEST PUSH1 0x40 MLOAD DUP1 SWAP2 SUB SWAP1 REVERT JUMPDEST POP POP POP JUMP JUMPDEST PUSH0 PUSH0 PUSH20 0xFFFFFFFFFFFFFFFFFFFFFFFFFFFFFFFFFFFFFFFF AND DUP4 PUSH20 0xFFFFFFFFFFFFFFFFFFFFFFFFFFFFFFFFFFFFFFFF AND EQ ISZERO DUP1 ISZERO PUSH2 0x1B8A JUMPI POP DUP3 PUSH20 0xFFFFFFFFFFFFFFFFFFFFFFFFFFFFFFFFFFFFFFFF AND DUP5 PUSH20 0xFFFFFFFFFFFFFFFFFFFFFFFFFFFFFFFFFFFFFFFF AND EQ DUP1 PUSH2 0x1B4B JUMPI POP PUSH2 0x1B4A DUP5 DUP5 PUSH2 0xAC5 JUMP JUMPDEST JUMPDEST DUP1 PUSH2 0x1B89 JUMPI POP DUP3 PUSH20 0xFFFFFFFFFFFFFFFFFFFFFFFFFFFFFFFFFFFFFFFF AND PUSH2 0x1B71 DUP4 PUSH2 0xCEA JUMP JUMPDEST PUSH20 0xFFFFFFFFFFFFFFFFFFFFFFFFFFFFFFFFFFFFFFFF AND EQ JUMPDEST JUMPDEST SWAP1 POP SWAP4 SWAP3 POP POP POP JUMP JUMPDEST PUSH0 PUSH1 0x40 MLOAD SWAP1 POP SWAP1 JUMP JUMPDEST PUSH0 PUSH0 REVERT JUMPDEST PUSH0 PUSH0 REVERT JUMPDEST PUSH0 PUSH32 0xFFFFFFFF00000000000000000000000000000000000000000000000000000000 DUP3 AND SWAP1 POP SWAP2 SWAP1 POP JUMP JUMPDEST PUSH2 0x1BD8 DUP2 PUSH2 0x1BA4 JUMP JUMPDEST DUP2 EQ PUSH2 0x1BE2 JUMPI PUSH0 PUSH0 REVERT JUMPDEST POP JUMP JUMPDEST PUSH0 DUP2 CALLDATALOAD SWAP1 POP PUSH2 0x1BF3 DUP2 PUSH2 0x1BCF JUMP JUMPDEST SWAP3 SWAP2 POP POP JUMP JUMPDEST PUSH0 PUSH1 0x20 DUP3 DUP5 SUB SLT ISZERO PUSH2 0x1C0E JUMPI PUSH2 0x1C0D PUSH2 0x1B9C JUMP JUMPDEST JUMPDEST PUSH0 PUSH2 0x1C1B DUP5 DUP3 DUP6 ADD PUSH2 0x1BE5 JUMP JUMPDEST SWAP2 POP POP SWAP3 SWAP2 POP POP JUMP JUMPDEST PUSH0 DUP2 ISZERO ISZERO SWAP1 POP SWAP2 SWAP1 POP JUMP JUMPDEST PUSH2 0x1C38 DUP2 PUSH2 0x1C24 JUMP JUMPDEST DUP3 MSTORE POP POP JUMP JUMPDEST PUSH0 PUSH1 0x20 DUP3 ADD SWAP1 POP PUSH2 0x1C51 PUSH0 DUP4 ADD DUP5 PUSH2 0x1C2F JUMP JUMPDEST SWAP3 SWAP2 POP POP JUMP JUMPDEST PUSH0 DUP2 MLOAD SWAP1 POP SWAP2 SWAP1 POP JUMP JUMPDEST PUSH0 DUP3 DUP3 MSTORE PUSH1 0x20 DUP3 ADD SWAP1 POP SWAP3 SWAP2 POP POP JUMP JUMPDEST DUP3 DUP2 DUP4 MCOPY PUSH0 DUP4 DUP4 ADD MSTORE POP POP POP JUMP JUMPDEST PUSH0 PUSH1 0x1F NOT PUSH1 0x1F DUP4 ADD AND SWAP1 POP SWAP2 SWAP1 POP JUMP JUMPDEST PUSH0 PUSH2 0x1C99 DUP3 PUSH2 0x1C57 JUMP JUMPDEST PUSH2 0x1CA3 DUP2 DUP6 PUSH2 0x1C61 JUMP JUMPDEST SWAP4 POP PUSH2 0x1CB3 DUP2 DUP6 PUSH1 0x20 DUP7 ADD PUSH2 0x1C71 JUMP JUMPDEST PUSH2 0x1CBC DUP2 PUSH2 0x1C7F JUMP JUMPDEST DUP5 ADD SWAP2 POP POP SWAP3 SWAP2 POP POP JUMP JUMPDEST PUSH0 PUSH1 0x20 DUP3 ADD SWAP1 POP DUP2 DUP2 SUB PUSH0 DUP4 ADD MSTORE PUSH2 0x1CDF DUP2 DUP5 PUSH2 0x1C8F JUMP JUMPDEST SWAP1 POP SWAP3 SWAP2 POP POP JUMP JUMPDEST PUSH0 DUP2 SWAP1 POP SWAP2 SWAP1 POP JUMP JUMPDEST PUSH2 0x1CF9 DUP2 PUSH2 0x1CE7 JUMP JUMPDEST DUP2 EQ PUSH2 0x1D03 JUMPI PUSH0 PUSH0 REVERT JUMPDEST POP JUMP JUMPDEST PUSH0 DUP2 CALLDATALOAD SWAP1 POP PUSH2 0x1D14 DUP2 PUSH2 0x1CF0 JUMP JUMPDEST SWAP3 SWAP2 POP POP JUMP JUMPDEST PUSH0 PUSH1 0x20 DUP3 DUP5 SUB SLT ISZERO PUSH2 0x1D2F JUMPI PUSH2 0x1D2E PUSH2 0x1B9C JUMP JUMPDEST JUMPDEST PUSH0 PUSH2 0x1D3C DUP5 DUP3 DUP6 ADD PUSH2 0x1D06 JUMP JUMPDEST SWAP2 POP POP SWAP3 SWAP2 POP POP JUMP JUMPDEST PUSH0 PUSH20 0xFFFFFFFFFFFFFFFFFFFFFFFFFFFFFFFFFFFFFFFF DUP3 AND SWAP1 POP SWAP2 SWAP1 POP JUMP JUMPDEST PUSH0 PUSH2 0x1D6E DUP3 PUSH2 0x1D45 JUMP JUMPDEST SWAP1 POP SWAP2 SWAP1 POP JUMP JUMPDEST PUSH2 0x1D7E DUP2 PUSH2 0x1D64 JUMP JUMPDEST DUP3 MSTORE POP POP JUMP JUMPDEST PUSH0 PUSH1 0x20 DUP3 ADD SWAP1 POP PUSH2 0x1D97 PUSH0 DUP4 ADD DUP5 PUSH2 0x1D75 JUMP JUMPDEST SWAP3 SWAP2 POP POP JUMP JUMPDEST PUSH2 0x1DA6 DUP2 PUSH2 0x1D64 JUMP JUMPDEST DUP2 EQ PUSH2 0x1DB0 JUMPI PUSH0 PUSH0 REVERT JUMPDEST POP JUMP JUMPDEST PUSH0 DUP2 CALLDATALOAD SWAP1 POP PUSH2 0x1DC1 DUP2 PUSH2 0x1D9D JUMP JUMPDEST SWAP3 SWAP2 POP POP JUMP JUMPDEST PUSH0 PUSH0 PUSH1 0x40 DUP4 DUP6 SUB SLT ISZERO PUSH2 0x1DDD JUMPI PUSH2 0x1DDC PUSH2 0x1B9C JUMP JUMPDEST JUMPDEST PUSH0 PUSH2 0x1DEA DUP6 DUP3 DUP7 ADD PUSH2 0x1DB3 JUMP JUMPDEST SWAP3 POP POP PUSH1 0x20 PUSH2 0x1DFB DUP6 DUP3 DUP7 ADD PUSH2 0x1D06 JUMP JUMPDEST SWAP2 POP POP SWAP3 POP SWAP3 SWAP1 POP JUMP JUMPDEST PUSH0 PUSH0 PUSH0 PUSH1 0x60 DUP5 DUP7 SUB SLT ISZERO PUSH2 0x1E1C JUMPI PUSH2 0x1E1B PUSH2 0x1B9C JUMP JUMPDEST JUMPDEST PUSH0 PUSH2 0x1E29 DUP7 DUP3 DUP8 ADD PUSH2 0x1DB3 JUMP JUMPDEST SWAP4 POP POP PUSH1 0x20 PUSH2 0x1E3A DUP7 DUP3 DUP8 ADD PUSH2 0x1DB3 JUMP JUMPDEST SWAP3 POP POP PUSH1 0x40 PUSH2 0x1E4B DUP7 DUP3 DUP8 ADD PUSH2 0x1D06 JUMP JUMPDEST SWAP2 POP POP SWAP3 POP SWAP3 POP SWAP3 JUMP JUMPDEST PUSH2 0x1E5E DUP2 PUSH2 0x1CE7 JUMP JUMPDEST DUP3 MSTORE POP POP JUMP JUMPDEST PUSH0 PUSH1 0x20 DUP3 ADD SWAP1 POP PUSH2 0x1E77 PUSH0 DUP4 ADD DUP5 PUSH2 0x1E55 JUMP JUMPDEST SWAP3 SWAP2 POP POP JUMP JUMPDEST PUSH0 PUSH1 0x20 DUP3 DUP5 SUB SLT ISZERO PUSH2 0x1E92 JUMPI PUSH2 0x1E91 PUSH2 0x1B9C JUMP JUMPDEST JUMPDEST PUSH0 PUSH2 0x1E9F DUP5 DUP3 DUP6 ADD PUSH2 0x1DB3 JUMP JUMPDEST SWAP2 POP POP SWAP3 SWAP2 POP POP JUMP JUMPDEST PUSH2 0x1EB1 DUP2 PUSH2 0x1C24 JUMP JUMPDEST DUP2 EQ PUSH2 0x1EBB JUMPI PUSH0 PUSH0 REVERT JUMPDEST POP JUMP JUMPDEST PUSH0 DUP2 CALLDATALOAD SWAP1 POP PUSH2 0x1ECC DUP2 PUSH2 0x1EA8 JUMP JUMPDEST SWAP3 SWAP2 POP POP JUMP JUMPDEST PUSH0 PUSH0 PUSH1 0x40 DUP4 DUP6 SUB SLT ISZERO PUSH2 0x1EE8 JUMPI PUSH2 0x1EE7 PUSH2 0x1B9C JUMP JUMPDEST JUMPDEST PUSH0 PUSH2 0x1EF5 DUP6 DUP3 DUP7 ADD PUSH2 0x1DB3 JUMP JUMPDEST SWAP3 POP POP PUSH1 0x20 PUSH2 0x1F06 DUP6 DUP3 DUP7 ADD PUSH2 0x1EBE JUMP JUMPDEST SWAP2 POP POP SWAP3 POP SWAP3 SWAP1 POP JUMP JUMPDEST PUSH0 PUSH0 REVERT JUMPDEST PUSH0 PUSH0 REVERT JUMPDEST PUSH32 0x4E487B7100000000000000000000000000000000000000000000000000000000 PUSH0 MSTORE PUSH1 0x41 PUSH1 0x4 MSTORE PUSH1 0x24 PUSH0 REVERT JUMPDEST PUSH2 0x1F4E DUP3 PUSH2 0x1C7F JUMP JUMPDEST DUP2 ADD DUP2 DUP2 LT PUSH8 0xFFFFFFFFFFFFFFFF DUP3 GT OR ISZERO PUSH2 0x1F6D JUMPI PUSH2 0x1F6C PUSH2 0x1F18 JUMP JUMPDEST JUMPDEST DUP1 PUSH1 0x40 MSTORE POP POP POP JUMP JUMPDEST PUSH0 PUSH2 0x1F7F PUSH2 0x1B93 JUMP JUMPDEST SWAP1 POP PUSH2 0x1F8B DUP3 DUP3 PUSH2 0x1F45 JUMP JUMPDEST SWAP2 SWAP1 POP JUMP JUMPDEST PUSH0 PUSH8 0xFFFFFFFFFFFFFFFF DUP3 GT ISZERO PUSH2 0x1FAA JUMPI PUSH2 0x1FA9 PUSH2 0x1F18 JUMP JUMPDEST JUMPDEST PUSH2 0x1FB3 DUP3 PUSH2 0x1C7F JUMP JUMPDEST SWAP1 POP PUSH1 0x20 DUP2 ADD SWAP1 POP SWAP2 SWAP1 POP JUMP JUMPDEST DUP3 DUP2 DUP4 CALLDATACOPY PUSH0 DUP4 DUP4 ADD MSTORE POP POP POP JUMP JUMPDEST PUSH0 PUSH2 0x1FE0 PUSH2 0x1FDB DUP5 PUSH2 0x1F90 JUMP JUMPDEST PUSH2 0x1F76 JUMP JUMPDEST SWAP1 POP DUP3 DUP2 MSTORE PUSH1 0x20 DUP2 ADD DUP5 DUP5 DUP5 ADD GT ISZERO PUSH2 0x1FFC JUMPI PUSH2 0x1FFB PUSH2 0x1F14 JUMP JUMPDEST JUMPDEST PUSH2 0x2007 DUP5 DUP3 DUP6 PUSH2 0x1FC0 JUMP JUMPDEST POP SWAP4 SWAP3 POP POP POP JUMP JUMPDEST PUSH0 DUP3 PUSH1 0x1F DUP4 ADD SLT PUSH2 0x2023 JUMPI PUSH2 0x2022 PUSH2 0x1F10 JUMP JUMPDEST JUMPDEST DUP2 CALLDATALOAD PUSH2 0x2033 DUP5 DUP3 PUSH1 0x20 DUP7 ADD PUSH2 0x1FCE JUMP JUMPDEST SWAP2 POP POP SWAP3 SWAP2 POP POP JUMP JUMPDEST PUSH0 PUSH0 PUSH0 PUSH0 PUSH1 0x80 DUP6 DUP8 SUB SLT ISZERO PUSH2 0x2054 JUMPI PUSH2 0x2053 PUSH2 0x1B9C JUMP JUMPDEST JUMPDEST PUSH0 PUSH2 0x2061 DUP8 DUP3 DUP9 ADD PUSH2 0x1DB3 JUMP JUMPDEST SWAP5 POP POP PUSH1 0x20 PUSH2 0x2072 DUP8 DUP3 DUP9 ADD PUSH2 0x1DB3 JUMP JUMPDEST SWAP4 POP POP PUSH1 0x40 PUSH2 0x2083 DUP8 DUP3 DUP9 ADD PUSH2 0x1D06 JUMP JUMPDEST SWAP3 POP POP PUSH1 0x60 DUP6 ADD CALLDATALOAD PUSH8 0xFFFFFFFFFFFFFFFF DUP2 GT ISZERO PUSH2 0x20A4 JUMPI PUSH2 0x20A3 PUSH2 0x1BA0 JUMP JUMPDEST JUMPDEST PUSH2 0x20B0 DUP8 DUP3 DUP9 ADD PUSH2 0x200F JUMP JUMPDEST SWAP2 POP POP SWAP3 SWAP6 SWAP2 SWAP5 POP SWAP3 POP JUMP JUMPDEST PUSH0 PUSH0 PUSH1 0x40 DUP4 DUP6 SUB SLT ISZERO PUSH2 0x20D2 JUMPI PUSH2 0x20D1 PUSH2 0x1B9C JUMP JUMPDEST JUMPDEST PUSH0 PUSH2 0x20DF DUP6 DUP3 DUP7 ADD PUSH2 0x1DB3 JUMP JUMPDEST SWAP3 POP POP PUSH1 0x20 PUSH2 0x20F0 DUP6 DUP3 DUP7 ADD PUSH2 0x1DB3 JUMP JUMPDEST SWAP2 POP POP SWAP3 POP SWAP3 SWAP1 POP JUMP JUMPDEST PUSH32 0x4E487B7100000000000000000000000000000000000000000000000000000000 PUSH0 MSTORE PUSH1 0x22 PUSH1 0x4 MSTORE PUSH1 0x24 PUSH0 REVERT JUMPDEST PUSH0 PUSH1 0x2 DUP3 DIV SWAP1 POP PUSH1 0x1 DUP3 AND DUP1 PUSH2 0x213E JUMPI PUSH1 0x7F DUP3 AND SWAP2 POP JUMPDEST PUSH1 0x20 DUP3 LT DUP2 SUB PUSH2 0x2151 JUMPI PUSH2 0x2150 PUSH2 0x20FA JUMP JUMPDEST JUMPDEST POP SWAP2 SWAP1 POP JUMP JUMPDEST PUSH0 PUSH1 0x60 DUP3 ADD SWAP1 POP PUSH2 0x216A PUSH0 DUP4 ADD DUP7 PUSH2 0x1D75 JUMP JUMPDEST PUSH2 0x2177 PUSH1 0x20 DUP4 ADD DUP6 PUSH2 0x1E55 JUMP JUMPDEST PUSH2 0x2184 PUSH1 0x40 DUP4 ADD DUP5 PUSH2 0x1D75 JUMP JUMPDEST SWAP5 SWAP4 POP POP POP POP JUMP JUMPDEST PUSH0 DUP2 SWAP1 POP SWAP3 SWAP2 POP POP JUMP JUMPDEST PUSH0 PUSH2 0x21A0 DUP3 PUSH2 0x1C57 JUMP JUMPDEST PUSH2 0x21AA DUP2 DUP6 PUSH2 0x218C JUMP JUMPDEST SWAP4 POP PUSH2 0x21BA DUP2 DUP6 PUSH1 0x20 DUP7 ADD PUSH2 0x1C71 JUMP JUMPDEST DUP1 DUP5 ADD SWAP2 POP POP SWAP3 SWAP2 POP POP JUMP JUMPDEST PUSH0 PUSH2 0x21D1 DUP3 DUP6 PUSH2 0x2196 JUMP JUMPDEST SWAP2 POP PUSH2 0x21DD DUP3 DUP5 PUSH2 0x2196 JUMP JUMPDEST SWAP2 POP DUP2 SWAP1 POP SWAP4 SWAP3 POP POP POP JUMP JUMPDEST PUSH32 0x696E76616C6964207472616E7366657220287072696365206361702900000000 PUSH0 DUP3 ADD MSTORE POP JUMP JUMPDEST PUSH0 PUSH2 0x221D PUSH1 0x1C DUP4 PUSH2 0x1C61 JUMP JUMPDEST SWAP2 POP PUSH2 0x2228 DUP3 PUSH2 0x21E9 JUMP JUMPDEST PUSH1 0x20 DUP3 ADD SWAP1 POP SWAP2 SWAP1 POP JUMP JUMPDEST PUSH0 PUSH1 0x20 DUP3 ADD SWAP1 POP DUP2 DUP2 SUB PUSH0 DUP4 ADD MSTORE PUSH2 0x224A DUP2 PUSH2 0x2211 JUMP JUMPDEST SWAP1 POP SWAP2 SWAP1 POP JUMP JUMPDEST PUSH0 DUP2 MLOAD SWAP1 POP SWAP2 SWAP1 POP JUMP JUMPDEST PUSH0 DUP3 DUP3 MSTORE PUSH1 0x20 DUP3 ADD SWAP1 POP SWAP3 SWAP2 POP POP JUMP JUMPDEST PUSH0 PUSH2 0x2275 DUP3 PUSH2 0x2251 JUMP JUMPDEST PUSH2 0x227F DUP2 DUP6 PUSH2 0x225B JUMP JUMPDEST SWAP4 POP PUSH2 0x228F DUP2 DUP6 PUSH1 0x20 DUP7 ADD PUSH2 0x1C71 JUMP JUMPDEST PUSH2 0x2298 DUP2 PUSH2 0x1C7F JUMP JUMPDEST DUP5 ADD SWAP2 POP POP SWAP3 SWAP2 POP POP JUMP JUMPDEST PUSH0 PUSH1 0x80 DUP3 ADD SWAP1 POP PUSH2 0x22B6 PUSH0 DUP4 ADD DUP8 PUSH2 0x1D75 JUMP JUMPDEST PUSH2 0x22C3 PUSH1 0x20 DUP4 ADD DUP7 PUSH2 0x1D75 JUMP JUMPDEST PUSH2 0x22D0 PUSH1 0x40 DUP4 ADD DUP6 PUSH2 0x1E55 JUMP JUMPDEST DUP2 DUP2 SUB PUSH1 0x60 DUP4 ADD MSTORE PUSH2 0x22E2 DUP2 DUP5 PUSH2 0x226B JUMP JUMPDEST SWAP1 POP SWAP6 SWAP5 POP POP POP POP POP JUMP JUMPDEST PUSH0 DUP2 MLOAD SWAP1 POP PUSH2 0x22FB DUP2 PUSH2 0x1BCF JUMP JUMPDEST SWAP3 SWAP2 POP POP JUMP JUMPDEST PUSH0 PUSH1 0x20 DUP3 DUP5 SUB SLT ISZERO PUSH2 0x2316 JUMPI PUSH2 0x2315 PUSH2 0x1B9C JUMP JUMPDEST JUMPDEST PUSH0 PUSH2 0x2323 DUP5 DUP3 DUP6 ADD PUSH2 0x22ED JUMP JUMPDEST SWAP2 POP POP SWAP3 SWAP2 POP POP JUMP JUMPDEST PUSH32 0x4E487B7100000000000000000000000000000000000000000000000000000000 PUSH0 MSTORE PUSH1 0x12 PUSH1 0x4 MSTORE PUSH1 0x24 PUSH0 REVERT JUMPDEST PUSH0 PUSH1 0x40 DUP3 ADD SWAP1 POP PUSH2 0x236C PUSH0 DUP4 ADD DUP6 PUSH2 0x1D75 JUMP JUMPDEST PUSH2 0x2379 PUSH1 0x20 DUP4 ADD DUP5 PUSH2 0x1E55 JUMP JUMPDEST SWAP4 SWAP3 POP POP POP JUMP INVALID LOG2 PUSH5 0x6970667358 0x22 SLT KECCAK256 SWAP14 ADD NOT 0xBC PUSH24 0x614DD9510105A589D06ABC813778899756FBA8D6866A48E7 0xB0 EXP SHR PUSH5 0x736F6C6343 STOP ADDMOD SHR STOP CALLER LOG2 PUSH5 0x6970667358 0x22 SLT KECCAK256 BLOBHASH 0x4C 0xD4 0xA7 0xA9 LOG3 0xDF PUSH6 0x5FEEDA0CC4ED 0xDD 0x2E 0x4C GT SWAP3 0xC1 0xB6 0xCA 0xBA SWAP1 PUSH18 0xB12289A6CF2D6F64736F6C634300081C0033 "
		},
		"gasEstimates": {
			"creation": {
				"codeDepositCost": "3511400",
				"executionCost": "infinite",
				"totalCost": "infinite"
			},
			"external": {
				"MIN_SALE_PERIOD()": "325",
				"buyOnSecondMarket(address,uint256,address)": "infinite",
				"buyTicket(address)": "infinite",
				"createEvent(string,uint256,string,uint256,uint8,uint256,bool,address,uint256)": "infinite",
				"events(address)": "infinite",
				"feeColector()": "infinite",
				"listEvents(address,uint256,uint8,uint256)": "infinite",
				"marketFee()": "2448",
				"profits(address)": "2890",
				"secondMarketListings(address,address)": "infinite",
				"withdrawProfits(address)": "infinite"
			},
			"internal": {
				"_listEvents(address,uint256,enum BuyingOptions,uint256)": "infinite"
			}
		},
		"methodIdentifiers": {
			"MIN_SALE_PERIOD()": "808af973",
			"buyOnSecondMarket(address,uint256,address)": "8bf7c2b8",
			"buyTicket(address)": "a5f8cdbb",
			"createEvent(string,uint256,string,uint256,uint8,uint256,bool,address,uint256)": "d5274202",
			"events(address)": "3194bfe1",
			"feeColector()": "6207d541",
			"listEvents(address,uint256,uint8,uint256)": "87696d56",
			"marketFee()": "0ccf2156",
			"profits(address)": "cc85f080",
			"secondMarketListings(address,address)": "5469a708",
			"withdrawProfits(address)": "00362a77"
		}
	},
	"abi": [
		{
			"inputs": [
				{
					"internalType": "address",
					"name": "feeColector_",
					"type": "address"
				}
			],
			"stateMutability": "nonpayable",
			"type": "constructor"
		},
		{
			"inputs": [],
			"name": "AlreadyListed",
			"type": "error"
		},
		{
			"inputs": [
				{
					"internalType": "string",
					"name": "info",
					"type": "string"
				}
			],
			"name": "InvalidInput",
			"type": "error"
		},
		{
			"inputs": [],
			"name": "NotEventOrganizer",
			"type": "error"
		},
		{
			"inputs": [],
			"name": "ProfitDistributionFailed",
			"type": "error"
		},
		{
			"inputs": [],
			"name": "WrongBuyingOptions",
			"type": "error"
		},
		{
			"anonymous": false,
			"inputs": [
				{
					"indexed": true,
					"internalType": "address",
					"name": "newEvent",
					"type": "address"
				}
			],
			"name": "NewEvent",
			"type": "event"
		},
		{
			"inputs": [],
			"name": "MIN_SALE_PERIOD",
			"outputs": [
				{
					"internalType": "uint256",
					"name": "",
					"type": "uint256"
				}
			],
			"stateMutability": "view",
			"type": "function"
		},
		{
			"inputs": [
				{
					"internalType": "address",
					"name": "event_",
					"type": "address"
				},
				{
					"internalType": "uint256",
					"name": "ticketID",
					"type": "uint256"
				},
				{
					"internalType": "address",
					"name": "owner",
					"type": "address"
				}
			],
			"name": "buyOnSecondMarket",
			"outputs": [],
			"stateMutability": "payable",
			"type": "function"
		},
		{
			"inputs": [
				{
					"internalType": "address",
					"name": "from",
					"type": "address"
				}
			],
			"name": "buyTicket",
			"outputs": [],
			"stateMutability": "payable",
			"type": "function"
		},
		{
			"inputs": [
				{
					"internalType": "string",
					"name": "name",
					"type": "string"
				},
				{
					"internalType": "uint256",
					"name": "date",
					"type": "uint256"
				},
				{
					"internalType": "string",
					"name": "location",
					"type": "string"
				},
				{
					"internalType": "uint256",
					"name": "ticketPrice",
					"type": "uint256"
				},
				{
					"internalType": "enum BuyingOptions",
					"name": "saleType",
					"type": "uint8"
				},
				{
					"internalType": "uint256",
					"name": "saleEnds",
					"type": "uint256"
				},
				{
					"internalType": "bool",
					"name": "_isPriceCapSet",
					"type": "bool"
				},
				{
					"internalType": "address",
					"name": "whiteListAddress_",
					"type": "address"
				},
				{
					"internalType": "uint256",
					"name": "availability_",
					"type": "uint256"
				}
			],
			"name": "createEvent",
			"outputs": [],
			"stateMutability": "nonpayable",
			"type": "function"
		},
		{
			"inputs": [
				{
					"internalType": "address",
					"name": "",
					"type": "address"
				}
			],
			"name": "events",
			"outputs": [
				{
					"internalType": "uint256",
					"name": "ticketPrice",
					"type": "uint256"
				},
				{
					"internalType": "enum BuyingOptions",
					"name": "saleType",
					"type": "uint8"
				},
				{
					"internalType": "uint256",
					"name": "salesEnds",
					"type": "uint256"
				}
			],
			"stateMutability": "view",
			"type": "function"
		},
		{
			"inputs": [],
			"name": "feeColector",
			"outputs": [
				{
					"internalType": "address",
					"name": "",
					"type": "address"
				}
			],
			"stateMutability": "view",
			"type": "function"
		},
		{
			"inputs": [
				{
					"internalType": "address",
					"name": "newEvent",
					"type": "address"
				},
				{
					"internalType": "uint256",
					"name": "ticketPrice",
					"type": "uint256"
				},
				{
					"internalType": "enum BuyingOptions",
					"name": "saleType",
					"type": "uint8"
				},
				{
					"internalType": "uint256",
					"name": "saleEnds",
					"type": "uint256"
				}
			],
			"name": "listEvents",
			"outputs": [
				{
					"internalType": "address",
					"name": "",
					"type": "address"
				}
			],
			"stateMutability": "nonpayable",
			"type": "function"
		},
		{
			"inputs": [],
			"name": "marketFee",
			"outputs": [
				{
					"internalType": "uint256",
					"name": "",
					"type": "uint256"
				}
			],
			"stateMutability": "view",
			"type": "function"
		},
		{
			"inputs": [
				{
					"internalType": "address",
					"name": "",
					"type": "address"
				}
			],
			"name": "profits",
			"outputs": [
				{
					"internalType": "uint256",
					"name": "",
					"type": "uint256"
				}
			],
			"stateMutability": "view",
			"type": "function"
		},
		{
			"inputs": [
				{
					"internalType": "address",
					"name": "",
					"type": "address"
				},
				{
					"internalType": "address",
					"name": "",
					"type": "address"
				}
			],
			"name": "secondMarketListings",
			"outputs": [
				{
					"internalType": "bool",
					"name": "",
					"type": "bool"
				}
			],
			"stateMutability": "view",
			"type": "function"
		},
		{
			"inputs": [
				{
					"internalType": "address",
					"name": "to",
					"type": "address"
				}
			],
			"name": "withdrawProfits",
			"outputs": [],
			"stateMutability": "payable",
			"type": "function"
		}
	]
}