{
	"data": {
		"bytecode": {
			"linkReferences": {},
			"object": "6080604052348015600e575f5ffd5b50335f5f6101000a81548173ffffffffffffffffffffffffffffffffffffffff021916908373ffffffffffffffffffffffffffffffffffffffff1602179055506001805f3373ffffffffffffffffffffffffffffffffffffffff1673ffffffffffffffffffffffffffffffffffffffff1681526020019081526020015f205f6101000a81548160ff02191690831515021790555061225f806100af5f395ff3fe608060405234801561000f575f5ffd5b5060043610610091575f3560e01c80636645d610116100645780636645d610146101475780637912e544146101635780638da5cb5b14610193578063a2b54f6b146101b1578063ee590c4e146101cd57610091565b80630b2024ff146100955780630c0dee70146100b15780631223346e146100e757806335d498fc14610117575b5f5ffd5b6100af60048036038101906100aa91906114e1565b6101fd565b005b6100cb60048036038101906100c6919061155b565b6103dd565b6040516100de97969594939291906116b0565b60405180910390f35b61010160048036038101906100fc9190611755565b610553565b60405161010e919061179a565b60405180910390f35b610131600480360381019061012c91906114e1565b610570565b60405161013e91906118c8565b60405180910390f35b610161600480360381019061015c9190611935565b6108e2565b005b61017d600480360381019061017891906119e4565b610b28565b60405161018a9190611a3e565b60405180910390f35b61019b610ce9565b6040516101a89190611a57565b60405180910390f35b6101cb60048036038101906101c69190611a70565b610d0d565b005b6101e760048036038101906101e29190611aca565b610e32565b6040516101f49190611b24565b60405180910390f35b60015f3373ffffffffffffffffffffffffffffffffffffffff1673ffffffffffffffffffffffffffffffffffffffff1681526020019081526020015f205f9054906101000a900460ff16610286576040517f08c379a000000000000000000000000000000000000000000000000000000000815260040161027d90611b8e565b60405180910390fd5b5f60025f8360405160200161029b9190611be6565b6040516020818303038152906040528051906020012081526020019081526020015f205f0180546102cb90611c29565b90501161030d576040517f08c379a000000000000000000000000000000000000000000000000000000000815260040161030490611ca3565b60405180910390fd5b4260025f836040516020016103229190611be6565b6040516020818303038152906040528051906020012081526020019081526020015f206003015411610389576040517f08c379a000000000000000000000000000000000000000000000000000000000815260040161038090611d0b565b60405180910390fd5b600160025f8360405160200161039f9190611be6565b6040516020818303038152906040528051906020012081526020019081526020015f206005015f8282546103d39190611d56565b9250508190555050565b6002602052805f5260405f205f91509050805f0180546103fc90611c29565b80601f016020809104026020016040519081016040528092919081815260200182805461042890611c29565b80156104735780601f1061044a57610100808354040283529160200191610473565b820191905f5260205f20905b81548152906001019060200180831161045657829003601f168201915b50505050509080600101805461048890611c29565b80601f01602080910402602001604051908101604052809291908181526020018280546104b490611c29565b80156104ff5780601f106104d6576101008083540402835291602001916104ff565b820191905f5260205f20905b8154815290600101906020018083116104e257829003601f168201915b505050505090806002015490806003015490806004015f9054906101000a900460ff16908060040160019054906101000a900473ffffffffffffffffffffffffffffffffffffffff16908060050154905087565b6001602052805f5260405f205f915054906101000a900460ff1681565b610578611334565b5f60025f8460405160200161058d9190611be6565b6040516020818303038152906040528051906020012081526020019081526020015f205f0180546105bd90611c29565b9050116105ff576040517f08c379a00000000000000000000000000000000000000000000000000000000081526004016105f690611ca3565b60405180910390fd5b4260025f846040516020016106149190611be6565b6040516020818303038152906040528051906020012081526020019081526020015f20600301541161067b576040517f08c379a000000000000000000000000000000000000000000000000000000000815260040161067290611d0b565b60405180910390fd5b600160025f846040516020016106919190611be6565b6040516020818303038152906040528051906020012081526020019081526020015f206005015f8282546106c59190611d56565b9250508190555060025f836040516020016106e09190611be6565b6040516020818303038152906040528051906020012081526020019081526020015f206040518060e00160405290815f8201805461071d90611c29565b80601f016020809104026020016040519081016040528092919081815260200182805461074990611c29565b80156107945780601f1061076b57610100808354040283529160200191610794565b820191905f5260205f20905b81548152906001019060200180831161077757829003601f168201915b505050505081526020016001820180546107ad90611c29565b80601f01602080910402602001604051908101604052809291908181526020018280546107d990611c29565b80156108245780601f106107fb57610100808354040283529160200191610824565b820191905f5260205f20905b81548152906001019060200180831161080757829003601f168201915b505050505081526020016002820154815260200160038201548152602001600482015f9054906101000a900460ff166002811115610865576108646115fe565b5b6002811115610877576108766115fe565b5b81526020016004820160019054906101000a900473ffffffffffffffffffffffffffffffffffffffff1673ffffffffffffffffffffffffffffffffffffffff1673ffffffffffffffffffffffffffffffffffffffff1681526020016005820154815250509050919050565b60015f3373ffffffffffffffffffffffffffffffffffffffff1673ffffffffffffffffffffffffffffffffffffffff1681526020019081526020015f205f9054906101000a900460ff1661096b576040517f08c379a000000000000000000000000000000000000000000000000000000000815260040161096290611b8e565b60405180910390fd5b5f83116109ad576040517f08c379a00000000000000000000000000000000000000000000000000000000081526004016109a490611dd3565b60405180910390fd5b5f856040516020016109bf9190611be6565b6040516020818303038152906040528051906020012090508560025f8381526020019081526020015f205f0190816109f79190611f91565b508460025f8381526020019081526020015f206001019081610a199190611f91565b504260025f8381526020019081526020015f20600201819055506201518084610a429190612060565b60025f8381526020019081526020015f2060020154610a619190611d56565b60025f8381526020019081526020015f20600301819055508260025f8381526020019081526020015f206004015f6101000a81548160ff02191690836002811115610aaf57610aae6115fe565b5b02179055508160025f8381526020019081526020015f20600501819055503360025f8381526020019081526020015f2060040160016101000a81548173ffffffffffffffffffffffffffffffffffffffff021916908373ffffffffffffffffffffffffffffffffffffffff160217905550505050505050565b5f60015f3373ffffffffffffffffffffffffffffffffffffffff1673ffffffffffffffffffffffffffffffffffffffff1681526020019081526020015f205f9054906101000a900460ff16610bb2576040517f08c379a0000000000000000000000000000000000000000000000000000000008152600401610ba990611b8e565b60405180910390fd5b5f60025f85604051602001610bc79190611be6565b6040516020818303038152906040528051906020012081526020019081526020015f205f018054610bf790611c29565b905011610c39576040517f08c379a0000000000000000000000000000000000000000000000000000000008152600401610c3090611ca3565b60405180910390fd5b8160025f85604051602001610c4e9190611be6565b6040516020818303038152906040528051906020012081526020019081526020015f206004015f6101000a81548160ff02191690836002811115610c9557610c946115fe565b5b021790555060025f84604051602001610cae9190611be6565b6040516020818303038152906040528051906020012081526020019081526020015f206004015f9054906101000a900460ff16905092915050565b5f5f9054906101000a900473ffffffffffffffffffffffffffffffffffffffff1681565b5f82604051602001610d1f9190611be6565b6040516020818303038152906040528051906020012090503373ffffffffffffffffffffffffffffffffffffffff1660025f8381526020019081526020015f2060040160019054906101000a900473ffffffffffffffffffffffffffffffffffffffff1673ffffffffffffffffffffffffffffffffffffffff1614610dd9576040517f08c379a0000000000000000000000000000000000000000000000000000000008152600401610dd090612111565b60405180910390fd5b6001805f8473ffffffffffffffffffffffffffffffffffffffff1673ffffffffffffffffffffffffffffffffffffffff1681526020019081526020015f205f6101000a81548160ff021916908315150217905550505050565b606060015f3373ffffffffffffffffffffffffffffffffffffffff1673ffffffffffffffffffffffffffffffffffffffff1681526020019081526020015f205f9054906101000a900460ff16610ebd576040517f08c379a0000000000000000000000000000000000000000000000000000000008152600401610eb490611b8e565b60405180910390fd5b5f60025f85604051602001610ed29190611be6565b6040516020818303038152906040528051906020012081526020019081526020015f205f018054610f0290611c29565b905011610f44576040517f08c379a0000000000000000000000000000000000000000000000000000000008152600401610f3b90611ca3565b60405180910390fd5b4260025f85604051602001610f599190611be6565b6040516020818303038152906040528051906020012081526020019081526020015f206003015411610fc0576040517f08c379a0000000000000000000000000000000000000000000000000000000008152600401610fb790611d0b565b60405180910390fd5b6201518082610fcf9190612060565b60025f85604051602001610fe39190611be6565b6040516020818303038152906040528051906020012081526020019081526020015f206003015f8282546110179190611d56565b925050819055505f60025f856040516020016110339190611be6565b6040516020818303038152906040528051906020012081526020019081526020015f205f01805461106390611c29565b80601f016020809104026020016040519081016040528092919081815260200182805461108f90611c29565b80156110da5780601f106110b1576101008083540402835291602001916110da565b820191905f5260205f20905b8154815290600101906020018083116110bd57829003601f168201915b505050505090505f6110eb84611119565b905081816040516020016111009291906121c3565b6040516020818303038152906040529250505092915050565b60605f6001611127846111e3565b0190505f8167ffffffffffffffff811115611145576111446113bd565b5b6040519080825280601f01601f1916602001820160405280156111775781602001600182028036833780820191505090505b5090505f82602001820190505b6001156111d8578080600190039150507f3031323334353637383961626364656600000000000000000000000000000000600a86061a8153600a85816111cd576111cc6121fc565b5b0494505f8503611184575b819350505050919050565b5f5f5f90507a184f03e93ff9f4daa797ed6e38ed64bf6a1f010000000000000000831061123f577a184f03e93ff9f4daa797ed6e38ed64bf6a1f0100000000000000008381611235576112346121fc565b5b0492506040810190505b6d04ee2d6d415b85acef8100000000831061127c576d04ee2d6d415b85acef81000000008381611272576112716121fc565b5b0492506020810190505b662386f26fc1000083106112ab57662386f26fc1000083816112a1576112a06121fc565b5b0492506010810190505b6305f5e10083106112d4576305f5e10083816112ca576112c96121fc565b5b0492506008810190505b61271083106112f95761271083816112ef576112ee6121fc565b5b0492506004810190505b6064831061131c5760648381611312576113116121fc565b5b0492506002810190505b600a831061132b576001810190505b80915050919050565b6040518060e0016040528060608152602001606081526020015f81526020015f81526020015f600281111561136c5761136b6115fe565b5b81526020015f73ffffffffffffffffffffffffffffffffffffffff1681526020015f81525090565b5f604051905090565b5f5ffd5b5f5ffd5b5f5ffd5b5f5ffd5b5f601f19601f8301169050919050565b7f4e487b71000000000000000000000000000000000000000000000000000000005f52604160045260245ffd5b6113f3826113ad565b810181811067ffffffffffffffff82111715611412576114116113bd565b5b80604052505050565b5f611424611394565b905061143082826113ea565b919050565b5f67ffffffffffffffff82111561144f5761144e6113bd565b5b611458826113ad565b9050602081019050919050565b828183375f83830152505050565b5f61148561148084611435565b61141b565b9050828152602081018484840111156114a1576114a06113a9565b5b6114ac848285611465565b509392505050565b5f82601f8301126114c8576114c76113a5565b5b81356114d8848260208601611473565b91505092915050565b5f602082840312156114f6576114f561139d565b5b5f82013567ffffffffffffffff811115611513576115126113a1565b5b61151f848285016114b4565b91505092915050565b5f819050919050565b61153a81611528565b8114611544575f5ffd5b50565b5f8135905061155581611531565b92915050565b5f602082840312156115705761156f61139d565b5b5f61157d84828501611547565b91505092915050565b5f81519050919050565b5f82825260208201905092915050565b8281835e5f83830152505050565b5f6115b882611586565b6115c28185611590565b93506115d28185602086016115a0565b6115db816113ad565b840191505092915050565b5f819050919050565b6115f8816115e6565b82525050565b7f4e487b71000000000000000000000000000000000000000000000000000000005f52602160045260245ffd5b6003811061163c5761163b6115fe565b5b50565b5f81905061164c8261162b565b919050565b5f61165b8261163f565b9050919050565b61166b81611651565b82525050565b5f73ffffffffffffffffffffffffffffffffffffffff82169050919050565b5f61169a82611671565b9050919050565b6116aa81611690565b82525050565b5f60e0820190508181035f8301526116c8818a6115ae565b905081810360208301526116dc81896115ae565b90506116eb60408301886115ef565b6116f860608301876115ef565b6117056080830186611662565b61171260a08301856116a1565b61171f60c08301846115ef565b98975050505050505050565b61173481611690565b811461173e575f5ffd5b50565b5f8135905061174f8161172b565b92915050565b5f6020828403121561176a5761176961139d565b5b5f61177784828501611741565b91505092915050565b5f8115159050919050565b61179481611780565b82525050565b5f6020820190506117ad5f83018461178b565b92915050565b5f82825260208201905092915050565b5f6117cd82611586565b6117d781856117b3565b93506117e78185602086016115a0565b6117f0816113ad565b840191505092915050565b611804816115e6565b82525050565b61181381611651565b82525050565b61182281611690565b82525050565b5f60e083015f8301518482035f86015261184282826117c3565b9150506020830151848203602086015261185c82826117c3565b915050604083015161187160408601826117fb565b50606083015161188460608601826117fb565b506080830151611897608086018261180a565b5060a08301516118aa60a0860182611819565b5060c08301516118bd60c08601826117fb565b508091505092915050565b5f6020820190508181035f8301526118e08184611828565b905092915050565b6118f1816115e6565b81146118fb575f5ffd5b50565b5f8135905061190c816118e8565b92915050565b6003811061191e575f5ffd5b50565b5f8135905061192f81611912565b92915050565b5f5f5f5f5f60a0868803121561194e5761194d61139d565b5b5f86013567ffffffffffffffff81111561196b5761196a6113a1565b5b611977888289016114b4565b955050602086013567ffffffffffffffff811115611998576119976113a1565b5b6119a4888289016114b4565b94505060406119b5888289016118fe565b93505060606119c688828901611921565b92505060806119d7888289016118fe565b9150509295509295909350565b5f5f604083850312156119fa576119f961139d565b5b5f83013567ffffffffffffffff811115611a1757611a166113a1565b5b611a23858286016114b4565b9250506020611a3485828601611921565b9150509250929050565b5f602082019050611a515f830184611662565b92915050565b5f602082019050611a6a5f8301846116a1565b92915050565b5f5f60408385031215611a8657611a8561139d565b5b5f83013567ffffffffffffffff811115611aa357611aa26113a1565b5b611aaf858286016114b4565b9250506020611ac085828601611741565b9150509250929050565b5f5f60408385031215611ae057611adf61139d565b5b5f83013567ffffffffffffffff811115611afd57611afc6113a1565b5b611b09858286016114b4565b9250506020611b1a858286016118fe565b9150509250929050565b5f6020820190508181035f830152611b3c81846115ae565b905092915050565b7f4e6f7420617574686f72697a6564204c616272617269616e00000000000000005f82015250565b5f611b78601883611590565b9150611b8382611b44565b602082019050919050565b5f6020820190508181035f830152611ba581611b6c565b9050919050565b5f81905092915050565b5f611bc082611586565b611bca8185611bac565b9350611bda8185602086016115a0565b80840191505092915050565b5f611bf18284611bb6565b915081905092915050565b7f4e487b71000000000000000000000000000000000000000000000000000000005f52602260045260245ffd5b5f6002820490506001821680611c4057607f821691505b602082108103611c5357611c52611bfc565b5b50919050565b7f426f6f6b20646f65736e277420657869737400000000000000000000000000005f82015250565b5f611c8d601283611590565b9150611c9882611c59565b602082019050919050565b5f6020820190508181035f830152611cba81611c81565b9050919050565b7f5468697320626f6f6b20686173206578706972656400000000000000000000005f82015250565b5f611cf5601583611590565b9150611d0082611cc1565b602082019050919050565b5f6020820190508181035f830152611d2281611ce9565b9050919050565b7f4e487b71000000000000000000000000000000000000000000000000000000005f52601160045260245ffd5b5f611d60826115e6565b9150611d6b836115e6565b9250828201905080821115611d8357611d82611d29565b5b92915050565b7f496e76616c69642045787069726174696f6e20446179730000000000000000005f82015250565b5f611dbd601783611590565b9150611dc882611d89565b602082019050919050565b5f6020820190508181035f830152611dea81611db1565b9050919050565b5f819050815f5260205f209050919050565b5f6020601f8301049050919050565b5f82821b905092915050565b5f60088302611e4d7fffffffffffffffffffffffffffffffffffffffffffffffffffffffffffffffff82611e12565b611e578683611e12565b95508019841693508086168417925050509392505050565b5f819050919050565b5f611e92611e8d611e88846115e6565b611e6f565b6115e6565b9050919050565b5f819050919050565b611eab83611e78565b611ebf611eb782611e99565b848454611e1e565b825550505050565b5f5f905090565b611ed6611ec7565b611ee1818484611ea2565b505050565b5b81811015611f0457611ef95f82611ece565b600181019050611ee7565b5050565b601f821115611f4957611f1a81611df1565b611f2384611e03565b81016020851015611f32578190505b611f46611f3e85611e03565b830182611ee6565b50505b505050565b5f82821c905092915050565b5f611f695f1984600802611f4e565b1980831691505092915050565b5f611f818383611f5a565b9150826002028217905092915050565b611f9a82611586565b67ffffffffffffffff811115611fb357611fb26113bd565b5b611fbd8254611c29565b611fc8828285611f08565b5f60209050601f831160018114611ff9575f8415611fe7578287015190505b611ff18582611f76565b865550612058565b601f19841661200786611df1565b5f5b8281101561202e57848901518255600182019150602085019450602081019050612009565b8683101561204b5784890151612047601f891682611f5a565b8355505b6001600288020188555050505b505050505050565b5f61206a826115e6565b9150612075836115e6565b9250828202612083816115e6565b9150828204841483151761209a57612099611d29565b5b5092915050565b7f4f6e6c79207072696d617279206c696272617269616e2063616e20616464206f5f8201527f7468657273000000000000000000000000000000000000000000000000000000602082015250565b5f6120fb602583611590565b9150612106826120a1565b604082019050919050565b5f6020820190508181035f830152612128816120ef565b9050919050565b7f2065787069726174696f6e20657874656e6465642062792000000000000000005f82015250565b5f612163601883611bac565b915061216e8261212f565b601882019050919050565b7f20646179730000000000000000000000000000000000000000000000000000005f82015250565b5f6121ad600583611bac565b91506121b882612179565b600582019050919050565b5f6121ce8285611bb6565b91506121d982612157565b91506121e58284611bb6565b91506121f0826121a1565b91508190509392505050565b7f4e487b71000000000000000000000000000000000000000000000000000000005f52601260045260245ffdfea26469706673582212208340d1339dff8fdb7ce8cb03284cad3700bc81247b0f744fbb1da30bca22e4fb64736f6c634300081c0033",
			"opcodes": "PUSH1 0x80 PUSH1 0x40 MSTORE CALLVALUE DUP1 ISZERO PUSH1 0xE JUMPI PUSH0 PUSH0 REVERT JUMPDEST POP CALLER PUSH0 PUSH0 PUSH2 0x100 EXP DUP2 SLOAD DUP2 PUSH20 0xFFFFFFFFFFFFFFFFFFFFFFFFFFFFFFFFFFFFFFFF MUL NOT AND SWAP1 DUP4 PUSH20 0xFFFFFFFFFFFFFFFFFFFFFFFFFFFFFFFFFFFFFFFF AND MUL OR SWAP1 SSTORE POP PUSH1 0x1 DUP1 PUSH0 CALLER PUSH20 0xFFFFFFFFFFFFFFFFFFFFFFFFFFFFFFFFFFFFFFFF AND PUSH20 0xFFFFFFFFFFFFFFFFFFFFFFFFFFFFFFFFFFFFFFFF AND DUP2 MSTORE PUSH1 0x20 ADD SWAP1 DUP2 MSTORE PUSH1 0x20 ADD PUSH0 KECCAK256 PUSH0 PUSH2 0x100 EXP DUP2 SLOAD DUP2 PUSH1 0xFF MUL NOT AND SWAP1 DUP4 ISZERO ISZERO MUL OR SWAP1 SSTORE POP PUSH2 0x225F DUP1 PUSH2 0xAF PUSH0 CODECOPY PUSH0 RETURN INVALID PUSH1 0x80 PUSH1 0x40 MSTORE CALLVALUE DUP1 ISZERO PUSH2 0xF JUMPI PUSH0 PUSH0 REVERT JUMPDEST POP PUSH1 0x4 CALLDATASIZE LT PUSH2 0x91 JUMPI PUSH0 CALLDATALOAD PUSH1 0xE0 SHR DUP1 PUSH4 0x6645D610 GT PUSH2 0x64 JUMPI DUP1 PUSH4 0x6645D610 EQ PUSH2 0x147 JUMPI DUP1 PUSH4 0x7912E544 EQ PUSH2 0x163 JUMPI DUP1 PUSH4 0x8DA5CB5B EQ PUSH2 0x193 JUMPI DUP1 PUSH4 0xA2B54F6B EQ PUSH2 0x1B1 JUMPI DUP1 PUSH4 0xEE590C4E EQ PUSH2 0x1CD JUMPI PUSH2 0x91 JUMP JUMPDEST DUP1 PUSH4 0xB2024FF EQ PUSH2 0x95 JUMPI DUP1 PUSH4 0xC0DEE70 EQ PUSH2 0xB1 JUMPI DUP1 PUSH4 0x1223346E EQ PUSH2 0xE7 JUMPI DUP1 PUSH4 0x35D498FC EQ PUSH2 0x117 JUMPI JUMPDEST PUSH0 PUSH0 REVERT JUMPDEST PUSH2 0xAF PUSH1 0x4 DUP1 CALLDATASIZE SUB DUP2 ADD SWAP1 PUSH2 0xAA SWAP2 SWAP1 PUSH2 0x14E1 JUMP JUMPDEST PUSH2 0x1FD JUMP JUMPDEST STOP JUMPDEST PUSH2 0xCB PUSH1 0x4 DUP1 CALLDATASIZE SUB DUP2 ADD SWAP1 PUSH2 0xC6 SWAP2 SWAP1 PUSH2 0x155B JUMP JUMPDEST PUSH2 0x3DD JUMP JUMPDEST PUSH1 0x40 MLOAD PUSH2 0xDE SWAP8 SWAP7 SWAP6 SWAP5 SWAP4 SWAP3 SWAP2 SWAP1 PUSH2 0x16B0 JUMP JUMPDEST PUSH1 0x40 MLOAD DUP1 SWAP2 SUB SWAP1 RETURN JUMPDEST PUSH2 0x101 PUSH1 0x4 DUP1 CALLDATASIZE SUB DUP2 ADD SWAP1 PUSH2 0xFC SWAP2 SWAP1 PUSH2 0x1755 JUMP JUMPDEST PUSH2 0x553 JUMP JUMPDEST PUSH1 0x40 MLOAD PUSH2 0x10E SWAP2 SWAP1 PUSH2 0x179A JUMP JUMPDEST PUSH1 0x40 MLOAD DUP1 SWAP2 SUB SWAP1 RETURN JUMPDEST PUSH2 0x131 PUSH1 0x4 DUP1 CALLDATASIZE SUB DUP2 ADD SWAP1 PUSH2 0x12C SWAP2 SWAP1 PUSH2 0x14E1 JUMP JUMPDEST PUSH2 0x570 JUMP JUMPDEST PUSH1 0x40 MLOAD PUSH2 0x13E SWAP2 SWAP1 PUSH2 0x18C8 JUMP JUMPDEST PUSH1 0x40 MLOAD DUP1 SWAP2 SUB SWAP1 RETURN JUMPDEST PUSH2 0x161 PUSH1 0x4 DUP1 CALLDATASIZE SUB DUP2 ADD SWAP1 PUSH2 0x15C SWAP2 SWAP1 PUSH2 0x1935 JUMP JUMPDEST PUSH2 0x8E2 JUMP JUMPDEST STOP JUMPDEST PUSH2 0x17D PUSH1 0x4 DUP1 CALLDATASIZE SUB DUP2 ADD SWAP1 PUSH2 0x178 SWAP2 SWAP1 PUSH2 0x19E4 JUMP JUMPDEST PUSH2 0xB28 JUMP JUMPDEST PUSH1 0x40 MLOAD PUSH2 0x18A SWAP2 SWAP1 PUSH2 0x1A3E JUMP JUMPDEST PUSH1 0x40 MLOAD DUP1 SWAP2 SUB SWAP1 RETURN JUMPDEST PUSH2 0x19B PUSH2 0xCE9 JUMP JUMPDEST PUSH1 0x40 MLOAD PUSH2 0x1A8 SWAP2 SWAP1 PUSH2 0x1A57 JUMP JUMPDEST PUSH1 0x40 MLOAD DUP1 SWAP2 SUB SWAP1 RETURN JUMPDEST PUSH2 0x1CB PUSH1 0x4 DUP1 CALLDATASIZE SUB DUP2 ADD SWAP1 PUSH2 0x1C6 SWAP2 SWAP1 PUSH2 0x1A70 JUMP JUMPDEST PUSH2 0xD0D JUMP JUMPDEST STOP JUMPDEST PUSH2 0x1E7 PUSH1 0x4 DUP1 CALLDATASIZE SUB DUP2 ADD SWAP1 PUSH2 0x1E2 SWAP2 SWAP1 PUSH2 0x1ACA JUMP JUMPDEST PUSH2 0xE32 JUMP JUMPDEST PUSH1 0x40 MLOAD PUSH2 0x1F4 SWAP2 SWAP1 PUSH2 0x1B24 JUMP JUMPDEST PUSH1 0x40 MLOAD DUP1 SWAP2 SUB SWAP1 RETURN JUMPDEST PUSH1 0x1 PUSH0 CALLER PUSH20 0xFFFFFFFFFFFFFFFFFFFFFFFFFFFFFFFFFFFFFFFF AND PUSH20 0xFFFFFFFFFFFFFFFFFFFFFFFFFFFFFFFFFFFFFFFF AND DUP2 MSTORE PUSH1 0x20 ADD SWAP1 DUP2 MSTORE PUSH1 0x20 ADD PUSH0 KECCAK256 PUSH0 SWAP1 SLOAD SWAP1 PUSH2 0x100 EXP SWAP1 DIV PUSH1 0xFF AND PUSH2 0x286 JUMPI PUSH1 0x40 MLOAD PUSH32 0x8C379A000000000000000000000000000000000000000000000000000000000 DUP2 MSTORE PUSH1 0x4 ADD PUSH2 0x27D SWAP1 PUSH2 0x1B8E JUMP JUMPDEST PUSH1 0x40 MLOAD DUP1 SWAP2 SUB SWAP1 REVERT JUMPDEST PUSH0 PUSH1 0x2 PUSH0 DUP4 PUSH1 0x40 MLOAD PUSH1 0x20 ADD PUSH2 0x29B SWAP2 SWAP1 PUSH2 0x1BE6 JUMP JUMPDEST PUSH1 0x40 MLOAD PUSH1 0x20 DUP2 DUP4 SUB SUB DUP2 MSTORE SWAP1 PUSH1 0x40 MSTORE DUP1 MLOAD SWAP1 PUSH1 0x20 ADD KECCAK256 DUP2 MSTORE PUSH1 0x20 ADD SWAP1 DUP2 MSTORE PUSH1 0x20 ADD PUSH0 KECCAK256 PUSH0 ADD DUP1 SLOAD PUSH2 0x2CB SWAP1 PUSH2 0x1C29 JUMP JUMPDEST SWAP1 POP GT PUSH2 0x30D JUMPI PUSH1 0x40 MLOAD PUSH32 0x8C379A000000000000000000000000000000000000000000000000000000000 DUP2 MSTORE PUSH1 0x4 ADD PUSH2 0x304 SWAP1 PUSH2 0x1CA3 JUMP JUMPDEST PUSH1 0x40 MLOAD DUP1 SWAP2 SUB SWAP1 REVERT JUMPDEST TIMESTAMP PUSH1 0x2 PUSH0 DUP4 PUSH1 0x40 MLOAD PUSH1 0x20 ADD PUSH2 0x322 SWAP2 SWAP1 PUSH2 0x1BE6 JUMP JUMPDEST PUSH1 0x40 MLOAD PUSH1 0x20 DUP2 DUP4 SUB SUB DUP2 MSTORE SWAP1 PUSH1 0x40 MSTORE DUP1 MLOAD SWAP1 PUSH1 0x20 ADD KECCAK256 DUP2 MSTORE PUSH1 0x20 ADD SWAP1 DUP2 MSTORE PUSH1 0x20 ADD PUSH0 KECCAK256 PUSH1 0x3 ADD SLOAD GT PUSH2 0x389 JUMPI PUSH1 0x40 MLOAD PUSH32 0x8C379A000000000000000000000000000000000000000000000000000000000 DUP2 MSTORE PUSH1 0x4 ADD PUSH2 0x380 SWAP1 PUSH2 0x1D0B JUMP JUMPDEST PUSH1 0x40 MLOAD DUP1 SWAP2 SUB SWAP1 REVERT JUMPDEST PUSH1 0x1 PUSH1 0x2 PUSH0 DUP4 PUSH1 0x40 MLOAD PUSH1 0x20 ADD PUSH2 0x39F SWAP2 SWAP1 PUSH2 0x1BE6 JUMP JUMPDEST PUSH1 0x40 MLOAD PUSH1 0x20 DUP2 DUP4 SUB SUB DUP2 MSTORE SWAP1 PUSH1 0x40 MSTORE DUP1 MLOAD SWAP1 PUSH1 0x20 ADD KECCAK256 DUP2 MSTORE PUSH1 0x20 ADD SWAP1 DUP2 MSTORE PUSH1 0x20 ADD PUSH0 KECCAK256 PUSH1 0x5 ADD PUSH0 DUP3 DUP3 SLOAD PUSH2 0x3D3 SWAP2 SWAP1 PUSH2 0x1D56 JUMP JUMPDEST SWAP3 POP POP DUP2 SWAP1 SSTORE POP POP JUMP JUMPDEST PUSH1 0x2 PUSH1 0x20 MSTORE DUP1 PUSH0 MSTORE PUSH1 0x40 PUSH0 KECCAK256 PUSH0 SWAP2 POP SWAP1 POP DUP1 PUSH0 ADD DUP1 SLOAD PUSH2 0x3FC SWAP1 PUSH2 0x1C29 JUMP JUMPDEST DUP1 PUSH1 0x1F ADD PUSH1 0x20 DUP1 SWAP2 DIV MUL PUSH1 0x20 ADD PUSH1 0x40 MLOAD SWAP1 DUP2 ADD PUSH1 0x40 MSTORE DUP1 SWAP3 SWAP2 SWAP1 DUP2 DUP2 MSTORE PUSH1 0x20 ADD DUP3 DUP1 SLOAD PUSH2 0x428 SWAP1 PUSH2 0x1C29 JUMP JUMPDEST DUP1 ISZERO PUSH2 0x473 JUMPI DUP1 PUSH1 0x1F LT PUSH2 0x44A JUMPI PUSH2 0x100 DUP1 DUP4 SLOAD DIV MUL DUP4 MSTORE SWAP2 PUSH1 0x20 ADD SWAP2 PUSH2 0x473 JUMP JUMPDEST DUP3 ADD SWAP2 SWAP1 PUSH0 MSTORE PUSH1 0x20 PUSH0 KECCAK256 SWAP1 JUMPDEST DUP2 SLOAD DUP2 MSTORE SWAP1 PUSH1 0x1 ADD SWAP1 PUSH1 0x20 ADD DUP1 DUP4 GT PUSH2 0x456 JUMPI DUP3 SWAP1 SUB PUSH1 0x1F AND DUP3 ADD SWAP2 JUMPDEST POP POP POP POP POP SWAP1 DUP1 PUSH1 0x1 ADD DUP1 SLOAD PUSH2 0x488 SWAP1 PUSH2 0x1C29 JUMP JUMPDEST DUP1 PUSH1 0x1F ADD PUSH1 0x20 DUP1 SWAP2 DIV MUL PUSH1 0x20 ADD PUSH1 0x40 MLOAD SWAP1 DUP2 ADD PUSH1 0x40 MSTORE DUP1 SWAP3 SWAP2 SWAP1 DUP2 DUP2 MSTORE PUSH1 0x20 ADD DUP3 DUP1 SLOAD PUSH2 0x4B4 SWAP1 PUSH2 0x1C29 JUMP JUMPDEST DUP1 ISZERO PUSH2 0x4FF JUMPI DUP1 PUSH1 0x1F LT PUSH2 0x4D6 JUMPI PUSH2 0x100 DUP1 DUP4 SLOAD DIV MUL DUP4 MSTORE SWAP2 PUSH1 0x20 ADD SWAP2 PUSH2 0x4FF JUMP JUMPDEST DUP3 ADD SWAP2 SWAP1 PUSH0 MSTORE PUSH1 0x20 PUSH0 KECCAK256 SWAP1 JUMPDEST DUP2 SLOAD DUP2 MSTORE SWAP1 PUSH1 0x1 ADD SWAP1 PUSH1 0x20 ADD DUP1 DUP4 GT PUSH2 0x4E2 JUMPI DUP3 SWAP1 SUB PUSH1 0x1F AND DUP3 ADD SWAP2 JUMPDEST POP POP POP POP POP SWAP1 DUP1 PUSH1 0x2 ADD SLOAD SWAP1 DUP1 PUSH1 0x3 ADD SLOAD SWAP1 DUP1 PUSH1 0x4 ADD PUSH0 SWAP1 SLOAD SWAP1 PUSH2 0x100 EXP SWAP1 DIV PUSH1 0xFF AND SWAP1 DUP1 PUSH1 0x4 ADD PUSH1 0x1 SWAP1 SLOAD SWAP1 PUSH2 0x100 EXP SWAP1 DIV PUSH20 0xFFFFFFFFFFFFFFFFFFFFFFFFFFFFFFFFFFFFFFFF AND SWAP1 DUP1 PUSH1 0x5 ADD SLOAD SWAP1 POP DUP8 JUMP JUMPDEST PUSH1 0x1 PUSH1 0x20 MSTORE DUP1 PUSH0 MSTORE PUSH1 0x40 PUSH0 KECCAK256 PUSH0 SWAP2 POP SLOAD SWAP1 PUSH2 0x100 EXP SWAP1 DIV PUSH1 0xFF AND DUP2 JUMP JUMPDEST PUSH2 0x578 PUSH2 0x1334 JUMP JUMPDEST PUSH0 PUSH1 0x2 PUSH0 DUP5 PUSH1 0x40 MLOAD PUSH1 0x20 ADD PUSH2 0x58D SWAP2 SWAP1 PUSH2 0x1BE6 JUMP JUMPDEST PUSH1 0x40 MLOAD PUSH1 0x20 DUP2 DUP4 SUB SUB DUP2 MSTORE SWAP1 PUSH1 0x40 MSTORE DUP1 MLOAD SWAP1 PUSH1 0x20 ADD KECCAK256 DUP2 MSTORE PUSH1 0x20 ADD SWAP1 DUP2 MSTORE PUSH1 0x20 ADD PUSH0 KECCAK256 PUSH0 ADD DUP1 SLOAD PUSH2 0x5BD SWAP1 PUSH2 0x1C29 JUMP JUMPDEST SWAP1 POP GT PUSH2 0x5FF JUMPI PUSH1 0x40 MLOAD PUSH32 0x8C379A000000000000000000000000000000000000000000000000000000000 DUP2 MSTORE PUSH1 0x4 ADD PUSH2 0x5F6 SWAP1 PUSH2 0x1CA3 JUMP JUMPDEST PUSH1 0x40 MLOAD DUP1 SWAP2 SUB SWAP1 REVERT JUMPDEST TIMESTAMP PUSH1 0x2 PUSH0 DUP5 PUSH1 0x40 MLOAD PUSH1 0x20 ADD PUSH2 0x614 SWAP2 SWAP1 PUSH2 0x1BE6 JUMP JUMPDEST PUSH1 0x40 MLOAD PUSH1 0x20 DUP2 DUP4 SUB SUB DUP2 MSTORE SWAP1 PUSH1 0x40 MSTORE DUP1 MLOAD SWAP1 PUSH1 0x20 ADD KECCAK256 DUP2 MSTORE PUSH1 0x20 ADD SWAP1 DUP2 MSTORE PUSH1 0x20 ADD PUSH0 KECCAK256 PUSH1 0x3 ADD SLOAD GT PUSH2 0x67B JUMPI PUSH1 0x40 MLOAD PUSH32 0x8C379A000000000000000000000000000000000000000000000000000000000 DUP2 MSTORE PUSH1 0x4 ADD PUSH2 0x672 SWAP1 PUSH2 0x1D0B JUMP JUMPDEST PUSH1 0x40 MLOAD DUP1 SWAP2 SUB SWAP1 REVERT JUMPDEST PUSH1 0x1 PUSH1 0x2 PUSH0 DUP5 PUSH1 0x40 MLOAD PUSH1 0x20 ADD PUSH2 0x691 SWAP2 SWAP1 PUSH2 0x1BE6 JUMP JUMPDEST PUSH1 0x40 MLOAD PUSH1 0x20 DUP2 DUP4 SUB SUB DUP2 MSTORE SWAP1 PUSH1 0x40 MSTORE DUP1 MLOAD SWAP1 PUSH1 0x20 ADD KECCAK256 DUP2 MSTORE PUSH1 0x20 ADD SWAP1 DUP2 MSTORE PUSH1 0x20 ADD PUSH0 KECCAK256 PUSH1 0x5 ADD PUSH0 DUP3 DUP3 SLOAD PUSH2 0x6C5 SWAP2 SWAP1 PUSH2 0x1D56 JUMP JUMPDEST SWAP3 POP POP DUP2 SWAP1 SSTORE POP PUSH1 0x2 PUSH0 DUP4 PUSH1 0x40 MLOAD PUSH1 0x20 ADD PUSH2 0x6E0 SWAP2 SWAP1 PUSH2 0x1BE6 JUMP JUMPDEST PUSH1 0x40 MLOAD PUSH1 0x20 DUP2 DUP4 SUB SUB DUP2 MSTORE SWAP1 PUSH1 0x40 MSTORE DUP1 MLOAD SWAP1 PUSH1 0x20 ADD KECCAK256 DUP2 MSTORE PUSH1 0x20 ADD SWAP1 DUP2 MSTORE PUSH1 0x20 ADD PUSH0 KECCAK256 PUSH1 0x40 MLOAD DUP1 PUSH1 0xE0 ADD PUSH1 0x40 MSTORE SWAP1 DUP2 PUSH0 DUP3 ADD DUP1 SLOAD PUSH2 0x71D SWAP1 PUSH2 0x1C29 JUMP JUMPDEST DUP1 PUSH1 0x1F ADD PUSH1 0x20 DUP1 SWAP2 DIV MUL PUSH1 0x20 ADD PUSH1 0x40 MLOAD SWAP1 DUP2 ADD PUSH1 0x40 MSTORE DUP1 SWAP3 SWAP2 SWAP1 DUP2 DUP2 MSTORE PUSH1 0x20 ADD DUP3 DUP1 SLOAD PUSH2 0x749 SWAP1 PUSH2 0x1C29 JUMP JUMPDEST DUP1 ISZERO PUSH2 0x794 JUMPI DUP1 PUSH1 0x1F LT PUSH2 0x76B JUMPI PUSH2 0x100 DUP1 DUP4 SLOAD DIV MUL DUP4 MSTORE SWAP2 PUSH1 0x20 ADD SWAP2 PUSH2 0x794 JUMP JUMPDEST DUP3 ADD SWAP2 SWAP1 PUSH0 MSTORE PUSH1 0x20 PUSH0 KECCAK256 SWAP1 JUMPDEST DUP2 SLOAD DUP2 MSTORE SWAP1 PUSH1 0x1 ADD SWAP1 PUSH1 0x20 ADD DUP1 DUP4 GT PUSH2 0x777 JUMPI DUP3 SWAP1 SUB PUSH1 0x1F AND DUP3 ADD SWAP2 JUMPDEST POP POP POP POP POP DUP2 MSTORE PUSH1 0x20 ADD PUSH1 0x1 DUP3 ADD DUP1 SLOAD PUSH2 0x7AD SWAP1 PUSH2 0x1C29 JUMP JUMPDEST DUP1 PUSH1 0x1F ADD PUSH1 0x20 DUP1 SWAP2 DIV MUL PUSH1 0x20 ADD PUSH1 0x40 MLOAD SWAP1 DUP2 ADD PUSH1 0x40 MSTORE DUP1 SWAP3 SWAP2 SWAP1 DUP2 DUP2 MSTORE PUSH1 0x20 ADD DUP3 DUP1 SLOAD PUSH2 0x7D9 SWAP1 PUSH2 0x1C29 JUMP JUMPDEST DUP1 ISZERO PUSH2 0x824 JUMPI DUP1 PUSH1 0x1F LT PUSH2 0x7FB JUMPI PUSH2 0x100 DUP1 DUP4 SLOAD DIV MUL DUP4 MSTORE SWAP2 PUSH1 0x20 ADD SWAP2 PUSH2 0x824 JUMP JUMPDEST DUP3 ADD SWAP2 SWAP1 PUSH0 MSTORE PUSH1 0x20 PUSH0 KECCAK256 SWAP1 JUMPDEST DUP2 SLOAD DUP2 MSTORE SWAP1 PUSH1 0x1 ADD SWAP1 PUSH1 0x20 ADD DUP1 DUP4 GT PUSH2 0x807 JUMPI DUP3 SWAP1 SUB PUSH1 0x1F AND DUP3 ADD SWAP2 JUMPDEST POP POP POP POP POP DUP2 MSTORE PUSH1 0x20 ADD PUSH1 0x2 DUP3 ADD SLOAD DUP2 MSTORE PUSH1 0x20 ADD PUSH1 0x3 DUP3 ADD SLOAD DUP2 MSTORE PUSH1 0x20 ADD PUSH1 0x4 DUP3 ADD PUSH0 SWAP1 SLOAD SWAP1 PUSH2 0x100 EXP SWAP1 DIV PUSH1 0xFF AND PUSH1 0x2 DUP2 GT ISZERO PUSH2 0x865 JUMPI PUSH2 0x864 PUSH2 0x15FE JUMP JUMPDEST JUMPDEST PUSH1 0x2 DUP2 GT ISZERO PUSH2 0x877 JUMPI PUSH2 0x876 PUSH2 0x15FE JUMP JUMPDEST JUMPDEST DUP2 MSTORE PUSH1 0x20 ADD PUSH1 0x4 DUP3 ADD PUSH1 0x1 SWAP1 SLOAD SWAP1 PUSH2 0x100 EXP SWAP1 DIV PUSH20 0xFFFFFFFFFFFFFFFFFFFFFFFFFFFFFFFFFFFFFFFF AND PUSH20 0xFFFFFFFFFFFFFFFFFFFFFFFFFFFFFFFFFFFFFFFF AND PUSH20 0xFFFFFFFFFFFFFFFFFFFFFFFFFFFFFFFFFFFFFFFF AND DUP2 MSTORE PUSH1 0x20 ADD PUSH1 0x5 DUP3 ADD SLOAD DUP2 MSTORE POP POP SWAP1 POP SWAP2 SWAP1 POP JUMP JUMPDEST PUSH1 0x1 PUSH0 CALLER PUSH20 0xFFFFFFFFFFFFFFFFFFFFFFFFFFFFFFFFFFFFFFFF AND PUSH20 0xFFFFFFFFFFFFFFFFFFFFFFFFFFFFFFFFFFFFFFFF AND DUP2 MSTORE PUSH1 0x20 ADD SWAP1 DUP2 MSTORE PUSH1 0x20 ADD PUSH0 KECCAK256 PUSH0 SWAP1 SLOAD SWAP1 PUSH2 0x100 EXP SWAP1 DIV PUSH1 0xFF AND PUSH2 0x96B JUMPI PUSH1 0x40 MLOAD PUSH32 0x8C379A000000000000000000000000000000000000000000000000000000000 DUP2 MSTORE PUSH1 0x4 ADD PUSH2 0x962 SWAP1 PUSH2 0x1B8E JUMP JUMPDEST PUSH1 0x40 MLOAD DUP1 SWAP2 SUB SWAP1 REVERT JUMPDEST PUSH0 DUP4 GT PUSH2 0x9AD JUMPI PUSH1 0x40 MLOAD PUSH32 0x8C379A000000000000000000000000000000000000000000000000000000000 DUP2 MSTORE PUSH1 0x4 ADD PUSH2 0x9A4 SWAP1 PUSH2 0x1DD3 JUMP JUMPDEST PUSH1 0x40 MLOAD DUP1 SWAP2 SUB SWAP1 REVERT JUMPDEST PUSH0 DUP6 PUSH1 0x40 MLOAD PUSH1 0x20 ADD PUSH2 0x9BF SWAP2 SWAP1 PUSH2 0x1BE6 JUMP JUMPDEST PUSH1 0x40 MLOAD PUSH1 0x20 DUP2 DUP4 SUB SUB DUP2 MSTORE SWAP1 PUSH1 0x40 MSTORE DUP1 MLOAD SWAP1 PUSH1 0x20 ADD KECCAK256 SWAP1 POP DUP6 PUSH1 0x2 PUSH0 DUP4 DUP2 MSTORE PUSH1 0x20 ADD SWAP1 DUP2 MSTORE PUSH1 0x20 ADD PUSH0 KECCAK256 PUSH0 ADD SWAP1 DUP2 PUSH2 0x9F7 SWAP2 SWAP1 PUSH2 0x1F91 JUMP JUMPDEST POP DUP5 PUSH1 0x2 PUSH0 DUP4 DUP2 MSTORE PUSH1 0x20 ADD SWAP1 DUP2 MSTORE PUSH1 0x20 ADD PUSH0 KECCAK256 PUSH1 0x1 ADD SWAP1 DUP2 PUSH2 0xA19 SWAP2 SWAP1 PUSH2 0x1F91 JUMP JUMPDEST POP TIMESTAMP PUSH1 0x2 PUSH0 DUP4 DUP2 MSTORE PUSH1 0x20 ADD SWAP1 DUP2 MSTORE PUSH1 0x20 ADD PUSH0 KECCAK256 PUSH1 0x2 ADD DUP2 SWAP1 SSTORE POP PUSH3 0x15180 DUP5 PUSH2 0xA42 SWAP2 SWAP1 PUSH2 0x2060 JUMP JUMPDEST PUSH1 0x2 PUSH0 DUP4 DUP2 MSTORE PUSH1 0x20 ADD SWAP1 DUP2 MSTORE PUSH1 0x20 ADD PUSH0 KECCAK256 PUSH1 0x2 ADD SLOAD PUSH2 0xA61 SWAP2 SWAP1 PUSH2 0x1D56 JUMP JUMPDEST PUSH1 0x2 PUSH0 DUP4 DUP2 MSTORE PUSH1 0x20 ADD SWAP1 DUP2 MSTORE PUSH1 0x20 ADD PUSH0 KECCAK256 PUSH1 0x3 ADD DUP2 SWAP1 SSTORE POP DUP3 PUSH1 0x2 PUSH0 DUP4 DUP2 MSTORE PUSH1 0x20 ADD SWAP1 DUP2 MSTORE PUSH1 0x20 ADD PUSH0 KECCAK256 PUSH1 0x4 ADD PUSH0 PUSH2 0x100 EXP DUP2 SLOAD DUP2 PUSH1 0xFF MUL NOT AND SWAP1 DUP4 PUSH1 0x2 DUP2 GT ISZERO PUSH2 0xAAF JUMPI PUSH2 0xAAE PUSH2 0x15FE JUMP JUMPDEST JUMPDEST MUL OR SWAP1 SSTORE POP DUP2 PUSH1 0x2 PUSH0 DUP4 DUP2 MSTORE PUSH1 0x20 ADD SWAP1 DUP2 MSTORE PUSH1 0x20 ADD PUSH0 KECCAK256 PUSH1 0x5 ADD DUP2 SWAP1 SSTORE POP CALLER PUSH1 0x2 PUSH0 DUP4 DUP2 MSTORE PUSH1 0x20 ADD SWAP1 DUP2 MSTORE PUSH1 0x20 ADD PUSH0 KECCAK256 PUSH1 0x4 ADD PUSH1 0x1 PUSH2 0x100 EXP DUP2 SLOAD DUP2 PUSH20 0xFFFFFFFFFFFFFFFFFFFFFFFFFFFFFFFFFFFFFFFF MUL NOT AND SWAP1 DUP4 PUSH20 0xFFFFFFFFFFFFFFFFFFFFFFFFFFFFFFFFFFFFFFFF AND MUL OR SWAP1 SSTORE POP POP POP POP POP POP POP JUMP JUMPDEST PUSH0 PUSH1 0x1 PUSH0 CALLER PUSH20 0xFFFFFFFFFFFFFFFFFFFFFFFFFFFFFFFFFFFFFFFF AND PUSH20 0xFFFFFFFFFFFFFFFFFFFFFFFFFFFFFFFFFFFFFFFF AND DUP2 MSTORE PUSH1 0x20 ADD SWAP1 DUP2 MSTORE PUSH1 0x20 ADD PUSH0 KECCAK256 PUSH0 SWAP1 SLOAD SWAP1 PUSH2 0x100 EXP SWAP1 DIV PUSH1 0xFF AND PUSH2 0xBB2 JUMPI PUSH1 0x40 MLOAD PUSH32 0x8C379A000000000000000000000000000000000000000000000000000000000 DUP2 MSTORE PUSH1 0x4 ADD PUSH2 0xBA9 SWAP1 PUSH2 0x1B8E JUMP JUMPDEST PUSH1 0x40 MLOAD DUP1 SWAP2 SUB SWAP1 REVERT JUMPDEST PUSH0 PUSH1 0x2 PUSH0 DUP6 PUSH1 0x40 MLOAD PUSH1 0x20 ADD PUSH2 0xBC7 SWAP2 SWAP1 PUSH2 0x1BE6 JUMP JUMPDEST PUSH1 0x40 MLOAD PUSH1 0x20 DUP2 DUP4 SUB SUB DUP2 MSTORE SWAP1 PUSH1 0x40 MSTORE DUP1 MLOAD SWAP1 PUSH1 0x20 ADD KECCAK256 DUP2 MSTORE PUSH1 0x20 ADD SWAP1 DUP2 MSTORE PUSH1 0x20 ADD PUSH0 KECCAK256 PUSH0 ADD DUP1 SLOAD PUSH2 0xBF7 SWAP1 PUSH2 0x1C29 JUMP JUMPDEST SWAP1 POP GT PUSH2 0xC39 JUMPI PUSH1 0x40 MLOAD PUSH32 0x8C379A000000000000000000000000000000000000000000000000000000000 DUP2 MSTORE PUSH1 0x4 ADD PUSH2 0xC30 SWAP1 PUSH2 0x1CA3 JUMP JUMPDEST PUSH1 0x40 MLOAD DUP1 SWAP2 SUB SWAP1 REVERT JUMPDEST DUP2 PUSH1 0x2 PUSH0 DUP6 PUSH1 0x40 MLOAD PUSH1 0x20 ADD PUSH2 0xC4E SWAP2 SWAP1 PUSH2 0x1BE6 JUMP JUMPDEST PUSH1 0x40 MLOAD PUSH1 0x20 DUP2 DUP4 SUB SUB DUP2 MSTORE SWAP1 PUSH1 0x40 MSTORE DUP1 MLOAD SWAP1 PUSH1 0x20 ADD KECCAK256 DUP2 MSTORE PUSH1 0x20 ADD SWAP1 DUP2 MSTORE PUSH1 0x20 ADD PUSH0 KECCAK256 PUSH1 0x4 ADD PUSH0 PUSH2 0x100 EXP DUP2 SLOAD DUP2 PUSH1 0xFF MUL NOT AND SWAP1 DUP4 PUSH1 0x2 DUP2 GT ISZERO PUSH2 0xC95 JUMPI PUSH2 0xC94 PUSH2 0x15FE JUMP JUMPDEST JUMPDEST MUL OR SWAP1 SSTORE POP PUSH1 0x2 PUSH0 DUP5 PUSH1 0x40 MLOAD PUSH1 0x20 ADD PUSH2 0xCAE SWAP2 SWAP1 PUSH2 0x1BE6 JUMP JUMPDEST PUSH1 0x40 MLOAD PUSH1 0x20 DUP2 DUP4 SUB SUB DUP2 MSTORE SWAP1 PUSH1 0x40 MSTORE DUP1 MLOAD SWAP1 PUSH1 0x20 ADD KECCAK256 DUP2 MSTORE PUSH1 0x20 ADD SWAP1 DUP2 MSTORE PUSH1 0x20 ADD PUSH0 KECCAK256 PUSH1 0x4 ADD PUSH0 SWAP1 SLOAD SWAP1 PUSH2 0x100 EXP SWAP1 DIV PUSH1 0xFF AND SWAP1 POP SWAP3 SWAP2 POP POP JUMP JUMPDEST PUSH0 PUSH0 SWAP1 SLOAD SWAP1 PUSH2 0x100 EXP SWAP1 DIV PUSH20 0xFFFFFFFFFFFFFFFFFFFFFFFFFFFFFFFFFFFFFFFF AND DUP2 JUMP JUMPDEST PUSH0 DUP3 PUSH1 0x40 MLOAD PUSH1 0x20 ADD PUSH2 0xD1F SWAP2 SWAP1 PUSH2 0x1BE6 JUMP JUMPDEST PUSH1 0x40 MLOAD PUSH1 0x20 DUP2 DUP4 SUB SUB DUP2 MSTORE SWAP1 PUSH1 0x40 MSTORE DUP1 MLOAD SWAP1 PUSH1 0x20 ADD KECCAK256 SWAP1 POP CALLER PUSH20 0xFFFFFFFFFFFFFFFFFFFFFFFFFFFFFFFFFFFFFFFF AND PUSH1 0x2 PUSH0 DUP4 DUP2 MSTORE PUSH1 0x20 ADD SWAP1 DUP2 MSTORE PUSH1 0x20 ADD PUSH0 KECCAK256 PUSH1 0x4 ADD PUSH1 0x1 SWAP1 SLOAD SWAP1 PUSH2 0x100 EXP SWAP1 DIV PUSH20 0xFFFFFFFFFFFFFFFFFFFFFFFFFFFFFFFFFFFFFFFF AND PUSH20 0xFFFFFFFFFFFFFFFFFFFFFFFFFFFFFFFFFFFFFFFF AND EQ PUSH2 0xDD9 JUMPI PUSH1 0x40 MLOAD PUSH32 0x8C379A000000000000000000000000000000000000000000000000000000000 DUP2 MSTORE PUSH1 0x4 ADD PUSH2 0xDD0 SWAP1 PUSH2 0x2111 JUMP JUMPDEST PUSH1 0x40 MLOAD DUP1 SWAP2 SUB SWAP1 REVERT JUMPDEST PUSH1 0x1 DUP1 PUSH0 DUP5 PUSH20 0xFFFFFFFFFFFFFFFFFFFFFFFFFFFFFFFFFFFFFFFF AND PUSH20 0xFFFFFFFFFFFFFFFFFFFFFFFFFFFFFFFFFFFFFFFF AND DUP2 MSTORE PUSH1 0x20 ADD SWAP1 DUP2 MSTORE PUSH1 0x20 ADD PUSH0 KECCAK256 PUSH0 PUSH2 0x100 EXP DUP2 SLOAD DUP2 PUSH1 0xFF MUL NOT AND SWAP1 DUP4 ISZERO ISZERO MUL OR SWAP1 SSTORE POP POP POP POP JUMP JUMPDEST PUSH1 0x60 PUSH1 0x1 PUSH0 CALLER PUSH20 0xFFFFFFFFFFFFFFFFFFFFFFFFFFFFFFFFFFFFFFFF AND PUSH20 0xFFFFFFFFFFFFFFFFFFFFFFFFFFFFFFFFFFFFFFFF AND DUP2 MSTORE PUSH1 0x20 ADD SWAP1 DUP2 MSTORE PUSH1 0x20 ADD PUSH0 KECCAK256 PUSH0 SWAP1 SLOAD SWAP1 PUSH2 0x100 EXP SWAP1 DIV PUSH1 0xFF AND PUSH2 0xEBD JUMPI PUSH1 0x40 MLOAD PUSH32 0x8C379A000000000000000000000000000000000000000000000000000000000 DUP2 MSTORE PUSH1 0x4 ADD PUSH2 0xEB4 SWAP1 PUSH2 0x1B8E JUMP JUMPDEST PUSH1 0x40 MLOAD DUP1 SWAP2 SUB SWAP1 REVERT JUMPDEST PUSH0 PUSH1 0x2 PUSH0 DUP6 PUSH1 0x40 MLOAD PUSH1 0x20 ADD PUSH2 0xED2 SWAP2 SWAP1 PUSH2 0x1BE6 JUMP JUMPDEST PUSH1 0x40 MLOAD PUSH1 0x20 DUP2 DUP4 SUB SUB DUP2 MSTORE SWAP1 PUSH1 0x40 MSTORE DUP1 MLOAD SWAP1 PUSH1 0x20 ADD KECCAK256 DUP2 MSTORE PUSH1 0x20 ADD SWAP1 DUP2 MSTORE PUSH1 0x20 ADD PUSH0 KECCAK256 PUSH0 ADD DUP1 SLOAD PUSH2 0xF02 SWAP1 PUSH2 0x1C29 JUMP JUMPDEST SWAP1 POP GT PUSH2 0xF44 JUMPI PUSH1 0x40 MLOAD PUSH32 0x8C379A000000000000000000000000000000000000000000000000000000000 DUP2 MSTORE PUSH1 0x4 ADD PUSH2 0xF3B SWAP1 PUSH2 0x1CA3 JUMP JUMPDEST PUSH1 0x40 MLOAD DUP1 SWAP2 SUB SWAP1 REVERT JUMPDEST TIMESTAMP PUSH1 0x2 PUSH0 DUP6 PUSH1 0x40 MLOAD PUSH1 0x20 ADD PUSH2 0xF59 SWAP2 SWAP1 PUSH2 0x1BE6 JUMP JUMPDEST PUSH1 0x40 MLOAD PUSH1 0x20 DUP2 DUP4 SUB SUB DUP2 MSTORE SWAP1 PUSH1 0x40 MSTORE DUP1 MLOAD SWAP1 PUSH1 0x20 ADD KECCAK256 DUP2 MSTORE PUSH1 0x20 ADD SWAP1 DUP2 MSTORE PUSH1 0x20 ADD PUSH0 KECCAK256 PUSH1 0x3 ADD SLOAD GT PUSH2 0xFC0 JUMPI PUSH1 0x40 MLOAD PUSH32 0x8C379A000000000000000000000000000000000000000000000000000000000 DUP2 MSTORE PUSH1 0x4 ADD PUSH2 0xFB7 SWAP1 PUSH2 0x1D0B JUMP JUMPDEST PUSH1 0x40 MLOAD DUP1 SWAP2 SUB SWAP1 REVERT JUMPDEST PUSH3 0x15180 DUP3 PUSH2 0xFCF SWAP2 SWAP1 PUSH2 0x2060 JUMP JUMPDEST PUSH1 0x2 PUSH0 DUP6 PUSH1 0x40 MLOAD PUSH1 0x20 ADD PUSH2 0xFE3 SWAP2 SWAP1 PUSH2 0x1BE6 JUMP JUMPDEST PUSH1 0x40 MLOAD PUSH1 0x20 DUP2 DUP4 SUB SUB DUP2 MSTORE SWAP1 PUSH1 0x40 MSTORE DUP1 MLOAD SWAP1 PUSH1 0x20 ADD KECCAK256 DUP2 MSTORE PUSH1 0x20 ADD SWAP1 DUP2 MSTORE PUSH1 0x20 ADD PUSH0 KECCAK256 PUSH1 0x3 ADD PUSH0 DUP3 DUP3 SLOAD PUSH2 0x1017 SWAP2 SWAP1 PUSH2 0x1D56 JUMP JUMPDEST SWAP3 POP POP DUP2 SWAP1 SSTORE POP PUSH0 PUSH1 0x2 PUSH0 DUP6 PUSH1 0x40 MLOAD PUSH1 0x20 ADD PUSH2 0x1033 SWAP2 SWAP1 PUSH2 0x1BE6 JUMP JUMPDEST PUSH1 0x40 MLOAD PUSH1 0x20 DUP2 DUP4 SUB SUB DUP2 MSTORE SWAP1 PUSH1 0x40 MSTORE DUP1 MLOAD SWAP1 PUSH1 0x20 ADD KECCAK256 DUP2 MSTORE PUSH1 0x20 ADD SWAP1 DUP2 MSTORE PUSH1 0x20 ADD PUSH0 KECCAK256 PUSH0 ADD DUP1 SLOAD PUSH2 0x1063 SWAP1 PUSH2 0x1C29 JUMP JUMPDEST DUP1 PUSH1 0x1F ADD PUSH1 0x20 DUP1 SWAP2 DIV MUL PUSH1 0x20 ADD PUSH1 0x40 MLOAD SWAP1 DUP2 ADD PUSH1 0x40 MSTORE DUP1 SWAP3 SWAP2 SWAP1 DUP2 DUP2 MSTORE PUSH1 0x20 ADD DUP3 DUP1 SLOAD PUSH2 0x108F SWAP1 PUSH2 0x1C29 JUMP JUMPDEST DUP1 ISZERO PUSH2 0x10DA JUMPI DUP1 PUSH1 0x1F LT PUSH2 0x10B1 JUMPI PUSH2 0x100 DUP1 DUP4 SLOAD DIV MUL DUP4 MSTORE SWAP2 PUSH1 0x20 ADD SWAP2 PUSH2 0x10DA JUMP JUMPDEST DUP3 ADD SWAP2 SWAP1 PUSH0 MSTORE PUSH1 0x20 PUSH0 KECCAK256 SWAP1 JUMPDEST DUP2 SLOAD DUP2 MSTORE SWAP1 PUSH1 0x1 ADD SWAP1 PUSH1 0x20 ADD DUP1 DUP4 GT PUSH2 0x10BD JUMPI DUP3 SWAP1 SUB PUSH1 0x1F AND DUP3 ADD SWAP2 JUMPDEST POP POP POP POP POP SWAP1 POP PUSH0 PUSH2 0x10EB DUP5 PUSH2 0x1119 JUMP JUMPDEST SWAP1 POP DUP2 DUP2 PUSH1 0x40 MLOAD PUSH1 0x20 ADD PUSH2 0x1100 SWAP3 SWAP2 SWAP1 PUSH2 0x21C3 JUMP JUMPDEST PUSH1 0x40 MLOAD PUSH1 0x20 DUP2 DUP4 SUB SUB DUP2 MSTORE SWAP1 PUSH1 0x40 MSTORE SWAP3 POP POP POP SWAP3 SWAP2 POP POP JUMP JUMPDEST PUSH1 0x60 PUSH0 PUSH1 0x1 PUSH2 0x1127 DUP5 PUSH2 0x11E3 JUMP JUMPDEST ADD SWAP1 POP PUSH0 DUP2 PUSH8 0xFFFFFFFFFFFFFFFF DUP2 GT ISZERO PUSH2 0x1145 JUMPI PUSH2 0x1144 PUSH2 0x13BD JUMP JUMPDEST JUMPDEST PUSH1 0x40 MLOAD SWAP1 DUP1 DUP3 MSTORE DUP1 PUSH1 0x1F ADD PUSH1 0x1F NOT AND PUSH1 0x20 ADD DUP3 ADD PUSH1 0x40 MSTORE DUP1 ISZERO PUSH2 0x1177 JUMPI DUP2 PUSH1 0x20 ADD PUSH1 0x1 DUP3 MUL DUP1 CALLDATASIZE DUP4 CALLDATACOPY DUP1 DUP3 ADD SWAP2 POP POP SWAP1 POP JUMPDEST POP SWAP1 POP PUSH0 DUP3 PUSH1 0x20 ADD DUP3 ADD SWAP1 POP JUMPDEST PUSH1 0x1 ISZERO PUSH2 0x11D8 JUMPI DUP1 DUP1 PUSH1 0x1 SWAP1 SUB SWAP2 POP POP PUSH32 0x3031323334353637383961626364656600000000000000000000000000000000 PUSH1 0xA DUP7 MOD BYTE DUP2 MSTORE8 PUSH1 0xA DUP6 DUP2 PUSH2 0x11CD JUMPI PUSH2 0x11CC PUSH2 0x21FC JUMP JUMPDEST JUMPDEST DIV SWAP5 POP PUSH0 DUP6 SUB PUSH2 0x1184 JUMPI JUMPDEST DUP2 SWAP4 POP POP POP POP SWAP2 SWAP1 POP JUMP JUMPDEST PUSH0 PUSH0 PUSH0 SWAP1 POP PUSH27 0x184F03E93FF9F4DAA797ED6E38ED64BF6A1F010000000000000000 DUP4 LT PUSH2 0x123F JUMPI PUSH27 0x184F03E93FF9F4DAA797ED6E38ED64BF6A1F010000000000000000 DUP4 DUP2 PUSH2 0x1235 JUMPI PUSH2 0x1234 PUSH2 0x21FC JUMP JUMPDEST JUMPDEST DIV SWAP3 POP PUSH1 0x40 DUP2 ADD SWAP1 POP JUMPDEST PUSH14 0x4EE2D6D415B85ACEF8100000000 DUP4 LT PUSH2 0x127C JUMPI PUSH14 0x4EE2D6D415B85ACEF8100000000 DUP4 DUP2 PUSH2 0x1272 JUMPI PUSH2 0x1271 PUSH2 0x21FC JUMP JUMPDEST JUMPDEST DIV SWAP3 POP PUSH1 0x20 DUP2 ADD SWAP1 POP JUMPDEST PUSH7 0x2386F26FC10000 DUP4 LT PUSH2 0x12AB JUMPI PUSH7 0x2386F26FC10000 DUP4 DUP2 PUSH2 0x12A1 JUMPI PUSH2 0x12A0 PUSH2 0x21FC JUMP JUMPDEST JUMPDEST DIV SWAP3 POP PUSH1 0x10 DUP2 ADD SWAP1 POP JUMPDEST PUSH4 0x5F5E100 DUP4 LT PUSH2 0x12D4 JUMPI PUSH4 0x5F5E100 DUP4 DUP2 PUSH2 0x12CA JUMPI PUSH2 0x12C9 PUSH2 0x21FC JUMP JUMPDEST JUMPDEST DIV SWAP3 POP PUSH1 0x8 DUP2 ADD SWAP1 POP JUMPDEST PUSH2 0x2710 DUP4 LT PUSH2 0x12F9 JUMPI PUSH2 0x2710 DUP4 DUP2 PUSH2 0x12EF JUMPI PUSH2 0x12EE PUSH2 0x21FC JUMP JUMPDEST JUMPDEST DIV SWAP3 POP PUSH1 0x4 DUP2 ADD SWAP1 POP JUMPDEST PUSH1 0x64 DUP4 LT PUSH2 0x131C JUMPI PUSH1 0x64 DUP4 DUP2 PUSH2 0x1312 JUMPI PUSH2 0x1311 PUSH2 0x21FC JUMP JUMPDEST JUMPDEST DIV SWAP3 POP PUSH1 0x2 DUP2 ADD SWAP1 POP JUMPDEST PUSH1 0xA DUP4 LT PUSH2 0x132B JUMPI PUSH1 0x1 DUP2 ADD SWAP1 POP JUMPDEST DUP1 SWAP2 POP POP SWAP2 SWAP1 POP JUMP JUMPDEST PUSH1 0x40 MLOAD DUP1 PUSH1 0xE0 ADD PUSH1 0x40 MSTORE DUP1 PUSH1 0x60 DUP2 MSTORE PUSH1 0x20 ADD PUSH1 0x60 DUP2 MSTORE PUSH1 0x20 ADD PUSH0 DUP2 MSTORE PUSH1 0x20 ADD PUSH0 DUP2 MSTORE PUSH1 0x20 ADD PUSH0 PUSH1 0x2 DUP2 GT ISZERO PUSH2 0x136C JUMPI PUSH2 0x136B PUSH2 0x15FE JUMP JUMPDEST JUMPDEST DUP2 MSTORE PUSH1 0x20 ADD PUSH0 PUSH20 0xFFFFFFFFFFFFFFFFFFFFFFFFFFFFFFFFFFFFFFFF AND DUP2 MSTORE PUSH1 0x20 ADD PUSH0 DUP2 MSTORE POP SWAP1 JUMP JUMPDEST PUSH0 PUSH1 0x40 MLOAD SWAP1 POP SWAP1 JUMP JUMPDEST PUSH0 PUSH0 REVERT JUMPDEST PUSH0 PUSH0 REVERT JUMPDEST PUSH0 PUSH0 REVERT JUMPDEST PUSH0 PUSH0 REVERT JUMPDEST PUSH0 PUSH1 0x1F NOT PUSH1 0x1F DUP4 ADD AND SWAP1 POP SWAP2 SWAP1 POP JUMP JUMPDEST PUSH32 0x4E487B7100000000000000000000000000000000000000000000000000000000 PUSH0 MSTORE PUSH1 0x41 PUSH1 0x4 MSTORE PUSH1 0x24 PUSH0 REVERT JUMPDEST PUSH2 0x13F3 DUP3 PUSH2 0x13AD JUMP JUMPDEST DUP2 ADD DUP2 DUP2 LT PUSH8 0xFFFFFFFFFFFFFFFF DUP3 GT OR ISZERO PUSH2 0x1412 JUMPI PUSH2 0x1411 PUSH2 0x13BD JUMP JUMPDEST JUMPDEST DUP1 PUSH1 0x40 MSTORE POP POP POP JUMP JUMPDEST PUSH0 PUSH2 0x1424 PUSH2 0x1394 JUMP JUMPDEST SWAP1 POP PUSH2 0x1430 DUP3 DUP3 PUSH2 0x13EA JUMP JUMPDEST SWAP2 SWAP1 POP JUMP JUMPDEST PUSH0 PUSH8 0xFFFFFFFFFFFFFFFF DUP3 GT ISZERO PUSH2 0x144F JUMPI PUSH2 0x144E PUSH2 0x13BD JUMP JUMPDEST JUMPDEST PUSH2 0x1458 DUP3 PUSH2 0x13AD JUMP JUMPDEST SWAP1 POP PUSH1 0x20 DUP2 ADD SWAP1 POP SWAP2 SWAP1 POP JUMP JUMPDEST DUP3 DUP2 DUP4 CALLDATACOPY PUSH0 DUP4 DUP4 ADD MSTORE POP POP POP JUMP JUMPDEST PUSH0 PUSH2 0x1485 PUSH2 0x1480 DUP5 PUSH2 0x1435 JUMP JUMPDEST PUSH2 0x141B JUMP JUMPDEST SWAP1 POP DUP3 DUP2 MSTORE PUSH1 0x20 DUP2 ADD DUP5 DUP5 DUP5 ADD GT ISZERO PUSH2 0x14A1 JUMPI PUSH2 0x14A0 PUSH2 0x13A9 JUMP JUMPDEST JUMPDEST PUSH2 0x14AC DUP5 DUP3 DUP6 PUSH2 0x1465 JUMP JUMPDEST POP SWAP4 SWAP3 POP POP POP JUMP JUMPDEST PUSH0 DUP3 PUSH1 0x1F DUP4 ADD SLT PUSH2 0x14C8 JUMPI PUSH2 0x14C7 PUSH2 0x13A5 JUMP JUMPDEST JUMPDEST DUP2 CALLDATALOAD PUSH2 0x14D8 DUP5 DUP3 PUSH1 0x20 DUP7 ADD PUSH2 0x1473 JUMP JUMPDEST SWAP2 POP POP SWAP3 SWAP2 POP POP JUMP JUMPDEST PUSH0 PUSH1 0x20 DUP3 DUP5 SUB SLT ISZERO PUSH2 0x14F6 JUMPI PUSH2 0x14F5 PUSH2 0x139D JUMP JUMPDEST JUMPDEST PUSH0 DUP3 ADD CALLDATALOAD PUSH8 0xFFFFFFFFFFFFFFFF DUP2 GT ISZERO PUSH2 0x1513 JUMPI PUSH2 0x1512 PUSH2 0x13A1 JUMP JUMPDEST JUMPDEST PUSH2 0x151F DUP5 DUP3 DUP6 ADD PUSH2 0x14B4 JUMP JUMPDEST SWAP2 POP POP SWAP3 SWAP2 POP POP JUMP JUMPDEST PUSH0 DUP2 SWAP1 POP SWAP2 SWAP1 POP JUMP JUMPDEST PUSH2 0x153A DUP2 PUSH2 0x1528 JUMP JUMPDEST DUP2 EQ PUSH2 0x1544 JUMPI PUSH0 PUSH0 REVERT JUMPDEST POP JUMP JUMPDEST PUSH0 DUP2 CALLDATALOAD SWAP1 POP PUSH2 0x1555 DUP2 PUSH2 0x1531 JUMP JUMPDEST SWAP3 SWAP2 POP POP JUMP JUMPDEST PUSH0 PUSH1 0x20 DUP3 DUP5 SUB SLT ISZERO PUSH2 0x1570 JUMPI PUSH2 0x156F PUSH2 0x139D JUMP JUMPDEST JUMPDEST PUSH0 PUSH2 0x157D DUP5 DUP3 DUP6 ADD PUSH2 0x1547 JUMP JUMPDEST SWAP2 POP POP SWAP3 SWAP2 POP POP JUMP JUMPDEST PUSH0 DUP2 MLOAD SWAP1 POP SWAP2 SWAP1 POP JUMP JUMPDEST PUSH0 DUP3 DUP3 MSTORE PUSH1 0x20 DUP3 ADD SWAP1 POP SWAP3 SWAP2 POP POP JUMP JUMPDEST DUP3 DUP2 DUP4 MCOPY PUSH0 DUP4 DUP4 ADD MSTORE POP POP POP JUMP JUMPDEST PUSH0 PUSH2 0x15B8 DUP3 PUSH2 0x1586 JUMP JUMPDEST PUSH2 0x15C2 DUP2 DUP6 PUSH2 0x1590 JUMP JUMPDEST SWAP4 POP PUSH2 0x15D2 DUP2 DUP6 PUSH1 0x20 DUP7 ADD PUSH2 0x15A0 JUMP JUMPDEST PUSH2 0x15DB DUP2 PUSH2 0x13AD JUMP JUMPDEST DUP5 ADD SWAP2 POP POP SWAP3 SWAP2 POP POP JUMP JUMPDEST PUSH0 DUP2 SWAP1 POP SWAP2 SWAP1 POP JUMP JUMPDEST PUSH2 0x15F8 DUP2 PUSH2 0x15E6 JUMP JUMPDEST DUP3 MSTORE POP POP JUMP JUMPDEST PUSH32 0x4E487B7100000000000000000000000000000000000000000000000000000000 PUSH0 MSTORE PUSH1 0x21 PUSH1 0x4 MSTORE PUSH1 0x24 PUSH0 REVERT JUMPDEST PUSH1 0x3 DUP2 LT PUSH2 0x163C JUMPI PUSH2 0x163B PUSH2 0x15FE JUMP JUMPDEST JUMPDEST POP JUMP JUMPDEST PUSH0 DUP2 SWAP1 POP PUSH2 0x164C DUP3 PUSH2 0x162B JUMP JUMPDEST SWAP2 SWAP1 POP JUMP JUMPDEST PUSH0 PUSH2 0x165B DUP3 PUSH2 0x163F JUMP JUMPDEST SWAP1 POP SWAP2 SWAP1 POP JUMP JUMPDEST PUSH2 0x166B DUP2 PUSH2 0x1651 JUMP JUMPDEST DUP3 MSTORE POP POP JUMP JUMPDEST PUSH0 PUSH20 0xFFFFFFFFFFFFFFFFFFFFFFFFFFFFFFFFFFFFFFFF DUP3 AND SWAP1 POP SWAP2 SWAP1 POP JUMP JUMPDEST PUSH0 PUSH2 0x169A DUP3 PUSH2 0x1671 JUMP JUMPDEST SWAP1 POP SWAP2 SWAP1 POP JUMP JUMPDEST PUSH2 0x16AA DUP2 PUSH2 0x1690 JUMP JUMPDEST DUP3 MSTORE POP POP JUMP JUMPDEST PUSH0 PUSH1 0xE0 DUP3 ADD SWAP1 POP DUP2 DUP2 SUB PUSH0 DUP4 ADD MSTORE PUSH2 0x16C8 DUP2 DUP11 PUSH2 0x15AE JUMP JUMPDEST SWAP1 POP DUP2 DUP2 SUB PUSH1 0x20 DUP4 ADD MSTORE PUSH2 0x16DC DUP2 DUP10 PUSH2 0x15AE JUMP JUMPDEST SWAP1 POP PUSH2 0x16EB PUSH1 0x40 DUP4 ADD DUP9 PUSH2 0x15EF JUMP JUMPDEST PUSH2 0x16F8 PUSH1 0x60 DUP4 ADD DUP8 PUSH2 0x15EF JUMP JUMPDEST PUSH2 0x1705 PUSH1 0x80 DUP4 ADD DUP7 PUSH2 0x1662 JUMP JUMPDEST PUSH2 0x1712 PUSH1 0xA0 DUP4 ADD DUP6 PUSH2 0x16A1 JUMP JUMPDEST PUSH2 0x171F PUSH1 0xC0 DUP4 ADD DUP5 PUSH2 0x15EF JUMP JUMPDEST SWAP9 SWAP8 POP POP POP POP POP POP POP POP JUMP JUMPDEST PUSH2 0x1734 DUP2 PUSH2 0x1690 JUMP JUMPDEST DUP2 EQ PUSH2 0x173E JUMPI PUSH0 PUSH0 REVERT JUMPDEST POP JUMP JUMPDEST PUSH0 DUP2 CALLDATALOAD SWAP1 POP PUSH2 0x174F DUP2 PUSH2 0x172B JUMP JUMPDEST SWAP3 SWAP2 POP POP JUMP JUMPDEST PUSH0 PUSH1 0x20 DUP3 DUP5 SUB SLT ISZERO PUSH2 0x176A JUMPI PUSH2 0x1769 PUSH2 0x139D JUMP JUMPDEST JUMPDEST PUSH0 PUSH2 0x1777 DUP5 DUP3 DUP6 ADD PUSH2 0x1741 JUMP JUMPDEST SWAP2 POP POP SWAP3 SWAP2 POP POP JUMP JUMPDEST PUSH0 DUP2 ISZERO ISZERO SWAP1 POP SWAP2 SWAP1 POP JUMP JUMPDEST PUSH2 0x1794 DUP2 PUSH2 0x1780 JUMP JUMPDEST DUP3 MSTORE POP POP JUMP JUMPDEST PUSH0 PUSH1 0x20 DUP3 ADD SWAP1 POP PUSH2 0x17AD PUSH0 DUP4 ADD DUP5 PUSH2 0x178B JUMP JUMPDEST SWAP3 SWAP2 POP POP JUMP JUMPDEST PUSH0 DUP3 DUP3 MSTORE PUSH1 0x20 DUP3 ADD SWAP1 POP SWAP3 SWAP2 POP POP JUMP JUMPDEST PUSH0 PUSH2 0x17CD DUP3 PUSH2 0x1586 JUMP JUMPDEST PUSH2 0x17D7 DUP2 DUP6 PUSH2 0x17B3 JUMP JUMPDEST SWAP4 POP PUSH2 0x17E7 DUP2 DUP6 PUSH1 0x20 DUP7 ADD PUSH2 0x15A0 JUMP JUMPDEST PUSH2 0x17F0 DUP2 PUSH2 0x13AD JUMP JUMPDEST DUP5 ADD SWAP2 POP POP SWAP3 SWAP2 POP POP JUMP JUMPDEST PUSH2 0x1804 DUP2 PUSH2 0x15E6 JUMP JUMPDEST DUP3 MSTORE POP POP JUMP JUMPDEST PUSH2 0x1813 DUP2 PUSH2 0x1651 JUMP JUMPDEST DUP3 MSTORE POP POP JUMP JUMPDEST PUSH2 0x1822 DUP2 PUSH2 0x1690 JUMP JUMPDEST DUP3 MSTORE POP POP JUMP JUMPDEST PUSH0 PUSH1 0xE0 DUP4 ADD PUSH0 DUP4 ADD MLOAD DUP5 DUP3 SUB PUSH0 DUP7 ADD MSTORE PUSH2 0x1842 DUP3 DUP3 PUSH2 0x17C3 JUMP JUMPDEST SWAP2 POP POP PUSH1 0x20 DUP4 ADD MLOAD DUP5 DUP3 SUB PUSH1 0x20 DUP7 ADD MSTORE PUSH2 0x185C DUP3 DUP3 PUSH2 0x17C3 JUMP JUMPDEST SWAP2 POP POP PUSH1 0x40 DUP4 ADD MLOAD PUSH2 0x1871 PUSH1 0x40 DUP7 ADD DUP3 PUSH2 0x17FB JUMP JUMPDEST POP PUSH1 0x60 DUP4 ADD MLOAD PUSH2 0x1884 PUSH1 0x60 DUP7 ADD DUP3 PUSH2 0x17FB JUMP JUMPDEST POP PUSH1 0x80 DUP4 ADD MLOAD PUSH2 0x1897 PUSH1 0x80 DUP7 ADD DUP3 PUSH2 0x180A JUMP JUMPDEST POP PUSH1 0xA0 DUP4 ADD MLOAD PUSH2 0x18AA PUSH1 0xA0 DUP7 ADD DUP3 PUSH2 0x1819 JUMP JUMPDEST POP PUSH1 0xC0 DUP4 ADD MLOAD PUSH2 0x18BD PUSH1 0xC0 DUP7 ADD DUP3 PUSH2 0x17FB JUMP JUMPDEST POP DUP1 SWAP2 POP POP SWAP3 SWAP2 POP POP JUMP JUMPDEST PUSH0 PUSH1 0x20 DUP3 ADD SWAP1 POP DUP2 DUP2 SUB PUSH0 DUP4 ADD MSTORE PUSH2 0x18E0 DUP2 DUP5 PUSH2 0x1828 JUMP JUMPDEST SWAP1 POP SWAP3 SWAP2 POP POP JUMP JUMPDEST PUSH2 0x18F1 DUP2 PUSH2 0x15E6 JUMP JUMPDEST DUP2 EQ PUSH2 0x18FB JUMPI PUSH0 PUSH0 REVERT JUMPDEST POP JUMP JUMPDEST PUSH0 DUP2 CALLDATALOAD SWAP1 POP PUSH2 0x190C DUP2 PUSH2 0x18E8 JUMP JUMPDEST SWAP3 SWAP2 POP POP JUMP JUMPDEST PUSH1 0x3 DUP2 LT PUSH2 0x191E JUMPI PUSH0 PUSH0 REVERT JUMPDEST POP JUMP JUMPDEST PUSH0 DUP2 CALLDATALOAD SWAP1 POP PUSH2 0x192F DUP2 PUSH2 0x1912 JUMP JUMPDEST SWAP3 SWAP2 POP POP JUMP JUMPDEST PUSH0 PUSH0 PUSH0 PUSH0 PUSH0 PUSH1 0xA0 DUP7 DUP9 SUB SLT ISZERO PUSH2 0x194E JUMPI PUSH2 0x194D PUSH2 0x139D JUMP JUMPDEST JUMPDEST PUSH0 DUP7 ADD CALLDATALOAD PUSH8 0xFFFFFFFFFFFFFFFF DUP2 GT ISZERO PUSH2 0x196B JUMPI PUSH2 0x196A PUSH2 0x13A1 JUMP JUMPDEST JUMPDEST PUSH2 0x1977 DUP9 DUP3 DUP10 ADD PUSH2 0x14B4 JUMP JUMPDEST SWAP6 POP POP PUSH1 0x20 DUP7 ADD CALLDATALOAD PUSH8 0xFFFFFFFFFFFFFFFF DUP2 GT ISZERO PUSH2 0x1998 JUMPI PUSH2 0x1997 PUSH2 0x13A1 JUMP JUMPDEST JUMPDEST PUSH2 0x19A4 DUP9 DUP3 DUP10 ADD PUSH2 0x14B4 JUMP JUMPDEST SWAP5 POP POP PUSH1 0x40 PUSH2 0x19B5 DUP9 DUP3 DUP10 ADD PUSH2 0x18FE JUMP JUMPDEST SWAP4 POP POP PUSH1 0x60 PUSH2 0x19C6 DUP9 DUP3 DUP10 ADD PUSH2 0x1921 JUMP JUMPDEST SWAP3 POP POP PUSH1 0x80 PUSH2 0x19D7 DUP9 DUP3 DUP10 ADD PUSH2 0x18FE JUMP JUMPDEST SWAP2 POP POP SWAP3 SWAP6 POP SWAP3 SWAP6 SWAP1 SWAP4 POP JUMP JUMPDEST PUSH0 PUSH0 PUSH1 0x40 DUP4 DUP6 SUB SLT ISZERO PUSH2 0x19FA JUMPI PUSH2 0x19F9 PUSH2 0x139D JUMP JUMPDEST JUMPDEST PUSH0 DUP4 ADD CALLDATALOAD PUSH8 0xFFFFFFFFFFFFFFFF DUP2 GT ISZERO PUSH2 0x1A17 JUMPI PUSH2 0x1A16 PUSH2 0x13A1 JUMP JUMPDEST JUMPDEST PUSH2 0x1A23 DUP6 DUP3 DUP7 ADD PUSH2 0x14B4 JUMP JUMPDEST SWAP3 POP POP PUSH1 0x20 PUSH2 0x1A34 DUP6 DUP3 DUP7 ADD PUSH2 0x1921 JUMP JUMPDEST SWAP2 POP POP SWAP3 POP SWAP3 SWAP1 POP JUMP JUMPDEST PUSH0 PUSH1 0x20 DUP3 ADD SWAP1 POP PUSH2 0x1A51 PUSH0 DUP4 ADD DUP5 PUSH2 0x1662 JUMP JUMPDEST SWAP3 SWAP2 POP POP JUMP JUMPDEST PUSH0 PUSH1 0x20 DUP3 ADD SWAP1 POP PUSH2 0x1A6A PUSH0 DUP4 ADD DUP5 PUSH2 0x16A1 JUMP JUMPDEST SWAP3 SWAP2 POP POP JUMP JUMPDEST PUSH0 PUSH0 PUSH1 0x40 DUP4 DUP6 SUB SLT ISZERO PUSH2 0x1A86 JUMPI PUSH2 0x1A85 PUSH2 0x139D JUMP JUMPDEST JUMPDEST PUSH0 DUP4 ADD CALLDATALOAD PUSH8 0xFFFFFFFFFFFFFFFF DUP2 GT ISZERO PUSH2 0x1AA3 JUMPI PUSH2 0x1AA2 PUSH2 0x13A1 JUMP JUMPDEST JUMPDEST PUSH2 0x1AAF DUP6 DUP3 DUP7 ADD PUSH2 0x14B4 JUMP JUMPDEST SWAP3 POP POP PUSH1 0x20 PUSH2 0x1AC0 DUP6 DUP3 DUP7 ADD PUSH2 0x1741 JUMP JUMPDEST SWAP2 POP POP SWAP3 POP SWAP3 SWAP1 POP JUMP JUMPDEST PUSH0 PUSH0 PUSH1 0x40 DUP4 DUP6 SUB SLT ISZERO PUSH2 0x1AE0 JUMPI PUSH2 0x1ADF PUSH2 0x139D JUMP JUMPDEST JUMPDEST PUSH0 DUP4 ADD CALLDATALOAD PUSH8 0xFFFFFFFFFFFFFFFF DUP2 GT ISZERO PUSH2 0x1AFD JUMPI PUSH2 0x1AFC PUSH2 0x13A1 JUMP JUMPDEST JUMPDEST PUSH2 0x1B09 DUP6 DUP3 DUP7 ADD PUSH2 0x14B4 JUMP JUMPDEST SWAP3 POP POP PUSH1 0x20 PUSH2 0x1B1A DUP6 DUP3 DUP7 ADD PUSH2 0x18FE JUMP JUMPDEST SWAP2 POP POP SWAP3 POP SWAP3 SWAP1 POP JUMP JUMPDEST PUSH0 PUSH1 0x20 DUP3 ADD SWAP1 POP DUP2 DUP2 SUB PUSH0 DUP4 ADD MSTORE PUSH2 0x1B3C DUP2 DUP5 PUSH2 0x15AE JUMP JUMPDEST SWAP1 POP SWAP3 SWAP2 POP POP JUMP JUMPDEST PUSH32 0x4E6F7420617574686F72697A6564204C616272617269616E0000000000000000 PUSH0 DUP3 ADD MSTORE POP JUMP JUMPDEST PUSH0 PUSH2 0x1B78 PUSH1 0x18 DUP4 PUSH2 0x1590 JUMP JUMPDEST SWAP2 POP PUSH2 0x1B83 DUP3 PUSH2 0x1B44 JUMP JUMPDEST PUSH1 0x20 DUP3 ADD SWAP1 POP SWAP2 SWAP1 POP JUMP JUMPDEST PUSH0 PUSH1 0x20 DUP3 ADD SWAP1 POP DUP2 DUP2 SUB PUSH0 DUP4 ADD MSTORE PUSH2 0x1BA5 DUP2 PUSH2 0x1B6C JUMP JUMPDEST SWAP1 POP SWAP2 SWAP1 POP JUMP JUMPDEST PUSH0 DUP2 SWAP1 POP SWAP3 SWAP2 POP POP JUMP JUMPDEST PUSH0 PUSH2 0x1BC0 DUP3 PUSH2 0x1586 JUMP JUMPDEST PUSH2 0x1BCA DUP2 DUP6 PUSH2 0x1BAC JUMP JUMPDEST SWAP4 POP PUSH2 0x1BDA DUP2 DUP6 PUSH1 0x20 DUP7 ADD PUSH2 0x15A0 JUMP JUMPDEST DUP1 DUP5 ADD SWAP2 POP POP SWAP3 SWAP2 POP POP JUMP JUMPDEST PUSH0 PUSH2 0x1BF1 DUP3 DUP5 PUSH2 0x1BB6 JUMP JUMPDEST SWAP2 POP DUP2 SWAP1 POP SWAP3 SWAP2 POP POP JUMP JUMPDEST PUSH32 0x4E487B7100000000000000000000000000000000000000000000000000000000 PUSH0 MSTORE PUSH1 0x22 PUSH1 0x4 MSTORE PUSH1 0x24 PUSH0 REVERT JUMPDEST PUSH0 PUSH1 0x2 DUP3 DIV SWAP1 POP PUSH1 0x1 DUP3 AND DUP1 PUSH2 0x1C40 JUMPI PUSH1 0x7F DUP3 AND SWAP2 POP JUMPDEST PUSH1 0x20 DUP3 LT DUP2 SUB PUSH2 0x1C53 JUMPI PUSH2 0x1C52 PUSH2 0x1BFC JUMP JUMPDEST JUMPDEST POP SWAP2 SWAP1 POP JUMP JUMPDEST PUSH32 0x426F6F6B20646F65736E27742065786973740000000000000000000000000000 PUSH0 DUP3 ADD MSTORE POP JUMP JUMPDEST PUSH0 PUSH2 0x1C8D PUSH1 0x12 DUP4 PUSH2 0x1590 JUMP JUMPDEST SWAP2 POP PUSH2 0x1C98 DUP3 PUSH2 0x1C59 JUMP JUMPDEST PUSH1 0x20 DUP3 ADD SWAP1 POP SWAP2 SWAP1 POP JUMP JUMPDEST PUSH0 PUSH1 0x20 DUP3 ADD SWAP1 POP DUP2 DUP2 SUB PUSH0 DUP4 ADD MSTORE PUSH2 0x1CBA DUP2 PUSH2 0x1C81 JUMP JUMPDEST SWAP1 POP SWAP2 SWAP1 POP JUMP JUMPDEST PUSH32 0x5468697320626F6F6B2068617320657870697265640000000000000000000000 PUSH0 DUP3 ADD MSTORE POP JUMP JUMPDEST PUSH0 PUSH2 0x1CF5 PUSH1 0x15 DUP4 PUSH2 0x1590 JUMP JUMPDEST SWAP2 POP PUSH2 0x1D00 DUP3 PUSH2 0x1CC1 JUMP JUMPDEST PUSH1 0x20 DUP3 ADD SWAP1 POP SWAP2 SWAP1 POP JUMP JUMPDEST PUSH0 PUSH1 0x20 DUP3 ADD SWAP1 POP DUP2 DUP2 SUB PUSH0 DUP4 ADD MSTORE PUSH2 0x1D22 DUP2 PUSH2 0x1CE9 JUMP JUMPDEST SWAP1 POP SWAP2 SWAP1 POP JUMP JUMPDEST PUSH32 0x4E487B7100000000000000000000000000000000000000000000000000000000 PUSH0 MSTORE PUSH1 0x11 PUSH1 0x4 MSTORE PUSH1 0x24 PUSH0 REVERT JUMPDEST PUSH0 PUSH2 0x1D60 DUP3 PUSH2 0x15E6 JUMP JUMPDEST SWAP2 POP PUSH2 0x1D6B DUP4 PUSH2 0x15E6 JUMP JUMPDEST SWAP3 POP DUP3 DUP3 ADD SWAP1 POP DUP1 DUP3 GT ISZERO PUSH2 0x1D83 JUMPI PUSH2 0x1D82 PUSH2 0x1D29 JUMP JUMPDEST JUMPDEST SWAP3 SWAP2 POP POP JUMP JUMPDEST PUSH32 0x496E76616C69642045787069726174696F6E2044617973000000000000000000 PUSH0 DUP3 ADD MSTORE POP JUMP JUMPDEST PUSH0 PUSH2 0x1DBD PUSH1 0x17 DUP4 PUSH2 0x1590 JUMP JUMPDEST SWAP2 POP PUSH2 0x1DC8 DUP3 PUSH2 0x1D89 JUMP JUMPDEST PUSH1 0x20 DUP3 ADD SWAP1 POP SWAP2 SWAP1 POP JUMP JUMPDEST PUSH0 PUSH1 0x20 DUP3 ADD SWAP1 POP DUP2 DUP2 SUB PUSH0 DUP4 ADD MSTORE PUSH2 0x1DEA DUP2 PUSH2 0x1DB1 JUMP JUMPDEST SWAP1 POP SWAP2 SWAP1 POP JUMP JUMPDEST PUSH0 DUP2 SWAP1 POP DUP2 PUSH0 MSTORE PUSH1 0x20 PUSH0 KECCAK256 SWAP1 POP SWAP2 SWAP1 POP JUMP JUMPDEST PUSH0 PUSH1 0x20 PUSH1 0x1F DUP4 ADD DIV SWAP1 POP SWAP2 SWAP1 POP JUMP JUMPDEST PUSH0 DUP3 DUP3 SHL SWAP1 POP SWAP3 SWAP2 POP POP JUMP JUMPDEST PUSH0 PUSH1 0x8 DUP4 MUL PUSH2 0x1E4D PUSH32 0xFFFFFFFFFFFFFFFFFFFFFFFFFFFFFFFFFFFFFFFFFFFFFFFFFFFFFFFFFFFFFFFF DUP3 PUSH2 0x1E12 JUMP JUMPDEST PUSH2 0x1E57 DUP7 DUP4 PUSH2 0x1E12 JUMP JUMPDEST SWAP6 POP DUP1 NOT DUP5 AND SWAP4 POP DUP1 DUP7 AND DUP5 OR SWAP3 POP POP POP SWAP4 SWAP3 POP POP POP JUMP JUMPDEST PUSH0 DUP2 SWAP1 POP SWAP2 SWAP1 POP JUMP JUMPDEST PUSH0 PUSH2 0x1E92 PUSH2 0x1E8D PUSH2 0x1E88 DUP5 PUSH2 0x15E6 JUMP JUMPDEST PUSH2 0x1E6F JUMP JUMPDEST PUSH2 0x15E6 JUMP JUMPDEST SWAP1 POP SWAP2 SWAP1 POP JUMP JUMPDEST PUSH0 DUP2 SWAP1 POP SWAP2 SWAP1 POP JUMP JUMPDEST PUSH2 0x1EAB DUP4 PUSH2 0x1E78 JUMP JUMPDEST PUSH2 0x1EBF PUSH2 0x1EB7 DUP3 PUSH2 0x1E99 JUMP JUMPDEST DUP5 DUP5 SLOAD PUSH2 0x1E1E JUMP JUMPDEST DUP3 SSTORE POP POP POP POP JUMP JUMPDEST PUSH0 PUSH0 SWAP1 POP SWAP1 JUMP JUMPDEST PUSH2 0x1ED6 PUSH2 0x1EC7 JUMP JUMPDEST PUSH2 0x1EE1 DUP2 DUP5 DUP5 PUSH2 0x1EA2 JUMP JUMPDEST POP POP POP JUMP JUMPDEST JUMPDEST DUP2 DUP2 LT ISZERO PUSH2 0x1F04 JUMPI PUSH2 0x1EF9 PUSH0 DUP3 PUSH2 0x1ECE JUMP JUMPDEST PUSH1 0x1 DUP2 ADD SWAP1 POP PUSH2 0x1EE7 JUMP JUMPDEST POP POP JUMP JUMPDEST PUSH1 0x1F DUP3 GT ISZERO PUSH2 0x1F49 JUMPI PUSH2 0x1F1A DUP2 PUSH2 0x1DF1 JUMP JUMPDEST PUSH2 0x1F23 DUP5 PUSH2 0x1E03 JUMP JUMPDEST DUP2 ADD PUSH1 0x20 DUP6 LT ISZERO PUSH2 0x1F32 JUMPI DUP2 SWAP1 POP JUMPDEST PUSH2 0x1F46 PUSH2 0x1F3E DUP6 PUSH2 0x1E03 JUMP JUMPDEST DUP4 ADD DUP3 PUSH2 0x1EE6 JUMP JUMPDEST POP POP JUMPDEST POP POP POP JUMP JUMPDEST PUSH0 DUP3 DUP3 SHR SWAP1 POP SWAP3 SWAP2 POP POP JUMP JUMPDEST PUSH0 PUSH2 0x1F69 PUSH0 NOT DUP5 PUSH1 0x8 MUL PUSH2 0x1F4E JUMP JUMPDEST NOT DUP1 DUP4 AND SWAP2 POP POP SWAP3 SWAP2 POP POP JUMP JUMPDEST PUSH0 PUSH2 0x1F81 DUP4 DUP4 PUSH2 0x1F5A JUMP JUMPDEST SWAP2 POP DUP3 PUSH1 0x2 MUL DUP3 OR SWAP1 POP SWAP3 SWAP2 POP POP JUMP JUMPDEST PUSH2 0x1F9A DUP3 PUSH2 0x1586 JUMP JUMPDEST PUSH8 0xFFFFFFFFFFFFFFFF DUP2 GT ISZERO PUSH2 0x1FB3 JUMPI PUSH2 0x1FB2 PUSH2 0x13BD JUMP JUMPDEST JUMPDEST PUSH2 0x1FBD DUP3 SLOAD PUSH2 0x1C29 JUMP JUMPDEST PUSH2 0x1FC8 DUP3 DUP3 DUP6 PUSH2 0x1F08 JUMP JUMPDEST PUSH0 PUSH1 0x20 SWAP1 POP PUSH1 0x1F DUP4 GT PUSH1 0x1 DUP2 EQ PUSH2 0x1FF9 JUMPI PUSH0 DUP5 ISZERO PUSH2 0x1FE7 JUMPI DUP3 DUP8 ADD MLOAD SWAP1 POP JUMPDEST PUSH2 0x1FF1 DUP6 DUP3 PUSH2 0x1F76 JUMP JUMPDEST DUP7 SSTORE POP PUSH2 0x2058 JUMP JUMPDEST PUSH1 0x1F NOT DUP5 AND PUSH2 0x2007 DUP7 PUSH2 0x1DF1 JUMP JUMPDEST PUSH0 JUMPDEST DUP3 DUP2 LT ISZERO PUSH2 0x202E JUMPI DUP5 DUP10 ADD MLOAD DUP3 SSTORE PUSH1 0x1 DUP3 ADD SWAP2 POP PUSH1 0x20 DUP6 ADD SWAP5 POP PUSH1 0x20 DUP2 ADD SWAP1 POP PUSH2 0x2009 JUMP JUMPDEST DUP7 DUP4 LT ISZERO PUSH2 0x204B JUMPI DUP5 DUP10 ADD MLOAD PUSH2 0x2047 PUSH1 0x1F DUP10 AND DUP3 PUSH2 0x1F5A JUMP JUMPDEST DUP4 SSTORE POP JUMPDEST PUSH1 0x1 PUSH1 0x2 DUP9 MUL ADD DUP9 SSTORE POP POP POP JUMPDEST POP POP POP POP POP POP JUMP JUMPDEST PUSH0 PUSH2 0x206A DUP3 PUSH2 0x15E6 JUMP JUMPDEST SWAP2 POP PUSH2 0x2075 DUP4 PUSH2 0x15E6 JUMP JUMPDEST SWAP3 POP DUP3 DUP3 MUL PUSH2 0x2083 DUP2 PUSH2 0x15E6 JUMP JUMPDEST SWAP2 POP DUP3 DUP3 DIV DUP5 EQ DUP4 ISZERO OR PUSH2 0x209A JUMPI PUSH2 0x2099 PUSH2 0x1D29 JUMP JUMPDEST JUMPDEST POP SWAP3 SWAP2 POP POP JUMP JUMPDEST PUSH32 0x4F6E6C79207072696D617279206C696272617269616E2063616E20616464206F PUSH0 DUP3 ADD MSTORE PUSH32 0x7468657273000000000000000000000000000000000000000000000000000000 PUSH1 0x20 DUP3 ADD MSTORE POP JUMP JUMPDEST PUSH0 PUSH2 0x20FB PUSH1 0x25 DUP4 PUSH2 0x1590 JUMP JUMPDEST SWAP2 POP PUSH2 0x2106 DUP3 PUSH2 0x20A1 JUMP JUMPDEST PUSH1 0x40 DUP3 ADD SWAP1 POP SWAP2 SWAP1 POP JUMP JUMPDEST PUSH0 PUSH1 0x20 DUP3 ADD SWAP1 POP DUP2 DUP2 SUB PUSH0 DUP4 ADD MSTORE PUSH2 0x2128 DUP2 PUSH2 0x20EF JUMP JUMPDEST SWAP1 POP SWAP2 SWAP1 POP JUMP JUMPDEST PUSH32 0x2065787069726174696F6E20657874656E646564206279200000000000000000 PUSH0 DUP3 ADD MSTORE POP JUMP JUMPDEST PUSH0 PUSH2 0x2163 PUSH1 0x18 DUP4 PUSH2 0x1BAC JUMP JUMPDEST SWAP2 POP PUSH2 0x216E DUP3 PUSH2 0x212F JUMP JUMPDEST PUSH1 0x18 DUP3 ADD SWAP1 POP SWAP2 SWAP1 POP JUMP JUMPDEST PUSH32 0x2064617973000000000000000000000000000000000000000000000000000000 PUSH0 DUP3 ADD MSTORE POP JUMP JUMPDEST PUSH0 PUSH2 0x21AD PUSH1 0x5 DUP4 PUSH2 0x1BAC JUMP JUMPDEST SWAP2 POP PUSH2 0x21B8 DUP3 PUSH2 0x2179 JUMP JUMPDEST PUSH1 0x5 DUP3 ADD SWAP1 POP SWAP2 SWAP1 POP JUMP JUMPDEST PUSH0 PUSH2 0x21CE DUP3 DUP6 PUSH2 0x1BB6 JUMP JUMPDEST SWAP2 POP PUSH2 0x21D9 DUP3 PUSH2 0x2157 JUMP JUMPDEST SWAP2 POP PUSH2 0x21E5 DUP3 DUP5 PUSH2 0x1BB6 JUMP JUMPDEST SWAP2 POP PUSH2 0x21F0 DUP3 PUSH2 0x21A1 JUMP JUMPDEST SWAP2 POP DUP2 SWAP1 POP SWAP4 SWAP3 POP POP POP JUMP JUMPDEST PUSH32 0x4E487B7100000000000000000000000000000000000000000000000000000000 PUSH0 MSTORE PUSH1 0x12 PUSH1 0x4 MSTORE PUSH1 0x24 PUSH0 REVERT INVALID LOG2 PUSH5 0x6970667358 0x22 SLT KECCAK256 DUP4 BLOCKHASH 0xD1 CALLER SWAP14 SELFDESTRUCT DUP16 0xDB PUSH29 0xE8CB03284CAD3700BC81247B0F744FBB1DA30BCA22E4FB64736F6C6343 STOP ADDMOD SHR STOP CALLER "
		},
		"gasEstimates": {
			"creation": {
				"codeDepositCost": "1759800",
				"executionCost": "50463",
				"totalCost": "1810263"
			},
			"external": {
				"authorizedLibrerians(address)": "2878",
				"books(bytes32)": "infinite",
				"changeBookStatus(string,uint8)": "infinite",
				"digitalBook(string,string,uint256,uint8,uint256)": "infinite",
				"extendExpirationDate(string,uint256)": "infinite",
				"getBookInfo(string)": "infinite",
				"owner()": "2551",
				"readBookCount(string)": "infinite",
				"setAuthorizedLibrarians(string,address)": "infinite"
			}
		},
		"methodIdentifiers": {
			"authorizedLibrerians(address)": "1223346e",
			"books(bytes32)": "0c0dee70",
			"changeBookStatus(string,uint8)": "7912e544",
			"digitalBook(string,string,uint256,uint8,uint256)": "6645d610",
			"extendExpirationDate(string,uint256)": "ee590c4e",
			"getBookInfo(string)": "35d498fc",
			"owner()": "8da5cb5b",
			"readBookCount(string)": "0b2024ff",
			"setAuthorizedLibrarians(string,address)": "a2b54f6b"
		}
	},
	"abi": [
		{
			"inputs": [],
			"stateMutability": "nonpayable",
			"type": "constructor"
		},
		{
			"inputs": [
				{
					"internalType": "address",
					"name": "",
					"type": "address"
				}
			],
			"name": "authorizedLibrerians",
			"outputs": [
				{
					"internalType": "bool",
					"name": "",
					"type": "bool"
				}
			],
			"stateMutability": "view",
			"type": "function"
		},
		{
			"inputs": [
				{
					"internalType": "bytes32",
					"name": "",
					"type": "bytes32"
				}
			],
			"name": "books",
			"outputs": [
				{
					"internalType": "string",
					"name": "title",
					"type": "string"
				},
				{
					"internalType": "string",
					"name": "author",
					"type": "string"
				},
				{
					"internalType": "uint256",
					"name": "publicationDate",
					"type": "uint256"
				},
				{
					"internalType": "uint256",
					"name": "expirationDate",
					"type": "uint256"
				},
				{
					"internalType": "enum digitalLibrary.BookStatus",
					"name": "status",
					"type": "uint8"
				},
				{
					"internalType": "address",
					"name": "primaryLibrarian",
					"type": "address"
				},
				{
					"internalType": "uint256",
					"name": "readCount",
					"type": "uint256"
				}
			],
			"stateMutability": "view",
			"type": "function"
		},
		{
			"inputs": [
				{
					"internalType": "string",
					"name": "_title",
					"type": "string"
				},
				{
					"internalType": "enum digitalLibrary.BookStatus",
					"name": "_newStatus",
					"type": "uint8"
				}
			],
			"name": "changeBookStatus",
			"outputs": [
				{
					"internalType": "enum digitalLibrary.BookStatus",
					"name": "",
					"type": "uint8"
				}
			],
			"stateMutability": "nonpayable",
			"type": "function"
		},
		{
			"inputs": [
				{
					"internalType": "string",
					"name": "_title",
					"type": "string"
				},
				{
					"internalType": "string",
					"name": "_author",
					"type": "string"
				},
				{
					"internalType": "uint256",
					"name": "_expirationDays",
					"type": "uint256"
				},
				{
					"internalType": "enum digitalLibrary.BookStatus",
					"name": "_status",
					"type": "uint8"
				},
				{
					"internalType": "uint256",
					"name": "_readCount",
					"type": "uint256"
				}
			],
			"name": "digitalBook",
			"outputs": [],
			"stateMutability": "nonpayable",
			"type": "function"
		},
		{
			"inputs": [
				{
					"internalType": "string",
					"name": "_title",
					"type": "string"
				},
				{
					"internalType": "uint256",
					"name": "addExpirationDays",
					"type": "uint256"
				}
			],
			"name": "extendExpirationDate",
			"outputs": [
				{
					"internalType": "string",
					"name": "",
					"type": "string"
				}
			],
			"stateMutability": "nonpayable",
			"type": "function"
		},
		{
			"inputs": [
				{
					"internalType": "string",
					"name": "_title",
					"type": "string"
				}
			],
			"name": "getBookInfo",
			"outputs": [
				{
					"components": [
						{
							"internalType": "string",
							"name": "title",
							"type": "string"
						},
						{
							"internalType": "string",
							"name": "author",
							"type": "string"
						},
						{
							"internalType": "uint256",
							"name": "publicationDate",
							"type": "uint256"
						},
						{
							"internalType": "uint256",
							"name": "expirationDate",
							"type": "uint256"
						},
						{
							"internalType": "enum digitalLibrary.BookStatus",
							"name": "status",
							"type": "uint8"
						},
						{
							"internalType": "address",
							"name": "primaryLibrarian",
							"type": "address"
						},
						{
							"internalType": "uint256",
							"name": "readCount",
							"type": "uint256"
						}
					],
					"internalType": "struct digitalLibrary.EBook",
					"name": "",
					"type": "tuple"
				}
			],
			"stateMutability": "nonpayable",
			"type": "function"
		},
		{
			"inputs": [],
			"name": "owner",
			"outputs": [
				{
					"internalType": "address",
					"name": "",
					"type": "address"
				}
			],
			"stateMutability": "view",
			"type": "function"
		},
		{
			"inputs": [
				{
					"internalType": "string",
					"name": "_title",
					"type": "string"
				}
			],
			"name": "readBookCount",
			"outputs": [],
			"stateMutability": "nonpayable",
			"type": "function"
		},
		{
			"inputs": [
				{
					"internalType": "string",
					"name": "_title",
					"type": "string"
				},
				{
					"internalType": "address",
					"name": "_address",
					"type": "address"
				}
			],
			"name": "setAuthorizedLibrarians",
			"outputs": [],
			"stateMutability": "nonpayable",
			"type": "function"
		}
	]
}