{
	"data": {
		"bytecode": {
			"linkReferences": {},
			"object": "6080604052348015600e575f5ffd5b506040516102d83803806102d88339818101604052810190602e91906075565b81805f819055505080600181905550505060ac565b5f5ffd5b5f819050919050565b6057816047565b81146060575f5ffd5b50565b5f81519050606f816050565b92915050565b5f5f6040838503121560885760876043565b5b5f6093858286016063565b925050602060a2858286016063565b9150509250929050565b61021f806100b95f395ff3fe608060405234801561000f575f5ffd5b5060043610610060575f3560e01c806306ed23421461006457806323fd0e4014610082578063bb8feb9a146100a0578063d0943083146100be578063f2c9ecd8146100dc578063f5ecb2f0146100fa575b5f5ffd5b61006c610118565b6040516100799190610170565b60405180910390f35b61008a61011e565b6040516100979190610170565b60405180910390f35b6100a8610123565b6040516100b59190610170565b60405180910390f35b6100c6610141565b6040516100d39190610170565b60405180910390f35b6100e4610147565b6040516100f19190610170565b60405180910390f35b61010261014f565b60405161010f9190610170565b60405180910390f35b60015481565b5f5481565b5f5f5460015461013391906101b6565b600281905550600254905090565b60025481565b5f5f54905090565b5f600154905090565b5f819050919050565b61016a81610158565b82525050565b5f6020820190506101835f830184610161565b92915050565b7f4e487b71000000000000000000000000000000000000000000000000000000005f52601160045260245ffd5b5f6101c082610158565b91506101cb83610158565b92508282019050808211156101e3576101e2610189565b5b9291505056fea2646970667358221220815c85d2e11fd4e2b46f76e7db26b45417d6252977ef9d155bc79d0ff85bd6ca64736f6c634300081c0033",
			"opcodes": "PUSH1 0x80 PUSH1 0x40 MSTORE CALLVALUE DUP1 ISZERO PUSH1 0xE JUMPI PUSH0 PUSH0 REVERT JUMPDEST POP PUSH1 0x40 MLOAD PUSH2 0x2D8 CODESIZE SUB DUP1 PUSH2 0x2D8 DUP4 CODECOPY DUP2 DUP2 ADD PUSH1 0x40 MSTORE DUP2 ADD SWAP1 PUSH1 0x2E SWAP2 SWAP1 PUSH1 0x75 JUMP JUMPDEST DUP2 DUP1 PUSH0 DUP2 SWAP1 SSTORE POP POP DUP1 PUSH1 0x1 DUP2 SWAP1 SSTORE POP POP POP PUSH1 0xAC JUMP JUMPDEST PUSH0 PUSH0 REVERT JUMPDEST PUSH0 DUP2 SWAP1 POP SWAP2 SWAP1 POP JUMP JUMPDEST PUSH1 0x57 DUP2 PUSH1 0x47 JUMP JUMPDEST DUP2 EQ PUSH1 0x60 JUMPI PUSH0 PUSH0 REVERT JUMPDEST POP JUMP JUMPDEST PUSH0 DUP2 MLOAD SWAP1 POP PUSH1 0x6F DUP2 PUSH1 0x50 JUMP JUMPDEST SWAP3 SWAP2 POP POP JUMP JUMPDEST PUSH0 PUSH0 PUSH1 0x40 DUP4 DUP6 SUB SLT ISZERO PUSH1 0x88 JUMPI PUSH1 0x87 PUSH1 0x43 JUMP JUMPDEST JUMPDEST PUSH0 PUSH1 0x93 DUP6 DUP3 DUP7 ADD PUSH1 0x63 JUMP JUMPDEST SWAP3 POP POP PUSH1 0x20 PUSH1 0xA2 DUP6 DUP3 DUP7 ADD PUSH1 0x63 JUMP JUMPDEST SWAP2 POP POP SWAP3 POP SWAP3 SWAP1 POP JUMP JUMPDEST PUSH2 0x21F DUP1 PUSH2 0xB9 PUSH0 CODECOPY PUSH0 RETURN INVALID PUSH1 0x80 PUSH1 0x40 MSTORE CALLVALUE DUP1 ISZERO PUSH2 0xF JUMPI PUSH0 PUSH0 REVERT JUMPDEST POP PUSH1 0x4 CALLDATASIZE LT PUSH2 0x60 JUMPI PUSH0 CALLDATALOAD PUSH1 0xE0 SHR DUP1 PUSH4 0x6ED2342 EQ PUSH2 0x64 JUMPI DUP1 PUSH4 0x23FD0E40 EQ PUSH2 0x82 JUMPI DUP1 PUSH4 0xBB8FEB9A EQ PUSH2 0xA0 JUMPI DUP1 PUSH4 0xD0943083 EQ PUSH2 0xBE JUMPI DUP1 PUSH4 0xF2C9ECD8 EQ PUSH2 0xDC JUMPI DUP1 PUSH4 0xF5ECB2F0 EQ PUSH2 0xFA JUMPI JUMPDEST PUSH0 PUSH0 REVERT JUMPDEST PUSH2 0x6C PUSH2 0x118 JUMP JUMPDEST PUSH1 0x40 MLOAD PUSH2 0x79 SWAP2 SWAP1 PUSH2 0x170 JUMP JUMPDEST PUSH1 0x40 MLOAD DUP1 SWAP2 SUB SWAP1 RETURN JUMPDEST PUSH2 0x8A PUSH2 0x11E JUMP JUMPDEST PUSH1 0x40 MLOAD PUSH2 0x97 SWAP2 SWAP1 PUSH2 0x170 JUMP JUMPDEST PUSH1 0x40 MLOAD DUP1 SWAP2 SUB SWAP1 RETURN JUMPDEST PUSH2 0xA8 PUSH2 0x123 JUMP JUMPDEST PUSH1 0x40 MLOAD PUSH2 0xB5 SWAP2 SWAP1 PUSH2 0x170 JUMP JUMPDEST PUSH1 0x40 MLOAD DUP1 SWAP2 SUB SWAP1 RETURN JUMPDEST PUSH2 0xC6 PUSH2 0x141 JUMP JUMPDEST PUSH1 0x40 MLOAD PUSH2 0xD3 SWAP2 SWAP1 PUSH2 0x170 JUMP JUMPDEST PUSH1 0x40 MLOAD DUP1 SWAP2 SUB SWAP1 RETURN JUMPDEST PUSH2 0xE4 PUSH2 0x147 JUMP JUMPDEST PUSH1 0x40 MLOAD PUSH2 0xF1 SWAP2 SWAP1 PUSH2 0x170 JUMP JUMPDEST PUSH1 0x40 MLOAD DUP1 SWAP2 SUB SWAP1 RETURN JUMPDEST PUSH2 0x102 PUSH2 0x14F JUMP JUMPDEST PUSH1 0x40 MLOAD PUSH2 0x10F SWAP2 SWAP1 PUSH2 0x170 JUMP JUMPDEST PUSH1 0x40 MLOAD DUP1 SWAP2 SUB SWAP1 RETURN JUMPDEST PUSH1 0x1 SLOAD DUP2 JUMP JUMPDEST PUSH0 SLOAD DUP2 JUMP JUMPDEST PUSH0 PUSH0 SLOAD PUSH1 0x1 SLOAD PUSH2 0x133 SWAP2 SWAP1 PUSH2 0x1B6 JUMP JUMPDEST PUSH1 0x2 DUP2 SWAP1 SSTORE POP PUSH1 0x2 SLOAD SWAP1 POP SWAP1 JUMP JUMPDEST PUSH1 0x2 SLOAD DUP2 JUMP JUMPDEST PUSH0 PUSH0 SLOAD SWAP1 POP SWAP1 JUMP JUMPDEST PUSH0 PUSH1 0x1 SLOAD SWAP1 POP SWAP1 JUMP JUMPDEST PUSH0 DUP2 SWAP1 POP SWAP2 SWAP1 POP JUMP JUMPDEST PUSH2 0x16A DUP2 PUSH2 0x158 JUMP JUMPDEST DUP3 MSTORE POP POP JUMP JUMPDEST PUSH0 PUSH1 0x20 DUP3 ADD SWAP1 POP PUSH2 0x183 PUSH0 DUP4 ADD DUP5 PUSH2 0x161 JUMP JUMPDEST SWAP3 SWAP2 POP POP JUMP JUMPDEST PUSH32 0x4E487B7100000000000000000000000000000000000000000000000000000000 PUSH0 MSTORE PUSH1 0x11 PUSH1 0x4 MSTORE PUSH1 0x24 PUSH0 REVERT JUMPDEST PUSH0 PUSH2 0x1C0 DUP3 PUSH2 0x158 JUMP JUMPDEST SWAP2 POP PUSH2 0x1CB DUP4 PUSH2 0x158 JUMP JUMPDEST SWAP3 POP DUP3 DUP3 ADD SWAP1 POP DUP1 DUP3 GT ISZERO PUSH2 0x1E3 JUMPI PUSH2 0x1E2 PUSH2 0x189 JUMP JUMPDEST JUMPDEST SWAP3 SWAP2 POP POP JUMP INVALID LOG2 PUSH5 0x6970667358 0x22 SLT KECCAK256 DUP2 TLOAD DUP6 0xD2 0xE1 0x1F 0xD4 0xE2 0xB4 PUSH16 0x76E7DB26B45417D6252977EF9D155BC7 SWAP14 0xF 0xF8 JUMPDEST 0xD6 0xCA PUSH5 0x736F6C6343 STOP ADDMOD SHR STOP CALLER "
		},
		"gasEstimates": {
			"creation": {
				"codeDepositCost": "108600",
				"executionCost": "infinite",
				"totalCost": "infinite"
			},
			"external": {
				"childNumber()": "2403",
				"getChildName()": "2520",
				"getNumber()": "2497",
				"getSumOfBoth()": "infinite",
				"myNumber()": "2424",
				"sumOfBoth()": "2469"
			}
		},
		"methodIdentifiers": {
			"childNumber()": "06ed2342",
			"getChildName()": "f5ecb2f0",
			"getNumber()": "f2c9ecd8",
			"getSumOfBoth()": "bb8feb9a",
			"myNumber()": "23fd0e40",
			"sumOfBoth()": "d0943083"
		}
	},
	"abi": [
		{
			"inputs": [
				{
					"internalType": "uint256",
					"name": "_myNumber",
					"type": "uint256"
				},
				{
					"internalType": "uint256",
					"name": "_childNumber",
					"type": "uint256"
				}
			],
			"stateMutability": "nonpayable",
			"type": "constructor"
		},
		{
			"inputs": [],
			"name": "childNumber",
			"outputs": [
				{
					"internalType": "uint256",
					"name": "",
					"type": "uint256"
				}
			],
			"stateMutability": "view",
			"type": "function"
		},
		{
			"inputs": [],
			"name": "getChildName",
			"outputs": [
				{
					"internalType": "uint256",
					"name": "",
					"type": "uint256"
				}
			],
			"stateMutability": "view",
			"type": "function"
		},
		{
			"inputs": [],
			"name": "getNumber",
			"outputs": [
				{
					"internalType": "uint256",
					"name": "",
					"type": "uint256"
				}
			],
			"stateMutability": "view",
			"type": "function"
		},
		{
			"inputs": [],
			"name": "getSumOfBoth",
			"outputs": [
				{
					"internalType": "uint256",
					"name": "",
					"type": "uint256"
				}
			],
			"stateMutability": "nonpayable",
			"type": "function"
		},
		{
			"inputs": [],
			"name": "myNumber",
			"outputs": [
				{
					"internalType": "uint256",
					"name": "",
					"type": "uint256"
				}
			],
			"stateMutability": "view",
			"type": "function"
		},
		{
			"inputs": [],
			"name": "sumOfBoth",
			"outputs": [
				{
					"internalType": "uint256",
					"name": "",
					"type": "uint256"
				}
			],
			"stateMutability": "view",
			"type": "function"
		}
	]
}