{
	"01-exercise/03-billSplitter.sol": {
		"billSplitter": {
			"abi": [
				{
					"inputs": [],
					"name": "UnevenDivision",
					"type": "error"
				},
				{
					"inputs": [],
					"name": "ZeroParticipants",
					"type": "error"
				},
				{
					"inputs": [
						{
							"internalType": "uint256",
							"name": "totalExpenses",
							"type": "uint256"
						},
						{
							"internalType": "uint256",
							"name": "numberOfPeople",
							"type": "uint256"
						}
					],
					"name": "billing",
					"outputs": [],
					"stateMutability": "nonpayable",
					"type": "function"
				},
				{
					"inputs": [],
					"name": "splitExpenses",
					"outputs": [
						{
							"internalType": "uint256",
							"name": "",
							"type": "uint256"
						}
					],
					"stateMutability": "view",
					"type": "function"
				}
			],
			"devdoc": {
				"kind": "dev",
				"methods": {},
				"version": 1
			},
			"evm": {
				"assembly": "    /* \"01-exercise/03-billSplitter.sol\":395:850  contract billSplitter{... */\n  mstore(0x40, 0x80)\n  callvalue\n  dup1\n  iszero\n  tag_1\n  jumpi\n  revert(0x00, 0x00)\ntag_1:\n  pop\n  dataSize(sub_0)\n  dup1\n  dataOffset(sub_0)\n  0x00\n  codecopy\n  0x00\n  return\nstop\n\nsub_0: assembly {\n        /* \"01-exercise/03-billSplitter.sol\":395:850  contract billSplitter{... */\n      mstore(0x40, 0x80)\n      callvalue\n      dup1\n      iszero\n      tag_1\n      jumpi\n      revert(0x00, 0x00)\n    tag_1:\n      pop\n      jumpi(tag_2, lt(calldatasize, 0x04))\n      shr(0xe0, calldataload(0x00))\n      dup1\n      0x1537d5e2\n      eq\n      tag_3\n      jumpi\n      dup1\n      0x1b4f409e\n      eq\n      tag_4\n      jumpi\n    tag_2:\n      revert(0x00, 0x00)\n        /* \"01-exercise/03-billSplitter.sol\":524:847  function billing (uint256 totalExpenses, uint256 numberOfPeople) external{... */\n    tag_3:\n      tag_5\n      0x04\n      dup1\n      calldatasize\n      sub\n      dup2\n      add\n      swap1\n      tag_6\n      swap2\n      swap1\n      tag_7\n      jump\t// in\n    tag_6:\n      tag_8\n      jump\t// in\n    tag_5:\n      stop\n        /* \"01-exercise/03-billSplitter.sol\":429:457  uint256 public splitExpenses */\n    tag_4:\n      tag_9\n      tag_10\n      jump\t// in\n    tag_9:\n      mload(0x40)\n      tag_11\n      swap2\n      swap1\n      tag_12\n      jump\t// in\n    tag_11:\n      mload(0x40)\n      dup1\n      swap2\n      sub\n      swap1\n      return\n        /* \"01-exercise/03-billSplitter.sol\":524:847  function billing (uint256 totalExpenses, uint256 numberOfPeople) external{... */\n    tag_8:\n        /* \"01-exercise/03-billSplitter.sol\":629:630  0 */\n      0x00\n        /* \"01-exercise/03-billSplitter.sol\":611:625  numberOfPeople */\n      dup2\n        /* \"01-exercise/03-billSplitter.sol\":611:630  numberOfPeople == 0 */\n      sub\n        /* \"01-exercise/03-billSplitter.sol\":607:684  if (numberOfPeople == 0) {... */\n      tag_14\n      jumpi\n        /* \"01-exercise/03-billSplitter.sol\":654:672  ZeroParticipants() */\n      mload(0x40)\n      0x36beb19600000000000000000000000000000000000000000000000000000000\n      dup2\n      mstore\n      0x04\n      add\n      mload(0x40)\n      dup1\n      swap2\n      sub\n      swap1\n      revert\n        /* \"01-exercise/03-billSplitter.sol\":607:684  if (numberOfPeople == 0) {... */\n    tag_14:\n        /* \"01-exercise/03-billSplitter.sol\":726:740  numberOfPeople */\n      dup1\n        /* \"01-exercise/03-billSplitter.sol\":710:723  totalExpenses */\n      dup3\n        /* \"01-exercise/03-billSplitter.sol\":710:740  totalExpenses / numberOfPeople */\n      tag_15\n      swap2\n      swap1\n      tag_16\n      jump\t// in\n    tag_15:\n        /* \"01-exercise/03-billSplitter.sol\":694:707  splitExpenses */\n      0x00\n        /* \"01-exercise/03-billSplitter.sol\":694:740  splitExpenses = totalExpenses / numberOfPeople */\n      dup2\n      swap1\n      sstore\n      pop\n        /* \"01-exercise/03-billSplitter.sol\":788:789  0 */\n      0x00\n        /* \"01-exercise/03-billSplitter.sol\":770:784  numberOfPeople */\n      dup2\n        /* \"01-exercise/03-billSplitter.sol\":754:767  totalExpenses */\n      dup4\n        /* \"01-exercise/03-billSplitter.sol\":754:784  totalExpenses % numberOfPeople */\n      tag_17\n      swap2\n      swap1\n      tag_18\n      jump\t// in\n    tag_17:\n        /* \"01-exercise/03-billSplitter.sol\":754:789  totalExpenses % numberOfPeople != 0 */\n      eq\n        /* \"01-exercise/03-billSplitter.sol\":751:840  if(totalExpenses % numberOfPeople != 0){... */\n      tag_19\n      jumpi\n        /* \"01-exercise/03-billSplitter.sol\":812:828  UnevenDivision() */\n      mload(0x40)\n      0xe2eace0d00000000000000000000000000000000000000000000000000000000\n      dup2\n      mstore\n      0x04\n      add\n      mload(0x40)\n      dup1\n      swap2\n      sub\n      swap1\n      revert\n        /* \"01-exercise/03-billSplitter.sol\":751:840  if(totalExpenses % numberOfPeople != 0){... */\n    tag_19:\n        /* \"01-exercise/03-billSplitter.sol\":524:847  function billing (uint256 totalExpenses, uint256 numberOfPeople) external{... */\n      pop\n      pop\n      jump\t// out\n        /* \"01-exercise/03-billSplitter.sol\":429:457  uint256 public splitExpenses */\n    tag_10:\n      sload(0x00)\n      dup2\n      jump\t// out\n        /* \"#utility.yul\":88:205   */\n    tag_21:\n        /* \"#utility.yul\":197:198   */\n      0x00\n        /* \"#utility.yul\":194:195   */\n      0x00\n        /* \"#utility.yul\":187:199   */\n      revert\n        /* \"#utility.yul\":334:411   */\n    tag_23:\n        /* \"#utility.yul\":371:378   */\n      0x00\n        /* \"#utility.yul\":400:405   */\n      dup2\n        /* \"#utility.yul\":389:405   */\n      swap1\n      pop\n        /* \"#utility.yul\":334:411   */\n      swap2\n      swap1\n      pop\n      jump\t// out\n        /* \"#utility.yul\":417:539   */\n    tag_24:\n        /* \"#utility.yul\":490:514   */\n      tag_35\n        /* \"#utility.yul\":508:513   */\n      dup2\n        /* \"#utility.yul\":490:514   */\n      tag_23\n      jump\t// in\n    tag_35:\n        /* \"#utility.yul\":483:488   */\n      dup2\n        /* \"#utility.yul\":480:515   */\n      eq\n        /* \"#utility.yul\":470:533   */\n      tag_36\n      jumpi\n        /* \"#utility.yul\":529:530   */\n      0x00\n        /* \"#utility.yul\":526:527   */\n      0x00\n        /* \"#utility.yul\":519:531   */\n      revert\n        /* \"#utility.yul\":470:533   */\n    tag_36:\n        /* \"#utility.yul\":417:539   */\n      pop\n      jump\t// out\n        /* \"#utility.yul\":545:684   */\n    tag_25:\n        /* \"#utility.yul\":591:596   */\n      0x00\n        /* \"#utility.yul\":629:635   */\n      dup2\n        /* \"#utility.yul\":616:636   */\n      calldataload\n        /* \"#utility.yul\":607:636   */\n      swap1\n      pop\n        /* \"#utility.yul\":645:678   */\n      tag_38\n        /* \"#utility.yul\":672:677   */\n      dup2\n        /* \"#utility.yul\":645:678   */\n      tag_24\n      jump\t// in\n    tag_38:\n        /* \"#utility.yul\":545:684   */\n      swap3\n      swap2\n      pop\n      pop\n      jump\t// out\n        /* \"#utility.yul\":690:1164   */\n    tag_7:\n        /* \"#utility.yul\":758:764   */\n      0x00\n        /* \"#utility.yul\":766:772   */\n      0x00\n        /* \"#utility.yul\":815:817   */\n      0x40\n        /* \"#utility.yul\":803:812   */\n      dup4\n        /* \"#utility.yul\":794:801   */\n      dup6\n        /* \"#utility.yul\":790:813   */\n      sub\n        /* \"#utility.yul\":786:818   */\n      slt\n        /* \"#utility.yul\":783:902   */\n      iszero\n      tag_40\n      jumpi\n        /* \"#utility.yul\":821:900   */\n      tag_41\n      tag_21\n      jump\t// in\n    tag_41:\n        /* \"#utility.yul\":783:902   */\n    tag_40:\n        /* \"#utility.yul\":941:942   */\n      0x00\n        /* \"#utility.yul\":966:1019   */\n      tag_42\n        /* \"#utility.yul\":1011:1018   */\n      dup6\n        /* \"#utility.yul\":1002:1008   */\n      dup3\n        /* \"#utility.yul\":991:1000   */\n      dup7\n        /* \"#utility.yul\":987:1009   */\n      add\n        /* \"#utility.yul\":966:1019   */\n      tag_25\n      jump\t// in\n    tag_42:\n        /* \"#utility.yul\":956:1019   */\n      swap3\n      pop\n        /* \"#utility.yul\":912:1029   */\n      pop\n        /* \"#utility.yul\":1068:1070   */\n      0x20\n        /* \"#utility.yul\":1094:1147   */\n      tag_43\n        /* \"#utility.yul\":1139:1146   */\n      dup6\n        /* \"#utility.yul\":1130:1136   */\n      dup3\n        /* \"#utility.yul\":1119:1128   */\n      dup7\n        /* \"#utility.yul\":1115:1137   */\n      add\n        /* \"#utility.yul\":1094:1147   */\n      tag_25\n      jump\t// in\n    tag_43:\n        /* \"#utility.yul\":1084:1147   */\n      swap2\n      pop\n        /* \"#utility.yul\":1039:1157   */\n      pop\n        /* \"#utility.yul\":690:1164   */\n      swap3\n      pop\n      swap3\n      swap1\n      pop\n      jump\t// out\n        /* \"#utility.yul\":1170:1288   */\n    tag_26:\n        /* \"#utility.yul\":1257:1281   */\n      tag_45\n        /* \"#utility.yul\":1275:1280   */\n      dup2\n        /* \"#utility.yul\":1257:1281   */\n      tag_23\n      jump\t// in\n    tag_45:\n        /* \"#utility.yul\":1252:1255   */\n      dup3\n        /* \"#utility.yul\":1245:1282   */\n      mstore\n        /* \"#utility.yul\":1170:1288   */\n      pop\n      pop\n      jump\t// out\n        /* \"#utility.yul\":1294:1516   */\n    tag_12:\n        /* \"#utility.yul\":1387:1391   */\n      0x00\n        /* \"#utility.yul\":1425:1427   */\n      0x20\n        /* \"#utility.yul\":1414:1423   */\n      dup3\n        /* \"#utility.yul\":1410:1428   */\n      add\n        /* \"#utility.yul\":1402:1428   */\n      swap1\n      pop\n        /* \"#utility.yul\":1438:1509   */\n      tag_47\n        /* \"#utility.yul\":1506:1507   */\n      0x00\n        /* \"#utility.yul\":1495:1504   */\n      dup4\n        /* \"#utility.yul\":1491:1508   */\n      add\n        /* \"#utility.yul\":1482:1488   */\n      dup5\n        /* \"#utility.yul\":1438:1509   */\n      tag_26\n      jump\t// in\n    tag_47:\n        /* \"#utility.yul\":1294:1516   */\n      swap3\n      swap2\n      pop\n      pop\n      jump\t// out\n        /* \"#utility.yul\":1522:1702   */\n    tag_27:\n        /* \"#utility.yul\":1570:1647   */\n      0x4e487b7100000000000000000000000000000000000000000000000000000000\n        /* \"#utility.yul\":1567:1568   */\n      0x00\n        /* \"#utility.yul\":1560:1648   */\n      mstore\n        /* \"#utility.yul\":1667:1671   */\n      0x12\n        /* \"#utility.yul\":1664:1665   */\n      0x04\n        /* \"#utility.yul\":1657:1672   */\n      mstore\n        /* \"#utility.yul\":1691:1695   */\n      0x24\n        /* \"#utility.yul\":1688:1689   */\n      0x00\n        /* \"#utility.yul\":1681:1696   */\n      revert\n        /* \"#utility.yul\":1894:2079   */\n    tag_16:\n        /* \"#utility.yul\":1934:1935   */\n      0x00\n        /* \"#utility.yul\":1951:1971   */\n      tag_51\n        /* \"#utility.yul\":1969:1970   */\n      dup3\n        /* \"#utility.yul\":1951:1971   */\n      tag_23\n      jump\t// in\n    tag_51:\n        /* \"#utility.yul\":1946:1971   */\n      swap2\n      pop\n        /* \"#utility.yul\":1985:2005   */\n      tag_52\n        /* \"#utility.yul\":2003:2004   */\n      dup4\n        /* \"#utility.yul\":1985:2005   */\n      tag_23\n      jump\t// in\n    tag_52:\n        /* \"#utility.yul\":1980:2005   */\n      swap3\n      pop\n        /* \"#utility.yul\":2024:2025   */\n      dup3\n        /* \"#utility.yul\":2014:2049   */\n      tag_53\n      jumpi\n        /* \"#utility.yul\":2029:2047   */\n      tag_54\n      tag_27\n      jump\t// in\n    tag_54:\n        /* \"#utility.yul\":2014:2049   */\n    tag_53:\n        /* \"#utility.yul\":2071:2072   */\n      dup3\n        /* \"#utility.yul\":2068:2069   */\n      dup3\n        /* \"#utility.yul\":2064:2073   */\n      div\n        /* \"#utility.yul\":2059:2073   */\n      swap1\n      pop\n        /* \"#utility.yul\":1894:2079   */\n      swap3\n      swap2\n      pop\n      pop\n      jump\t// out\n        /* \"#utility.yul\":2085:2261   */\n    tag_18:\n        /* \"#utility.yul\":2117:2118   */\n      0x00\n        /* \"#utility.yul\":2134:2154   */\n      tag_56\n        /* \"#utility.yul\":2152:2153   */\n      dup3\n        /* \"#utility.yul\":2134:2154   */\n      tag_23\n      jump\t// in\n    tag_56:\n        /* \"#utility.yul\":2129:2154   */\n      swap2\n      pop\n        /* \"#utility.yul\":2168:2188   */\n      tag_57\n        /* \"#utility.yul\":2186:2187   */\n      dup4\n        /* \"#utility.yul\":2168:2188   */\n      tag_23\n      jump\t// in\n    tag_57:\n        /* \"#utility.yul\":2163:2188   */\n      swap3\n      pop\n        /* \"#utility.yul\":2207:2208   */\n      dup3\n        /* \"#utility.yul\":2197:2232   */\n      tag_58\n      jumpi\n        /* \"#utility.yul\":2212:2230   */\n      tag_59\n      tag_27\n      jump\t// in\n    tag_59:\n        /* \"#utility.yul\":2197:2232   */\n    tag_58:\n        /* \"#utility.yul\":2253:2254   */\n      dup3\n        /* \"#utility.yul\":2250:2251   */\n      dup3\n        /* \"#utility.yul\":2246:2255   */\n      mod\n        /* \"#utility.yul\":2241:2255   */\n      swap1\n      pop\n        /* \"#utility.yul\":2085:2261   */\n      swap3\n      swap2\n      pop\n      pop\n      jump\t// out\n\n    auxdata: 0xa2646970667358221220834551272ca14b3fad2ec7d52a476e1aec6298ce4769f4788a7d1a39ac7fe70364736f6c634300081c0033\n}\n",
				"bytecode": {
					"linkReferences": {},
					"object": "6080604052348015600e575f5ffd5b506102698061001c5f395ff3fe608060405234801561000f575f5ffd5b5060043610610034575f3560e01c80631537d5e2146100385780631b4f409e14610054575b5f5ffd5b610052600480360381019061004d9190610140565b610072565b005b61005c610104565b604051610069919061018d565b60405180910390f35b5f81036100ab576040517f36beb19600000000000000000000000000000000000000000000000000000000815260040160405180910390fd5b80826100b791906101d3565b5f819055505f81836100c99190610203565b14610100576040517fe2eace0d00000000000000000000000000000000000000000000000000000000815260040160405180910390fd5b5050565b5f5481565b5f5ffd5b5f819050919050565b61011f8161010d565b8114610129575f5ffd5b50565b5f8135905061013a81610116565b92915050565b5f5f6040838503121561015657610155610109565b5b5f6101638582860161012c565b92505060206101748582860161012c565b9150509250929050565b6101878161010d565b82525050565b5f6020820190506101a05f83018461017e565b92915050565b7f4e487b71000000000000000000000000000000000000000000000000000000005f52601260045260245ffd5b5f6101dd8261010d565b91506101e88361010d565b9250826101f8576101f76101a6565b5b828204905092915050565b5f61020d8261010d565b91506102188361010d565b925082610228576102276101a6565b5b82820690509291505056fea2646970667358221220834551272ca14b3fad2ec7d52a476e1aec6298ce4769f4788a7d1a39ac7fe70364736f6c634300081c0033",
					"opcodes": "PUSH1 0x80 PUSH1 0x40 MSTORE CALLVALUE DUP1 ISZERO PUSH1 0xE JUMPI PUSH0 PUSH0 REVERT JUMPDEST POP PUSH2 0x269 DUP1 PUSH2 0x1C PUSH0 CODECOPY PUSH0 RETURN INVALID PUSH1 0x80 PUSH1 0x40 MSTORE CALLVALUE DUP1 ISZERO PUSH2 0xF JUMPI PUSH0 PUSH0 REVERT JUMPDEST POP PUSH1 0x4 CALLDATASIZE LT PUSH2 0x34 JUMPI PUSH0 CALLDATALOAD PUSH1 0xE0 SHR DUP1 PUSH4 0x1537D5E2 EQ PUSH2 0x38 JUMPI DUP1 PUSH4 0x1B4F409E EQ PUSH2 0x54 JUMPI JUMPDEST PUSH0 PUSH0 REVERT JUMPDEST PUSH2 0x52 PUSH1 0x4 DUP1 CALLDATASIZE SUB DUP2 ADD SWAP1 PUSH2 0x4D SWAP2 SWAP1 PUSH2 0x140 JUMP JUMPDEST PUSH2 0x72 JUMP JUMPDEST STOP JUMPDEST PUSH2 0x5C PUSH2 0x104 JUMP JUMPDEST PUSH1 0x40 MLOAD PUSH2 0x69 SWAP2 SWAP1 PUSH2 0x18D JUMP JUMPDEST PUSH1 0x40 MLOAD DUP1 SWAP2 SUB SWAP1 RETURN JUMPDEST PUSH0 DUP2 SUB PUSH2 0xAB JUMPI PUSH1 0x40 MLOAD PUSH32 0x36BEB19600000000000000000000000000000000000000000000000000000000 DUP2 MSTORE PUSH1 0x4 ADD PUSH1 0x40 MLOAD DUP1 SWAP2 SUB SWAP1 REVERT JUMPDEST DUP1 DUP3 PUSH2 0xB7 SWAP2 SWAP1 PUSH2 0x1D3 JUMP JUMPDEST PUSH0 DUP2 SWAP1 SSTORE POP PUSH0 DUP2 DUP4 PUSH2 0xC9 SWAP2 SWAP1 PUSH2 0x203 JUMP JUMPDEST EQ PUSH2 0x100 JUMPI PUSH1 0x40 MLOAD PUSH32 0xE2EACE0D00000000000000000000000000000000000000000000000000000000 DUP2 MSTORE PUSH1 0x4 ADD PUSH1 0x40 MLOAD DUP1 SWAP2 SUB SWAP1 REVERT JUMPDEST POP POP JUMP JUMPDEST PUSH0 SLOAD DUP2 JUMP JUMPDEST PUSH0 PUSH0 REVERT JUMPDEST PUSH0 DUP2 SWAP1 POP SWAP2 SWAP1 POP JUMP JUMPDEST PUSH2 0x11F DUP2 PUSH2 0x10D JUMP JUMPDEST DUP2 EQ PUSH2 0x129 JUMPI PUSH0 PUSH0 REVERT JUMPDEST POP JUMP JUMPDEST PUSH0 DUP2 CALLDATALOAD SWAP1 POP PUSH2 0x13A DUP2 PUSH2 0x116 JUMP JUMPDEST SWAP3 SWAP2 POP POP JUMP JUMPDEST PUSH0 PUSH0 PUSH1 0x40 DUP4 DUP6 SUB SLT ISZERO PUSH2 0x156 JUMPI PUSH2 0x155 PUSH2 0x109 JUMP JUMPDEST JUMPDEST PUSH0 PUSH2 0x163 DUP6 DUP3 DUP7 ADD PUSH2 0x12C JUMP JUMPDEST SWAP3 POP POP PUSH1 0x20 PUSH2 0x174 DUP6 DUP3 DUP7 ADD PUSH2 0x12C JUMP JUMPDEST SWAP2 POP POP SWAP3 POP SWAP3 SWAP1 POP JUMP JUMPDEST PUSH2 0x187 DUP2 PUSH2 0x10D JUMP JUMPDEST DUP3 MSTORE POP POP JUMP JUMPDEST PUSH0 PUSH1 0x20 DUP3 ADD SWAP1 POP PUSH2 0x1A0 PUSH0 DUP4 ADD DUP5 PUSH2 0x17E JUMP JUMPDEST SWAP3 SWAP2 POP POP JUMP JUMPDEST PUSH32 0x4E487B7100000000000000000000000000000000000000000000000000000000 PUSH0 MSTORE PUSH1 0x12 PUSH1 0x4 MSTORE PUSH1 0x24 PUSH0 REVERT JUMPDEST PUSH0 PUSH2 0x1DD DUP3 PUSH2 0x10D JUMP JUMPDEST SWAP2 POP PUSH2 0x1E8 DUP4 PUSH2 0x10D JUMP JUMPDEST SWAP3 POP DUP3 PUSH2 0x1F8 JUMPI PUSH2 0x1F7 PUSH2 0x1A6 JUMP JUMPDEST JUMPDEST DUP3 DUP3 DIV SWAP1 POP SWAP3 SWAP2 POP POP JUMP JUMPDEST PUSH0 PUSH2 0x20D DUP3 PUSH2 0x10D JUMP JUMPDEST SWAP2 POP PUSH2 0x218 DUP4 PUSH2 0x10D JUMP JUMPDEST SWAP3 POP DUP3 PUSH2 0x228 JUMPI PUSH2 0x227 PUSH2 0x1A6 JUMP JUMPDEST JUMPDEST DUP3 DUP3 MOD SWAP1 POP SWAP3 SWAP2 POP POP JUMP INVALID LOG2 PUSH5 0x6970667358 0x22 SLT KECCAK256 DUP4 GASLIMIT MLOAD 0x27 0x2C LOG1 0x4B EXTCODEHASH 0xAD 0x2E 0xC7 0xD5 0x2A SELFBALANCE PUSH15 0x1AEC6298CE4769F4788A7D1A39AC7F 0xE7 SUB PUSH5 0x736F6C6343 STOP ADDMOD SHR STOP CALLER "
				},
				"gasEstimates": {
					"creation": {
						"codeDepositCost": "123400",
						"executionCost": "169",
						"totalCost": "123569"
					},
					"external": {
						"billing(uint256,uint256)": "infinite",
						"splitExpenses()": "2424"
					}
				},
				"methodIdentifiers": {
					"billing(uint256,uint256)": "1537d5e2",
					"splitExpenses()": "1b4f409e"
				}
			},
			"storageLayout": {
				"storage": [
					{
						"astId": 3,
						"contract": "01-exercise/03-billSplitter.sol:billSplitter",
						"label": "splitExpenses",
						"offset": 0,
						"slot": "0",
						"type": "t_uint256"
					}
				],
				"types": {
					"t_uint256": {
						"encoding": "inplace",
						"label": "uint256",
						"numberOfBytes": "32"
					}
				}
			},
			"userdoc": {
				"kind": "user",
				"methods": {},
				"version": 1
			}
		}
	}
}