{
	"BlockchainFundamentals/02-exercises/02-voting.sol": {
		"voting": {
			"abi": [
				{
					"inputs": [
						{
							"internalType": "address",
							"name": "voterAdress",
							"type": "address"
						}
					],
					"name": "getVoterStatus",
					"outputs": [
						{
							"internalType": "bool",
							"name": "",
							"type": "bool"
						},
						{
							"internalType": "uint256",
							"name": "",
							"type": "uint256"
						}
					],
					"stateMutability": "view",
					"type": "function"
				},
				{
					"inputs": [
						{
							"internalType": "uint256",
							"name": "candidateID",
							"type": "uint256"
						}
					],
					"name": "registerVote",
					"outputs": [],
					"stateMutability": "nonpayable",
					"type": "function"
				},
				{
					"inputs": [
						{
							"internalType": "address",
							"name": "",
							"type": "address"
						}
					],
					"name": "voterDitails",
					"outputs": [
						{
							"internalType": "bool",
							"name": "hasVoted",
							"type": "bool"
						},
						{
							"internalType": "uint256",
							"name": "choice",
							"type": "uint256"
						}
					],
					"stateMutability": "view",
					"type": "function"
				}
			],
			"devdoc": {
				"kind": "dev",
				"methods": {},
				"version": 1
			},
			"evm": {
				"assembly": "    /* \"BlockchainFundamentals/02-exercises/02-voting.sol\":62:689  contract voting {... */\n  mstore(0x40, 0x80)\n  callvalue\n  dup1\n  iszero\n  tag_1\n  jumpi\n  revert(0x00, 0x00)\ntag_1:\n  pop\n  dataSize(sub_0)\n  dup1\n  dataOffset(sub_0)\n  0x00\n  codecopy\n  0x00\n  return\nstop\n\nsub_0: assembly {\n        /* \"BlockchainFundamentals/02-exercises/02-voting.sol\":62:689  contract voting {... */\n      mstore(0x40, 0x80)\n      callvalue\n      dup1\n      iszero\n      tag_1\n      jumpi\n      revert(0x00, 0x00)\n    tag_1:\n      pop\n      jumpi(tag_2, lt(calldatasize, 0x04))\n      shr(0xe0, calldataload(0x00))\n      dup1\n      0x42b31ad6\n      eq\n      tag_3\n      jumpi\n      dup1\n      0x464d4a92\n      eq\n      tag_4\n      jumpi\n      dup1\n      0x78e3ef20\n      eq\n      tag_5\n      jumpi\n    tag_2:\n      revert(0x00, 0x00)\n        /* \"BlockchainFundamentals/02-exercises/02-voting.sol\":161:207  mapping (address => Voter) public voterDitails */\n    tag_3:\n      tag_6\n      0x04\n      dup1\n      calldatasize\n      sub\n      dup2\n      add\n      swap1\n      tag_7\n      swap2\n      swap1\n      tag_8\n      jump\t// in\n    tag_7:\n      tag_9\n      jump\t// in\n    tag_6:\n      mload(0x40)\n      tag_10\n      swap3\n      swap2\n      swap1\n      tag_11\n      jump\t// in\n    tag_10:\n      mload(0x40)\n      dup1\n      swap2\n      sub\n      swap1\n      return\n        /* \"BlockchainFundamentals/02-exercises/02-voting.sol\":280:485  function registerVote(uint256 candidateID) external {... */\n    tag_4:\n      tag_12\n      0x04\n      dup1\n      calldatasize\n      sub\n      dup2\n      add\n      swap1\n      tag_13\n      swap2\n      swap1\n      tag_14\n      jump\t// in\n    tag_13:\n      tag_15\n      jump\t// in\n    tag_12:\n      stop\n        /* \"BlockchainFundamentals/02-exercises/02-voting.sol\":491:686  function getVoterStatus(address voterAdress) external view  returns (bool, uint256){... */\n    tag_5:\n      tag_16\n      0x04\n      dup1\n      calldatasize\n      sub\n      dup2\n      add\n      swap1\n      tag_17\n      swap2\n      swap1\n      tag_8\n      jump\t// in\n    tag_17:\n      tag_18\n      jump\t// in\n    tag_16:\n      mload(0x40)\n      tag_19\n      swap3\n      swap2\n      swap1\n      tag_11\n      jump\t// in\n    tag_19:\n      mload(0x40)\n      dup1\n      swap2\n      sub\n      swap1\n      return\n        /* \"BlockchainFundamentals/02-exercises/02-voting.sol\":161:207  mapping (address => Voter) public voterDitails */\n    tag_9:\n      mstore(0x20, 0x00)\n      dup1\n      0x00\n      mstore\n      keccak256(0x00, 0x40)\n      0x00\n      swap2\n      pop\n      swap1\n      pop\n      dup1\n      0x00\n      add\n      0x00\n      swap1\n      sload\n      swap1\n      0x0100\n      exp\n      swap1\n      div\n      0xff\n      and\n      swap1\n      dup1\n      0x01\n      add\n      sload\n      swap1\n      pop\n      dup3\n      jump\t// out\n        /* \"BlockchainFundamentals/02-exercises/02-voting.sol\":280:485  function registerVote(uint256 candidateID) external {... */\n    tag_15:\n        /* \"BlockchainFundamentals/02-exercises/02-voting.sol\":388:393  false */\n      0x00\n        /* \"BlockchainFundamentals/02-exercises/02-voting.sol\":351:393  voterDitails[msg.sender].hasVoted == false */\n      iszero\n      iszero\n        /* \"BlockchainFundamentals/02-exercises/02-voting.sol\":351:363  voterDitails */\n      0x00\n        /* \"BlockchainFundamentals/02-exercises/02-voting.sol\":351:375  voterDitails[msg.sender] */\n      0x00\n        /* \"BlockchainFundamentals/02-exercises/02-voting.sol\":364:374  msg.sender */\n      caller\n        /* \"BlockchainFundamentals/02-exercises/02-voting.sol\":351:375  voterDitails[msg.sender] */\n      0xffffffffffffffffffffffffffffffffffffffff\n      and\n      0xffffffffffffffffffffffffffffffffffffffff\n      and\n      dup2\n      mstore\n      0x20\n      add\n      swap1\n      dup2\n      mstore\n      0x20\n      add\n      0x00\n      keccak256\n        /* \"BlockchainFundamentals/02-exercises/02-voting.sol\":351:384  voterDitails[msg.sender].hasVoted */\n      0x00\n      add\n      0x00\n      swap1\n      sload\n      swap1\n      0x0100\n      exp\n      swap1\n      div\n      0xff\n      and\n        /* \"BlockchainFundamentals/02-exercises/02-voting.sol\":351:393  voterDitails[msg.sender].hasVoted == false */\n      iszero\n      iszero\n      eq\n        /* \"BlockchainFundamentals/02-exercises/02-voting.sol\":343:405  require(voterDitails[msg.sender].hasVoted == false, \"Already\") */\n      tag_21\n      jumpi\n      mload(0x40)\n      0x08c379a000000000000000000000000000000000000000000000000000000000\n      dup2\n      mstore\n      0x04\n      add\n      tag_22\n      swap1\n      tag_23\n      jump\t// in\n    tag_22:\n      mload(0x40)\n      dup1\n      swap2\n      sub\n      swap1\n      revert\n    tag_21:\n        /* \"BlockchainFundamentals/02-exercises/02-voting.sol\":443:467  Voter(true, candidateID) */\n      mload(0x40)\n      dup1\n      0x40\n      add\n      0x40\n      mstore\n      dup1\n        /* \"BlockchainFundamentals/02-exercises/02-voting.sol\":449:453  true */\n      0x01\n        /* \"BlockchainFundamentals/02-exercises/02-voting.sol\":443:467  Voter(true, candidateID) */\n      iszero\n      iszero\n      dup2\n      mstore\n      0x20\n      add\n        /* \"BlockchainFundamentals/02-exercises/02-voting.sol\":455:466  candidateID */\n      dup3\n        /* \"BlockchainFundamentals/02-exercises/02-voting.sol\":443:467  Voter(true, candidateID) */\n      dup2\n      mstore\n      pop\n        /* \"BlockchainFundamentals/02-exercises/02-voting.sol\":416:428  voterDitails */\n      0x00\n        /* \"BlockchainFundamentals/02-exercises/02-voting.sol\":416:440  voterDitails[msg.sender] */\n      0x00\n        /* \"BlockchainFundamentals/02-exercises/02-voting.sol\":429:439  msg.sender */\n      caller\n        /* \"BlockchainFundamentals/02-exercises/02-voting.sol\":416:440  voterDitails[msg.sender] */\n      0xffffffffffffffffffffffffffffffffffffffff\n      and\n      0xffffffffffffffffffffffffffffffffffffffff\n      and\n      dup2\n      mstore\n      0x20\n      add\n      swap1\n      dup2\n      mstore\n      0x20\n      add\n      0x00\n      keccak256\n        /* \"BlockchainFundamentals/02-exercises/02-voting.sol\":416:467  voterDitails[msg.sender] = Voter(true, candidateID) */\n      0x00\n      dup3\n      add\n      mload\n      dup2\n      0x00\n      add\n      exp(0x0100, 0x00)\n      dup2\n      sload\n      dup2\n      0xff\n      mul\n      not\n      and\n      swap1\n      dup4\n      iszero\n      iszero\n      mul\n      or\n      swap1\n      sstore\n      pop\n      0x20\n      dup3\n      add\n      mload\n      dup2\n      0x01\n      add\n      sstore\n      swap1\n      pop\n      pop\n        /* \"BlockchainFundamentals/02-exercises/02-voting.sol\":280:485  function registerVote(uint256 candidateID) external {... */\n      pop\n      jump\t// out\n        /* \"BlockchainFundamentals/02-exercises/02-voting.sol\":491:686  function getVoterStatus(address voterAdress) external view  returns (bool, uint256){... */\n    tag_18:\n        /* \"BlockchainFundamentals/02-exercises/02-voting.sol\":560:564  bool */\n      0x00\n        /* \"BlockchainFundamentals/02-exercises/02-voting.sol\":566:573  uint256 */\n      0x00\n        /* \"BlockchainFundamentals/02-exercises/02-voting.sol\":593:605  voterDitails */\n      0x00\n        /* \"BlockchainFundamentals/02-exercises/02-voting.sol\":593:618  voterDitails[voterAdress] */\n      0x00\n        /* \"BlockchainFundamentals/02-exercises/02-voting.sol\":606:617  voterAdress */\n      dup5\n        /* \"BlockchainFundamentals/02-exercises/02-voting.sol\":593:618  voterDitails[voterAdress] */\n      0xffffffffffffffffffffffffffffffffffffffff\n      and\n      0xffffffffffffffffffffffffffffffffffffffff\n      and\n      dup2\n      mstore\n      0x20\n      add\n      swap1\n      dup2\n      mstore\n      0x20\n      add\n      0x00\n      keccak256\n        /* \"BlockchainFundamentals/02-exercises/02-voting.sol\":593:627  voterDitails[voterAdress].hasVoted */\n      0x00\n      add\n      0x00\n      swap1\n      sload\n      swap1\n      0x0100\n      exp\n      swap1\n      div\n      0xff\n      and\n        /* \"BlockchainFundamentals/02-exercises/02-voting.sol\":647:659  voterDitails */\n      0x00\n        /* \"BlockchainFundamentals/02-exercises/02-voting.sol\":647:672  voterDitails[voterAdress] */\n      0x00\n        /* \"BlockchainFundamentals/02-exercises/02-voting.sol\":660:671  voterAdress */\n      dup6\n        /* \"BlockchainFundamentals/02-exercises/02-voting.sol\":647:672  voterDitails[voterAdress] */\n      0xffffffffffffffffffffffffffffffffffffffff\n      and\n      0xffffffffffffffffffffffffffffffffffffffff\n      and\n      dup2\n      mstore\n      0x20\n      add\n      swap1\n      dup2\n      mstore\n      0x20\n      add\n      0x00\n      keccak256\n        /* \"BlockchainFundamentals/02-exercises/02-voting.sol\":647:679  voterDitails[voterAdress].choice */\n      0x01\n      add\n      sload\n        /* \"BlockchainFundamentals/02-exercises/02-voting.sol\":585:680  return (voterDitails[voterAdress].hasVoted, ... */\n      swap2\n      pop\n      swap2\n      pop\n        /* \"BlockchainFundamentals/02-exercises/02-voting.sol\":491:686  function getVoterStatus(address voterAdress) external view  returns (bool, uint256){... */\n      swap2\n      pop\n      swap2\n      jump\t// out\n        /* \"#utility.yul\":88:205   */\n    tag_26:\n        /* \"#utility.yul\":197:198   */\n      0x00\n        /* \"#utility.yul\":194:195   */\n      0x00\n        /* \"#utility.yul\":187:199   */\n      revert\n        /* \"#utility.yul\":334:460   */\n    tag_28:\n        /* \"#utility.yul\":371:378   */\n      0x00\n        /* \"#utility.yul\":411:453   */\n      0xffffffffffffffffffffffffffffffffffffffff\n        /* \"#utility.yul\":404:409   */\n      dup3\n        /* \"#utility.yul\":400:454   */\n      and\n        /* \"#utility.yul\":389:454   */\n      swap1\n      pop\n        /* \"#utility.yul\":334:460   */\n      swap2\n      swap1\n      pop\n      jump\t// out\n        /* \"#utility.yul\":466:562   */\n    tag_29:\n        /* \"#utility.yul\":503:510   */\n      0x00\n        /* \"#utility.yul\":532:556   */\n      tag_47\n        /* \"#utility.yul\":550:555   */\n      dup3\n        /* \"#utility.yul\":532:556   */\n      tag_28\n      jump\t// in\n    tag_47:\n        /* \"#utility.yul\":521:556   */\n      swap1\n      pop\n        /* \"#utility.yul\":466:562   */\n      swap2\n      swap1\n      pop\n      jump\t// out\n        /* \"#utility.yul\":568:690   */\n    tag_30:\n        /* \"#utility.yul\":641:665   */\n      tag_49\n        /* \"#utility.yul\":659:664   */\n      dup2\n        /* \"#utility.yul\":641:665   */\n      tag_29\n      jump\t// in\n    tag_49:\n        /* \"#utility.yul\":634:639   */\n      dup2\n        /* \"#utility.yul\":631:666   */\n      eq\n        /* \"#utility.yul\":621:684   */\n      tag_50\n      jumpi\n        /* \"#utility.yul\":680:681   */\n      0x00\n        /* \"#utility.yul\":677:678   */\n      0x00\n        /* \"#utility.yul\":670:682   */\n      revert\n        /* \"#utility.yul\":621:684   */\n    tag_50:\n        /* \"#utility.yul\":568:690   */\n      pop\n      jump\t// out\n        /* \"#utility.yul\":696:835   */\n    tag_31:\n        /* \"#utility.yul\":742:747   */\n      0x00\n        /* \"#utility.yul\":780:786   */\n      dup2\n        /* \"#utility.yul\":767:787   */\n      calldataload\n        /* \"#utility.yul\":758:787   */\n      swap1\n      pop\n        /* \"#utility.yul\":796:829   */\n      tag_52\n        /* \"#utility.yul\":823:828   */\n      dup2\n        /* \"#utility.yul\":796:829   */\n      tag_30\n      jump\t// in\n    tag_52:\n        /* \"#utility.yul\":696:835   */\n      swap3\n      swap2\n      pop\n      pop\n      jump\t// out\n        /* \"#utility.yul\":841:1170   */\n    tag_8:\n        /* \"#utility.yul\":900:906   */\n      0x00\n        /* \"#utility.yul\":949:951   */\n      0x20\n        /* \"#utility.yul\":937:946   */\n      dup3\n        /* \"#utility.yul\":928:935   */\n      dup5\n        /* \"#utility.yul\":924:947   */\n      sub\n        /* \"#utility.yul\":920:952   */\n      slt\n        /* \"#utility.yul\":917:1036   */\n      iszero\n      tag_54\n      jumpi\n        /* \"#utility.yul\":955:1034   */\n      tag_55\n      tag_26\n      jump\t// in\n    tag_55:\n        /* \"#utility.yul\":917:1036   */\n    tag_54:\n        /* \"#utility.yul\":1075:1076   */\n      0x00\n        /* \"#utility.yul\":1100:1153   */\n      tag_56\n        /* \"#utility.yul\":1145:1152   */\n      dup5\n        /* \"#utility.yul\":1136:1142   */\n      dup3\n        /* \"#utility.yul\":1125:1134   */\n      dup6\n        /* \"#utility.yul\":1121:1143   */\n      add\n        /* \"#utility.yul\":1100:1153   */\n      tag_31\n      jump\t// in\n    tag_56:\n        /* \"#utility.yul\":1090:1153   */\n      swap2\n      pop\n        /* \"#utility.yul\":1046:1163   */\n      pop\n        /* \"#utility.yul\":841:1170   */\n      swap3\n      swap2\n      pop\n      pop\n      jump\t// out\n        /* \"#utility.yul\":1176:1266   */\n    tag_32:\n        /* \"#utility.yul\":1210:1217   */\n      0x00\n        /* \"#utility.yul\":1253:1258   */\n      dup2\n        /* \"#utility.yul\":1246:1259   */\n      iszero\n        /* \"#utility.yul\":1239:1260   */\n      iszero\n        /* \"#utility.yul\":1228:1260   */\n      swap1\n      pop\n        /* \"#utility.yul\":1176:1266   */\n      swap2\n      swap1\n      pop\n      jump\t// out\n        /* \"#utility.yul\":1272:1381   */\n    tag_33:\n        /* \"#utility.yul\":1353:1374   */\n      tag_59\n        /* \"#utility.yul\":1368:1373   */\n      dup2\n        /* \"#utility.yul\":1353:1374   */\n      tag_32\n      jump\t// in\n    tag_59:\n        /* \"#utility.yul\":1348:1351   */\n      dup3\n        /* \"#utility.yul\":1341:1375   */\n      mstore\n        /* \"#utility.yul\":1272:1381   */\n      pop\n      pop\n      jump\t// out\n        /* \"#utility.yul\":1387:1464   */\n    tag_34:\n        /* \"#utility.yul\":1424:1431   */\n      0x00\n        /* \"#utility.yul\":1453:1458   */\n      dup2\n        /* \"#utility.yul\":1442:1458   */\n      swap1\n      pop\n        /* \"#utility.yul\":1387:1464   */\n      swap2\n      swap1\n      pop\n      jump\t// out\n        /* \"#utility.yul\":1470:1588   */\n    tag_35:\n        /* \"#utility.yul\":1557:1581   */\n      tag_62\n        /* \"#utility.yul\":1575:1580   */\n      dup2\n        /* \"#utility.yul\":1557:1581   */\n      tag_34\n      jump\t// in\n    tag_62:\n        /* \"#utility.yul\":1552:1555   */\n      dup3\n        /* \"#utility.yul\":1545:1582   */\n      mstore\n        /* \"#utility.yul\":1470:1588   */\n      pop\n      pop\n      jump\t// out\n        /* \"#utility.yul\":1594:1914   */\n    tag_11:\n        /* \"#utility.yul\":1709:1713   */\n      0x00\n        /* \"#utility.yul\":1747:1749   */\n      0x40\n        /* \"#utility.yul\":1736:1745   */\n      dup3\n        /* \"#utility.yul\":1732:1750   */\n      add\n        /* \"#utility.yul\":1724:1750   */\n      swap1\n      pop\n        /* \"#utility.yul\":1760:1825   */\n      tag_64\n        /* \"#utility.yul\":1822:1823   */\n      0x00\n        /* \"#utility.yul\":1811:1820   */\n      dup4\n        /* \"#utility.yul\":1807:1824   */\n      add\n        /* \"#utility.yul\":1798:1804   */\n      dup6\n        /* \"#utility.yul\":1760:1825   */\n      tag_33\n      jump\t// in\n    tag_64:\n        /* \"#utility.yul\":1835:1907   */\n      tag_65\n        /* \"#utility.yul\":1903:1905   */\n      0x20\n        /* \"#utility.yul\":1892:1901   */\n      dup4\n        /* \"#utility.yul\":1888:1906   */\n      add\n        /* \"#utility.yul\":1879:1885   */\n      dup5\n        /* \"#utility.yul\":1835:1907   */\n      tag_35\n      jump\t// in\n    tag_65:\n        /* \"#utility.yul\":1594:1914   */\n      swap4\n      swap3\n      pop\n      pop\n      pop\n      jump\t// out\n        /* \"#utility.yul\":1920:2042   */\n    tag_36:\n        /* \"#utility.yul\":1993:2017   */\n      tag_67\n        /* \"#utility.yul\":2011:2016   */\n      dup2\n        /* \"#utility.yul\":1993:2017   */\n      tag_34\n      jump\t// in\n    tag_67:\n        /* \"#utility.yul\":1986:1991   */\n      dup2\n        /* \"#utility.yul\":1983:2018   */\n      eq\n        /* \"#utility.yul\":1973:2036   */\n      tag_68\n      jumpi\n        /* \"#utility.yul\":2032:2033   */\n      0x00\n        /* \"#utility.yul\":2029:2030   */\n      0x00\n        /* \"#utility.yul\":2022:2034   */\n      revert\n        /* \"#utility.yul\":1973:2036   */\n    tag_68:\n        /* \"#utility.yul\":1920:2042   */\n      pop\n      jump\t// out\n        /* \"#utility.yul\":2048:2187   */\n    tag_37:\n        /* \"#utility.yul\":2094:2099   */\n      0x00\n        /* \"#utility.yul\":2132:2138   */\n      dup2\n        /* \"#utility.yul\":2119:2139   */\n      calldataload\n        /* \"#utility.yul\":2110:2139   */\n      swap1\n      pop\n        /* \"#utility.yul\":2148:2181   */\n      tag_70\n        /* \"#utility.yul\":2175:2180   */\n      dup2\n        /* \"#utility.yul\":2148:2181   */\n      tag_36\n      jump\t// in\n    tag_70:\n        /* \"#utility.yul\":2048:2187   */\n      swap3\n      swap2\n      pop\n      pop\n      jump\t// out\n        /* \"#utility.yul\":2193:2522   */\n    tag_14:\n        /* \"#utility.yul\":2252:2258   */\n      0x00\n        /* \"#utility.yul\":2301:2303   */\n      0x20\n        /* \"#utility.yul\":2289:2298   */\n      dup3\n        /* \"#utility.yul\":2280:2287   */\n      dup5\n        /* \"#utility.yul\":2276:2299   */\n      sub\n        /* \"#utility.yul\":2272:2304   */\n      slt\n        /* \"#utility.yul\":2269:2388   */\n      iszero\n      tag_72\n      jumpi\n        /* \"#utility.yul\":2307:2386   */\n      tag_73\n      tag_26\n      jump\t// in\n    tag_73:\n        /* \"#utility.yul\":2269:2388   */\n    tag_72:\n        /* \"#utility.yul\":2427:2428   */\n      0x00\n        /* \"#utility.yul\":2452:2505   */\n      tag_74\n        /* \"#utility.yul\":2497:2504   */\n      dup5\n        /* \"#utility.yul\":2488:2494   */\n      dup3\n        /* \"#utility.yul\":2477:2486   */\n      dup6\n        /* \"#utility.yul\":2473:2495   */\n      add\n        /* \"#utility.yul\":2452:2505   */\n      tag_37\n      jump\t// in\n    tag_74:\n        /* \"#utility.yul\":2442:2505   */\n      swap2\n      pop\n        /* \"#utility.yul\":2398:2515   */\n      pop\n        /* \"#utility.yul\":2193:2522   */\n      swap3\n      swap2\n      pop\n      pop\n      jump\t// out\n        /* \"#utility.yul\":2528:2697   */\n    tag_38:\n        /* \"#utility.yul\":2612:2623   */\n      0x00\n        /* \"#utility.yul\":2646:2652   */\n      dup3\n        /* \"#utility.yul\":2641:2644   */\n      dup3\n        /* \"#utility.yul\":2634:2653   */\n      mstore\n        /* \"#utility.yul\":2686:2690   */\n      0x20\n        /* \"#utility.yul\":2681:2684   */\n      dup3\n        /* \"#utility.yul\":2677:2691   */\n      add\n        /* \"#utility.yul\":2662:2691   */\n      swap1\n      pop\n        /* \"#utility.yul\":2528:2697   */\n      swap3\n      swap2\n      pop\n      pop\n      jump\t// out\n        /* \"#utility.yul\":2703:2860   */\n    tag_39:\n        /* \"#utility.yul\":2843:2852   */\n      0x416c726561647900000000000000000000000000000000000000000000000000\n        /* \"#utility.yul\":2839:2840   */\n      0x00\n        /* \"#utility.yul\":2831:2837   */\n      dup3\n        /* \"#utility.yul\":2827:2841   */\n      add\n        /* \"#utility.yul\":2820:2853   */\n      mstore\n        /* \"#utility.yul\":2703:2860   */\n      pop\n      jump\t// out\n        /* \"#utility.yul\":2866:3231   */\n    tag_40:\n        /* \"#utility.yul\":3008:3011   */\n      0x00\n        /* \"#utility.yul\":3029:3095   */\n      tag_78\n        /* \"#utility.yul\":3093:3094   */\n      0x07\n        /* \"#utility.yul\":3088:3091   */\n      dup4\n        /* \"#utility.yul\":3029:3095   */\n      tag_38\n      jump\t// in\n    tag_78:\n        /* \"#utility.yul\":3022:3095   */\n      swap2\n      pop\n        /* \"#utility.yul\":3104:3197   */\n      tag_79\n        /* \"#utility.yul\":3193:3196   */\n      dup3\n        /* \"#utility.yul\":3104:3197   */\n      tag_39\n      jump\t// in\n    tag_79:\n        /* \"#utility.yul\":3222:3224   */\n      0x20\n        /* \"#utility.yul\":3217:3220   */\n      dup3\n        /* \"#utility.yul\":3213:3225   */\n      add\n        /* \"#utility.yul\":3206:3225   */\n      swap1\n      pop\n        /* \"#utility.yul\":2866:3231   */\n      swap2\n      swap1\n      pop\n      jump\t// out\n        /* \"#utility.yul\":3237:3656   */\n    tag_23:\n        /* \"#utility.yul\":3403:3407   */\n      0x00\n        /* \"#utility.yul\":3441:3443   */\n      0x20\n        /* \"#utility.yul\":3430:3439   */\n      dup3\n        /* \"#utility.yul\":3426:3444   */\n      add\n        /* \"#utility.yul\":3418:3444   */\n      swap1\n      pop\n        /* \"#utility.yul\":3490:3499   */\n      dup2\n        /* \"#utility.yul\":3484:3488   */\n      dup2\n        /* \"#utility.yul\":3480:3500   */\n      sub\n        /* \"#utility.yul\":3476:3477   */\n      0x00\n        /* \"#utility.yul\":3465:3474   */\n      dup4\n        /* \"#utility.yul\":3461:3478   */\n      add\n        /* \"#utility.yul\":3454:3501   */\n      mstore\n        /* \"#utility.yul\":3518:3649   */\n      tag_81\n        /* \"#utility.yul\":3644:3648   */\n      dup2\n        /* \"#utility.yul\":3518:3649   */\n      tag_40\n      jump\t// in\n    tag_81:\n        /* \"#utility.yul\":3510:3649   */\n      swap1\n      pop\n        /* \"#utility.yul\":3237:3656   */\n      swap2\n      swap1\n      pop\n      jump\t// out\n\n    auxdata: 0xa26469706673582212207a8227591603cb308be4cd4238adf8c6765860cd76c505628853e5dbe37bb56564736f6c634300081c0033\n}\n",
				"bytecode": {
					"linkReferences": {},
					"object": "6080604052348015600e575f5ffd5b506104788061001c5f395ff3fe608060405234801561000f575f5ffd5b506004361061003f575f3560e01c806342b31ad614610043578063464d4a921461007457806378e3ef2014610090575b5f5ffd5b61005d600480360381019061005891906102f1565b6100c1565b60405161006b92919061034e565b60405180910390f35b61008e6004803603810190610089919061039f565b6100ec565b005b6100aa60048036038101906100a591906102f1565b6101fd565b6040516100b892919061034e565b60405180910390f35b5f602052805f5260405f205f91509050805f015f9054906101000a900460ff16908060010154905082565b5f15155f5f3373ffffffffffffffffffffffffffffffffffffffff1673ffffffffffffffffffffffffffffffffffffffff1681526020019081526020015f205f015f9054906101000a900460ff1615151461017c576040517f08c379a000000000000000000000000000000000000000000000000000000000815260040161017390610424565b60405180910390fd5b6040518060400160405280600115158152602001828152505f5f3373ffffffffffffffffffffffffffffffffffffffff1673ffffffffffffffffffffffffffffffffffffffff1681526020019081526020015f205f820151815f015f6101000a81548160ff0219169083151502179055506020820151816001015590505050565b5f5f5f5f8473ffffffffffffffffffffffffffffffffffffffff1673ffffffffffffffffffffffffffffffffffffffff1681526020019081526020015f205f015f9054906101000a900460ff165f5f8573ffffffffffffffffffffffffffffffffffffffff1673ffffffffffffffffffffffffffffffffffffffff1681526020019081526020015f206001015491509150915091565b5f5ffd5b5f73ffffffffffffffffffffffffffffffffffffffff82169050919050565b5f6102c082610297565b9050919050565b6102d0816102b6565b81146102da575f5ffd5b50565b5f813590506102eb816102c7565b92915050565b5f6020828403121561030657610305610293565b5b5f610313848285016102dd565b91505092915050565b5f8115159050919050565b6103308161031c565b82525050565b5f819050919050565b61034881610336565b82525050565b5f6040820190506103615f830185610327565b61036e602083018461033f565b9392505050565b61037e81610336565b8114610388575f5ffd5b50565b5f8135905061039981610375565b92915050565b5f602082840312156103b4576103b3610293565b5b5f6103c18482850161038b565b91505092915050565b5f82825260208201905092915050565b7f416c7265616479000000000000000000000000000000000000000000000000005f82015250565b5f61040e6007836103ca565b9150610419826103da565b602082019050919050565b5f6020820190508181035f83015261043b81610402565b905091905056fea26469706673582212207a8227591603cb308be4cd4238adf8c6765860cd76c505628853e5dbe37bb56564736f6c634300081c0033",
					"opcodes": "PUSH1 0x80 PUSH1 0x40 MSTORE CALLVALUE DUP1 ISZERO PUSH1 0xE JUMPI PUSH0 PUSH0 REVERT JUMPDEST POP PUSH2 0x478 DUP1 PUSH2 0x1C PUSH0 CODECOPY PUSH0 RETURN INVALID PUSH1 0x80 PUSH1 0x40 MSTORE CALLVALUE DUP1 ISZERO PUSH2 0xF JUMPI PUSH0 PUSH0 REVERT JUMPDEST POP PUSH1 0x4 CALLDATASIZE LT PUSH2 0x3F JUMPI PUSH0 CALLDATALOAD PUSH1 0xE0 SHR DUP1 PUSH4 0x42B31AD6 EQ PUSH2 0x43 JUMPI DUP1 PUSH4 0x464D4A92 EQ PUSH2 0x74 JUMPI DUP1 PUSH4 0x78E3EF20 EQ PUSH2 0x90 JUMPI JUMPDEST PUSH0 PUSH0 REVERT JUMPDEST PUSH2 0x5D PUSH1 0x4 DUP1 CALLDATASIZE SUB DUP2 ADD SWAP1 PUSH2 0x58 SWAP2 SWAP1 PUSH2 0x2F1 JUMP JUMPDEST PUSH2 0xC1 JUMP JUMPDEST PUSH1 0x40 MLOAD PUSH2 0x6B SWAP3 SWAP2 SWAP1 PUSH2 0x34E JUMP JUMPDEST PUSH1 0x40 MLOAD DUP1 SWAP2 SUB SWAP1 RETURN JUMPDEST PUSH2 0x8E PUSH1 0x4 DUP1 CALLDATASIZE SUB DUP2 ADD SWAP1 PUSH2 0x89 SWAP2 SWAP1 PUSH2 0x39F JUMP JUMPDEST PUSH2 0xEC JUMP JUMPDEST STOP JUMPDEST PUSH2 0xAA PUSH1 0x4 DUP1 CALLDATASIZE SUB DUP2 ADD SWAP1 PUSH2 0xA5 SWAP2 SWAP1 PUSH2 0x2F1 JUMP JUMPDEST PUSH2 0x1FD JUMP JUMPDEST PUSH1 0x40 MLOAD PUSH2 0xB8 SWAP3 SWAP2 SWAP1 PUSH2 0x34E JUMP JUMPDEST PUSH1 0x40 MLOAD DUP1 SWAP2 SUB SWAP1 RETURN JUMPDEST PUSH0 PUSH1 0x20 MSTORE DUP1 PUSH0 MSTORE PUSH1 0x40 PUSH0 KECCAK256 PUSH0 SWAP2 POP SWAP1 POP DUP1 PUSH0 ADD PUSH0 SWAP1 SLOAD SWAP1 PUSH2 0x100 EXP SWAP1 DIV PUSH1 0xFF AND SWAP1 DUP1 PUSH1 0x1 ADD SLOAD SWAP1 POP DUP3 JUMP JUMPDEST PUSH0 ISZERO ISZERO PUSH0 PUSH0 CALLER PUSH20 0xFFFFFFFFFFFFFFFFFFFFFFFFFFFFFFFFFFFFFFFF AND PUSH20 0xFFFFFFFFFFFFFFFFFFFFFFFFFFFFFFFFFFFFFFFF AND DUP2 MSTORE PUSH1 0x20 ADD SWAP1 DUP2 MSTORE PUSH1 0x20 ADD PUSH0 KECCAK256 PUSH0 ADD PUSH0 SWAP1 SLOAD SWAP1 PUSH2 0x100 EXP SWAP1 DIV PUSH1 0xFF AND ISZERO ISZERO EQ PUSH2 0x17C JUMPI PUSH1 0x40 MLOAD PUSH32 0x8C379A000000000000000000000000000000000000000000000000000000000 DUP2 MSTORE PUSH1 0x4 ADD PUSH2 0x173 SWAP1 PUSH2 0x424 JUMP JUMPDEST PUSH1 0x40 MLOAD DUP1 SWAP2 SUB SWAP1 REVERT JUMPDEST PUSH1 0x40 MLOAD DUP1 PUSH1 0x40 ADD PUSH1 0x40 MSTORE DUP1 PUSH1 0x1 ISZERO ISZERO DUP2 MSTORE PUSH1 0x20 ADD DUP3 DUP2 MSTORE POP PUSH0 PUSH0 CALLER PUSH20 0xFFFFFFFFFFFFFFFFFFFFFFFFFFFFFFFFFFFFFFFF AND PUSH20 0xFFFFFFFFFFFFFFFFFFFFFFFFFFFFFFFFFFFFFFFF AND DUP2 MSTORE PUSH1 0x20 ADD SWAP1 DUP2 MSTORE PUSH1 0x20 ADD PUSH0 KECCAK256 PUSH0 DUP3 ADD MLOAD DUP2 PUSH0 ADD PUSH0 PUSH2 0x100 EXP DUP2 SLOAD DUP2 PUSH1 0xFF MUL NOT AND SWAP1 DUP4 ISZERO ISZERO MUL OR SWAP1 SSTORE POP PUSH1 0x20 DUP3 ADD MLOAD DUP2 PUSH1 0x1 ADD SSTORE SWAP1 POP POP POP JUMP JUMPDEST PUSH0 PUSH0 PUSH0 PUSH0 DUP5 PUSH20 0xFFFFFFFFFFFFFFFFFFFFFFFFFFFFFFFFFFFFFFFF AND PUSH20 0xFFFFFFFFFFFFFFFFFFFFFFFFFFFFFFFFFFFFFFFF AND DUP2 MSTORE PUSH1 0x20 ADD SWAP1 DUP2 MSTORE PUSH1 0x20 ADD PUSH0 KECCAK256 PUSH0 ADD PUSH0 SWAP1 SLOAD SWAP1 PUSH2 0x100 EXP SWAP1 DIV PUSH1 0xFF AND PUSH0 PUSH0 DUP6 PUSH20 0xFFFFFFFFFFFFFFFFFFFFFFFFFFFFFFFFFFFFFFFF AND PUSH20 0xFFFFFFFFFFFFFFFFFFFFFFFFFFFFFFFFFFFFFFFF AND DUP2 MSTORE PUSH1 0x20 ADD SWAP1 DUP2 MSTORE PUSH1 0x20 ADD PUSH0 KECCAK256 PUSH1 0x1 ADD SLOAD SWAP2 POP SWAP2 POP SWAP2 POP SWAP2 JUMP JUMPDEST PUSH0 PUSH0 REVERT JUMPDEST PUSH0 PUSH20 0xFFFFFFFFFFFFFFFFFFFFFFFFFFFFFFFFFFFFFFFF DUP3 AND SWAP1 POP SWAP2 SWAP1 POP JUMP JUMPDEST PUSH0 PUSH2 0x2C0 DUP3 PUSH2 0x297 JUMP JUMPDEST SWAP1 POP SWAP2 SWAP1 POP JUMP JUMPDEST PUSH2 0x2D0 DUP2 PUSH2 0x2B6 JUMP JUMPDEST DUP2 EQ PUSH2 0x2DA JUMPI PUSH0 PUSH0 REVERT JUMPDEST POP JUMP JUMPDEST PUSH0 DUP2 CALLDATALOAD SWAP1 POP PUSH2 0x2EB DUP2 PUSH2 0x2C7 JUMP JUMPDEST SWAP3 SWAP2 POP POP JUMP JUMPDEST PUSH0 PUSH1 0x20 DUP3 DUP5 SUB SLT ISZERO PUSH2 0x306 JUMPI PUSH2 0x305 PUSH2 0x293 JUMP JUMPDEST JUMPDEST PUSH0 PUSH2 0x313 DUP5 DUP3 DUP6 ADD PUSH2 0x2DD JUMP JUMPDEST SWAP2 POP POP SWAP3 SWAP2 POP POP JUMP JUMPDEST PUSH0 DUP2 ISZERO ISZERO SWAP1 POP SWAP2 SWAP1 POP JUMP JUMPDEST PUSH2 0x330 DUP2 PUSH2 0x31C JUMP JUMPDEST DUP3 MSTORE POP POP JUMP JUMPDEST PUSH0 DUP2 SWAP1 POP SWAP2 SWAP1 POP JUMP JUMPDEST PUSH2 0x348 DUP2 PUSH2 0x336 JUMP JUMPDEST DUP3 MSTORE POP POP JUMP JUMPDEST PUSH0 PUSH1 0x40 DUP3 ADD SWAP1 POP PUSH2 0x361 PUSH0 DUP4 ADD DUP6 PUSH2 0x327 JUMP JUMPDEST PUSH2 0x36E PUSH1 0x20 DUP4 ADD DUP5 PUSH2 0x33F JUMP JUMPDEST SWAP4 SWAP3 POP POP POP JUMP JUMPDEST PUSH2 0x37E DUP2 PUSH2 0x336 JUMP JUMPDEST DUP2 EQ PUSH2 0x388 JUMPI PUSH0 PUSH0 REVERT JUMPDEST POP JUMP JUMPDEST PUSH0 DUP2 CALLDATALOAD SWAP1 POP PUSH2 0x399 DUP2 PUSH2 0x375 JUMP JUMPDEST SWAP3 SWAP2 POP POP JUMP JUMPDEST PUSH0 PUSH1 0x20 DUP3 DUP5 SUB SLT ISZERO PUSH2 0x3B4 JUMPI PUSH2 0x3B3 PUSH2 0x293 JUMP JUMPDEST JUMPDEST PUSH0 PUSH2 0x3C1 DUP5 DUP3 DUP6 ADD PUSH2 0x38B JUMP JUMPDEST SWAP2 POP POP SWAP3 SWAP2 POP POP JUMP JUMPDEST PUSH0 DUP3 DUP3 MSTORE PUSH1 0x20 DUP3 ADD SWAP1 POP SWAP3 SWAP2 POP POP JUMP JUMPDEST PUSH32 0x416C726561647900000000000000000000000000000000000000000000000000 PUSH0 DUP3 ADD MSTORE POP JUMP JUMPDEST PUSH0 PUSH2 0x40E PUSH1 0x7 DUP4 PUSH2 0x3CA JUMP JUMPDEST SWAP2 POP PUSH2 0x419 DUP3 PUSH2 0x3DA JUMP JUMPDEST PUSH1 0x20 DUP3 ADD SWAP1 POP SWAP2 SWAP1 POP JUMP JUMPDEST PUSH0 PUSH1 0x20 DUP3 ADD SWAP1 POP DUP2 DUP2 SUB PUSH0 DUP4 ADD MSTORE PUSH2 0x43B DUP2 PUSH2 0x402 JUMP JUMPDEST SWAP1 POP SWAP2 SWAP1 POP JUMP INVALID LOG2 PUSH5 0x6970667358 0x22 SLT KECCAK256 PUSH27 0x8227591603CB308BE4CD4238ADF8C6765860CD76C505628853E5DB 0xE3 PUSH28 0xB56564736F6C634300081C0033000000000000000000000000000000 "
				},
				"gasEstimates": {
					"creation": {
						"codeDepositCost": "228800",
						"executionCost": "267",
						"totalCost": "229067"
					},
					"external": {
						"getVoterStatus(address)": "5198",
						"registerVote(uint256)": "49222",
						"voterDitails(address)": "5044"
					}
				},
				"methodIdentifiers": {
					"getVoterStatus(address)": "78e3ef20",
					"registerVote(uint256)": "464d4a92",
					"voterDitails(address)": "42b31ad6"
				}
			},
			"storageLayout": {
				"storage": [
					{
						"astId": 11,
						"contract": "BlockchainFundamentals/02-exercises/02-voting.sol:voting",
						"label": "voterDitails",
						"offset": 0,
						"slot": "0",
						"type": "t_mapping(t_address,t_struct(Voter)6_storage)"
					}
				],
				"types": {
					"t_address": {
						"encoding": "inplace",
						"label": "address",
						"numberOfBytes": "20"
					},
					"t_bool": {
						"encoding": "inplace",
						"label": "bool",
						"numberOfBytes": "1"
					},
					"t_mapping(t_address,t_struct(Voter)6_storage)": {
						"encoding": "mapping",
						"key": "t_address",
						"label": "mapping(address => struct voting.Voter)",
						"numberOfBytes": "32",
						"value": "t_struct(Voter)6_storage"
					},
					"t_struct(Voter)6_storage": {
						"encoding": "inplace",
						"label": "struct voting.Voter",
						"members": [
							{
								"astId": 3,
								"contract": "BlockchainFundamentals/02-exercises/02-voting.sol:voting",
								"label": "hasVoted",
								"offset": 0,
								"slot": "0",
								"type": "t_bool"
							},
							{
								"astId": 5,
								"contract": "BlockchainFundamentals/02-exercises/02-voting.sol:voting",
								"label": "choice",
								"offset": 0,
								"slot": "1",
								"type": "t_uint256"
							}
						],
						"numberOfBytes": "64"
					},
					"t_uint256": {
						"encoding": "inplace",
						"label": "uint256",
						"numberOfBytes": "32"
					}
				}
			},
			"userdoc": {
				"kind": "user",
				"methods": {},
				"version": 1
			}
		}
	}
}