{
	"BlockchainFundamentals/02-exercises/04-savingAccount.sol": {
		"savingAccount": {
			"abi": [
				{
					"inputs": [
						{
							"internalType": "uint256",
							"name": "addedBalance",
							"type": "uint256"
						},
						{
							"internalType": "uint256",
							"name": "lockPeriod",
							"type": "uint256"
						}
					],
					"name": "createAcount",
					"outputs": [],
					"stateMutability": "payable",
					"type": "function"
				},
				{
					"inputs": [
						{
							"internalType": "address",
							"name": "",
							"type": "address"
						},
						{
							"internalType": "uint256",
							"name": "",
							"type": "uint256"
						}
					],
					"name": "database",
					"outputs": [
						{
							"internalType": "uint256",
							"name": "balance",
							"type": "uint256"
						},
						{
							"internalType": "address",
							"name": "owner",
							"type": "address"
						},
						{
							"internalType": "uint256",
							"name": "creationTime",
							"type": "uint256"
						},
						{
							"internalType": "uint256",
							"name": "lockPeriod",
							"type": "uint256"
						}
					],
					"stateMutability": "view",
					"type": "function"
				},
				{
					"inputs": [
						{
							"internalType": "uint256",
							"name": "additionalDeposit",
							"type": "uint256"
						},
						{
							"internalType": "uint256",
							"name": "index",
							"type": "uint256"
						}
					],
					"name": "newDeposit",
					"outputs": [],
					"stateMutability": "nonpayable",
					"type": "function"
				},
				{
					"inputs": [
						{
							"internalType": "address",
							"name": "user",
							"type": "address"
						},
						{
							"internalType": "uint256",
							"name": "index",
							"type": "uint256"
						}
					],
					"name": "viewSavingPlan",
					"outputs": [
						{
							"internalType": "uint256",
							"name": "",
							"type": "uint256"
						},
						{
							"internalType": "address",
							"name": "",
							"type": "address"
						},
						{
							"internalType": "uint256",
							"name": "",
							"type": "uint256"
						},
						{
							"internalType": "uint256",
							"name": "",
							"type": "uint256"
						}
					],
					"stateMutability": "view",
					"type": "function"
				},
				{
					"inputs": [
						{
							"internalType": "uint256",
							"name": "amount",
							"type": "uint256"
						},
						{
							"internalType": "address",
							"name": "user",
							"type": "address"
						},
						{
							"internalType": "uint256",
							"name": "index",
							"type": "uint256"
						}
					],
					"name": "withdraw",
					"outputs": [],
					"stateMutability": "nonpayable",
					"type": "function"
				}
			],
			"devdoc": {
				"kind": "dev",
				"methods": {},
				"version": 1
			},
			"evm": {
				"assembly": "    /* \"BlockchainFundamentals/02-exercises/04-savingAccount.sol\":62:1586  contract savingAccount {... */\n  mstore(0x40, 0x80)\n  callvalue\n  dup1\n  iszero\n  tag_1\n  jumpi\n  revert(0x00, 0x00)\ntag_1:\n  pop\n  dataSize(sub_0)\n  dup1\n  dataOffset(sub_0)\n  0x00\n  codecopy\n  0x00\n  return\nstop\n\nsub_0: assembly {\n        /* \"BlockchainFundamentals/02-exercises/04-savingAccount.sol\":62:1586  contract savingAccount {... */\n      mstore(0x40, 0x80)\n      jumpi(tag_1, lt(calldatasize, 0x04))\n      shr(0xe0, calldataload(0x00))\n      dup1\n      0x2f75b785\n      eq\n      tag_2\n      jumpi\n      dup1\n      0x33d81169\n      eq\n      tag_3\n      jumpi\n      dup1\n      0x9d8be070\n      eq\n      tag_4\n      jumpi\n      dup1\n      0xd90a5504\n      eq\n      tag_5\n      jumpi\n      dup1\n      0xe63697c8\n      eq\n      tag_6\n      jumpi\n    tag_1:\n      revert(0x00, 0x00)\n        /* \"BlockchainFundamentals/02-exercises/04-savingAccount.sol\":238:291  mapping (address => SavingsAccount[]) public database */\n    tag_2:\n      callvalue\n      dup1\n      iszero\n      tag_7\n      jumpi\n      revert(0x00, 0x00)\n    tag_7:\n      pop\n      tag_8\n      0x04\n      dup1\n      calldatasize\n      sub\n      dup2\n      add\n      swap1\n      tag_9\n      swap2\n      swap1\n      tag_10\n      jump\t// in\n    tag_9:\n      tag_11\n      jump\t// in\n    tag_8:\n      mload(0x40)\n      tag_12\n      swap5\n      swap4\n      swap3\n      swap2\n      swap1\n      tag_13\n      jump\t// in\n    tag_12:\n      mload(0x40)\n      dup1\n      swap2\n      sub\n      swap1\n      return\n        /* \"BlockchainFundamentals/02-exercises/04-savingAccount.sol\":298:625  function createAcount (uint256 addedBalance, uint256 lockPeriod) external payable  {... */\n    tag_3:\n      tag_14\n      0x04\n      dup1\n      calldatasize\n      sub\n      dup2\n      add\n      swap1\n      tag_15\n      swap2\n      swap1\n      tag_16\n      jump\t// in\n    tag_15:\n      tag_17\n      jump\t// in\n    tag_14:\n      stop\n        /* \"BlockchainFundamentals/02-exercises/04-savingAccount.sol\":631:899  function viewSavingPlan (address user, uint256 index) external view returns(uint256,address,uint256,uint256){... */\n    tag_4:\n      callvalue\n      dup1\n      iszero\n      tag_18\n      jumpi\n      revert(0x00, 0x00)\n    tag_18:\n      pop\n      tag_19\n      0x04\n      dup1\n      calldatasize\n      sub\n      dup2\n      add\n      swap1\n      tag_20\n      swap2\n      swap1\n      tag_10\n      jump\t// in\n    tag_20:\n      tag_21\n      jump\t// in\n    tag_19:\n      mload(0x40)\n      tag_22\n      swap5\n      swap4\n      swap3\n      swap2\n      swap1\n      tag_13\n      jump\t// in\n    tag_22:\n      mload(0x40)\n      dup1\n      swap2\n      sub\n      swap1\n      return\n        /* \"BlockchainFundamentals/02-exercises/04-savingAccount.sol\":1347:1580  function newDeposit (uint256 additionalDeposit, uint256 index) external {... */\n    tag_5:\n      callvalue\n      dup1\n      iszero\n      tag_23\n      jumpi\n      revert(0x00, 0x00)\n    tag_23:\n      pop\n      tag_24\n      0x04\n      dup1\n      calldatasize\n      sub\n      dup2\n      add\n      swap1\n      tag_25\n      swap2\n      swap1\n      tag_16\n      jump\t// in\n    tag_25:\n      tag_26\n      jump\t// in\n    tag_24:\n      stop\n        /* \"BlockchainFundamentals/02-exercises/04-savingAccount.sol\":907:1341  function withdraw (uint256 amount,address user, uint256 index) external{... */\n    tag_6:\n      callvalue\n      dup1\n      iszero\n      tag_27\n      jumpi\n      revert(0x00, 0x00)\n    tag_27:\n      pop\n      tag_28\n      0x04\n      dup1\n      calldatasize\n      sub\n      dup2\n      add\n      swap1\n      tag_29\n      swap2\n      swap1\n      tag_30\n      jump\t// in\n    tag_29:\n      tag_31\n      jump\t// in\n    tag_28:\n      stop\n        /* \"BlockchainFundamentals/02-exercises/04-savingAccount.sol\":238:291  mapping (address => SavingsAccount[]) public database */\n    tag_11:\n      mstore(0x20, 0x00)\n      dup2\n      0x00\n      mstore\n      keccak256(0x00, 0x40)\n      dup2\n      dup2\n      sload\n      dup2\n      lt\n      tag_32\n      jumpi\n      0x00\n      dup1\n      revert\n    tag_32:\n      swap1\n      0x00\n      mstore\n      keccak256(0x00, 0x20)\n      swap1\n      0x04\n      mul\n      add\n      0x00\n      swap2\n      pop\n      swap2\n      pop\n      pop\n      dup1\n      0x00\n      add\n      sload\n      swap1\n      dup1\n      0x01\n      add\n      0x00\n      swap1\n      sload\n      swap1\n      0x0100\n      exp\n      swap1\n      div\n      0xffffffffffffffffffffffffffffffffffffffff\n      and\n      swap1\n      dup1\n      0x02\n      add\n      sload\n      swap1\n      dup1\n      0x03\n      add\n      sload\n      swap1\n      pop\n      dup5\n      jump\t// out\n        /* \"BlockchainFundamentals/02-exercises/04-savingAccount.sol\":298:625  function createAcount (uint256 addedBalance, uint256 lockPeriod) external payable  {... */\n    tag_17:\n        /* \"BlockchainFundamentals/02-exercises/04-savingAccount.sol\":402:410  database */\n      0x00\n        /* \"BlockchainFundamentals/02-exercises/04-savingAccount.sol\":402:422  database[msg.sender] */\n      0x00\n        /* \"BlockchainFundamentals/02-exercises/04-savingAccount.sol\":411:421  msg.sender */\n      caller\n        /* \"BlockchainFundamentals/02-exercises/04-savingAccount.sol\":402:422  database[msg.sender] */\n      0xffffffffffffffffffffffffffffffffffffffff\n      and\n      0xffffffffffffffffffffffffffffffffffffffff\n      and\n      dup2\n      mstore\n      0x20\n      add\n      swap1\n      dup2\n      mstore\n      0x20\n      add\n      0x00\n      keccak256\n        /* \"BlockchainFundamentals/02-exercises/04-savingAccount.sol\":428:604  SavingsAccount({... */\n      mload(0x40)\n      dup1\n      0x80\n      add\n      0x40\n      mstore\n      dup1\n        /* \"BlockchainFundamentals/02-exercises/04-savingAccount.sol\":467:479  addedBalance */\n      dup5\n        /* \"BlockchainFundamentals/02-exercises/04-savingAccount.sol\":428:604  SavingsAccount({... */\n      dup2\n      mstore\n      0x20\n      add\n        /* \"BlockchainFundamentals/02-exercises/04-savingAccount.sol\":501:511  msg.sender */\n      caller\n        /* \"BlockchainFundamentals/02-exercises/04-savingAccount.sol\":428:604  SavingsAccount({... */\n      0xffffffffffffffffffffffffffffffffffffffff\n      and\n      dup2\n      mstore\n      0x20\n      add\n        /* \"BlockchainFundamentals/02-exercises/04-savingAccount.sol\":540:555  block.timestamp */\n      timestamp\n        /* \"BlockchainFundamentals/02-exercises/04-savingAccount.sol\":428:604  SavingsAccount({... */\n      dup2\n      mstore\n      0x20\n      add\n        /* \"BlockchainFundamentals/02-exercises/04-savingAccount.sol\":582:592  lockPeriod */\n      dup4\n        /* \"BlockchainFundamentals/02-exercises/04-savingAccount.sol\":428:604  SavingsAccount({... */\n      dup2\n      mstore\n      pop\n        /* \"BlockchainFundamentals/02-exercises/04-savingAccount.sol\":402:605  database[msg.sender].push(SavingsAccount({... */\n      swap1\n      dup1\n      0x01\n      dup2\n      sload\n      add\n      dup1\n      dup3\n      sstore\n      dup1\n      swap2\n      pop\n      pop\n      0x01\n      swap1\n      sub\n      swap1\n      0x00\n      mstore\n      keccak256(0x00, 0x20)\n      swap1\n      0x04\n      mul\n      add\n      0x00\n      swap1\n      swap2\n      swap1\n      swap2\n      swap1\n      swap2\n      pop\n      0x00\n      dup3\n      add\n      mload\n      dup2\n      0x00\n      add\n      sstore\n      0x20\n      dup3\n      add\n      mload\n      dup2\n      0x01\n      add\n      exp(0x0100, 0x00)\n      dup2\n      sload\n      dup2\n      0xffffffffffffffffffffffffffffffffffffffff\n      mul\n      not\n      and\n      swap1\n      dup4\n      0xffffffffffffffffffffffffffffffffffffffff\n      and\n      mul\n      or\n      swap1\n      sstore\n      pop\n      0x40\n      dup3\n      add\n      mload\n      dup2\n      0x02\n      add\n      sstore\n      0x60\n      dup3\n      add\n      mload\n      dup2\n      0x03\n      add\n      sstore\n      pop\n      pop\n        /* \"BlockchainFundamentals/02-exercises/04-savingAccount.sol\":298:625  function createAcount (uint256 addedBalance, uint256 lockPeriod) external payable  {... */\n      pop\n      pop\n      jump\t// out\n        /* \"BlockchainFundamentals/02-exercises/04-savingAccount.sol\":631:899  function viewSavingPlan (address user, uint256 index) external view returns(uint256,address,uint256,uint256){... */\n    tag_21:\n        /* \"BlockchainFundamentals/02-exercises/04-savingAccount.sol\":707:714  uint256 */\n      0x00\n        /* \"BlockchainFundamentals/02-exercises/04-savingAccount.sol\":715:722  address */\n      0x00\n        /* \"BlockchainFundamentals/02-exercises/04-savingAccount.sol\":723:730  uint256 */\n      0x00\n        /* \"BlockchainFundamentals/02-exercises/04-savingAccount.sol\":731:738  uint256 */\n      0x00\n        /* \"BlockchainFundamentals/02-exercises/04-savingAccount.sol\":758:766  database */\n      0x00\n        /* \"BlockchainFundamentals/02-exercises/04-savingAccount.sol\":758:772  database[user] */\n      0x00\n        /* \"BlockchainFundamentals/02-exercises/04-savingAccount.sol\":767:771  user */\n      dup8\n        /* \"BlockchainFundamentals/02-exercises/04-savingAccount.sol\":758:772  database[user] */\n      0xffffffffffffffffffffffffffffffffffffffff\n      and\n      0xffffffffffffffffffffffffffffffffffffffff\n      and\n      dup2\n      mstore\n      0x20\n      add\n      swap1\n      dup2\n      mstore\n      0x20\n      add\n      0x00\n      keccak256\n        /* \"BlockchainFundamentals/02-exercises/04-savingAccount.sol\":774:779  index */\n      dup6\n        /* \"BlockchainFundamentals/02-exercises/04-savingAccount.sol\":757:780  (database[user])[index] */\n      dup2\n      sload\n      dup2\n      lt\n      tag_37\n      jumpi\n      tag_38\n      tag_39\n      jump\t// in\n    tag_38:\n    tag_37:\n      swap1\n      0x00\n      mstore\n      keccak256(0x00, 0x20)\n      swap1\n      0x04\n      mul\n      add\n        /* \"BlockchainFundamentals/02-exercises/04-savingAccount.sol\":757:788  (database[user])[index].balance */\n      0x00\n      add\n      sload\n        /* \"BlockchainFundamentals/02-exercises/04-savingAccount.sol\":790:798  database */\n      0x00\n        /* \"BlockchainFundamentals/02-exercises/04-savingAccount.sol\":790:804  database[user] */\n      0x00\n        /* \"BlockchainFundamentals/02-exercises/04-savingAccount.sol\":799:803  user */\n      dup9\n        /* \"BlockchainFundamentals/02-exercises/04-savingAccount.sol\":790:804  database[user] */\n      0xffffffffffffffffffffffffffffffffffffffff\n      and\n      0xffffffffffffffffffffffffffffffffffffffff\n      and\n      dup2\n      mstore\n      0x20\n      add\n      swap1\n      dup2\n      mstore\n      0x20\n      add\n      0x00\n      keccak256\n        /* \"BlockchainFundamentals/02-exercises/04-savingAccount.sol\":806:811  index */\n      dup7\n        /* \"BlockchainFundamentals/02-exercises/04-savingAccount.sol\":789:812  (database[user])[index] */\n      dup2\n      sload\n      dup2\n      lt\n      tag_41\n      jumpi\n      tag_42\n      tag_39\n      jump\t// in\n    tag_42:\n    tag_41:\n      swap1\n      0x00\n      mstore\n      keccak256(0x00, 0x20)\n      swap1\n      0x04\n      mul\n      add\n        /* \"BlockchainFundamentals/02-exercises/04-savingAccount.sol\":789:818  (database[user])[index].owner */\n      0x01\n      add\n      0x00\n      swap1\n      sload\n      swap1\n      0x0100\n      exp\n      swap1\n      div\n      0xffffffffffffffffffffffffffffffffffffffff\n      and\n        /* \"BlockchainFundamentals/02-exercises/04-savingAccount.sol\":820:828  database */\n      0x00\n        /* \"BlockchainFundamentals/02-exercises/04-savingAccount.sol\":820:834  database[user] */\n      0x00\n        /* \"BlockchainFundamentals/02-exercises/04-savingAccount.sol\":829:833  user */\n      dup10\n        /* \"BlockchainFundamentals/02-exercises/04-savingAccount.sol\":820:834  database[user] */\n      0xffffffffffffffffffffffffffffffffffffffff\n      and\n      0xffffffffffffffffffffffffffffffffffffffff\n      and\n      dup2\n      mstore\n      0x20\n      add\n      swap1\n      dup2\n      mstore\n      0x20\n      add\n      0x00\n      keccak256\n        /* \"BlockchainFundamentals/02-exercises/04-savingAccount.sol\":836:841  index */\n      dup8\n        /* \"BlockchainFundamentals/02-exercises/04-savingAccount.sol\":819:842  (database[user])[index] */\n      dup2\n      sload\n      dup2\n      lt\n      tag_44\n      jumpi\n      tag_45\n      tag_39\n      jump\t// in\n    tag_45:\n    tag_44:\n      swap1\n      0x00\n      mstore\n      keccak256(0x00, 0x20)\n      swap1\n      0x04\n      mul\n      add\n        /* \"BlockchainFundamentals/02-exercises/04-savingAccount.sol\":819:855  (database[user])[index].creationTime */\n      0x02\n      add\n      sload\n        /* \"BlockchainFundamentals/02-exercises/04-savingAccount.sol\":857:865  database */\n      0x00\n        /* \"BlockchainFundamentals/02-exercises/04-savingAccount.sol\":857:871  database[user] */\n      0x00\n        /* \"BlockchainFundamentals/02-exercises/04-savingAccount.sol\":866:870  user */\n      dup11\n        /* \"BlockchainFundamentals/02-exercises/04-savingAccount.sol\":857:871  database[user] */\n      0xffffffffffffffffffffffffffffffffffffffff\n      and\n      0xffffffffffffffffffffffffffffffffffffffff\n      and\n      dup2\n      mstore\n      0x20\n      add\n      swap1\n      dup2\n      mstore\n      0x20\n      add\n      0x00\n      keccak256\n        /* \"BlockchainFundamentals/02-exercises/04-savingAccount.sol\":873:878  index */\n      dup9\n        /* \"BlockchainFundamentals/02-exercises/04-savingAccount.sol\":856:879  (database[user])[index] */\n      dup2\n      sload\n      dup2\n      lt\n      tag_47\n      jumpi\n      tag_48\n      tag_39\n      jump\t// in\n    tag_48:\n    tag_47:\n      swap1\n      0x00\n      mstore\n      keccak256(0x00, 0x20)\n      swap1\n      0x04\n      mul\n      add\n        /* \"BlockchainFundamentals/02-exercises/04-savingAccount.sol\":856:890  (database[user])[index].lockPeriod */\n      0x03\n      add\n      sload\n        /* \"BlockchainFundamentals/02-exercises/04-savingAccount.sol\":750:891  return((database[user])[index].balance,(database[user])[index].owner,(database[user])[index].creationTime,(database[user])[index].lockPeriod) */\n      swap4\n      pop\n      swap4\n      pop\n      swap4\n      pop\n      swap4\n      pop\n        /* \"BlockchainFundamentals/02-exercises/04-savingAccount.sol\":631:899  function viewSavingPlan (address user, uint256 index) external view returns(uint256,address,uint256,uint256){... */\n      swap3\n      swap6\n      swap2\n      swap5\n      pop\n      swap3\n      pop\n      jump\t// out\n        /* \"BlockchainFundamentals/02-exercises/04-savingAccount.sol\":1347:1580  function newDeposit (uint256 additionalDeposit, uint256 index) external {... */\n    tag_26:\n        /* \"BlockchainFundamentals/02-exercises/04-savingAccount.sol\":1446:1454  database */\n      0x00\n        /* \"BlockchainFundamentals/02-exercises/04-savingAccount.sol\":1446:1466  database[msg.sender] */\n      0x00\n        /* \"BlockchainFundamentals/02-exercises/04-savingAccount.sol\":1455:1465  msg.sender */\n      caller\n        /* \"BlockchainFundamentals/02-exercises/04-savingAccount.sol\":1446:1466  database[msg.sender] */\n      0xffffffffffffffffffffffffffffffffffffffff\n      and\n      0xffffffffffffffffffffffffffffffffffffffff\n      and\n      dup2\n      mstore\n      0x20\n      add\n      swap1\n      dup2\n      mstore\n      0x20\n      add\n      0x00\n      keccak256\n        /* \"BlockchainFundamentals/02-exercises/04-savingAccount.sol\":1446:1473  database[msg.sender].length */\n      dup1\n      sload\n      swap1\n      pop\n        /* \"BlockchainFundamentals/02-exercises/04-savingAccount.sol\":1438:1443  index */\n      dup2\n        /* \"BlockchainFundamentals/02-exercises/04-savingAccount.sol\":1438:1473  index < database[msg.sender].length */\n      lt\n        /* \"BlockchainFundamentals/02-exercises/04-savingAccount.sol\":1430:1495  require(index < database[msg.sender].length, \"Deposit not found\") */\n      tag_51\n      jumpi\n      mload(0x40)\n      0x08c379a000000000000000000000000000000000000000000000000000000000\n      dup2\n      mstore\n      0x04\n      add\n      tag_52\n      swap1\n      tag_53\n      jump\t// in\n    tag_52:\n      mload(0x40)\n      dup1\n      swap2\n      sub\n      swap1\n      revert\n    tag_51:\n        /* \"BlockchainFundamentals/02-exercises/04-savingAccount.sol\":1545:1562  additionalDeposit */\n      dup2\n        /* \"BlockchainFundamentals/02-exercises/04-savingAccount.sol\":1506:1514  database */\n      0x00\n        /* \"BlockchainFundamentals/02-exercises/04-savingAccount.sol\":1506:1526  database[msg.sender] */\n      0x00\n        /* \"BlockchainFundamentals/02-exercises/04-savingAccount.sol\":1515:1525  msg.sender */\n      caller\n        /* \"BlockchainFundamentals/02-exercises/04-savingAccount.sol\":1506:1526  database[msg.sender] */\n      0xffffffffffffffffffffffffffffffffffffffff\n      and\n      0xffffffffffffffffffffffffffffffffffffffff\n      and\n      dup2\n      mstore\n      0x20\n      add\n      swap1\n      dup2\n      mstore\n      0x20\n      add\n      0x00\n      keccak256\n        /* \"BlockchainFundamentals/02-exercises/04-savingAccount.sol\":1527:1532  index */\n      dup3\n        /* \"BlockchainFundamentals/02-exercises/04-savingAccount.sol\":1506:1533  database[msg.sender][index] */\n      dup2\n      sload\n      dup2\n      lt\n      tag_54\n      jumpi\n      tag_55\n      tag_39\n      jump\t// in\n    tag_55:\n    tag_54:\n      swap1\n      0x00\n      mstore\n      keccak256(0x00, 0x20)\n      swap1\n      0x04\n      mul\n      add\n        /* \"BlockchainFundamentals/02-exercises/04-savingAccount.sol\":1506:1541  database[msg.sender][index].balance */\n      0x00\n      add\n      0x00\n        /* \"BlockchainFundamentals/02-exercises/04-savingAccount.sol\":1506:1562  database[msg.sender][index].balance += additionalDeposit */\n      dup3\n      dup3\n      sload\n      tag_57\n      swap2\n      swap1\n      tag_58\n      jump\t// in\n    tag_57:\n      swap3\n      pop\n      pop\n      dup2\n      swap1\n      sstore\n      pop\n        /* \"BlockchainFundamentals/02-exercises/04-savingAccount.sol\":1347:1580  function newDeposit (uint256 additionalDeposit, uint256 index) external {... */\n      pop\n      pop\n      jump\t// out\n        /* \"BlockchainFundamentals/02-exercises/04-savingAccount.sol\":907:1341  function withdraw (uint256 amount,address user, uint256 index) external{... */\n    tag_31:\n        /* \"BlockchainFundamentals/02-exercises/04-savingAccount.sol\":1056:1064  database */\n      0x00\n        /* \"BlockchainFundamentals/02-exercises/04-savingAccount.sol\":1056:1076  database[msg.sender] */\n      0x00\n        /* \"BlockchainFundamentals/02-exercises/04-savingAccount.sol\":1065:1075  msg.sender */\n      caller\n        /* \"BlockchainFundamentals/02-exercises/04-savingAccount.sol\":1056:1076  database[msg.sender] */\n      0xffffffffffffffffffffffffffffffffffffffff\n      and\n      0xffffffffffffffffffffffffffffffffffffffff\n      and\n      dup2\n      mstore\n      0x20\n      add\n      swap1\n      dup2\n      mstore\n      0x20\n      add\n      0x00\n      keccak256\n        /* \"BlockchainFundamentals/02-exercises/04-savingAccount.sol\":1077:1078  0 */\n      0x00\n        /* \"BlockchainFundamentals/02-exercises/04-savingAccount.sol\":1056:1079  database[msg.sender][0] */\n      dup2\n      sload\n      dup2\n      lt\n      tag_60\n      jumpi\n      tag_61\n      tag_39\n      jump\t// in\n    tag_61:\n    tag_60:\n      swap1\n      0x00\n      mstore\n      keccak256(0x00, 0x20)\n      swap1\n      0x04\n      mul\n      add\n        /* \"BlockchainFundamentals/02-exercises/04-savingAccount.sol\":1056:1090  database[msg.sender][0].lockPeriod */\n      0x03\n      add\n      sload\n        /* \"BlockchainFundamentals/02-exercises/04-savingAccount.sol\":1017:1025  database */\n      0x00\n        /* \"BlockchainFundamentals/02-exercises/04-savingAccount.sol\":1017:1037  database[msg.sender] */\n      0x00\n        /* \"BlockchainFundamentals/02-exercises/04-savingAccount.sol\":1026:1036  msg.sender */\n      caller\n        /* \"BlockchainFundamentals/02-exercises/04-savingAccount.sol\":1017:1037  database[msg.sender] */\n      0xffffffffffffffffffffffffffffffffffffffff\n      and\n      0xffffffffffffffffffffffffffffffffffffffff\n      and\n      dup2\n      mstore\n      0x20\n      add\n      swap1\n      dup2\n      mstore\n      0x20\n      add\n      0x00\n      keccak256\n        /* \"BlockchainFundamentals/02-exercises/04-savingAccount.sol\":1039:1040  0 */\n      0x00\n        /* \"BlockchainFundamentals/02-exercises/04-savingAccount.sol\":1016:1041  (database[msg.sender])[0] */\n      dup2\n      sload\n      dup2\n      lt\n      tag_63\n      jumpi\n      tag_64\n      tag_39\n      jump\t// in\n    tag_64:\n    tag_63:\n      swap1\n      0x00\n      mstore\n      keccak256(0x00, 0x20)\n      swap1\n      0x04\n      mul\n      add\n        /* \"BlockchainFundamentals/02-exercises/04-savingAccount.sol\":1016:1054  (database[msg.sender])[0].creationTime */\n      0x02\n      add\n      sload\n        /* \"BlockchainFundamentals/02-exercises/04-savingAccount.sol\":1016:1090  (database[msg.sender])[0].creationTime+ database[msg.sender][0].lockPeriod */\n      tag_66\n      swap2\n      swap1\n      tag_58\n      jump\t// in\n    tag_66:\n        /* \"BlockchainFundamentals/02-exercises/04-savingAccount.sol\":997:1012  block.timestamp */\n      timestamp\n        /* \"BlockchainFundamentals/02-exercises/04-savingAccount.sol\":997:1091  block.timestamp >=((database[msg.sender])[0].creationTime+ database[msg.sender][0].lockPeriod) */\n      lt\n      iszero\n        /* \"BlockchainFundamentals/02-exercises/04-savingAccount.sol\":989:1127  require(block.timestamp >=((database[msg.sender])[0].creationTime+ database[msg.sender][0].lockPeriod),\"You are not eligible to Withdraw\") */\n      tag_67\n      jumpi\n      mload(0x40)\n      0x08c379a000000000000000000000000000000000000000000000000000000000\n      dup2\n      mstore\n      0x04\n      add\n      tag_68\n      swap1\n      tag_69\n      jump\t// in\n    tag_68:\n      mload(0x40)\n      dup1\n      swap2\n      sub\n      swap1\n      revert\n    tag_67:\n        /* \"BlockchainFundamentals/02-exercises/04-savingAccount.sol\":1179:1185  amount */\n      dup3\n        /* \"BlockchainFundamentals/02-exercises/04-savingAccount.sol\":1146:1154  database */\n      0x00\n        /* \"BlockchainFundamentals/02-exercises/04-savingAccount.sol\":1146:1160  database[user] */\n      0x00\n        /* \"BlockchainFundamentals/02-exercises/04-savingAccount.sol\":1155:1159  user */\n      dup5\n        /* \"BlockchainFundamentals/02-exercises/04-savingAccount.sol\":1146:1160  database[user] */\n      0xffffffffffffffffffffffffffffffffffffffff\n      and\n      0xffffffffffffffffffffffffffffffffffffffff\n      and\n      dup2\n      mstore\n      0x20\n      add\n      swap1\n      dup2\n      mstore\n      0x20\n      add\n      0x00\n      keccak256\n        /* \"BlockchainFundamentals/02-exercises/04-savingAccount.sol\":1162:1167  index */\n      dup3\n        /* \"BlockchainFundamentals/02-exercises/04-savingAccount.sol\":1145:1168  (database[user])[index] */\n      dup2\n      sload\n      dup2\n      lt\n      tag_70\n      jumpi\n      tag_71\n      tag_39\n      jump\t// in\n    tag_71:\n    tag_70:\n      swap1\n      0x00\n      mstore\n      keccak256(0x00, 0x20)\n      swap1\n      0x04\n      mul\n      add\n        /* \"BlockchainFundamentals/02-exercises/04-savingAccount.sol\":1145:1176  (database[user])[index].balance */\n      0x00\n      add\n      sload\n        /* \"BlockchainFundamentals/02-exercises/04-savingAccount.sol\":1145:1185  (database[user])[index].balance < amount */\n      lt\n        /* \"BlockchainFundamentals/02-exercises/04-savingAccount.sol\":1141:1321  if ((database[user])[index].balance < amount){... */\n      iszero\n      tag_73\n      jumpi\n        /* \"BlockchainFundamentals/02-exercises/04-savingAccount.sol\":1201:1234  revert(\"Balance is insufficient\") */\n      mload(0x40)\n      0x08c379a000000000000000000000000000000000000000000000000000000000\n      dup2\n      mstore\n      0x04\n      add\n      tag_74\n      swap1\n      tag_75\n      jump\t// in\n    tag_74:\n      mload(0x40)\n      dup1\n      swap2\n      sub\n      swap1\n      revert\n        /* \"BlockchainFundamentals/02-exercises/04-savingAccount.sol\":1141:1321  if ((database[user])[index].balance < amount){... */\n    tag_73:\n        /* \"BlockchainFundamentals/02-exercises/04-savingAccount.sol\":1302:1308  amount */\n      dup3\n        /* \"BlockchainFundamentals/02-exercises/04-savingAccount.sol\":1269:1277  database */\n      0x00\n        /* \"BlockchainFundamentals/02-exercises/04-savingAccount.sol\":1269:1283  database[user] */\n      0x00\n        /* \"BlockchainFundamentals/02-exercises/04-savingAccount.sol\":1278:1282  user */\n      dup5\n        /* \"BlockchainFundamentals/02-exercises/04-savingAccount.sol\":1269:1283  database[user] */\n      0xffffffffffffffffffffffffffffffffffffffff\n      and\n      0xffffffffffffffffffffffffffffffffffffffff\n      and\n      dup2\n      mstore\n      0x20\n      add\n      swap1\n      dup2\n      mstore\n      0x20\n      add\n      0x00\n      keccak256\n        /* \"BlockchainFundamentals/02-exercises/04-savingAccount.sol\":1285:1290  index */\n      dup3\n        /* \"BlockchainFundamentals/02-exercises/04-savingAccount.sol\":1268:1291  (database[user])[index] */\n      dup2\n      sload\n      dup2\n      lt\n      tag_77\n      jumpi\n      tag_78\n      tag_39\n      jump\t// in\n    tag_78:\n    tag_77:\n      swap1\n      0x00\n      mstore\n      keccak256(0x00, 0x20)\n      swap1\n      0x04\n      mul\n      add\n        /* \"BlockchainFundamentals/02-exercises/04-savingAccount.sol\":1268:1299  (database[user])[index].balance */\n      0x00\n      add\n      0x00\n        /* \"BlockchainFundamentals/02-exercises/04-savingAccount.sol\":1268:1308  (database[user])[index].balance -=amount */\n      dup3\n      dup3\n      sload\n      tag_80\n      swap2\n      swap1\n      tag_81\n      jump\t// in\n    tag_80:\n      swap3\n      pop\n      pop\n      dup2\n      swap1\n      sstore\n      pop\n        /* \"BlockchainFundamentals/02-exercises/04-savingAccount.sol\":907:1341  function withdraw (uint256 amount,address user, uint256 index) external{... */\n      pop\n      pop\n      pop\n      jump\t// out\n        /* \"#utility.yul\":88:205   */\n    tag_83:\n        /* \"#utility.yul\":197:198   */\n      0x00\n        /* \"#utility.yul\":194:195   */\n      0x00\n        /* \"#utility.yul\":187:199   */\n      revert\n        /* \"#utility.yul\":334:460   */\n    tag_85:\n        /* \"#utility.yul\":371:378   */\n      0x00\n        /* \"#utility.yul\":411:453   */\n      0xffffffffffffffffffffffffffffffffffffffff\n        /* \"#utility.yul\":404:409   */\n      dup3\n        /* \"#utility.yul\":400:454   */\n      and\n        /* \"#utility.yul\":389:454   */\n      swap1\n      pop\n        /* \"#utility.yul\":334:460   */\n      swap2\n      swap1\n      pop\n      jump\t// out\n        /* \"#utility.yul\":466:562   */\n    tag_86:\n        /* \"#utility.yul\":503:510   */\n      0x00\n        /* \"#utility.yul\":532:556   */\n      tag_108\n        /* \"#utility.yul\":550:555   */\n      dup3\n        /* \"#utility.yul\":532:556   */\n      tag_85\n      jump\t// in\n    tag_108:\n        /* \"#utility.yul\":521:556   */\n      swap1\n      pop\n        /* \"#utility.yul\":466:562   */\n      swap2\n      swap1\n      pop\n      jump\t// out\n        /* \"#utility.yul\":568:690   */\n    tag_87:\n        /* \"#utility.yul\":641:665   */\n      tag_110\n        /* \"#utility.yul\":659:664   */\n      dup2\n        /* \"#utility.yul\":641:665   */\n      tag_86\n      jump\t// in\n    tag_110:\n        /* \"#utility.yul\":634:639   */\n      dup2\n        /* \"#utility.yul\":631:666   */\n      eq\n        /* \"#utility.yul\":621:684   */\n      tag_111\n      jumpi\n        /* \"#utility.yul\":680:681   */\n      0x00\n        /* \"#utility.yul\":677:678   */\n      0x00\n        /* \"#utility.yul\":670:682   */\n      revert\n        /* \"#utility.yul\":621:684   */\n    tag_111:\n        /* \"#utility.yul\":568:690   */\n      pop\n      jump\t// out\n        /* \"#utility.yul\":696:835   */\n    tag_88:\n        /* \"#utility.yul\":742:747   */\n      0x00\n        /* \"#utility.yul\":780:786   */\n      dup2\n        /* \"#utility.yul\":767:787   */\n      calldataload\n        /* \"#utility.yul\":758:787   */\n      swap1\n      pop\n        /* \"#utility.yul\":796:829   */\n      tag_113\n        /* \"#utility.yul\":823:828   */\n      dup2\n        /* \"#utility.yul\":796:829   */\n      tag_87\n      jump\t// in\n    tag_113:\n        /* \"#utility.yul\":696:835   */\n      swap3\n      swap2\n      pop\n      pop\n      jump\t// out\n        /* \"#utility.yul\":841:918   */\n    tag_89:\n        /* \"#utility.yul\":878:885   */\n      0x00\n        /* \"#utility.yul\":907:912   */\n      dup2\n        /* \"#utility.yul\":896:912   */\n      swap1\n      pop\n        /* \"#utility.yul\":841:918   */\n      swap2\n      swap1\n      pop\n      jump\t// out\n        /* \"#utility.yul\":924:1046   */\n    tag_90:\n        /* \"#utility.yul\":997:1021   */\n      tag_116\n        /* \"#utility.yul\":1015:1020   */\n      dup2\n        /* \"#utility.yul\":997:1021   */\n      tag_89\n      jump\t// in\n    tag_116:\n        /* \"#utility.yul\":990:995   */\n      dup2\n        /* \"#utility.yul\":987:1022   */\n      eq\n        /* \"#utility.yul\":977:1040   */\n      tag_117\n      jumpi\n        /* \"#utility.yul\":1036:1037   */\n      0x00\n        /* \"#utility.yul\":1033:1034   */\n      0x00\n        /* \"#utility.yul\":1026:1038   */\n      revert\n        /* \"#utility.yul\":977:1040   */\n    tag_117:\n        /* \"#utility.yul\":924:1046   */\n      pop\n      jump\t// out\n        /* \"#utility.yul\":1052:1191   */\n    tag_91:\n        /* \"#utility.yul\":1098:1103   */\n      0x00\n        /* \"#utility.yul\":1136:1142   */\n      dup2\n        /* \"#utility.yul\":1123:1143   */\n      calldataload\n        /* \"#utility.yul\":1114:1143   */\n      swap1\n      pop\n        /* \"#utility.yul\":1152:1185   */\n      tag_119\n        /* \"#utility.yul\":1179:1184   */\n      dup2\n        /* \"#utility.yul\":1152:1185   */\n      tag_90\n      jump\t// in\n    tag_119:\n        /* \"#utility.yul\":1052:1191   */\n      swap3\n      swap2\n      pop\n      pop\n      jump\t// out\n        /* \"#utility.yul\":1197:1671   */\n    tag_10:\n        /* \"#utility.yul\":1265:1271   */\n      0x00\n        /* \"#utility.yul\":1273:1279   */\n      0x00\n        /* \"#utility.yul\":1322:1324   */\n      0x40\n        /* \"#utility.yul\":1310:1319   */\n      dup4\n        /* \"#utility.yul\":1301:1308   */\n      dup6\n        /* \"#utility.yul\":1297:1320   */\n      sub\n        /* \"#utility.yul\":1293:1325   */\n      slt\n        /* \"#utility.yul\":1290:1409   */\n      iszero\n      tag_121\n      jumpi\n        /* \"#utility.yul\":1328:1407   */\n      tag_122\n      tag_83\n      jump\t// in\n    tag_122:\n        /* \"#utility.yul\":1290:1409   */\n    tag_121:\n        /* \"#utility.yul\":1448:1449   */\n      0x00\n        /* \"#utility.yul\":1473:1526   */\n      tag_123\n        /* \"#utility.yul\":1518:1525   */\n      dup6\n        /* \"#utility.yul\":1509:1515   */\n      dup3\n        /* \"#utility.yul\":1498:1507   */\n      dup7\n        /* \"#utility.yul\":1494:1516   */\n      add\n        /* \"#utility.yul\":1473:1526   */\n      tag_88\n      jump\t// in\n    tag_123:\n        /* \"#utility.yul\":1463:1526   */\n      swap3\n      pop\n        /* \"#utility.yul\":1419:1536   */\n      pop\n        /* \"#utility.yul\":1575:1577   */\n      0x20\n        /* \"#utility.yul\":1601:1654   */\n      tag_124\n        /* \"#utility.yul\":1646:1653   */\n      dup6\n        /* \"#utility.yul\":1637:1643   */\n      dup3\n        /* \"#utility.yul\":1626:1635   */\n      dup7\n        /* \"#utility.yul\":1622:1644   */\n      add\n        /* \"#utility.yul\":1601:1654   */\n      tag_91\n      jump\t// in\n    tag_124:\n        /* \"#utility.yul\":1591:1654   */\n      swap2\n      pop\n        /* \"#utility.yul\":1546:1664   */\n      pop\n        /* \"#utility.yul\":1197:1671   */\n      swap3\n      pop\n      swap3\n      swap1\n      pop\n      jump\t// out\n        /* \"#utility.yul\":1677:1795   */\n    tag_92:\n        /* \"#utility.yul\":1764:1788   */\n      tag_126\n        /* \"#utility.yul\":1782:1787   */\n      dup2\n        /* \"#utility.yul\":1764:1788   */\n      tag_89\n      jump\t// in\n    tag_126:\n        /* \"#utility.yul\":1759:1762   */\n      dup3\n        /* \"#utility.yul\":1752:1789   */\n      mstore\n        /* \"#utility.yul\":1677:1795   */\n      pop\n      pop\n      jump\t// out\n        /* \"#utility.yul\":1801:1919   */\n    tag_93:\n        /* \"#utility.yul\":1888:1912   */\n      tag_128\n        /* \"#utility.yul\":1906:1911   */\n      dup2\n        /* \"#utility.yul\":1888:1912   */\n      tag_86\n      jump\t// in\n    tag_128:\n        /* \"#utility.yul\":1883:1886   */\n      dup3\n        /* \"#utility.yul\":1876:1913   */\n      mstore\n        /* \"#utility.yul\":1801:1919   */\n      pop\n      pop\n      jump\t// out\n        /* \"#utility.yul\":1925:2478   */\n    tag_13:\n        /* \"#utility.yul\":2102:2106   */\n      0x00\n        /* \"#utility.yul\":2140:2143   */\n      0x80\n        /* \"#utility.yul\":2129:2138   */\n      dup3\n        /* \"#utility.yul\":2125:2144   */\n      add\n        /* \"#utility.yul\":2117:2144   */\n      swap1\n      pop\n        /* \"#utility.yul\":2154:2225   */\n      tag_130\n        /* \"#utility.yul\":2222:2223   */\n      0x00\n        /* \"#utility.yul\":2211:2220   */\n      dup4\n        /* \"#utility.yul\":2207:2224   */\n      add\n        /* \"#utility.yul\":2198:2204   */\n      dup8\n        /* \"#utility.yul\":2154:2225   */\n      tag_92\n      jump\t// in\n    tag_130:\n        /* \"#utility.yul\":2235:2307   */\n      tag_131\n        /* \"#utility.yul\":2303:2305   */\n      0x20\n        /* \"#utility.yul\":2292:2301   */\n      dup4\n        /* \"#utility.yul\":2288:2306   */\n      add\n        /* \"#utility.yul\":2279:2285   */\n      dup7\n        /* \"#utility.yul\":2235:2307   */\n      tag_93\n      jump\t// in\n    tag_131:\n        /* \"#utility.yul\":2317:2389   */\n      tag_132\n        /* \"#utility.yul\":2385:2387   */\n      0x40\n        /* \"#utility.yul\":2374:2383   */\n      dup4\n        /* \"#utility.yul\":2370:2388   */\n      add\n        /* \"#utility.yul\":2361:2367   */\n      dup6\n        /* \"#utility.yul\":2317:2389   */\n      tag_92\n      jump\t// in\n    tag_132:\n        /* \"#utility.yul\":2399:2471   */\n      tag_133\n        /* \"#utility.yul\":2467:2469   */\n      0x60\n        /* \"#utility.yul\":2456:2465   */\n      dup4\n        /* \"#utility.yul\":2452:2470   */\n      add\n        /* \"#utility.yul\":2443:2449   */\n      dup5\n        /* \"#utility.yul\":2399:2471   */\n      tag_92\n      jump\t// in\n    tag_133:\n        /* \"#utility.yul\":1925:2478   */\n      swap6\n      swap5\n      pop\n      pop\n      pop\n      pop\n      pop\n      jump\t// out\n        /* \"#utility.yul\":2484:2958   */\n    tag_16:\n        /* \"#utility.yul\":2552:2558   */\n      0x00\n        /* \"#utility.yul\":2560:2566   */\n      0x00\n        /* \"#utility.yul\":2609:2611   */\n      0x40\n        /* \"#utility.yul\":2597:2606   */\n      dup4\n        /* \"#utility.yul\":2588:2595   */\n      dup6\n        /* \"#utility.yul\":2584:2607   */\n      sub\n        /* \"#utility.yul\":2580:2612   */\n      slt\n        /* \"#utility.yul\":2577:2696   */\n      iszero\n      tag_135\n      jumpi\n        /* \"#utility.yul\":2615:2694   */\n      tag_136\n      tag_83\n      jump\t// in\n    tag_136:\n        /* \"#utility.yul\":2577:2696   */\n    tag_135:\n        /* \"#utility.yul\":2735:2736   */\n      0x00\n        /* \"#utility.yul\":2760:2813   */\n      tag_137\n        /* \"#utility.yul\":2805:2812   */\n      dup6\n        /* \"#utility.yul\":2796:2802   */\n      dup3\n        /* \"#utility.yul\":2785:2794   */\n      dup7\n        /* \"#utility.yul\":2781:2803   */\n      add\n        /* \"#utility.yul\":2760:2813   */\n      tag_91\n      jump\t// in\n    tag_137:\n        /* \"#utility.yul\":2750:2813   */\n      swap3\n      pop\n        /* \"#utility.yul\":2706:2823   */\n      pop\n        /* \"#utility.yul\":2862:2864   */\n      0x20\n        /* \"#utility.yul\":2888:2941   */\n      tag_138\n        /* \"#utility.yul\":2933:2940   */\n      dup6\n        /* \"#utility.yul\":2924:2930   */\n      dup3\n        /* \"#utility.yul\":2913:2922   */\n      dup7\n        /* \"#utility.yul\":2909:2931   */\n      add\n        /* \"#utility.yul\":2888:2941   */\n      tag_91\n      jump\t// in\n    tag_138:\n        /* \"#utility.yul\":2878:2941   */\n      swap2\n      pop\n        /* \"#utility.yul\":2833:2951   */\n      pop\n        /* \"#utility.yul\":2484:2958   */\n      swap3\n      pop\n      swap3\n      swap1\n      pop\n      jump\t// out\n        /* \"#utility.yul\":2964:3583   */\n    tag_30:\n        /* \"#utility.yul\":3041:3047   */\n      0x00\n        /* \"#utility.yul\":3049:3055   */\n      0x00\n        /* \"#utility.yul\":3057:3063   */\n      0x00\n        /* \"#utility.yul\":3106:3108   */\n      0x60\n        /* \"#utility.yul\":3094:3103   */\n      dup5\n        /* \"#utility.yul\":3085:3092   */\n      dup7\n        /* \"#utility.yul\":3081:3104   */\n      sub\n        /* \"#utility.yul\":3077:3109   */\n      slt\n        /* \"#utility.yul\":3074:3193   */\n      iszero\n      tag_140\n      jumpi\n        /* \"#utility.yul\":3112:3191   */\n      tag_141\n      tag_83\n      jump\t// in\n    tag_141:\n        /* \"#utility.yul\":3074:3193   */\n    tag_140:\n        /* \"#utility.yul\":3232:3233   */\n      0x00\n        /* \"#utility.yul\":3257:3310   */\n      tag_142\n        /* \"#utility.yul\":3302:3309   */\n      dup7\n        /* \"#utility.yul\":3293:3299   */\n      dup3\n        /* \"#utility.yul\":3282:3291   */\n      dup8\n        /* \"#utility.yul\":3278:3300   */\n      add\n        /* \"#utility.yul\":3257:3310   */\n      tag_91\n      jump\t// in\n    tag_142:\n        /* \"#utility.yul\":3247:3310   */\n      swap4\n      pop\n        /* \"#utility.yul\":3203:3320   */\n      pop\n        /* \"#utility.yul\":3359:3361   */\n      0x20\n        /* \"#utility.yul\":3385:3438   */\n      tag_143\n        /* \"#utility.yul\":3430:3437   */\n      dup7\n        /* \"#utility.yul\":3421:3427   */\n      dup3\n        /* \"#utility.yul\":3410:3419   */\n      dup8\n        /* \"#utility.yul\":3406:3428   */\n      add\n        /* \"#utility.yul\":3385:3438   */\n      tag_88\n      jump\t// in\n    tag_143:\n        /* \"#utility.yul\":3375:3438   */\n      swap3\n      pop\n        /* \"#utility.yul\":3330:3448   */\n      pop\n        /* \"#utility.yul\":3487:3489   */\n      0x40\n        /* \"#utility.yul\":3513:3566   */\n      tag_144\n        /* \"#utility.yul\":3558:3565   */\n      dup7\n        /* \"#utility.yul\":3549:3555   */\n      dup3\n        /* \"#utility.yul\":3538:3547   */\n      dup8\n        /* \"#utility.yul\":3534:3556   */\n      add\n        /* \"#utility.yul\":3513:3566   */\n      tag_91\n      jump\t// in\n    tag_144:\n        /* \"#utility.yul\":3503:3566   */\n      swap2\n      pop\n        /* \"#utility.yul\":3458:3576   */\n      pop\n        /* \"#utility.yul\":2964:3583   */\n      swap3\n      pop\n      swap3\n      pop\n      swap3\n      jump\t// out\n        /* \"#utility.yul\":3589:3769   */\n    tag_39:\n        /* \"#utility.yul\":3637:3714   */\n      0x4e487b7100000000000000000000000000000000000000000000000000000000\n        /* \"#utility.yul\":3634:3635   */\n      0x00\n        /* \"#utility.yul\":3627:3715   */\n      mstore\n        /* \"#utility.yul\":3734:3738   */\n      0x32\n        /* \"#utility.yul\":3731:3732   */\n      0x04\n        /* \"#utility.yul\":3724:3739   */\n      mstore\n        /* \"#utility.yul\":3758:3762   */\n      0x24\n        /* \"#utility.yul\":3755:3756   */\n      0x00\n        /* \"#utility.yul\":3748:3763   */\n      revert\n        /* \"#utility.yul\":3775:3944   */\n    tag_94:\n        /* \"#utility.yul\":3859:3870   */\n      0x00\n        /* \"#utility.yul\":3893:3899   */\n      dup3\n        /* \"#utility.yul\":3888:3891   */\n      dup3\n        /* \"#utility.yul\":3881:3900   */\n      mstore\n        /* \"#utility.yul\":3933:3937   */\n      0x20\n        /* \"#utility.yul\":3928:3931   */\n      dup3\n        /* \"#utility.yul\":3924:3938   */\n      add\n        /* \"#utility.yul\":3909:3938   */\n      swap1\n      pop\n        /* \"#utility.yul\":3775:3944   */\n      swap3\n      swap2\n      pop\n      pop\n      jump\t// out\n        /* \"#utility.yul\":3950:4117   */\n    tag_95:\n        /* \"#utility.yul\":4090:4109   */\n      0x4465706f736974206e6f7420666f756e64000000000000000000000000000000\n        /* \"#utility.yul\":4086:4087   */\n      0x00\n        /* \"#utility.yul\":4078:4084   */\n      dup3\n        /* \"#utility.yul\":4074:4088   */\n      add\n        /* \"#utility.yul\":4067:4110   */\n      mstore\n        /* \"#utility.yul\":3950:4117   */\n      pop\n      jump\t// out\n        /* \"#utility.yul\":4123:4489   */\n    tag_96:\n        /* \"#utility.yul\":4265:4268   */\n      0x00\n        /* \"#utility.yul\":4286:4353   */\n      tag_149\n        /* \"#utility.yul\":4350:4352   */\n      0x11\n        /* \"#utility.yul\":4345:4348   */\n      dup4\n        /* \"#utility.yul\":4286:4353   */\n      tag_94\n      jump\t// in\n    tag_149:\n        /* \"#utility.yul\":4279:4353   */\n      swap2\n      pop\n        /* \"#utility.yul\":4362:4455   */\n      tag_150\n        /* \"#utility.yul\":4451:4454   */\n      dup3\n        /* \"#utility.yul\":4362:4455   */\n      tag_95\n      jump\t// in\n    tag_150:\n        /* \"#utility.yul\":4480:4482   */\n      0x20\n        /* \"#utility.yul\":4475:4478   */\n      dup3\n        /* \"#utility.yul\":4471:4483   */\n      add\n        /* \"#utility.yul\":4464:4483   */\n      swap1\n      pop\n        /* \"#utility.yul\":4123:4489   */\n      swap2\n      swap1\n      pop\n      jump\t// out\n        /* \"#utility.yul\":4495:4914   */\n    tag_53:\n        /* \"#utility.yul\":4661:4665   */\n      0x00\n        /* \"#utility.yul\":4699:4701   */\n      0x20\n        /* \"#utility.yul\":4688:4697   */\n      dup3\n        /* \"#utility.yul\":4684:4702   */\n      add\n        /* \"#utility.yul\":4676:4702   */\n      swap1\n      pop\n        /* \"#utility.yul\":4748:4757   */\n      dup2\n        /* \"#utility.yul\":4742:4746   */\n      dup2\n        /* \"#utility.yul\":4738:4758   */\n      sub\n        /* \"#utility.yul\":4734:4735   */\n      0x00\n        /* \"#utility.yul\":4723:4732   */\n      dup4\n        /* \"#utility.yul\":4719:4736   */\n      add\n        /* \"#utility.yul\":4712:4759   */\n      mstore\n        /* \"#utility.yul\":4776:4907   */\n      tag_152\n        /* \"#utility.yul\":4902:4906   */\n      dup2\n        /* \"#utility.yul\":4776:4907   */\n      tag_96\n      jump\t// in\n    tag_152:\n        /* \"#utility.yul\":4768:4907   */\n      swap1\n      pop\n        /* \"#utility.yul\":4495:4914   */\n      swap2\n      swap1\n      pop\n      jump\t// out\n        /* \"#utility.yul\":4920:5100   */\n    tag_97:\n        /* \"#utility.yul\":4968:5045   */\n      0x4e487b7100000000000000000000000000000000000000000000000000000000\n        /* \"#utility.yul\":4965:4966   */\n      0x00\n        /* \"#utility.yul\":4958:5046   */\n      mstore\n        /* \"#utility.yul\":5065:5069   */\n      0x11\n        /* \"#utility.yul\":5062:5063   */\n      0x04\n        /* \"#utility.yul\":5055:5070   */\n      mstore\n        /* \"#utility.yul\":5089:5093   */\n      0x24\n        /* \"#utility.yul\":5086:5087   */\n      0x00\n        /* \"#utility.yul\":5079:5094   */\n      revert\n        /* \"#utility.yul\":5106:5297   */\n    tag_58:\n        /* \"#utility.yul\":5146:5149   */\n      0x00\n        /* \"#utility.yul\":5165:5185   */\n      tag_155\n        /* \"#utility.yul\":5183:5184   */\n      dup3\n        /* \"#utility.yul\":5165:5185   */\n      tag_89\n      jump\t// in\n    tag_155:\n        /* \"#utility.yul\":5160:5185   */\n      swap2\n      pop\n        /* \"#utility.yul\":5199:5219   */\n      tag_156\n        /* \"#utility.yul\":5217:5218   */\n      dup4\n        /* \"#utility.yul\":5199:5219   */\n      tag_89\n      jump\t// in\n    tag_156:\n        /* \"#utility.yul\":5194:5219   */\n      swap3\n      pop\n        /* \"#utility.yul\":5242:5243   */\n      dup3\n        /* \"#utility.yul\":5239:5240   */\n      dup3\n        /* \"#utility.yul\":5235:5244   */\n      add\n        /* \"#utility.yul\":5228:5244   */\n      swap1\n      pop\n        /* \"#utility.yul\":5263:5266   */\n      dup1\n        /* \"#utility.yul\":5260:5261   */\n      dup3\n        /* \"#utility.yul\":5257:5267   */\n      gt\n        /* \"#utility.yul\":5254:5290   */\n      iszero\n      tag_157\n      jumpi\n        /* \"#utility.yul\":5270:5288   */\n      tag_158\n      tag_97\n      jump\t// in\n    tag_158:\n        /* \"#utility.yul\":5254:5290   */\n    tag_157:\n        /* \"#utility.yul\":5106:5297   */\n      swap3\n      swap2\n      pop\n      pop\n      jump\t// out\n        /* \"#utility.yul\":5303:5485   */\n    tag_98:\n        /* \"#utility.yul\":5443:5477   */\n      0x596f7520617265206e6f7420656c696769626c6520746f205769746864726177\n        /* \"#utility.yul\":5439:5440   */\n      0x00\n        /* \"#utility.yul\":5431:5437   */\n      dup3\n        /* \"#utility.yul\":5427:5441   */\n      add\n        /* \"#utility.yul\":5420:5478   */\n      mstore\n        /* \"#utility.yul\":5303:5485   */\n      pop\n      jump\t// out\n        /* \"#utility.yul\":5491:5857   */\n    tag_99:\n        /* \"#utility.yul\":5633:5636   */\n      0x00\n        /* \"#utility.yul\":5654:5721   */\n      tag_161\n        /* \"#utility.yul\":5718:5720   */\n      0x20\n        /* \"#utility.yul\":5713:5716   */\n      dup4\n        /* \"#utility.yul\":5654:5721   */\n      tag_94\n      jump\t// in\n    tag_161:\n        /* \"#utility.yul\":5647:5721   */\n      swap2\n      pop\n        /* \"#utility.yul\":5730:5823   */\n      tag_162\n        /* \"#utility.yul\":5819:5822   */\n      dup3\n        /* \"#utility.yul\":5730:5823   */\n      tag_98\n      jump\t// in\n    tag_162:\n        /* \"#utility.yul\":5848:5850   */\n      0x20\n        /* \"#utility.yul\":5843:5846   */\n      dup3\n        /* \"#utility.yul\":5839:5851   */\n      add\n        /* \"#utility.yul\":5832:5851   */\n      swap1\n      pop\n        /* \"#utility.yul\":5491:5857   */\n      swap2\n      swap1\n      pop\n      jump\t// out\n        /* \"#utility.yul\":5863:6282   */\n    tag_69:\n        /* \"#utility.yul\":6029:6033   */\n      0x00\n        /* \"#utility.yul\":6067:6069   */\n      0x20\n        /* \"#utility.yul\":6056:6065   */\n      dup3\n        /* \"#utility.yul\":6052:6070   */\n      add\n        /* \"#utility.yul\":6044:6070   */\n      swap1\n      pop\n        /* \"#utility.yul\":6116:6125   */\n      dup2\n        /* \"#utility.yul\":6110:6114   */\n      dup2\n        /* \"#utility.yul\":6106:6126   */\n      sub\n        /* \"#utility.yul\":6102:6103   */\n      0x00\n        /* \"#utility.yul\":6091:6100   */\n      dup4\n        /* \"#utility.yul\":6087:6104   */\n      add\n        /* \"#utility.yul\":6080:6127   */\n      mstore\n        /* \"#utility.yul\":6144:6275   */\n      tag_164\n        /* \"#utility.yul\":6270:6274   */\n      dup2\n        /* \"#utility.yul\":6144:6275   */\n      tag_99\n      jump\t// in\n    tag_164:\n        /* \"#utility.yul\":6136:6275   */\n      swap1\n      pop\n        /* \"#utility.yul\":5863:6282   */\n      swap2\n      swap1\n      pop\n      jump\t// out\n        /* \"#utility.yul\":6288:6461   */\n    tag_100:\n        /* \"#utility.yul\":6428:6453   */\n      0x42616c616e636520697320696e73756666696369656e74000000000000000000\n        /* \"#utility.yul\":6424:6425   */\n      0x00\n        /* \"#utility.yul\":6416:6422   */\n      dup3\n        /* \"#utility.yul\":6412:6426   */\n      add\n        /* \"#utility.yul\":6405:6454   */\n      mstore\n        /* \"#utility.yul\":6288:6461   */\n      pop\n      jump\t// out\n        /* \"#utility.yul\":6467:6833   */\n    tag_101:\n        /* \"#utility.yul\":6609:6612   */\n      0x00\n        /* \"#utility.yul\":6630:6697   */\n      tag_167\n        /* \"#utility.yul\":6694:6696   */\n      0x17\n        /* \"#utility.yul\":6689:6692   */\n      dup4\n        /* \"#utility.yul\":6630:6697   */\n      tag_94\n      jump\t// in\n    tag_167:\n        /* \"#utility.yul\":6623:6697   */\n      swap2\n      pop\n        /* \"#utility.yul\":6706:6799   */\n      tag_168\n        /* \"#utility.yul\":6795:6798   */\n      dup3\n        /* \"#utility.yul\":6706:6799   */\n      tag_100\n      jump\t// in\n    tag_168:\n        /* \"#utility.yul\":6824:6826   */\n      0x20\n        /* \"#utility.yul\":6819:6822   */\n      dup3\n        /* \"#utility.yul\":6815:6827   */\n      add\n        /* \"#utility.yul\":6808:6827   */\n      swap1\n      pop\n        /* \"#utility.yul\":6467:6833   */\n      swap2\n      swap1\n      pop\n      jump\t// out\n        /* \"#utility.yul\":6839:7258   */\n    tag_75:\n        /* \"#utility.yul\":7005:7009   */\n      0x00\n        /* \"#utility.yul\":7043:7045   */\n      0x20\n        /* \"#utility.yul\":7032:7041   */\n      dup3\n        /* \"#utility.yul\":7028:7046   */\n      add\n        /* \"#utility.yul\":7020:7046   */\n      swap1\n      pop\n        /* \"#utility.yul\":7092:7101   */\n      dup2\n        /* \"#utility.yul\":7086:7090   */\n      dup2\n        /* \"#utility.yul\":7082:7102   */\n      sub\n        /* \"#utility.yul\":7078:7079   */\n      0x00\n        /* \"#utility.yul\":7067:7076   */\n      dup4\n        /* \"#utility.yul\":7063:7080   */\n      add\n        /* \"#utility.yul\":7056:7103   */\n      mstore\n        /* \"#utility.yul\":7120:7251   */\n      tag_170\n        /* \"#utility.yul\":7246:7250   */\n      dup2\n        /* \"#utility.yul\":7120:7251   */\n      tag_101\n      jump\t// in\n    tag_170:\n        /* \"#utility.yul\":7112:7251   */\n      swap1\n      pop\n        /* \"#utility.yul\":6839:7258   */\n      swap2\n      swap1\n      pop\n      jump\t// out\n        /* \"#utility.yul\":7264:7458   */\n    tag_81:\n        /* \"#utility.yul\":7304:7308   */\n      0x00\n        /* \"#utility.yul\":7324:7344   */\n      tag_172\n        /* \"#utility.yul\":7342:7343   */\n      dup3\n        /* \"#utility.yul\":7324:7344   */\n      tag_89\n      jump\t// in\n    tag_172:\n        /* \"#utility.yul\":7319:7344   */\n      swap2\n      pop\n        /* \"#utility.yul\":7358:7378   */\n      tag_173\n        /* \"#utility.yul\":7376:7377   */\n      dup4\n        /* \"#utility.yul\":7358:7378   */\n      tag_89\n      jump\t// in\n    tag_173:\n        /* \"#utility.yul\":7353:7378   */\n      swap3\n      pop\n        /* \"#utility.yul\":7402:7403   */\n      dup3\n        /* \"#utility.yul\":7399:7400   */\n      dup3\n        /* \"#utility.yul\":7395:7404   */\n      sub\n        /* \"#utility.yul\":7387:7404   */\n      swap1\n      pop\n        /* \"#utility.yul\":7426:7427   */\n      dup2\n        /* \"#utility.yul\":7420:7424   */\n      dup2\n        /* \"#utility.yul\":7417:7428   */\n      gt\n        /* \"#utility.yul\":7414:7451   */\n      iszero\n      tag_174\n      jumpi\n        /* \"#utility.yul\":7431:7449   */\n      tag_175\n      tag_97\n      jump\t// in\n    tag_175:\n        /* \"#utility.yul\":7414:7451   */\n    tag_174:\n        /* \"#utility.yul\":7264:7458   */\n      swap3\n      swap2\n      pop\n      pop\n      jump\t// out\n\n    auxdata: 0xa26469706673582212205142c1d484525e0c108996d7fa9ac827c85a830dfec321eda85fd85b41859eda64736f6c634300081c0033\n}\n",
				"bytecode": {
					"linkReferences": {},
					"object": "6080604052348015600e575f5ffd5b50610b588061001c5f395ff3fe608060405260043610610049575f3560e01c80632f75b7851461004d57806333d811691461008c5780639d8be070146100a8578063d90a5504146100e7578063e63697c81461010f575b5f5ffd5b348015610058575f5ffd5b50610073600480360381019061006e91906107ed565b610137565b6040516100839493929190610849565b60405180910390f35b6100a660048036038101906100a1919061088c565b61019b565b005b3480156100b3575f5ffd5b506100ce60048036038101906100c991906107ed565b61029c565b6040516100de9493929190610849565b60405180910390f35b3480156100f2575f5ffd5b5061010d6004803603810190610108919061088c565b610447565b005b34801561011a575f5ffd5b50610135600480360381019061013091906108ca565b61053e565b005b5f602052815f5260405f20818154811061014f575f80fd5b905f5260205f2090600402015f9150915050805f015490806001015f9054906101000a900473ffffffffffffffffffffffffffffffffffffffff16908060020154908060030154905084565b5f5f3373ffffffffffffffffffffffffffffffffffffffff1673ffffffffffffffffffffffffffffffffffffffff1681526020019081526020015f2060405180608001604052808481526020013373ffffffffffffffffffffffffffffffffffffffff16815260200142815260200183815250908060018154018082558091505060019003905f5260205f2090600402015f909190919091505f820151815f01556020820151816001015f6101000a81548173ffffffffffffffffffffffffffffffffffffffff021916908373ffffffffffffffffffffffffffffffffffffffff160217905550604082015181600201556060820151816003015550505050565b5f5f5f5f5f5f8773ffffffffffffffffffffffffffffffffffffffff1673ffffffffffffffffffffffffffffffffffffffff1681526020019081526020015f2085815481106102ee576102ed61091a565b5b905f5260205f2090600402015f01545f5f8873ffffffffffffffffffffffffffffffffffffffff1673ffffffffffffffffffffffffffffffffffffffff1681526020019081526020015f20868154811061034b5761034a61091a565b5b905f5260205f2090600402016001015f9054906101000a900473ffffffffffffffffffffffffffffffffffffffff165f5f8973ffffffffffffffffffffffffffffffffffffffff1673ffffffffffffffffffffffffffffffffffffffff1681526020019081526020015f2087815481106103c8576103c761091a565b5b905f5260205f209060040201600201545f5f8a73ffffffffffffffffffffffffffffffffffffffff1673ffffffffffffffffffffffffffffffffffffffff1681526020019081526020015f2088815481106104265761042561091a565b5b905f5260205f20906004020160030154935093509350935092959194509250565b5f5f3373ffffffffffffffffffffffffffffffffffffffff1673ffffffffffffffffffffffffffffffffffffffff1681526020019081526020015f208054905081106104c8576040517f08c379a00000000000000000000000000000000000000000000000000000000081526004016104bf906109a1565b60405180910390fd5b815f5f3373ffffffffffffffffffffffffffffffffffffffff1673ffffffffffffffffffffffffffffffffffffffff1681526020019081526020015f2082815481106105175761051661091a565b5b905f5260205f2090600402015f015f82825461053391906109ec565b925050819055505050565b5f5f3373ffffffffffffffffffffffffffffffffffffffff1673ffffffffffffffffffffffffffffffffffffffff1681526020019081526020015f205f8154811061058c5761058b61091a565b5b905f5260205f209060040201600301545f5f3373ffffffffffffffffffffffffffffffffffffffff1673ffffffffffffffffffffffffffffffffffffffff1681526020019081526020015f205f815481106105ea576105e961091a565b5b905f5260205f2090600402016002015461060491906109ec565b421015610646576040517f08c379a000000000000000000000000000000000000000000000000000000000815260040161063d90610a69565b60405180910390fd5b825f5f8473ffffffffffffffffffffffffffffffffffffffff1673ffffffffffffffffffffffffffffffffffffffff1681526020019081526020015f2082815481106106955761069461091a565b5b905f5260205f2090600402015f015410156106e5576040517f08c379a00000000000000000000000000000000000000000000000000000000081526004016106dc90610ad1565b60405180910390fd5b825f5f8473ffffffffffffffffffffffffffffffffffffffff1673ffffffffffffffffffffffffffffffffffffffff1681526020019081526020015f2082815481106107345761073361091a565b5b905f5260205f2090600402015f015f8282546107509190610aef565b92505081905550505050565b5f5ffd5b5f73ffffffffffffffffffffffffffffffffffffffff82169050919050565b5f61078982610760565b9050919050565b6107998161077f565b81146107a3575f5ffd5b50565b5f813590506107b481610790565b92915050565b5f819050919050565b6107cc816107ba565b81146107d6575f5ffd5b50565b5f813590506107e7816107c3565b92915050565b5f5f604083850312156108035761080261075c565b5b5f610810858286016107a6565b9250506020610821858286016107d9565b9150509250929050565b610834816107ba565b82525050565b6108438161077f565b82525050565b5f60808201905061085c5f83018761082b565b610869602083018661083a565b610876604083018561082b565b610883606083018461082b565b95945050505050565b5f5f604083850312156108a2576108a161075c565b5b5f6108af858286016107d9565b92505060206108c0858286016107d9565b9150509250929050565b5f5f5f606084860312156108e1576108e061075c565b5b5f6108ee868287016107d9565b93505060206108ff868287016107a6565b9250506040610910868287016107d9565b9150509250925092565b7f4e487b71000000000000000000000000000000000000000000000000000000005f52603260045260245ffd5b5f82825260208201905092915050565b7f4465706f736974206e6f7420666f756e640000000000000000000000000000005f82015250565b5f61098b601183610947565b915061099682610957565b602082019050919050565b5f6020820190508181035f8301526109b88161097f565b9050919050565b7f4e487b71000000000000000000000000000000000000000000000000000000005f52601160045260245ffd5b5f6109f6826107ba565b9150610a01836107ba565b9250828201905080821115610a1957610a186109bf565b5b92915050565b7f596f7520617265206e6f7420656c696769626c6520746f2057697468647261775f82015250565b5f610a53602083610947565b9150610a5e82610a1f565b602082019050919050565b5f6020820190508181035f830152610a8081610a47565b9050919050565b7f42616c616e636520697320696e73756666696369656e740000000000000000005f82015250565b5f610abb601783610947565b9150610ac682610a87565b602082019050919050565b5f6020820190508181035f830152610ae881610aaf565b9050919050565b5f610af9826107ba565b9150610b04836107ba565b9250828203905081811115610b1c57610b1b6109bf565b5b9291505056fea26469706673582212205142c1d484525e0c108996d7fa9ac827c85a830dfec321eda85fd85b41859eda64736f6c634300081c0033",
					"opcodes": "PUSH1 0x80 PUSH1 0x40 MSTORE CALLVALUE DUP1 ISZERO PUSH1 0xE JUMPI PUSH0 PUSH0 REVERT JUMPDEST POP PUSH2 0xB58 DUP1 PUSH2 0x1C PUSH0 CODECOPY PUSH0 RETURN INVALID PUSH1 0x80 PUSH1 0x40 MSTORE PUSH1 0x4 CALLDATASIZE LT PUSH2 0x49 JUMPI PUSH0 CALLDATALOAD PUSH1 0xE0 SHR DUP1 PUSH4 0x2F75B785 EQ PUSH2 0x4D JUMPI DUP1 PUSH4 0x33D81169 EQ PUSH2 0x8C JUMPI DUP1 PUSH4 0x9D8BE070 EQ PUSH2 0xA8 JUMPI DUP1 PUSH4 0xD90A5504 EQ PUSH2 0xE7 JUMPI DUP1 PUSH4 0xE63697C8 EQ PUSH2 0x10F JUMPI JUMPDEST PUSH0 PUSH0 REVERT JUMPDEST CALLVALUE DUP1 ISZERO PUSH2 0x58 JUMPI PUSH0 PUSH0 REVERT JUMPDEST POP PUSH2 0x73 PUSH1 0x4 DUP1 CALLDATASIZE SUB DUP2 ADD SWAP1 PUSH2 0x6E SWAP2 SWAP1 PUSH2 0x7ED JUMP JUMPDEST PUSH2 0x137 JUMP JUMPDEST PUSH1 0x40 MLOAD PUSH2 0x83 SWAP5 SWAP4 SWAP3 SWAP2 SWAP1 PUSH2 0x849 JUMP JUMPDEST PUSH1 0x40 MLOAD DUP1 SWAP2 SUB SWAP1 RETURN JUMPDEST PUSH2 0xA6 PUSH1 0x4 DUP1 CALLDATASIZE SUB DUP2 ADD SWAP1 PUSH2 0xA1 SWAP2 SWAP1 PUSH2 0x88C JUMP JUMPDEST PUSH2 0x19B JUMP JUMPDEST STOP JUMPDEST CALLVALUE DUP1 ISZERO PUSH2 0xB3 JUMPI PUSH0 PUSH0 REVERT JUMPDEST POP PUSH2 0xCE PUSH1 0x4 DUP1 CALLDATASIZE SUB DUP2 ADD SWAP1 PUSH2 0xC9 SWAP2 SWAP1 PUSH2 0x7ED JUMP JUMPDEST PUSH2 0x29C JUMP JUMPDEST PUSH1 0x40 MLOAD PUSH2 0xDE SWAP5 SWAP4 SWAP3 SWAP2 SWAP1 PUSH2 0x849 JUMP JUMPDEST PUSH1 0x40 MLOAD DUP1 SWAP2 SUB SWAP1 RETURN JUMPDEST CALLVALUE DUP1 ISZERO PUSH2 0xF2 JUMPI PUSH0 PUSH0 REVERT JUMPDEST POP PUSH2 0x10D PUSH1 0x4 DUP1 CALLDATASIZE SUB DUP2 ADD SWAP1 PUSH2 0x108 SWAP2 SWAP1 PUSH2 0x88C JUMP JUMPDEST PUSH2 0x447 JUMP JUMPDEST STOP JUMPDEST CALLVALUE DUP1 ISZERO PUSH2 0x11A JUMPI PUSH0 PUSH0 REVERT JUMPDEST POP PUSH2 0x135 PUSH1 0x4 DUP1 CALLDATASIZE SUB DUP2 ADD SWAP1 PUSH2 0x130 SWAP2 SWAP1 PUSH2 0x8CA JUMP JUMPDEST PUSH2 0x53E JUMP JUMPDEST STOP JUMPDEST PUSH0 PUSH1 0x20 MSTORE DUP2 PUSH0 MSTORE PUSH1 0x40 PUSH0 KECCAK256 DUP2 DUP2 SLOAD DUP2 LT PUSH2 0x14F JUMPI PUSH0 DUP1 REVERT JUMPDEST SWAP1 PUSH0 MSTORE PUSH1 0x20 PUSH0 KECCAK256 SWAP1 PUSH1 0x4 MUL ADD PUSH0 SWAP2 POP SWAP2 POP POP DUP1 PUSH0 ADD SLOAD SWAP1 DUP1 PUSH1 0x1 ADD PUSH0 SWAP1 SLOAD SWAP1 PUSH2 0x100 EXP SWAP1 DIV PUSH20 0xFFFFFFFFFFFFFFFFFFFFFFFFFFFFFFFFFFFFFFFF AND SWAP1 DUP1 PUSH1 0x2 ADD SLOAD SWAP1 DUP1 PUSH1 0x3 ADD SLOAD SWAP1 POP DUP5 JUMP JUMPDEST PUSH0 PUSH0 CALLER PUSH20 0xFFFFFFFFFFFFFFFFFFFFFFFFFFFFFFFFFFFFFFFF AND PUSH20 0xFFFFFFFFFFFFFFFFFFFFFFFFFFFFFFFFFFFFFFFF AND DUP2 MSTORE PUSH1 0x20 ADD SWAP1 DUP2 MSTORE PUSH1 0x20 ADD PUSH0 KECCAK256 PUSH1 0x40 MLOAD DUP1 PUSH1 0x80 ADD PUSH1 0x40 MSTORE DUP1 DUP5 DUP2 MSTORE PUSH1 0x20 ADD CALLER PUSH20 0xFFFFFFFFFFFFFFFFFFFFFFFFFFFFFFFFFFFFFFFF AND DUP2 MSTORE PUSH1 0x20 ADD TIMESTAMP DUP2 MSTORE PUSH1 0x20 ADD DUP4 DUP2 MSTORE POP SWAP1 DUP1 PUSH1 0x1 DUP2 SLOAD ADD DUP1 DUP3 SSTORE DUP1 SWAP2 POP POP PUSH1 0x1 SWAP1 SUB SWAP1 PUSH0 MSTORE PUSH1 0x20 PUSH0 KECCAK256 SWAP1 PUSH1 0x4 MUL ADD PUSH0 SWAP1 SWAP2 SWAP1 SWAP2 SWAP1 SWAP2 POP PUSH0 DUP3 ADD MLOAD DUP2 PUSH0 ADD SSTORE PUSH1 0x20 DUP3 ADD MLOAD DUP2 PUSH1 0x1 ADD PUSH0 PUSH2 0x100 EXP DUP2 SLOAD DUP2 PUSH20 0xFFFFFFFFFFFFFFFFFFFFFFFFFFFFFFFFFFFFFFFF MUL NOT AND SWAP1 DUP4 PUSH20 0xFFFFFFFFFFFFFFFFFFFFFFFFFFFFFFFFFFFFFFFF AND MUL OR SWAP1 SSTORE POP PUSH1 0x40 DUP3 ADD MLOAD DUP2 PUSH1 0x2 ADD SSTORE PUSH1 0x60 DUP3 ADD MLOAD DUP2 PUSH1 0x3 ADD SSTORE POP POP POP POP JUMP JUMPDEST PUSH0 PUSH0 PUSH0 PUSH0 PUSH0 PUSH0 DUP8 PUSH20 0xFFFFFFFFFFFFFFFFFFFFFFFFFFFFFFFFFFFFFFFF AND PUSH20 0xFFFFFFFFFFFFFFFFFFFFFFFFFFFFFFFFFFFFFFFF AND DUP2 MSTORE PUSH1 0x20 ADD SWAP1 DUP2 MSTORE PUSH1 0x20 ADD PUSH0 KECCAK256 DUP6 DUP2 SLOAD DUP2 LT PUSH2 0x2EE JUMPI PUSH2 0x2ED PUSH2 0x91A JUMP JUMPDEST JUMPDEST SWAP1 PUSH0 MSTORE PUSH1 0x20 PUSH0 KECCAK256 SWAP1 PUSH1 0x4 MUL ADD PUSH0 ADD SLOAD PUSH0 PUSH0 DUP9 PUSH20 0xFFFFFFFFFFFFFFFFFFFFFFFFFFFFFFFFFFFFFFFF AND PUSH20 0xFFFFFFFFFFFFFFFFFFFFFFFFFFFFFFFFFFFFFFFF AND DUP2 MSTORE PUSH1 0x20 ADD SWAP1 DUP2 MSTORE PUSH1 0x20 ADD PUSH0 KECCAK256 DUP7 DUP2 SLOAD DUP2 LT PUSH2 0x34B JUMPI PUSH2 0x34A PUSH2 0x91A JUMP JUMPDEST JUMPDEST SWAP1 PUSH0 MSTORE PUSH1 0x20 PUSH0 KECCAK256 SWAP1 PUSH1 0x4 MUL ADD PUSH1 0x1 ADD PUSH0 SWAP1 SLOAD SWAP1 PUSH2 0x100 EXP SWAP1 DIV PUSH20 0xFFFFFFFFFFFFFFFFFFFFFFFFFFFFFFFFFFFFFFFF AND PUSH0 PUSH0 DUP10 PUSH20 0xFFFFFFFFFFFFFFFFFFFFFFFFFFFFFFFFFFFFFFFF AND PUSH20 0xFFFFFFFFFFFFFFFFFFFFFFFFFFFFFFFFFFFFFFFF AND DUP2 MSTORE PUSH1 0x20 ADD SWAP1 DUP2 MSTORE PUSH1 0x20 ADD PUSH0 KECCAK256 DUP8 DUP2 SLOAD DUP2 LT PUSH2 0x3C8 JUMPI PUSH2 0x3C7 PUSH2 0x91A JUMP JUMPDEST JUMPDEST SWAP1 PUSH0 MSTORE PUSH1 0x20 PUSH0 KECCAK256 SWAP1 PUSH1 0x4 MUL ADD PUSH1 0x2 ADD SLOAD PUSH0 PUSH0 DUP11 PUSH20 0xFFFFFFFFFFFFFFFFFFFFFFFFFFFFFFFFFFFFFFFF AND PUSH20 0xFFFFFFFFFFFFFFFFFFFFFFFFFFFFFFFFFFFFFFFF AND DUP2 MSTORE PUSH1 0x20 ADD SWAP1 DUP2 MSTORE PUSH1 0x20 ADD PUSH0 KECCAK256 DUP9 DUP2 SLOAD DUP2 LT PUSH2 0x426 JUMPI PUSH2 0x425 PUSH2 0x91A JUMP JUMPDEST JUMPDEST SWAP1 PUSH0 MSTORE PUSH1 0x20 PUSH0 KECCAK256 SWAP1 PUSH1 0x4 MUL ADD PUSH1 0x3 ADD SLOAD SWAP4 POP SWAP4 POP SWAP4 POP SWAP4 POP SWAP3 SWAP6 SWAP2 SWAP5 POP SWAP3 POP JUMP JUMPDEST PUSH0 PUSH0 CALLER PUSH20 0xFFFFFFFFFFFFFFFFFFFFFFFFFFFFFFFFFFFFFFFF AND PUSH20 0xFFFFFFFFFFFFFFFFFFFFFFFFFFFFFFFFFFFFFFFF AND DUP2 MSTORE PUSH1 0x20 ADD SWAP1 DUP2 MSTORE PUSH1 0x20 ADD PUSH0 KECCAK256 DUP1 SLOAD SWAP1 POP DUP2 LT PUSH2 0x4C8 JUMPI PUSH1 0x40 MLOAD PUSH32 0x8C379A000000000000000000000000000000000000000000000000000000000 DUP2 MSTORE PUSH1 0x4 ADD PUSH2 0x4BF SWAP1 PUSH2 0x9A1 JUMP JUMPDEST PUSH1 0x40 MLOAD DUP1 SWAP2 SUB SWAP1 REVERT JUMPDEST DUP2 PUSH0 PUSH0 CALLER PUSH20 0xFFFFFFFFFFFFFFFFFFFFFFFFFFFFFFFFFFFFFFFF AND PUSH20 0xFFFFFFFFFFFFFFFFFFFFFFFFFFFFFFFFFFFFFFFF AND DUP2 MSTORE PUSH1 0x20 ADD SWAP1 DUP2 MSTORE PUSH1 0x20 ADD PUSH0 KECCAK256 DUP3 DUP2 SLOAD DUP2 LT PUSH2 0x517 JUMPI PUSH2 0x516 PUSH2 0x91A JUMP JUMPDEST JUMPDEST SWAP1 PUSH0 MSTORE PUSH1 0x20 PUSH0 KECCAK256 SWAP1 PUSH1 0x4 MUL ADD PUSH0 ADD PUSH0 DUP3 DUP3 SLOAD PUSH2 0x533 SWAP2 SWAP1 PUSH2 0x9EC JUMP JUMPDEST SWAP3 POP POP DUP2 SWAP1 SSTORE POP POP POP JUMP JUMPDEST PUSH0 PUSH0 CALLER PUSH20 0xFFFFFFFFFFFFFFFFFFFFFFFFFFFFFFFFFFFFFFFF AND PUSH20 0xFFFFFFFFFFFFFFFFFFFFFFFFFFFFFFFFFFFFFFFF AND DUP2 MSTORE PUSH1 0x20 ADD SWAP1 DUP2 MSTORE PUSH1 0x20 ADD PUSH0 KECCAK256 PUSH0 DUP2 SLOAD DUP2 LT PUSH2 0x58C JUMPI PUSH2 0x58B PUSH2 0x91A JUMP JUMPDEST JUMPDEST SWAP1 PUSH0 MSTORE PUSH1 0x20 PUSH0 KECCAK256 SWAP1 PUSH1 0x4 MUL ADD PUSH1 0x3 ADD SLOAD PUSH0 PUSH0 CALLER PUSH20 0xFFFFFFFFFFFFFFFFFFFFFFFFFFFFFFFFFFFFFFFF AND PUSH20 0xFFFFFFFFFFFFFFFFFFFFFFFFFFFFFFFFFFFFFFFF AND DUP2 MSTORE PUSH1 0x20 ADD SWAP1 DUP2 MSTORE PUSH1 0x20 ADD PUSH0 KECCAK256 PUSH0 DUP2 SLOAD DUP2 LT PUSH2 0x5EA JUMPI PUSH2 0x5E9 PUSH2 0x91A JUMP JUMPDEST JUMPDEST SWAP1 PUSH0 MSTORE PUSH1 0x20 PUSH0 KECCAK256 SWAP1 PUSH1 0x4 MUL ADD PUSH1 0x2 ADD SLOAD PUSH2 0x604 SWAP2 SWAP1 PUSH2 0x9EC JUMP JUMPDEST TIMESTAMP LT ISZERO PUSH2 0x646 JUMPI PUSH1 0x40 MLOAD PUSH32 0x8C379A000000000000000000000000000000000000000000000000000000000 DUP2 MSTORE PUSH1 0x4 ADD PUSH2 0x63D SWAP1 PUSH2 0xA69 JUMP JUMPDEST PUSH1 0x40 MLOAD DUP1 SWAP2 SUB SWAP1 REVERT JUMPDEST DUP3 PUSH0 PUSH0 DUP5 PUSH20 0xFFFFFFFFFFFFFFFFFFFFFFFFFFFFFFFFFFFFFFFF AND PUSH20 0xFFFFFFFFFFFFFFFFFFFFFFFFFFFFFFFFFFFFFFFF AND DUP2 MSTORE PUSH1 0x20 ADD SWAP1 DUP2 MSTORE PUSH1 0x20 ADD PUSH0 KECCAK256 DUP3 DUP2 SLOAD DUP2 LT PUSH2 0x695 JUMPI PUSH2 0x694 PUSH2 0x91A JUMP JUMPDEST JUMPDEST SWAP1 PUSH0 MSTORE PUSH1 0x20 PUSH0 KECCAK256 SWAP1 PUSH1 0x4 MUL ADD PUSH0 ADD SLOAD LT ISZERO PUSH2 0x6E5 JUMPI PUSH1 0x40 MLOAD PUSH32 0x8C379A000000000000000000000000000000000000000000000000000000000 DUP2 MSTORE PUSH1 0x4 ADD PUSH2 0x6DC SWAP1 PUSH2 0xAD1 JUMP JUMPDEST PUSH1 0x40 MLOAD DUP1 SWAP2 SUB SWAP1 REVERT JUMPDEST DUP3 PUSH0 PUSH0 DUP5 PUSH20 0xFFFFFFFFFFFFFFFFFFFFFFFFFFFFFFFFFFFFFFFF AND PUSH20 0xFFFFFFFFFFFFFFFFFFFFFFFFFFFFFFFFFFFFFFFF AND DUP2 MSTORE PUSH1 0x20 ADD SWAP1 DUP2 MSTORE PUSH1 0x20 ADD PUSH0 KECCAK256 DUP3 DUP2 SLOAD DUP2 LT PUSH2 0x734 JUMPI PUSH2 0x733 PUSH2 0x91A JUMP JUMPDEST JUMPDEST SWAP1 PUSH0 MSTORE PUSH1 0x20 PUSH0 KECCAK256 SWAP1 PUSH1 0x4 MUL ADD PUSH0 ADD PUSH0 DUP3 DUP3 SLOAD PUSH2 0x750 SWAP2 SWAP1 PUSH2 0xAEF JUMP JUMPDEST SWAP3 POP POP DUP2 SWAP1 SSTORE POP POP POP POP JUMP JUMPDEST PUSH0 PUSH0 REVERT JUMPDEST PUSH0 PUSH20 0xFFFFFFFFFFFFFFFFFFFFFFFFFFFFFFFFFFFFFFFF DUP3 AND SWAP1 POP SWAP2 SWAP1 POP JUMP JUMPDEST PUSH0 PUSH2 0x789 DUP3 PUSH2 0x760 JUMP JUMPDEST SWAP1 POP SWAP2 SWAP1 POP JUMP JUMPDEST PUSH2 0x799 DUP2 PUSH2 0x77F JUMP JUMPDEST DUP2 EQ PUSH2 0x7A3 JUMPI PUSH0 PUSH0 REVERT JUMPDEST POP JUMP JUMPDEST PUSH0 DUP2 CALLDATALOAD SWAP1 POP PUSH2 0x7B4 DUP2 PUSH2 0x790 JUMP JUMPDEST SWAP3 SWAP2 POP POP JUMP JUMPDEST PUSH0 DUP2 SWAP1 POP SWAP2 SWAP1 POP JUMP JUMPDEST PUSH2 0x7CC DUP2 PUSH2 0x7BA JUMP JUMPDEST DUP2 EQ PUSH2 0x7D6 JUMPI PUSH0 PUSH0 REVERT JUMPDEST POP JUMP JUMPDEST PUSH0 DUP2 CALLDATALOAD SWAP1 POP PUSH2 0x7E7 DUP2 PUSH2 0x7C3 JUMP JUMPDEST SWAP3 SWAP2 POP POP JUMP JUMPDEST PUSH0 PUSH0 PUSH1 0x40 DUP4 DUP6 SUB SLT ISZERO PUSH2 0x803 JUMPI PUSH2 0x802 PUSH2 0x75C JUMP JUMPDEST JUMPDEST PUSH0 PUSH2 0x810 DUP6 DUP3 DUP7 ADD PUSH2 0x7A6 JUMP JUMPDEST SWAP3 POP POP PUSH1 0x20 PUSH2 0x821 DUP6 DUP3 DUP7 ADD PUSH2 0x7D9 JUMP JUMPDEST SWAP2 POP POP SWAP3 POP SWAP3 SWAP1 POP JUMP JUMPDEST PUSH2 0x834 DUP2 PUSH2 0x7BA JUMP JUMPDEST DUP3 MSTORE POP POP JUMP JUMPDEST PUSH2 0x843 DUP2 PUSH2 0x77F JUMP JUMPDEST DUP3 MSTORE POP POP JUMP JUMPDEST PUSH0 PUSH1 0x80 DUP3 ADD SWAP1 POP PUSH2 0x85C PUSH0 DUP4 ADD DUP8 PUSH2 0x82B JUMP JUMPDEST PUSH2 0x869 PUSH1 0x20 DUP4 ADD DUP7 PUSH2 0x83A JUMP JUMPDEST PUSH2 0x876 PUSH1 0x40 DUP4 ADD DUP6 PUSH2 0x82B JUMP JUMPDEST PUSH2 0x883 PUSH1 0x60 DUP4 ADD DUP5 PUSH2 0x82B JUMP JUMPDEST SWAP6 SWAP5 POP POP POP POP POP JUMP JUMPDEST PUSH0 PUSH0 PUSH1 0x40 DUP4 DUP6 SUB SLT ISZERO PUSH2 0x8A2 JUMPI PUSH2 0x8A1 PUSH2 0x75C JUMP JUMPDEST JUMPDEST PUSH0 PUSH2 0x8AF DUP6 DUP3 DUP7 ADD PUSH2 0x7D9 JUMP JUMPDEST SWAP3 POP POP PUSH1 0x20 PUSH2 0x8C0 DUP6 DUP3 DUP7 ADD PUSH2 0x7D9 JUMP JUMPDEST SWAP2 POP POP SWAP3 POP SWAP3 SWAP1 POP JUMP JUMPDEST PUSH0 PUSH0 PUSH0 PUSH1 0x60 DUP5 DUP7 SUB SLT ISZERO PUSH2 0x8E1 JUMPI PUSH2 0x8E0 PUSH2 0x75C JUMP JUMPDEST JUMPDEST PUSH0 PUSH2 0x8EE DUP7 DUP3 DUP8 ADD PUSH2 0x7D9 JUMP JUMPDEST SWAP4 POP POP PUSH1 0x20 PUSH2 0x8FF DUP7 DUP3 DUP8 ADD PUSH2 0x7A6 JUMP JUMPDEST SWAP3 POP POP PUSH1 0x40 PUSH2 0x910 DUP7 DUP3 DUP8 ADD PUSH2 0x7D9 JUMP JUMPDEST SWAP2 POP POP SWAP3 POP SWAP3 POP SWAP3 JUMP JUMPDEST PUSH32 0x4E487B7100000000000000000000000000000000000000000000000000000000 PUSH0 MSTORE PUSH1 0x32 PUSH1 0x4 MSTORE PUSH1 0x24 PUSH0 REVERT JUMPDEST PUSH0 DUP3 DUP3 MSTORE PUSH1 0x20 DUP3 ADD SWAP1 POP SWAP3 SWAP2 POP POP JUMP JUMPDEST PUSH32 0x4465706F736974206E6F7420666F756E64000000000000000000000000000000 PUSH0 DUP3 ADD MSTORE POP JUMP JUMPDEST PUSH0 PUSH2 0x98B PUSH1 0x11 DUP4 PUSH2 0x947 JUMP JUMPDEST SWAP2 POP PUSH2 0x996 DUP3 PUSH2 0x957 JUMP JUMPDEST PUSH1 0x20 DUP3 ADD SWAP1 POP SWAP2 SWAP1 POP JUMP JUMPDEST PUSH0 PUSH1 0x20 DUP3 ADD SWAP1 POP DUP2 DUP2 SUB PUSH0 DUP4 ADD MSTORE PUSH2 0x9B8 DUP2 PUSH2 0x97F JUMP JUMPDEST SWAP1 POP SWAP2 SWAP1 POP JUMP JUMPDEST PUSH32 0x4E487B7100000000000000000000000000000000000000000000000000000000 PUSH0 MSTORE PUSH1 0x11 PUSH1 0x4 MSTORE PUSH1 0x24 PUSH0 REVERT JUMPDEST PUSH0 PUSH2 0x9F6 DUP3 PUSH2 0x7BA JUMP JUMPDEST SWAP2 POP PUSH2 0xA01 DUP4 PUSH2 0x7BA JUMP JUMPDEST SWAP3 POP DUP3 DUP3 ADD SWAP1 POP DUP1 DUP3 GT ISZERO PUSH2 0xA19 JUMPI PUSH2 0xA18 PUSH2 0x9BF JUMP JUMPDEST JUMPDEST SWAP3 SWAP2 POP POP JUMP JUMPDEST PUSH32 0x596F7520617265206E6F7420656C696769626C6520746F205769746864726177 PUSH0 DUP3 ADD MSTORE POP JUMP JUMPDEST PUSH0 PUSH2 0xA53 PUSH1 0x20 DUP4 PUSH2 0x947 JUMP JUMPDEST SWAP2 POP PUSH2 0xA5E DUP3 PUSH2 0xA1F JUMP JUMPDEST PUSH1 0x20 DUP3 ADD SWAP1 POP SWAP2 SWAP1 POP JUMP JUMPDEST PUSH0 PUSH1 0x20 DUP3 ADD SWAP1 POP DUP2 DUP2 SUB PUSH0 DUP4 ADD MSTORE PUSH2 0xA80 DUP2 PUSH2 0xA47 JUMP JUMPDEST SWAP1 POP SWAP2 SWAP1 POP JUMP JUMPDEST PUSH32 0x42616C616E636520697320696E73756666696369656E74000000000000000000 PUSH0 DUP3 ADD MSTORE POP JUMP JUMPDEST PUSH0 PUSH2 0xABB PUSH1 0x17 DUP4 PUSH2 0x947 JUMP JUMPDEST SWAP2 POP PUSH2 0xAC6 DUP3 PUSH2 0xA87 JUMP JUMPDEST PUSH1 0x20 DUP3 ADD SWAP1 POP SWAP2 SWAP1 POP JUMP JUMPDEST PUSH0 PUSH1 0x20 DUP3 ADD SWAP1 POP DUP2 DUP2 SUB PUSH0 DUP4 ADD MSTORE PUSH2 0xAE8 DUP2 PUSH2 0xAAF JUMP JUMPDEST SWAP1 POP SWAP2 SWAP1 POP JUMP JUMPDEST PUSH0 PUSH2 0xAF9 DUP3 PUSH2 0x7BA JUMP JUMPDEST SWAP2 POP PUSH2 0xB04 DUP4 PUSH2 0x7BA JUMP JUMPDEST SWAP3 POP DUP3 DUP3 SUB SWAP1 POP DUP2 DUP2 GT ISZERO PUSH2 0xB1C JUMPI PUSH2 0xB1B PUSH2 0x9BF JUMP JUMPDEST JUMPDEST SWAP3 SWAP2 POP POP JUMP INVALID LOG2 PUSH5 0x6970667358 0x22 SLT KECCAK256 MLOAD TIMESTAMP 0xC1 0xD4 DUP5 MSTORE MCOPY 0xC LT DUP10 SWAP7 0xD7 STATICCALL SWAP11 0xC8 0x27 0xC8 GAS DUP4 0xD INVALID 0xC3 0x21 0xED 0xA8 PUSH0 0xD8 JUMPDEST COINBASE DUP6 SWAP15 0xDA PUSH5 0x736F6C6343 STOP ADDMOD SHR STOP CALLER "
				},
				"gasEstimates": {
					"creation": {
						"codeDepositCost": "580800",
						"executionCost": "611",
						"totalCost": "581411"
					},
					"external": {
						"createAcount(uint256,uint256)": "infinite",
						"database(address,uint256)": "infinite",
						"newDeposit(uint256,uint256)": "infinite",
						"viewSavingPlan(address,uint256)": "infinite",
						"withdraw(uint256,address,uint256)": "infinite"
					}
				},
				"methodIdentifiers": {
					"createAcount(uint256,uint256)": "33d81169",
					"database(address,uint256)": "2f75b785",
					"newDeposit(uint256,uint256)": "d90a5504",
					"viewSavingPlan(address,uint256)": "9d8be070",
					"withdraw(uint256,address,uint256)": "e63697c8"
				}
			},
			"storageLayout": {
				"storage": [
					{
						"astId": 16,
						"contract": "BlockchainFundamentals/02-exercises/04-savingAccount.sol:savingAccount",
						"label": "database",
						"offset": 0,
						"slot": "0",
						"type": "t_mapping(t_address,t_array(t_struct(SavingsAccount)10_storage)dyn_storage)"
					}
				],
				"types": {
					"t_address": {
						"encoding": "inplace",
						"label": "address",
						"numberOfBytes": "20"
					},
					"t_array(t_struct(SavingsAccount)10_storage)dyn_storage": {
						"base": "t_struct(SavingsAccount)10_storage",
						"encoding": "dynamic_array",
						"label": "struct savingAccount.SavingsAccount[]",
						"numberOfBytes": "32"
					},
					"t_mapping(t_address,t_array(t_struct(SavingsAccount)10_storage)dyn_storage)": {
						"encoding": "mapping",
						"key": "t_address",
						"label": "mapping(address => struct savingAccount.SavingsAccount[])",
						"numberOfBytes": "32",
						"value": "t_array(t_struct(SavingsAccount)10_storage)dyn_storage"
					},
					"t_struct(SavingsAccount)10_storage": {
						"encoding": "inplace",
						"label": "struct savingAccount.SavingsAccount",
						"members": [
							{
								"astId": 3,
								"contract": "BlockchainFundamentals/02-exercises/04-savingAccount.sol:savingAccount",
								"label": "balance",
								"offset": 0,
								"slot": "0",
								"type": "t_uint256"
							},
							{
								"astId": 5,
								"contract": "BlockchainFundamentals/02-exercises/04-savingAccount.sol:savingAccount",
								"label": "owner",
								"offset": 0,
								"slot": "1",
								"type": "t_address"
							},
							{
								"astId": 7,
								"contract": "BlockchainFundamentals/02-exercises/04-savingAccount.sol:savingAccount",
								"label": "creationTime",
								"offset": 0,
								"slot": "2",
								"type": "t_uint256"
							},
							{
								"astId": 9,
								"contract": "BlockchainFundamentals/02-exercises/04-savingAccount.sol:savingAccount",
								"label": "lockPeriod",
								"offset": 0,
								"slot": "3",
								"type": "t_uint256"
							}
						],
						"numberOfBytes": "128"
					},
					"t_uint256": {
						"encoding": "inplace",
						"label": "uint256",
						"numberOfBytes": "32"
					}
				}
			},
			"userdoc": {
				"kind": "user",
				"methods": {},
				"version": 1
			}
		}
	}
}