{
	"BlockchainFundamentals/02-exercises/03-crowdfunding.sol": {
		"Crowdfunding": {
			"abi": [
				{
					"inputs": [
						{
							"internalType": "uint256",
							"name": "_goalAmount",
							"type": "uint256"
						}
					],
					"stateMutability": "nonpayable",
					"type": "constructor"
				},
				{
					"inputs": [],
					"name": "GoalAlreadyAchieved",
					"type": "error"
				},
				{
					"inputs": [
						{
							"internalType": "uint256",
							"name": "contributionAmount",
							"type": "uint256"
						}
					],
					"name": "contribute",
					"outputs": [],
					"stateMutability": "nonpayable",
					"type": "function"
				},
				{
					"inputs": [
						{
							"internalType": "uint256",
							"name": "",
							"type": "uint256"
						}
					],
					"name": "contributors",
					"outputs": [
						{
							"internalType": "address",
							"name": "fromAddress",
							"type": "address"
						},
						{
							"internalType": "uint256",
							"name": "amountContributed",
							"type": "uint256"
						}
					],
					"stateMutability": "view",
					"type": "function"
				},
				{
					"inputs": [],
					"name": "endTime",
					"outputs": [
						{
							"internalType": "uint256",
							"name": "",
							"type": "uint256"
						}
					],
					"stateMutability": "view",
					"type": "function"
				},
				{
					"inputs": [],
					"name": "goalAmount",
					"outputs": [
						{
							"internalType": "uint256",
							"name": "",
							"type": "uint256"
						}
					],
					"stateMutability": "view",
					"type": "function"
				},
				{
					"inputs": [],
					"name": "isGoalAchieved",
					"outputs": [
						{
							"internalType": "bool",
							"name": "",
							"type": "bool"
						}
					],
					"stateMutability": "view",
					"type": "function"
				},
				{
					"inputs": [],
					"name": "proggressAmount",
					"outputs": [
						{
							"internalType": "uint256",
							"name": "",
							"type": "uint256"
						}
					],
					"stateMutability": "view",
					"type": "function"
				},
				{
					"inputs": [],
					"name": "startTime",
					"outputs": [
						{
							"internalType": "uint256",
							"name": "",
							"type": "uint256"
						}
					],
					"stateMutability": "view",
					"type": "function"
				}
			],
			"devdoc": {
				"kind": "dev",
				"methods": {},
				"version": 1
			},
			"evm": {
				"assembly": "    /* \"BlockchainFundamentals/02-exercises/03-crowdfunding.sol\":70:1664  contract Crowdfunding {... */\n  mstore(0x40, 0x80)\n    /* \"BlockchainFundamentals/02-exercises/03-crowdfunding.sol\":538:701  constructor (uint256 _goalAmount){... */\n  callvalue\n  dup1\n  iszero\n  tag_1\n  jumpi\n  revert(0x00, 0x00)\ntag_1:\n  pop\n  mload(0x40)\n  sub(codesize, bytecodeSize)\n  dup1\n  bytecodeSize\n  dup4\n  codecopy\n  dup2\n  dup2\n  add\n  0x40\n  mstore\n  dup2\n  add\n  swap1\n  tag_2\n  swap2\n  swap1\n  tag_3\n  jump\t// in\ntag_2:\n    /* \"BlockchainFundamentals/02-exercises/03-crowdfunding.sol\":594:609  block.timestamp */\n  timestamp\n    /* \"BlockchainFundamentals/02-exercises/03-crowdfunding.sol\":582:591  startTime */\n  0x01\n    /* \"BlockchainFundamentals/02-exercises/03-crowdfunding.sol\":582:609  startTime = block.timestamp */\n  dup2\n  swap1\n  sstore\n  pop\n    /* \"BlockchainFundamentals/02-exercises/03-crowdfunding.sol\":633:644  _goalAmount */\n  dup1\n    /* \"BlockchainFundamentals/02-exercises/03-crowdfunding.sol\":620:630  goalAmount */\n  0x00\n    /* \"BlockchainFundamentals/02-exercises/03-crowdfunding.sol\":620:644  goalAmount = _goalAmount */\n  dup2\n  swap1\n  sstore\n  pop\n    /* \"BlockchainFundamentals/02-exercises/03-crowdfunding.sol\":683:693  10 seconds */\n  0x0a\n    /* \"BlockchainFundamentals/02-exercises/03-crowdfunding.sol\":665:680  block.timestamp */\n  timestamp\n    /* \"BlockchainFundamentals/02-exercises/03-crowdfunding.sol\":665:693  block.timestamp + 10 seconds */\n  tag_6\n  swap2\n  swap1\n  tag_7\n  jump\t// in\ntag_6:\n    /* \"BlockchainFundamentals/02-exercises/03-crowdfunding.sol\":655:662  endTime */\n  0x02\n    /* \"BlockchainFundamentals/02-exercises/03-crowdfunding.sol\":655:693  endTime = block.timestamp + 10 seconds */\n  dup2\n  swap1\n  sstore\n  pop\n    /* \"BlockchainFundamentals/02-exercises/03-crowdfunding.sol\":538:701  constructor (uint256 _goalAmount){... */\n  pop\n    /* \"BlockchainFundamentals/02-exercises/03-crowdfunding.sol\":70:1664  contract Crowdfunding {... */\n  jump(tag_8)\n    /* \"#utility.yul\":88:205   */\ntag_10:\n    /* \"#utility.yul\":197:198   */\n  0x00\n    /* \"#utility.yul\":194:195   */\n  0x00\n    /* \"#utility.yul\":187:199   */\n  revert\n    /* \"#utility.yul\":334:411   */\ntag_12:\n    /* \"#utility.yul\":371:378   */\n  0x00\n    /* \"#utility.yul\":400:405   */\n  dup2\n    /* \"#utility.yul\":389:405   */\n  swap1\n  pop\n    /* \"#utility.yul\":334:411   */\n  swap2\n  swap1\n  pop\n  jump\t// out\n    /* \"#utility.yul\":417:539   */\ntag_13:\n    /* \"#utility.yul\":490:514   */\n  tag_22\n    /* \"#utility.yul\":508:513   */\n  dup2\n    /* \"#utility.yul\":490:514   */\n  tag_12\n  jump\t// in\ntag_22:\n    /* \"#utility.yul\":483:488   */\n  dup2\n    /* \"#utility.yul\":480:515   */\n  eq\n    /* \"#utility.yul\":470:533   */\n  tag_23\n  jumpi\n    /* \"#utility.yul\":529:530   */\n  0x00\n    /* \"#utility.yul\":526:527   */\n  0x00\n    /* \"#utility.yul\":519:531   */\n  revert\n    /* \"#utility.yul\":470:533   */\ntag_23:\n    /* \"#utility.yul\":417:539   */\n  pop\n  jump\t// out\n    /* \"#utility.yul\":545:688   */\ntag_14:\n    /* \"#utility.yul\":602:607   */\n  0x00\n    /* \"#utility.yul\":633:639   */\n  dup2\n    /* \"#utility.yul\":627:640   */\n  mload\n    /* \"#utility.yul\":618:640   */\n  swap1\n  pop\n    /* \"#utility.yul\":649:682   */\n  tag_25\n    /* \"#utility.yul\":676:681   */\n  dup2\n    /* \"#utility.yul\":649:682   */\n  tag_13\n  jump\t// in\ntag_25:\n    /* \"#utility.yul\":545:688   */\n  swap3\n  swap2\n  pop\n  pop\n  jump\t// out\n    /* \"#utility.yul\":694:1045   */\ntag_3:\n    /* \"#utility.yul\":764:770   */\n  0x00\n    /* \"#utility.yul\":813:815   */\n  0x20\n    /* \"#utility.yul\":801:810   */\n  dup3\n    /* \"#utility.yul\":792:799   */\n  dup5\n    /* \"#utility.yul\":788:811   */\n  sub\n    /* \"#utility.yul\":784:816   */\n  slt\n    /* \"#utility.yul\":781:900   */\n  iszero\n  tag_27\n  jumpi\n    /* \"#utility.yul\":819:898   */\n  tag_28\n  tag_10\n  jump\t// in\ntag_28:\n    /* \"#utility.yul\":781:900   */\ntag_27:\n    /* \"#utility.yul\":939:940   */\n  0x00\n    /* \"#utility.yul\":964:1028   */\n  tag_29\n    /* \"#utility.yul\":1020:1027   */\n  dup5\n    /* \"#utility.yul\":1011:1017   */\n  dup3\n    /* \"#utility.yul\":1000:1009   */\n  dup6\n    /* \"#utility.yul\":996:1018   */\n  add\n    /* \"#utility.yul\":964:1028   */\n  tag_14\n  jump\t// in\ntag_29:\n    /* \"#utility.yul\":954:1028   */\n  swap2\n  pop\n    /* \"#utility.yul\":910:1038   */\n  pop\n    /* \"#utility.yul\":694:1045   */\n  swap3\n  swap2\n  pop\n  pop\n  jump\t// out\n    /* \"#utility.yul\":1051:1231   */\ntag_15:\n    /* \"#utility.yul\":1099:1176   */\n  0x4e487b7100000000000000000000000000000000000000000000000000000000\n    /* \"#utility.yul\":1096:1097   */\n  0x00\n    /* \"#utility.yul\":1089:1177   */\n  mstore\n    /* \"#utility.yul\":1196:1200   */\n  0x11\n    /* \"#utility.yul\":1193:1194   */\n  0x04\n    /* \"#utility.yul\":1186:1201   */\n  mstore\n    /* \"#utility.yul\":1220:1224   */\n  0x24\n    /* \"#utility.yul\":1217:1218   */\n  0x00\n    /* \"#utility.yul\":1210:1225   */\n  revert\n    /* \"#utility.yul\":1237:1428   */\ntag_7:\n    /* \"#utility.yul\":1277:1280   */\n  0x00\n    /* \"#utility.yul\":1296:1316   */\n  tag_32\n    /* \"#utility.yul\":1314:1315   */\n  dup3\n    /* \"#utility.yul\":1296:1316   */\n  tag_12\n  jump\t// in\ntag_32:\n    /* \"#utility.yul\":1291:1316   */\n  swap2\n  pop\n    /* \"#utility.yul\":1330:1350   */\n  tag_33\n    /* \"#utility.yul\":1348:1349   */\n  dup4\n    /* \"#utility.yul\":1330:1350   */\n  tag_12\n  jump\t// in\ntag_33:\n    /* \"#utility.yul\":1325:1350   */\n  swap3\n  pop\n    /* \"#utility.yul\":1373:1374   */\n  dup3\n    /* \"#utility.yul\":1370:1371   */\n  dup3\n    /* \"#utility.yul\":1366:1375   */\n  add\n    /* \"#utility.yul\":1359:1375   */\n  swap1\n  pop\n    /* \"#utility.yul\":1394:1397   */\n  dup1\n    /* \"#utility.yul\":1391:1392   */\n  dup3\n    /* \"#utility.yul\":1388:1398   */\n  gt\n    /* \"#utility.yul\":1385:1421   */\n  iszero\n  tag_34\n  jumpi\n    /* \"#utility.yul\":1401:1419   */\n  tag_35\n  tag_15\n  jump\t// in\ntag_35:\n    /* \"#utility.yul\":1385:1421   */\ntag_34:\n    /* \"#utility.yul\":1237:1428   */\n  swap3\n  swap2\n  pop\n  pop\n  jump\t// out\n    /* \"BlockchainFundamentals/02-exercises/03-crowdfunding.sol\":70:1664  contract Crowdfunding {... */\ntag_8:\n  dataSize(sub_0)\n  dup1\n  dataOffset(sub_0)\n  0x00\n  codecopy\n  0x00\n  return\nstop\n\nsub_0: assembly {\n        /* \"BlockchainFundamentals/02-exercises/03-crowdfunding.sol\":70:1664  contract Crowdfunding {... */\n      mstore(0x40, 0x80)\n      callvalue\n      dup1\n      iszero\n      tag_1\n      jumpi\n      revert(0x00, 0x00)\n    tag_1:\n      pop\n      jumpi(tag_2, lt(calldatasize, 0x04))\n      shr(0xe0, calldataload(0x00))\n      dup1\n      0x3cb5d100\n      gt\n      tag_10\n      jumpi\n      dup1\n      0x3cb5d100\n      eq\n      tag_6\n      jumpi\n      dup1\n      0x78e97925\n      eq\n      tag_7\n      jumpi\n      dup1\n      0xa49bcda0\n      eq\n      tag_8\n      jumpi\n      dup1\n      0xc1cbbca7\n      eq\n      tag_9\n      jumpi\n      jump(tag_2)\n    tag_10:\n      dup1\n      0x2636b945\n      eq\n      tag_3\n      jumpi\n      dup1\n      0x3197cbb6\n      eq\n      tag_4\n      jumpi\n      dup1\n      0x321ab821\n      eq\n      tag_5\n      jumpi\n    tag_2:\n      revert(0x00, 0x00)\n        /* \"BlockchainFundamentals/02-exercises/03-crowdfunding.sol\":103:128  uint256 public goalAmount */\n    tag_3:\n      tag_11\n      tag_12\n      jump\t// in\n    tag_11:\n      mload(0x40)\n      tag_13\n      swap2\n      swap1\n      tag_14\n      jump\t// in\n    tag_13:\n      mload(0x40)\n      dup1\n      swap2\n      sub\n      swap1\n      return\n        /* \"BlockchainFundamentals/02-exercises/03-crowdfunding.sol\":174:196  uint256 public endTime */\n    tag_4:\n      tag_15\n      tag_16\n      jump\t// in\n    tag_15:\n      mload(0x40)\n      tag_17\n      swap2\n      swap1\n      tag_14\n      jump\t// in\n    tag_17:\n      mload(0x40)\n      dup1\n      swap2\n      sub\n      swap1\n      return\n        /* \"BlockchainFundamentals/02-exercises/03-crowdfunding.sol\":244:274  uint256 public proggressAmount */\n    tag_5:\n      tag_18\n      tag_19\n      jump\t// in\n    tag_18:\n      mload(0x40)\n      tag_20\n      swap2\n      swap1\n      tag_14\n      jump\t// in\n    tag_20:\n      mload(0x40)\n      dup1\n      swap2\n      sub\n      swap1\n      return\n        /* \"BlockchainFundamentals/02-exercises/03-crowdfunding.sol\":455:483  Backer[] public contributors */\n    tag_6:\n      tag_21\n      0x04\n      dup1\n      calldatasize\n      sub\n      dup2\n      add\n      swap1\n      tag_22\n      swap2\n      swap1\n      tag_23\n      jump\t// in\n    tag_22:\n      tag_24\n      jump\t// in\n    tag_21:\n      mload(0x40)\n      tag_25\n      swap3\n      swap2\n      swap1\n      tag_26\n      jump\t// in\n    tag_25:\n      mload(0x40)\n      dup1\n      swap2\n      sub\n      swap1\n      return\n        /* \"BlockchainFundamentals/02-exercises/03-crowdfunding.sol\":139:163  uint256 public startTime */\n    tag_7:\n      tag_27\n      tag_28\n      jump\t// in\n    tag_27:\n      mload(0x40)\n      tag_29\n      swap2\n      swap1\n      tag_14\n      jump\t// in\n    tag_29:\n      mload(0x40)\n      dup1\n      swap2\n      sub\n      swap1\n      return\n        /* \"BlockchainFundamentals/02-exercises/03-crowdfunding.sol\":207:233  bool public isGoalAchieved */\n    tag_8:\n      tag_30\n      tag_31\n      jump\t// in\n    tag_30:\n      mload(0x40)\n      tag_32\n      swap2\n      swap1\n      tag_33\n      jump\t// in\n    tag_32:\n      mload(0x40)\n      dup1\n      swap2\n      sub\n      swap1\n      return\n        /* \"BlockchainFundamentals/02-exercises/03-crowdfunding.sol\":709:1233  function contribute (uint256 contributionAmount) external {... */\n    tag_9:\n      tag_34\n      0x04\n      dup1\n      calldatasize\n      sub\n      dup2\n      add\n      swap1\n      tag_35\n      swap2\n      swap1\n      tag_23\n      jump\t// in\n    tag_35:\n      tag_36\n      jump\t// in\n    tag_34:\n      stop\n        /* \"BlockchainFundamentals/02-exercises/03-crowdfunding.sol\":103:128  uint256 public goalAmount */\n    tag_12:\n      sload(0x00)\n      dup2\n      jump\t// out\n        /* \"BlockchainFundamentals/02-exercises/03-crowdfunding.sol\":174:196  uint256 public endTime */\n    tag_16:\n      sload(0x02)\n      dup2\n      jump\t// out\n        /* \"BlockchainFundamentals/02-exercises/03-crowdfunding.sol\":244:274  uint256 public proggressAmount */\n    tag_19:\n      sload(0x04)\n      dup2\n      jump\t// out\n        /* \"BlockchainFundamentals/02-exercises/03-crowdfunding.sol\":455:483  Backer[] public contributors */\n    tag_24:\n      0x06\n      dup2\n      dup2\n      sload\n      dup2\n      lt\n      tag_37\n      jumpi\n      0x00\n      dup1\n      revert\n    tag_37:\n      swap1\n      0x00\n      mstore\n      keccak256(0x00, 0x20)\n      swap1\n      0x02\n      mul\n      add\n      0x00\n      swap2\n      pop\n      swap1\n      pop\n      dup1\n      0x00\n      add\n      0x00\n      swap1\n      sload\n      swap1\n      0x0100\n      exp\n      swap1\n      div\n      0xffffffffffffffffffffffffffffffffffffffff\n      and\n      swap1\n      dup1\n      0x01\n      add\n      sload\n      swap1\n      pop\n      dup3\n      jump\t// out\n        /* \"BlockchainFundamentals/02-exercises/03-crowdfunding.sol\":139:163  uint256 public startTime */\n    tag_28:\n      sload(0x01)\n      dup2\n      jump\t// out\n        /* \"BlockchainFundamentals/02-exercises/03-crowdfunding.sol\":207:233  bool public isGoalAchieved */\n    tag_31:\n      0x03\n      0x00\n      swap1\n      sload\n      swap1\n      0x0100\n      exp\n      swap1\n      div\n      0xff\n      and\n      dup2\n      jump\t// out\n        /* \"BlockchainFundamentals/02-exercises/03-crowdfunding.sol\":709:1233  function contribute (uint256 contributionAmount) external {... */\n    tag_36:\n        /* \"BlockchainFundamentals/02-exercises/03-crowdfunding.sol\":799:803  true */\n      0x01\n        /* \"BlockchainFundamentals/02-exercises/03-crowdfunding.sol\":781:803  isGoalAchieved == true */\n      iszero\n      iszero\n        /* \"BlockchainFundamentals/02-exercises/03-crowdfunding.sol\":781:795  isGoalAchieved */\n      0x03\n      0x00\n      swap1\n      sload\n      swap1\n      0x0100\n      exp\n      swap1\n      div\n      0xff\n      and\n        /* \"BlockchainFundamentals/02-exercises/03-crowdfunding.sol\":781:803  isGoalAchieved == true */\n      iszero\n      iszero\n      sub\n        /* \"BlockchainFundamentals/02-exercises/03-crowdfunding.sol\":778:859  if(isGoalAchieved == true){... */\n      tag_40\n      jumpi\n        /* \"BlockchainFundamentals/02-exercises/03-crowdfunding.sol\":826:847  GoalAlreadyAchieved() */\n      mload(0x40)\n      0x587775e200000000000000000000000000000000000000000000000000000000\n      dup2\n      mstore\n      0x04\n      add\n      mload(0x40)\n      dup1\n      swap2\n      sub\n      swap1\n      revert\n        /* \"BlockchainFundamentals/02-exercises/03-crowdfunding.sol\":778:859  if(isGoalAchieved == true){... */\n    tag_40:\n        /* \"BlockchainFundamentals/02-exercises/03-crowdfunding.sol\":905:912  endTime */\n      sload(0x02)\n        /* \"BlockchainFundamentals/02-exercises/03-crowdfunding.sol\":887:902  block.timestamp */\n      timestamp\n        /* \"BlockchainFundamentals/02-exercises/03-crowdfunding.sol\":887:912  block.timestamp < endTime */\n      lt\n        /* \"BlockchainFundamentals/02-exercises/03-crowdfunding.sol\":887:943  block.timestamp < endTime && block.timestamp > startTime */\n      dup1\n      iszero\n      tag_41\n      jumpi\n      pop\n        /* \"BlockchainFundamentals/02-exercises/03-crowdfunding.sol\":934:943  startTime */\n      sload(0x01)\n        /* \"BlockchainFundamentals/02-exercises/03-crowdfunding.sol\":916:931  block.timestamp */\n      timestamp\n        /* \"BlockchainFundamentals/02-exercises/03-crowdfunding.sol\":916:943  block.timestamp > startTime */\n      gt\n        /* \"BlockchainFundamentals/02-exercises/03-crowdfunding.sol\":887:943  block.timestamp < endTime && block.timestamp > startTime */\n    tag_41:\n        /* \"BlockchainFundamentals/02-exercises/03-crowdfunding.sol\":879:959  require(block.timestamp < endTime && block.timestamp > startTime, \"Out of time\") */\n      tag_42\n      jumpi\n      mload(0x40)\n      0x08c379a000000000000000000000000000000000000000000000000000000000\n      dup2\n      mstore\n      0x04\n      add\n      tag_43\n      swap1\n      tag_44\n      jump\t// in\n    tag_43:\n      mload(0x40)\n      dup1\n      swap2\n      sub\n      swap1\n      revert\n    tag_42:\n        /* \"BlockchainFundamentals/02-exercises/03-crowdfunding.sol\":990:1002  contributors */\n      0x06\n        /* \"BlockchainFundamentals/02-exercises/03-crowdfunding.sol\":1008:1046  Backer(msg.sender, contributionAmount) */\n      mload(0x40)\n      dup1\n      0x40\n      add\n      0x40\n      mstore\n      dup1\n        /* \"BlockchainFundamentals/02-exercises/03-crowdfunding.sol\":1015:1025  msg.sender */\n      caller\n        /* \"BlockchainFundamentals/02-exercises/03-crowdfunding.sol\":1008:1046  Backer(msg.sender, contributionAmount) */\n      0xffffffffffffffffffffffffffffffffffffffff\n      and\n      dup2\n      mstore\n      0x20\n      add\n        /* \"BlockchainFundamentals/02-exercises/03-crowdfunding.sol\":1027:1045  contributionAmount */\n      dup4\n        /* \"BlockchainFundamentals/02-exercises/03-crowdfunding.sol\":1008:1046  Backer(msg.sender, contributionAmount) */\n      dup2\n      mstore\n      pop\n        /* \"BlockchainFundamentals/02-exercises/03-crowdfunding.sol\":990:1047  contributors.push(Backer(msg.sender, contributionAmount)) */\n      swap1\n      dup1\n      0x01\n      dup2\n      sload\n      add\n      dup1\n      dup3\n      sstore\n      dup1\n      swap2\n      pop\n      pop\n      0x01\n      swap1\n      sub\n      swap1\n      0x00\n      mstore\n      keccak256(0x00, 0x20)\n      swap1\n      0x02\n      mul\n      add\n      0x00\n      swap1\n      swap2\n      swap1\n      swap2\n      swap1\n      swap2\n      pop\n      0x00\n      dup3\n      add\n      mload\n      dup2\n      0x00\n      add\n      exp(0x0100, 0x00)\n      dup2\n      sload\n      dup2\n      0xffffffffffffffffffffffffffffffffffffffff\n      mul\n      not\n      and\n      swap1\n      dup4\n      0xffffffffffffffffffffffffffffffffffffffff\n      and\n      mul\n      or\n      swap1\n      sstore\n      pop\n      0x20\n      dup3\n      add\n      mload\n      dup2\n      0x01\n      add\n      sstore\n      pop\n      pop\n        /* \"BlockchainFundamentals/02-exercises/03-crowdfunding.sol\":1077:1095  contributionAmount */\n      dup1\n        /* \"BlockchainFundamentals/02-exercises/03-crowdfunding.sol\":1058:1073  proggressAmount */\n      0x04\n      0x00\n        /* \"BlockchainFundamentals/02-exercises/03-crowdfunding.sol\":1058:1095  proggressAmount += contributionAmount */\n      dup3\n      dup3\n      sload\n      tag_46\n      swap2\n      swap1\n      tag_47\n      jump\t// in\n    tag_46:\n      swap3\n      pop\n      pop\n      dup2\n      swap1\n      sstore\n      pop\n        /* \"BlockchainFundamentals/02-exercises/03-crowdfunding.sol\":1128:1138  goalAmount */\n      sload(0x00)\n        /* \"BlockchainFundamentals/02-exercises/03-crowdfunding.sol\":1109:1124  proggressAmount */\n      sload(0x04)\n        /* \"BlockchainFundamentals/02-exercises/03-crowdfunding.sol\":1109:1138  proggressAmount >= goalAmount */\n      lt\n        /* \"BlockchainFundamentals/02-exercises/03-crowdfunding.sol\":1106:1215  if(proggressAmount >= goalAmount){... */\n      tag_48\n      jumpi\n        /* \"BlockchainFundamentals/02-exercises/03-crowdfunding.sol\":1171:1175  true */\n      0x01\n        /* \"BlockchainFundamentals/02-exercises/03-crowdfunding.sol\":1154:1168  isGoalAchieved */\n      0x03\n      0x00\n        /* \"BlockchainFundamentals/02-exercises/03-crowdfunding.sol\":1154:1175  isGoalAchieved = true */\n      0x0100\n      exp\n      dup2\n      sload\n      dup2\n      0xff\n      mul\n      not\n      and\n      swap1\n      dup4\n      iszero\n      iszero\n      mul\n      or\n      swap1\n      sstore\n      pop\n        /* \"BlockchainFundamentals/02-exercises/03-crowdfunding.sol\":1106:1215  if(proggressAmount >= goalAmount){... */\n    tag_48:\n        /* \"BlockchainFundamentals/02-exercises/03-crowdfunding.sol\":709:1233  function contribute (uint256 contributionAmount) external {... */\n      pop\n      jump\t// out\n        /* \"#utility.yul\":7:84   */\n    tag_49:\n        /* \"#utility.yul\":44:51   */\n      0x00\n        /* \"#utility.yul\":73:78   */\n      dup2\n        /* \"#utility.yul\":62:78   */\n      swap1\n      pop\n        /* \"#utility.yul\":7:84   */\n      swap2\n      swap1\n      pop\n      jump\t// out\n        /* \"#utility.yul\":90:208   */\n    tag_50:\n        /* \"#utility.yul\":177:201   */\n      tag_68\n        /* \"#utility.yul\":195:200   */\n      dup2\n        /* \"#utility.yul\":177:201   */\n      tag_49\n      jump\t// in\n    tag_68:\n        /* \"#utility.yul\":172:175   */\n      dup3\n        /* \"#utility.yul\":165:202   */\n      mstore\n        /* \"#utility.yul\":90:208   */\n      pop\n      pop\n      jump\t// out\n        /* \"#utility.yul\":214:436   */\n    tag_14:\n        /* \"#utility.yul\":307:311   */\n      0x00\n        /* \"#utility.yul\":345:347   */\n      0x20\n        /* \"#utility.yul\":334:343   */\n      dup3\n        /* \"#utility.yul\":330:348   */\n      add\n        /* \"#utility.yul\":322:348   */\n      swap1\n      pop\n        /* \"#utility.yul\":358:429   */\n      tag_70\n        /* \"#utility.yul\":426:427   */\n      0x00\n        /* \"#utility.yul\":415:424   */\n      dup4\n        /* \"#utility.yul\":411:428   */\n      add\n        /* \"#utility.yul\":402:408   */\n      dup5\n        /* \"#utility.yul\":358:429   */\n      tag_50\n      jump\t// in\n    tag_70:\n        /* \"#utility.yul\":214:436   */\n      swap3\n      swap2\n      pop\n      pop\n      jump\t// out\n        /* \"#utility.yul\":523:640   */\n    tag_52:\n        /* \"#utility.yul\":632:633   */\n      0x00\n        /* \"#utility.yul\":629:630   */\n      0x00\n        /* \"#utility.yul\":622:634   */\n      revert\n        /* \"#utility.yul\":769:891   */\n    tag_54:\n        /* \"#utility.yul\":842:866   */\n      tag_75\n        /* \"#utility.yul\":860:865   */\n      dup2\n        /* \"#utility.yul\":842:866   */\n      tag_49\n      jump\t// in\n    tag_75:\n        /* \"#utility.yul\":835:840   */\n      dup2\n        /* \"#utility.yul\":832:867   */\n      eq\n        /* \"#utility.yul\":822:885   */\n      tag_76\n      jumpi\n        /* \"#utility.yul\":881:882   */\n      0x00\n        /* \"#utility.yul\":878:879   */\n      0x00\n        /* \"#utility.yul\":871:883   */\n      revert\n        /* \"#utility.yul\":822:885   */\n    tag_76:\n        /* \"#utility.yul\":769:891   */\n      pop\n      jump\t// out\n        /* \"#utility.yul\":897:1036   */\n    tag_55:\n        /* \"#utility.yul\":943:948   */\n      0x00\n        /* \"#utility.yul\":981:987   */\n      dup2\n        /* \"#utility.yul\":968:988   */\n      calldataload\n        /* \"#utility.yul\":959:988   */\n      swap1\n      pop\n        /* \"#utility.yul\":997:1030   */\n      tag_78\n        /* \"#utility.yul\":1024:1029   */\n      dup2\n        /* \"#utility.yul\":997:1030   */\n      tag_54\n      jump\t// in\n    tag_78:\n        /* \"#utility.yul\":897:1036   */\n      swap3\n      swap2\n      pop\n      pop\n      jump\t// out\n        /* \"#utility.yul\":1042:1371   */\n    tag_23:\n        /* \"#utility.yul\":1101:1107   */\n      0x00\n        /* \"#utility.yul\":1150:1152   */\n      0x20\n        /* \"#utility.yul\":1138:1147   */\n      dup3\n        /* \"#utility.yul\":1129:1136   */\n      dup5\n        /* \"#utility.yul\":1125:1148   */\n      sub\n        /* \"#utility.yul\":1121:1153   */\n      slt\n        /* \"#utility.yul\":1118:1237   */\n      iszero\n      tag_80\n      jumpi\n        /* \"#utility.yul\":1156:1235   */\n      tag_81\n      tag_52\n      jump\t// in\n    tag_81:\n        /* \"#utility.yul\":1118:1237   */\n    tag_80:\n        /* \"#utility.yul\":1276:1277   */\n      0x00\n        /* \"#utility.yul\":1301:1354   */\n      tag_82\n        /* \"#utility.yul\":1346:1353   */\n      dup5\n        /* \"#utility.yul\":1337:1343   */\n      dup3\n        /* \"#utility.yul\":1326:1335   */\n      dup6\n        /* \"#utility.yul\":1322:1344   */\n      add\n        /* \"#utility.yul\":1301:1354   */\n      tag_55\n      jump\t// in\n    tag_82:\n        /* \"#utility.yul\":1291:1354   */\n      swap2\n      pop\n        /* \"#utility.yul\":1247:1364   */\n      pop\n        /* \"#utility.yul\":1042:1371   */\n      swap3\n      swap2\n      pop\n      pop\n      jump\t// out\n        /* \"#utility.yul\":1377:1503   */\n    tag_56:\n        /* \"#utility.yul\":1414:1421   */\n      0x00\n        /* \"#utility.yul\":1454:1496   */\n      0xffffffffffffffffffffffffffffffffffffffff\n        /* \"#utility.yul\":1447:1452   */\n      dup3\n        /* \"#utility.yul\":1443:1497   */\n      and\n        /* \"#utility.yul\":1432:1497   */\n      swap1\n      pop\n        /* \"#utility.yul\":1377:1503   */\n      swap2\n      swap1\n      pop\n      jump\t// out\n        /* \"#utility.yul\":1509:1605   */\n    tag_57:\n        /* \"#utility.yul\":1546:1553   */\n      0x00\n        /* \"#utility.yul\":1575:1599   */\n      tag_85\n        /* \"#utility.yul\":1593:1598   */\n      dup3\n        /* \"#utility.yul\":1575:1599   */\n      tag_56\n      jump\t// in\n    tag_85:\n        /* \"#utility.yul\":1564:1599   */\n      swap1\n      pop\n        /* \"#utility.yul\":1509:1605   */\n      swap2\n      swap1\n      pop\n      jump\t// out\n        /* \"#utility.yul\":1611:1729   */\n    tag_58:\n        /* \"#utility.yul\":1698:1722   */\n      tag_87\n        /* \"#utility.yul\":1716:1721   */\n      dup2\n        /* \"#utility.yul\":1698:1722   */\n      tag_57\n      jump\t// in\n    tag_87:\n        /* \"#utility.yul\":1693:1696   */\n      dup3\n        /* \"#utility.yul\":1686:1723   */\n      mstore\n        /* \"#utility.yul\":1611:1729   */\n      pop\n      pop\n      jump\t// out\n        /* \"#utility.yul\":1735:2067   */\n    tag_26:\n        /* \"#utility.yul\":1856:1860   */\n      0x00\n        /* \"#utility.yul\":1894:1896   */\n      0x40\n        /* \"#utility.yul\":1883:1892   */\n      dup3\n        /* \"#utility.yul\":1879:1897   */\n      add\n        /* \"#utility.yul\":1871:1897   */\n      swap1\n      pop\n        /* \"#utility.yul\":1907:1978   */\n      tag_89\n        /* \"#utility.yul\":1975:1976   */\n      0x00\n        /* \"#utility.yul\":1964:1973   */\n      dup4\n        /* \"#utility.yul\":1960:1977   */\n      add\n        /* \"#utility.yul\":1951:1957   */\n      dup6\n        /* \"#utility.yul\":1907:1978   */\n      tag_58\n      jump\t// in\n    tag_89:\n        /* \"#utility.yul\":1988:2060   */\n      tag_90\n        /* \"#utility.yul\":2056:2058   */\n      0x20\n        /* \"#utility.yul\":2045:2054   */\n      dup4\n        /* \"#utility.yul\":2041:2059   */\n      add\n        /* \"#utility.yul\":2032:2038   */\n      dup5\n        /* \"#utility.yul\":1988:2060   */\n      tag_50\n      jump\t// in\n    tag_90:\n        /* \"#utility.yul\":1735:2067   */\n      swap4\n      swap3\n      pop\n      pop\n      pop\n      jump\t// out\n        /* \"#utility.yul\":2073:2163   */\n    tag_59:\n        /* \"#utility.yul\":2107:2114   */\n      0x00\n        /* \"#utility.yul\":2150:2155   */\n      dup2\n        /* \"#utility.yul\":2143:2156   */\n      iszero\n        /* \"#utility.yul\":2136:2157   */\n      iszero\n        /* \"#utility.yul\":2125:2157   */\n      swap1\n      pop\n        /* \"#utility.yul\":2073:2163   */\n      swap2\n      swap1\n      pop\n      jump\t// out\n        /* \"#utility.yul\":2169:2278   */\n    tag_60:\n        /* \"#utility.yul\":2250:2271   */\n      tag_93\n        /* \"#utility.yul\":2265:2270   */\n      dup2\n        /* \"#utility.yul\":2250:2271   */\n      tag_59\n      jump\t// in\n    tag_93:\n        /* \"#utility.yul\":2245:2248   */\n      dup3\n        /* \"#utility.yul\":2238:2272   */\n      mstore\n        /* \"#utility.yul\":2169:2278   */\n      pop\n      pop\n      jump\t// out\n        /* \"#utility.yul\":2284:2494   */\n    tag_33:\n        /* \"#utility.yul\":2371:2375   */\n      0x00\n        /* \"#utility.yul\":2409:2411   */\n      0x20\n        /* \"#utility.yul\":2398:2407   */\n      dup3\n        /* \"#utility.yul\":2394:2412   */\n      add\n        /* \"#utility.yul\":2386:2412   */\n      swap1\n      pop\n        /* \"#utility.yul\":2422:2487   */\n      tag_95\n        /* \"#utility.yul\":2484:2485   */\n      0x00\n        /* \"#utility.yul\":2473:2482   */\n      dup4\n        /* \"#utility.yul\":2469:2486   */\n      add\n        /* \"#utility.yul\":2460:2466   */\n      dup5\n        /* \"#utility.yul\":2422:2487   */\n      tag_60\n      jump\t// in\n    tag_95:\n        /* \"#utility.yul\":2284:2494   */\n      swap3\n      swap2\n      pop\n      pop\n      jump\t// out\n        /* \"#utility.yul\":2500:2669   */\n    tag_61:\n        /* \"#utility.yul\":2584:2595   */\n      0x00\n        /* \"#utility.yul\":2618:2624   */\n      dup3\n        /* \"#utility.yul\":2613:2616   */\n      dup3\n        /* \"#utility.yul\":2606:2625   */\n      mstore\n        /* \"#utility.yul\":2658:2662   */\n      0x20\n        /* \"#utility.yul\":2653:2656   */\n      dup3\n        /* \"#utility.yul\":2649:2663   */\n      add\n        /* \"#utility.yul\":2634:2663   */\n      swap1\n      pop\n        /* \"#utility.yul\":2500:2669   */\n      swap3\n      swap2\n      pop\n      pop\n      jump\t// out\n        /* \"#utility.yul\":2675:2836   */\n    tag_62:\n        /* \"#utility.yul\":2815:2828   */\n      0x4f7574206f662074696d65000000000000000000000000000000000000000000\n        /* \"#utility.yul\":2811:2812   */\n      0x00\n        /* \"#utility.yul\":2803:2809   */\n      dup3\n        /* \"#utility.yul\":2799:2813   */\n      add\n        /* \"#utility.yul\":2792:2829   */\n      mstore\n        /* \"#utility.yul\":2675:2836   */\n      pop\n      jump\t// out\n        /* \"#utility.yul\":2842:3208   */\n    tag_63:\n        /* \"#utility.yul\":2984:2987   */\n      0x00\n        /* \"#utility.yul\":3005:3072   */\n      tag_99\n        /* \"#utility.yul\":3069:3071   */\n      0x0b\n        /* \"#utility.yul\":3064:3067   */\n      dup4\n        /* \"#utility.yul\":3005:3072   */\n      tag_61\n      jump\t// in\n    tag_99:\n        /* \"#utility.yul\":2998:3072   */\n      swap2\n      pop\n        /* \"#utility.yul\":3081:3174   */\n      tag_100\n        /* \"#utility.yul\":3170:3173   */\n      dup3\n        /* \"#utility.yul\":3081:3174   */\n      tag_62\n      jump\t// in\n    tag_100:\n        /* \"#utility.yul\":3199:3201   */\n      0x20\n        /* \"#utility.yul\":3194:3197   */\n      dup3\n        /* \"#utility.yul\":3190:3202   */\n      add\n        /* \"#utility.yul\":3183:3202   */\n      swap1\n      pop\n        /* \"#utility.yul\":2842:3208   */\n      swap2\n      swap1\n      pop\n      jump\t// out\n        /* \"#utility.yul\":3214:3633   */\n    tag_44:\n        /* \"#utility.yul\":3380:3384   */\n      0x00\n        /* \"#utility.yul\":3418:3420   */\n      0x20\n        /* \"#utility.yul\":3407:3416   */\n      dup3\n        /* \"#utility.yul\":3403:3421   */\n      add\n        /* \"#utility.yul\":3395:3421   */\n      swap1\n      pop\n        /* \"#utility.yul\":3467:3476   */\n      dup2\n        /* \"#utility.yul\":3461:3465   */\n      dup2\n        /* \"#utility.yul\":3457:3477   */\n      sub\n        /* \"#utility.yul\":3453:3454   */\n      0x00\n        /* \"#utility.yul\":3442:3451   */\n      dup4\n        /* \"#utility.yul\":3438:3455   */\n      add\n        /* \"#utility.yul\":3431:3478   */\n      mstore\n        /* \"#utility.yul\":3495:3626   */\n      tag_102\n        /* \"#utility.yul\":3621:3625   */\n      dup2\n        /* \"#utility.yul\":3495:3626   */\n      tag_63\n      jump\t// in\n    tag_102:\n        /* \"#utility.yul\":3487:3626   */\n      swap1\n      pop\n        /* \"#utility.yul\":3214:3633   */\n      swap2\n      swap1\n      pop\n      jump\t// out\n        /* \"#utility.yul\":3639:3819   */\n    tag_64:\n        /* \"#utility.yul\":3687:3764   */\n      0x4e487b7100000000000000000000000000000000000000000000000000000000\n        /* \"#utility.yul\":3684:3685   */\n      0x00\n        /* \"#utility.yul\":3677:3765   */\n      mstore\n        /* \"#utility.yul\":3784:3788   */\n      0x11\n        /* \"#utility.yul\":3781:3782   */\n      0x04\n        /* \"#utility.yul\":3774:3789   */\n      mstore\n        /* \"#utility.yul\":3808:3812   */\n      0x24\n        /* \"#utility.yul\":3805:3806   */\n      0x00\n        /* \"#utility.yul\":3798:3813   */\n      revert\n        /* \"#utility.yul\":3825:4016   */\n    tag_47:\n        /* \"#utility.yul\":3865:3868   */\n      0x00\n        /* \"#utility.yul\":3884:3904   */\n      tag_105\n        /* \"#utility.yul\":3902:3903   */\n      dup3\n        /* \"#utility.yul\":3884:3904   */\n      tag_49\n      jump\t// in\n    tag_105:\n        /* \"#utility.yul\":3879:3904   */\n      swap2\n      pop\n        /* \"#utility.yul\":3918:3938   */\n      tag_106\n        /* \"#utility.yul\":3936:3937   */\n      dup4\n        /* \"#utility.yul\":3918:3938   */\n      tag_49\n      jump\t// in\n    tag_106:\n        /* \"#utility.yul\":3913:3938   */\n      swap3\n      pop\n        /* \"#utility.yul\":3961:3962   */\n      dup3\n        /* \"#utility.yul\":3958:3959   */\n      dup3\n        /* \"#utility.yul\":3954:3963   */\n      add\n        /* \"#utility.yul\":3947:3963   */\n      swap1\n      pop\n        /* \"#utility.yul\":3982:3985   */\n      dup1\n        /* \"#utility.yul\":3979:3980   */\n      dup3\n        /* \"#utility.yul\":3976:3986   */\n      gt\n        /* \"#utility.yul\":3973:4009   */\n      iszero\n      tag_107\n      jumpi\n        /* \"#utility.yul\":3989:4007   */\n      tag_108\n      tag_64\n      jump\t// in\n    tag_108:\n        /* \"#utility.yul\":3973:4009   */\n    tag_107:\n        /* \"#utility.yul\":3825:4016   */\n      swap3\n      swap2\n      pop\n      pop\n      jump\t// out\n\n    auxdata: 0xa2646970667358221220a2c264c9c44c79153cd13f0f097e9b07155065173691d3ef031ee2f488f49b9164736f6c634300081c0033\n}\n",
				"bytecode": {
					"linkReferences": {},
					"object": "608060405234801561000f575f5ffd5b506040516106b03803806106b08339818101604052810190610031919061008e565b42600181905550805f81905550600a4261004b91906100e6565b60028190555050610119565b5f5ffd5b5f819050919050565b61006d8161005b565b8114610077575f5ffd5b50565b5f8151905061008881610064565b92915050565b5f602082840312156100a3576100a2610057565b5b5f6100b08482850161007a565b91505092915050565b7f4e487b71000000000000000000000000000000000000000000000000000000005f52601160045260245ffd5b5f6100f08261005b565b91506100fb8361005b565b9250828201905080821115610113576101126100b9565b5b92915050565b61058a806101265f395ff3fe608060405234801561000f575f5ffd5b506004361061007b575f3560e01c80633cb5d100116100595780633cb5d100146100d957806378e979251461010a578063a49bcda014610128578063c1cbbca7146101465761007b565b80632636b9451461007f5780633197cbb61461009d578063321ab821146100bb575b5f5ffd5b610087610162565b6040516100949190610371565b60405180910390f35b6100a5610167565b6040516100b29190610371565b60405180910390f35b6100c361016d565b6040516100d09190610371565b60405180910390f35b6100f360048036038101906100ee91906103b8565b610173565b604051610101929190610422565b60405180910390f35b6101126101c1565b60405161011f9190610371565b60405180910390f35b6101306101c7565b60405161013d9190610463565b60405180910390f35b610160600480360381019061015b91906103b8565b6101d9565b005b5f5481565b60025481565b60045481565b60068181548110610182575f80fd5b905f5260205f2090600202015f91509050805f015f9054906101000a900473ffffffffffffffffffffffffffffffffffffffff16908060010154905082565b60015481565b60035f9054906101000a900460ff1681565b6001151560035f9054906101000a900460ff16151503610225576040517f587775e200000000000000000000000000000000000000000000000000000000815260040160405180910390fd5b60025442108015610237575060015442115b610276576040517f08c379a000000000000000000000000000000000000000000000000000000000815260040161026d906104d6565b60405180910390fd5b600660405180604001604052803373ffffffffffffffffffffffffffffffffffffffff16815260200183815250908060018154018082558091505060019003905f5260205f2090600202015f909190919091505f820151815f015f6101000a81548173ffffffffffffffffffffffffffffffffffffffff021916908373ffffffffffffffffffffffffffffffffffffffff1602179055506020820151816001015550508060045f82825461032a9190610521565b925050819055505f546004541061035657600160035f6101000a81548160ff0219169083151502179055505b50565b5f819050919050565b61036b81610359565b82525050565b5f6020820190506103845f830184610362565b92915050565b5f5ffd5b61039781610359565b81146103a1575f5ffd5b50565b5f813590506103b28161038e565b92915050565b5f602082840312156103cd576103cc61038a565b5b5f6103da848285016103a4565b91505092915050565b5f73ffffffffffffffffffffffffffffffffffffffff82169050919050565b5f61040c826103e3565b9050919050565b61041c81610402565b82525050565b5f6040820190506104355f830185610413565b6104426020830184610362565b9392505050565b5f8115159050919050565b61045d81610449565b82525050565b5f6020820190506104765f830184610454565b92915050565b5f82825260208201905092915050565b7f4f7574206f662074696d650000000000000000000000000000000000000000005f82015250565b5f6104c0600b8361047c565b91506104cb8261048c565b602082019050919050565b5f6020820190508181035f8301526104ed816104b4565b9050919050565b7f4e487b71000000000000000000000000000000000000000000000000000000005f52601160045260245ffd5b5f61052b82610359565b915061053683610359565b925082820190508082111561054e5761054d6104f4565b5b9291505056fea2646970667358221220a2c264c9c44c79153cd13f0f097e9b07155065173691d3ef031ee2f488f49b9164736f6c634300081c0033",
					"opcodes": "PUSH1 0x80 PUSH1 0x40 MSTORE CALLVALUE DUP1 ISZERO PUSH2 0xF JUMPI PUSH0 PUSH0 REVERT JUMPDEST POP PUSH1 0x40 MLOAD PUSH2 0x6B0 CODESIZE SUB DUP1 PUSH2 0x6B0 DUP4 CODECOPY DUP2 DUP2 ADD PUSH1 0x40 MSTORE DUP2 ADD SWAP1 PUSH2 0x31 SWAP2 SWAP1 PUSH2 0x8E JUMP JUMPDEST TIMESTAMP PUSH1 0x1 DUP2 SWAP1 SSTORE POP DUP1 PUSH0 DUP2 SWAP1 SSTORE POP PUSH1 0xA TIMESTAMP PUSH2 0x4B SWAP2 SWAP1 PUSH2 0xE6 JUMP JUMPDEST PUSH1 0x2 DUP2 SWAP1 SSTORE POP POP PUSH2 0x119 JUMP JUMPDEST PUSH0 PUSH0 REVERT JUMPDEST PUSH0 DUP2 SWAP1 POP SWAP2 SWAP1 POP JUMP JUMPDEST PUSH2 0x6D DUP2 PUSH2 0x5B JUMP JUMPDEST DUP2 EQ PUSH2 0x77 JUMPI PUSH0 PUSH0 REVERT JUMPDEST POP JUMP JUMPDEST PUSH0 DUP2 MLOAD SWAP1 POP PUSH2 0x88 DUP2 PUSH2 0x64 JUMP JUMPDEST SWAP3 SWAP2 POP POP JUMP JUMPDEST PUSH0 PUSH1 0x20 DUP3 DUP5 SUB SLT ISZERO PUSH2 0xA3 JUMPI PUSH2 0xA2 PUSH2 0x57 JUMP JUMPDEST JUMPDEST PUSH0 PUSH2 0xB0 DUP5 DUP3 DUP6 ADD PUSH2 0x7A JUMP JUMPDEST SWAP2 POP POP SWAP3 SWAP2 POP POP JUMP JUMPDEST PUSH32 0x4E487B7100000000000000000000000000000000000000000000000000000000 PUSH0 MSTORE PUSH1 0x11 PUSH1 0x4 MSTORE PUSH1 0x24 PUSH0 REVERT JUMPDEST PUSH0 PUSH2 0xF0 DUP3 PUSH2 0x5B JUMP JUMPDEST SWAP2 POP PUSH2 0xFB DUP4 PUSH2 0x5B JUMP JUMPDEST SWAP3 POP DUP3 DUP3 ADD SWAP1 POP DUP1 DUP3 GT ISZERO PUSH2 0x113 JUMPI PUSH2 0x112 PUSH2 0xB9 JUMP JUMPDEST JUMPDEST SWAP3 SWAP2 POP POP JUMP JUMPDEST PUSH2 0x58A DUP1 PUSH2 0x126 PUSH0 CODECOPY PUSH0 RETURN INVALID PUSH1 0x80 PUSH1 0x40 MSTORE CALLVALUE DUP1 ISZERO PUSH2 0xF JUMPI PUSH0 PUSH0 REVERT JUMPDEST POP PUSH1 0x4 CALLDATASIZE LT PUSH2 0x7B JUMPI PUSH0 CALLDATALOAD PUSH1 0xE0 SHR DUP1 PUSH4 0x3CB5D100 GT PUSH2 0x59 JUMPI DUP1 PUSH4 0x3CB5D100 EQ PUSH2 0xD9 JUMPI DUP1 PUSH4 0x78E97925 EQ PUSH2 0x10A JUMPI DUP1 PUSH4 0xA49BCDA0 EQ PUSH2 0x128 JUMPI DUP1 PUSH4 0xC1CBBCA7 EQ PUSH2 0x146 JUMPI PUSH2 0x7B JUMP JUMPDEST DUP1 PUSH4 0x2636B945 EQ PUSH2 0x7F JUMPI DUP1 PUSH4 0x3197CBB6 EQ PUSH2 0x9D JUMPI DUP1 PUSH4 0x321AB821 EQ PUSH2 0xBB JUMPI JUMPDEST PUSH0 PUSH0 REVERT JUMPDEST PUSH2 0x87 PUSH2 0x162 JUMP JUMPDEST PUSH1 0x40 MLOAD PUSH2 0x94 SWAP2 SWAP1 PUSH2 0x371 JUMP JUMPDEST PUSH1 0x40 MLOAD DUP1 SWAP2 SUB SWAP1 RETURN JUMPDEST PUSH2 0xA5 PUSH2 0x167 JUMP JUMPDEST PUSH1 0x40 MLOAD PUSH2 0xB2 SWAP2 SWAP1 PUSH2 0x371 JUMP JUMPDEST PUSH1 0x40 MLOAD DUP1 SWAP2 SUB SWAP1 RETURN JUMPDEST PUSH2 0xC3 PUSH2 0x16D JUMP JUMPDEST PUSH1 0x40 MLOAD PUSH2 0xD0 SWAP2 SWAP1 PUSH2 0x371 JUMP JUMPDEST PUSH1 0x40 MLOAD DUP1 SWAP2 SUB SWAP1 RETURN JUMPDEST PUSH2 0xF3 PUSH1 0x4 DUP1 CALLDATASIZE SUB DUP2 ADD SWAP1 PUSH2 0xEE SWAP2 SWAP1 PUSH2 0x3B8 JUMP JUMPDEST PUSH2 0x173 JUMP JUMPDEST PUSH1 0x40 MLOAD PUSH2 0x101 SWAP3 SWAP2 SWAP1 PUSH2 0x422 JUMP JUMPDEST PUSH1 0x40 MLOAD DUP1 SWAP2 SUB SWAP1 RETURN JUMPDEST PUSH2 0x112 PUSH2 0x1C1 JUMP JUMPDEST PUSH1 0x40 MLOAD PUSH2 0x11F SWAP2 SWAP1 PUSH2 0x371 JUMP JUMPDEST PUSH1 0x40 MLOAD DUP1 SWAP2 SUB SWAP1 RETURN JUMPDEST PUSH2 0x130 PUSH2 0x1C7 JUMP JUMPDEST PUSH1 0x40 MLOAD PUSH2 0x13D SWAP2 SWAP1 PUSH2 0x463 JUMP JUMPDEST PUSH1 0x40 MLOAD DUP1 SWAP2 SUB SWAP1 RETURN JUMPDEST PUSH2 0x160 PUSH1 0x4 DUP1 CALLDATASIZE SUB DUP2 ADD SWAP1 PUSH2 0x15B SWAP2 SWAP1 PUSH2 0x3B8 JUMP JUMPDEST PUSH2 0x1D9 JUMP JUMPDEST STOP JUMPDEST PUSH0 SLOAD DUP2 JUMP JUMPDEST PUSH1 0x2 SLOAD DUP2 JUMP JUMPDEST PUSH1 0x4 SLOAD DUP2 JUMP JUMPDEST PUSH1 0x6 DUP2 DUP2 SLOAD DUP2 LT PUSH2 0x182 JUMPI PUSH0 DUP1 REVERT JUMPDEST SWAP1 PUSH0 MSTORE PUSH1 0x20 PUSH0 KECCAK256 SWAP1 PUSH1 0x2 MUL ADD PUSH0 SWAP2 POP SWAP1 POP DUP1 PUSH0 ADD PUSH0 SWAP1 SLOAD SWAP1 PUSH2 0x100 EXP SWAP1 DIV PUSH20 0xFFFFFFFFFFFFFFFFFFFFFFFFFFFFFFFFFFFFFFFF AND SWAP1 DUP1 PUSH1 0x1 ADD SLOAD SWAP1 POP DUP3 JUMP JUMPDEST PUSH1 0x1 SLOAD DUP2 JUMP JUMPDEST PUSH1 0x3 PUSH0 SWAP1 SLOAD SWAP1 PUSH2 0x100 EXP SWAP1 DIV PUSH1 0xFF AND DUP2 JUMP JUMPDEST PUSH1 0x1 ISZERO ISZERO PUSH1 0x3 PUSH0 SWAP1 SLOAD SWAP1 PUSH2 0x100 EXP SWAP1 DIV PUSH1 0xFF AND ISZERO ISZERO SUB PUSH2 0x225 JUMPI PUSH1 0x40 MLOAD PUSH32 0x587775E200000000000000000000000000000000000000000000000000000000 DUP2 MSTORE PUSH1 0x4 ADD PUSH1 0x40 MLOAD DUP1 SWAP2 SUB SWAP1 REVERT JUMPDEST PUSH1 0x2 SLOAD TIMESTAMP LT DUP1 ISZERO PUSH2 0x237 JUMPI POP PUSH1 0x1 SLOAD TIMESTAMP GT JUMPDEST PUSH2 0x276 JUMPI PUSH1 0x40 MLOAD PUSH32 0x8C379A000000000000000000000000000000000000000000000000000000000 DUP2 MSTORE PUSH1 0x4 ADD PUSH2 0x26D SWAP1 PUSH2 0x4D6 JUMP JUMPDEST PUSH1 0x40 MLOAD DUP1 SWAP2 SUB SWAP1 REVERT JUMPDEST PUSH1 0x6 PUSH1 0x40 MLOAD DUP1 PUSH1 0x40 ADD PUSH1 0x40 MSTORE DUP1 CALLER PUSH20 0xFFFFFFFFFFFFFFFFFFFFFFFFFFFFFFFFFFFFFFFF AND DUP2 MSTORE PUSH1 0x20 ADD DUP4 DUP2 MSTORE POP SWAP1 DUP1 PUSH1 0x1 DUP2 SLOAD ADD DUP1 DUP3 SSTORE DUP1 SWAP2 POP POP PUSH1 0x1 SWAP1 SUB SWAP1 PUSH0 MSTORE PUSH1 0x20 PUSH0 KECCAK256 SWAP1 PUSH1 0x2 MUL ADD PUSH0 SWAP1 SWAP2 SWAP1 SWAP2 SWAP1 SWAP2 POP PUSH0 DUP3 ADD MLOAD DUP2 PUSH0 ADD PUSH0 PUSH2 0x100 EXP DUP2 SLOAD DUP2 PUSH20 0xFFFFFFFFFFFFFFFFFFFFFFFFFFFFFFFFFFFFFFFF MUL NOT AND SWAP1 DUP4 PUSH20 0xFFFFFFFFFFFFFFFFFFFFFFFFFFFFFFFFFFFFFFFF AND MUL OR SWAP1 SSTORE POP PUSH1 0x20 DUP3 ADD MLOAD DUP2 PUSH1 0x1 ADD SSTORE POP POP DUP1 PUSH1 0x4 PUSH0 DUP3 DUP3 SLOAD PUSH2 0x32A SWAP2 SWAP1 PUSH2 0x521 JUMP JUMPDEST SWAP3 POP POP DUP2 SWAP1 SSTORE POP PUSH0 SLOAD PUSH1 0x4 SLOAD LT PUSH2 0x356 JUMPI PUSH1 0x1 PUSH1 0x3 PUSH0 PUSH2 0x100 EXP DUP2 SLOAD DUP2 PUSH1 0xFF MUL NOT AND SWAP1 DUP4 ISZERO ISZERO MUL OR SWAP1 SSTORE POP JUMPDEST POP JUMP JUMPDEST PUSH0 DUP2 SWAP1 POP SWAP2 SWAP1 POP JUMP JUMPDEST PUSH2 0x36B DUP2 PUSH2 0x359 JUMP JUMPDEST DUP3 MSTORE POP POP JUMP JUMPDEST PUSH0 PUSH1 0x20 DUP3 ADD SWAP1 POP PUSH2 0x384 PUSH0 DUP4 ADD DUP5 PUSH2 0x362 JUMP JUMPDEST SWAP3 SWAP2 POP POP JUMP JUMPDEST PUSH0 PUSH0 REVERT JUMPDEST PUSH2 0x397 DUP2 PUSH2 0x359 JUMP JUMPDEST DUP2 EQ PUSH2 0x3A1 JUMPI PUSH0 PUSH0 REVERT JUMPDEST POP JUMP JUMPDEST PUSH0 DUP2 CALLDATALOAD SWAP1 POP PUSH2 0x3B2 DUP2 PUSH2 0x38E JUMP JUMPDEST SWAP3 SWAP2 POP POP JUMP JUMPDEST PUSH0 PUSH1 0x20 DUP3 DUP5 SUB SLT ISZERO PUSH2 0x3CD JUMPI PUSH2 0x3CC PUSH2 0x38A JUMP JUMPDEST JUMPDEST PUSH0 PUSH2 0x3DA DUP5 DUP3 DUP6 ADD PUSH2 0x3A4 JUMP JUMPDEST SWAP2 POP POP SWAP3 SWAP2 POP POP JUMP JUMPDEST PUSH0 PUSH20 0xFFFFFFFFFFFFFFFFFFFFFFFFFFFFFFFFFFFFFFFF DUP3 AND SWAP1 POP SWAP2 SWAP1 POP JUMP JUMPDEST PUSH0 PUSH2 0x40C DUP3 PUSH2 0x3E3 JUMP JUMPDEST SWAP1 POP SWAP2 SWAP1 POP JUMP JUMPDEST PUSH2 0x41C DUP2 PUSH2 0x402 JUMP JUMPDEST DUP3 MSTORE POP POP JUMP JUMPDEST PUSH0 PUSH1 0x40 DUP3 ADD SWAP1 POP PUSH2 0x435 PUSH0 DUP4 ADD DUP6 PUSH2 0x413 JUMP JUMPDEST PUSH2 0x442 PUSH1 0x20 DUP4 ADD DUP5 PUSH2 0x362 JUMP JUMPDEST SWAP4 SWAP3 POP POP POP JUMP JUMPDEST PUSH0 DUP2 ISZERO ISZERO SWAP1 POP SWAP2 SWAP1 POP JUMP JUMPDEST PUSH2 0x45D DUP2 PUSH2 0x449 JUMP JUMPDEST DUP3 MSTORE POP POP JUMP JUMPDEST PUSH0 PUSH1 0x20 DUP3 ADD SWAP1 POP PUSH2 0x476 PUSH0 DUP4 ADD DUP5 PUSH2 0x454 JUMP JUMPDEST SWAP3 SWAP2 POP POP JUMP JUMPDEST PUSH0 DUP3 DUP3 MSTORE PUSH1 0x20 DUP3 ADD SWAP1 POP SWAP3 SWAP2 POP POP JUMP JUMPDEST PUSH32 0x4F7574206F662074696D65000000000000000000000000000000000000000000 PUSH0 DUP3 ADD MSTORE POP JUMP JUMPDEST PUSH0 PUSH2 0x4C0 PUSH1 0xB DUP4 PUSH2 0x47C JUMP JUMPDEST SWAP2 POP PUSH2 0x4CB DUP3 PUSH2 0x48C JUMP JUMPDEST PUSH1 0x20 DUP3 ADD SWAP1 POP SWAP2 SWAP1 POP JUMP JUMPDEST PUSH0 PUSH1 0x20 DUP3 ADD SWAP1 POP DUP2 DUP2 SUB PUSH0 DUP4 ADD MSTORE PUSH2 0x4ED DUP2 PUSH2 0x4B4 JUMP JUMPDEST SWAP1 POP SWAP2 SWAP1 POP JUMP JUMPDEST PUSH32 0x4E487B7100000000000000000000000000000000000000000000000000000000 PUSH0 MSTORE PUSH1 0x11 PUSH1 0x4 MSTORE PUSH1 0x24 PUSH0 REVERT JUMPDEST PUSH0 PUSH2 0x52B DUP3 PUSH2 0x359 JUMP JUMPDEST SWAP2 POP PUSH2 0x536 DUP4 PUSH2 0x359 JUMP JUMPDEST SWAP3 POP DUP3 DUP3 ADD SWAP1 POP DUP1 DUP3 GT ISZERO PUSH2 0x54E JUMPI PUSH2 0x54D PUSH2 0x4F4 JUMP JUMPDEST JUMPDEST SWAP3 SWAP2 POP POP JUMP INVALID LOG2 PUSH5 0x6970667358 0x22 SLT KECCAK256 LOG2 0xC2 PUSH5 0xC9C44C7915 EXTCODECOPY 0xD1 EXTCODEHASH 0xF MULMOD PUSH31 0x9B07155065173691D3EF031EE2F488F49B9164736F6C634300081C00330000 "
				},
				"gasEstimates": {
					"creation": {
						"codeDepositCost": "283600",
						"executionCost": "infinite",
						"totalCost": "infinite"
					},
					"external": {
						"contribute(uint256)": "infinite",
						"contributors(uint256)": "infinite",
						"endTime()": "2448",
						"goalAmount()": "2425",
						"isGoalAchieved()": "2510",
						"proggressAmount()": "2470",
						"startTime()": "2447"
					}
				},
				"methodIdentifiers": {
					"contribute(uint256)": "c1cbbca7",
					"contributors(uint256)": "3cb5d100",
					"endTime()": "3197cbb6",
					"goalAmount()": "2636b945",
					"isGoalAchieved()": "a49bcda0",
					"proggressAmount()": "321ab821",
					"startTime()": "78e97925"
				}
			},
			"storageLayout": {
				"storage": [
					{
						"astId": 3,
						"contract": "BlockchainFundamentals/02-exercises/03-crowdfunding.sol:Crowdfunding",
						"label": "goalAmount",
						"offset": 0,
						"slot": "0",
						"type": "t_uint256"
					},
					{
						"astId": 5,
						"contract": "BlockchainFundamentals/02-exercises/03-crowdfunding.sol:Crowdfunding",
						"label": "startTime",
						"offset": 0,
						"slot": "1",
						"type": "t_uint256"
					},
					{
						"astId": 7,
						"contract": "BlockchainFundamentals/02-exercises/03-crowdfunding.sol:Crowdfunding",
						"label": "endTime",
						"offset": 0,
						"slot": "2",
						"type": "t_uint256"
					},
					{
						"astId": 9,
						"contract": "BlockchainFundamentals/02-exercises/03-crowdfunding.sol:Crowdfunding",
						"label": "isGoalAchieved",
						"offset": 0,
						"slot": "3",
						"type": "t_bool"
					},
					{
						"astId": 11,
						"contract": "BlockchainFundamentals/02-exercises/03-crowdfunding.sol:Crowdfunding",
						"label": "proggressAmount",
						"offset": 0,
						"slot": "4",
						"type": "t_uint256"
					},
					{
						"astId": 16,
						"contract": "BlockchainFundamentals/02-exercises/03-crowdfunding.sol:Crowdfunding",
						"label": "contributionsDetail",
						"offset": 0,
						"slot": "5",
						"type": "t_mapping(t_address,t_struct(Backer)21_storage)"
					},
					{
						"astId": 25,
						"contract": "BlockchainFundamentals/02-exercises/03-crowdfunding.sol:Crowdfunding",
						"label": "contributors",
						"offset": 0,
						"slot": "6",
						"type": "t_array(t_struct(Backer)21_storage)dyn_storage"
					}
				],
				"types": {
					"t_address": {
						"encoding": "inplace",
						"label": "address",
						"numberOfBytes": "20"
					},
					"t_array(t_struct(Backer)21_storage)dyn_storage": {
						"base": "t_struct(Backer)21_storage",
						"encoding": "dynamic_array",
						"label": "struct Crowdfunding.Backer[]",
						"numberOfBytes": "32"
					},
					"t_bool": {
						"encoding": "inplace",
						"label": "bool",
						"numberOfBytes": "1"
					},
					"t_mapping(t_address,t_struct(Backer)21_storage)": {
						"encoding": "mapping",
						"key": "t_address",
						"label": "mapping(address => struct Crowdfunding.Backer)",
						"numberOfBytes": "32",
						"value": "t_struct(Backer)21_storage"
					},
					"t_struct(Backer)21_storage": {
						"encoding": "inplace",
						"label": "struct Crowdfunding.Backer",
						"members": [
							{
								"astId": 18,
								"contract": "BlockchainFundamentals/02-exercises/03-crowdfunding.sol:Crowdfunding",
								"label": "fromAddress",
								"offset": 0,
								"slot": "0",
								"type": "t_address"
							},
							{
								"astId": 20,
								"contract": "BlockchainFundamentals/02-exercises/03-crowdfunding.sol:Crowdfunding",
								"label": "amountContributed",
								"offset": 0,
								"slot": "1",
								"type": "t_uint256"
							}
						],
						"numberOfBytes": "64"
					},
					"t_uint256": {
						"encoding": "inplace",
						"label": "uint256",
						"numberOfBytes": "32"
					}
				}
			},
			"userdoc": {
				"kind": "user",
				"methods": {},
				"version": 1
			}
		}
	}
}