{
	"BlockchainFundamentals/02-exercises/01-messageBoard.sol": {
		"messageBoard": {
			"abi": [
				{
					"inputs": [
						{
							"internalType": "string",
							"name": "messageToPreview",
							"type": "string"
						}
					],
					"name": "messagePrewiew",
					"outputs": [
						{
							"internalType": "string",
							"name": "",
							"type": "string"
						}
					],
					"stateMutability": "pure",
					"type": "function"
				},
				{
					"inputs": [
						{
							"internalType": "address",
							"name": "",
							"type": "address"
						},
						{
							"internalType": "uint256",
							"name": "",
							"type": "uint256"
						}
					],
					"name": "messages",
					"outputs": [
						{
							"internalType": "string",
							"name": "",
							"type": "string"
						}
					],
					"stateMutability": "view",
					"type": "function"
				},
				{
					"inputs": [
						{
							"internalType": "string",
							"name": "messageInput",
							"type": "string"
						}
					],
					"name": "storedMessages",
					"outputs": [],
					"stateMutability": "nonpayable",
					"type": "function"
				}
			],
			"devdoc": {
				"kind": "dev",
				"methods": {},
				"version": 1
			},
			"evm": {
				"assembly": "    /* \"BlockchainFundamentals/02-exercises/01-messageBoard.sol\":62:452  contract messageBoard {... */\n  mstore(0x40, 0x80)\n  callvalue\n  dup1\n  iszero\n  tag_1\n  jumpi\n  revert(0x00, 0x00)\ntag_1:\n  pop\n  dataSize(sub_0)\n  dup1\n  dataOffset(sub_0)\n  0x00\n  codecopy\n  0x00\n  return\nstop\n\nsub_0: assembly {\n        /* \"BlockchainFundamentals/02-exercises/01-messageBoard.sol\":62:452  contract messageBoard {... */\n      mstore(0x40, 0x80)\n      callvalue\n      dup1\n      iszero\n      tag_1\n      jumpi\n      revert(0x00, 0x00)\n    tag_1:\n      pop\n      jumpi(tag_2, lt(calldatasize, 0x04))\n      shr(0xe0, calldataload(0x00))\n      dup1\n      0x5e701338\n      eq\n      tag_3\n      jumpi\n      dup1\n      0xc45d9bea\n      eq\n      tag_4\n      jumpi\n      dup1\n      0xce770b05\n      eq\n      tag_5\n      jumpi\n    tag_2:\n      revert(0x00, 0x00)\n        /* \"BlockchainFundamentals/02-exercises/01-messageBoard.sol\":272:449  function messagePrewiew (string calldata messageToPreview) external pure returns (string memory){... */\n    tag_3:\n      tag_6\n      0x04\n      dup1\n      calldatasize\n      sub\n      dup2\n      add\n      swap1\n      tag_7\n      swap2\n      swap1\n      tag_8\n      jump\t// in\n    tag_7:\n      tag_9\n      jump\t// in\n    tag_6:\n      mload(0x40)\n      tag_10\n      swap2\n      swap1\n      tag_11\n      jump\t// in\n    tag_10:\n      mload(0x40)\n      dup1\n      swap2\n      sub\n      swap1\n      return\n        /* \"BlockchainFundamentals/02-exercises/01-messageBoard.sol\":93:137  mapping(address => string[]) public messages */\n    tag_4:\n      tag_12\n      0x04\n      dup1\n      calldatasize\n      sub\n      dup2\n      add\n      swap1\n      tag_13\n      swap2\n      swap1\n      tag_14\n      jump\t// in\n    tag_13:\n      tag_15\n      jump\t// in\n    tag_12:\n      mload(0x40)\n      tag_16\n      swap2\n      swap1\n      tag_11\n      jump\t// in\n    tag_16:\n      mload(0x40)\n      dup1\n      swap2\n      sub\n      swap1\n      return\n        /* \"BlockchainFundamentals/02-exercises/01-messageBoard.sol\":146:264  function storedMessages(string memory messageInput) external{... */\n    tag_5:\n      tag_17\n      0x04\n      dup1\n      calldatasize\n      sub\n      dup2\n      add\n      swap1\n      tag_18\n      swap2\n      swap1\n      tag_19\n      jump\t// in\n    tag_18:\n      tag_20\n      jump\t// in\n    tag_17:\n      stop\n        /* \"BlockchainFundamentals/02-exercises/01-messageBoard.sol\":272:449  function messagePrewiew (string calldata messageToPreview) external pure returns (string memory){... */\n    tag_9:\n        /* \"BlockchainFundamentals/02-exercises/01-messageBoard.sol\":354:367  string memory */\n      0x60\n        /* \"BlockchainFundamentals/02-exercises/01-messageBoard.sol\":421:437  messageToPreview */\n      dup3\n      dup3\n        /* \"BlockchainFundamentals/02-exercises/01-messageBoard.sol\":394:438  abi.encodePacked(\"Draft:\", messageToPreview) */\n      add(0x20, mload(0x40))\n      tag_22\n      swap3\n      swap2\n      swap1\n      tag_23\n      jump\t// in\n    tag_22:\n      mload(0x40)\n      0x20\n      dup2\n      dup4\n      sub\n      sub\n      dup2\n      mstore\n      swap1\n      0x40\n      mstore\n        /* \"BlockchainFundamentals/02-exercises/01-messageBoard.sol\":379:439  return  string(abi.encodePacked(\"Draft:\", messageToPreview)) */\n      swap1\n      pop\n        /* \"BlockchainFundamentals/02-exercises/01-messageBoard.sol\":272:449  function messagePrewiew (string calldata messageToPreview) external pure returns (string memory){... */\n      swap3\n      swap2\n      pop\n      pop\n      jump\t// out\n        /* \"BlockchainFundamentals/02-exercises/01-messageBoard.sol\":93:137  mapping(address => string[]) public messages */\n    tag_15:\n      mstore(0x20, 0x00)\n      dup2\n      0x00\n      mstore\n      keccak256(0x00, 0x40)\n      dup2\n      dup2\n      sload\n      dup2\n      lt\n      tag_24\n      jumpi\n      0x00\n      dup1\n      revert\n    tag_24:\n      swap1\n      0x00\n      mstore\n      keccak256(0x00, 0x20)\n      add\n      0x00\n      swap2\n      pop\n      swap2\n      pop\n      pop\n      dup1\n      sload\n      tag_26\n      swap1\n      tag_27\n      jump\t// in\n    tag_26:\n      dup1\n      0x1f\n      add\n      0x20\n      dup1\n      swap2\n      div\n      mul\n      0x20\n      add\n      mload(0x40)\n      swap1\n      dup2\n      add\n      0x40\n      mstore\n      dup1\n      swap3\n      swap2\n      swap1\n      dup2\n      dup2\n      mstore\n      0x20\n      add\n      dup3\n      dup1\n      sload\n      tag_28\n      swap1\n      tag_27\n      jump\t// in\n    tag_28:\n      dup1\n      iszero\n      tag_29\n      jumpi\n      dup1\n      0x1f\n      lt\n      tag_30\n      jumpi\n      0x0100\n      dup1\n      dup4\n      sload\n      div\n      mul\n      dup4\n      mstore\n      swap2\n      0x20\n      add\n      swap2\n      jump(tag_29)\n    tag_30:\n      dup3\n      add\n      swap2\n      swap1\n      0x00\n      mstore\n      keccak256(0x00, 0x20)\n      swap1\n    tag_31:\n      dup2\n      sload\n      dup2\n      mstore\n      swap1\n      0x01\n      add\n      swap1\n      0x20\n      add\n      dup1\n      dup4\n      gt\n      tag_31\n      jumpi\n      dup3\n      swap1\n      sub\n      0x1f\n      and\n      dup3\n      add\n      swap2\n    tag_29:\n      pop\n      pop\n      pop\n      pop\n      pop\n      dup2\n      jump\t// out\n        /* \"BlockchainFundamentals/02-exercises/01-messageBoard.sol\":146:264  function storedMessages(string memory messageInput) external{... */\n    tag_20:\n        /* \"BlockchainFundamentals/02-exercises/01-messageBoard.sol\":217:225  messages */\n      0x00\n        /* \"BlockchainFundamentals/02-exercises/01-messageBoard.sol\":217:237  messages[msg.sender] */\n      0x00\n        /* \"BlockchainFundamentals/02-exercises/01-messageBoard.sol\":226:236  msg.sender */\n      caller\n        /* \"BlockchainFundamentals/02-exercises/01-messageBoard.sol\":217:237  messages[msg.sender] */\n      0xffffffffffffffffffffffffffffffffffffffff\n      and\n      0xffffffffffffffffffffffffffffffffffffffff\n      and\n      dup2\n      mstore\n      0x20\n      add\n      swap1\n      dup2\n      mstore\n      0x20\n      add\n      0x00\n      keccak256\n        /* \"BlockchainFundamentals/02-exercises/01-messageBoard.sol\":243:255  messageInput */\n      dup2\n        /* \"BlockchainFundamentals/02-exercises/01-messageBoard.sol\":217:256  messages[msg.sender].push(messageInput) */\n      swap1\n      dup1\n      0x01\n      dup2\n      sload\n      add\n      dup1\n      dup3\n      sstore\n      dup1\n      swap2\n      pop\n      pop\n      0x01\n      swap1\n      sub\n      swap1\n      0x00\n      mstore\n      keccak256(0x00, 0x20)\n      add\n      0x00\n      swap1\n      swap2\n      swap1\n      swap2\n      swap1\n      swap2\n      pop\n      swap1\n      dup2\n      tag_34\n      swap2\n      swap1\n      tag_35\n      jump\t// in\n    tag_34:\n      pop\n        /* \"BlockchainFundamentals/02-exercises/01-messageBoard.sol\":146:264  function storedMessages(string memory messageInput) external{... */\n      pop\n      jump\t// out\n        /* \"#utility.yul\":7:82   */\n    tag_36:\n        /* \"#utility.yul\":40:46   */\n      0x00\n        /* \"#utility.yul\":73:75   */\n      0x40\n        /* \"#utility.yul\":67:76   */\n      mload\n        /* \"#utility.yul\":57:76   */\n      swap1\n      pop\n        /* \"#utility.yul\":7:82   */\n      swap1\n      jump\t// out\n        /* \"#utility.yul\":88:205   */\n    tag_37:\n        /* \"#utility.yul\":197:198   */\n      0x00\n        /* \"#utility.yul\":194:195   */\n      0x00\n        /* \"#utility.yul\":187:199   */\n      revert\n        /* \"#utility.yul\":211:328   */\n    tag_38:\n        /* \"#utility.yul\":320:321   */\n      0x00\n        /* \"#utility.yul\":317:318   */\n      0x00\n        /* \"#utility.yul\":310:322   */\n      revert\n        /* \"#utility.yul\":334:451   */\n    tag_39:\n        /* \"#utility.yul\":443:444   */\n      0x00\n        /* \"#utility.yul\":440:441   */\n      0x00\n        /* \"#utility.yul\":433:445   */\n      revert\n        /* \"#utility.yul\":457:574   */\n    tag_40:\n        /* \"#utility.yul\":566:567   */\n      0x00\n        /* \"#utility.yul\":563:564   */\n      0x00\n        /* \"#utility.yul\":556:568   */\n      revert\n        /* \"#utility.yul\":580:697   */\n    tag_41:\n        /* \"#utility.yul\":689:690   */\n      0x00\n        /* \"#utility.yul\":686:687   */\n      0x00\n        /* \"#utility.yul\":679:691   */\n      revert\n        /* \"#utility.yul\":717:1270   */\n    tag_42:\n        /* \"#utility.yul\":775:783   */\n      0x00\n        /* \"#utility.yul\":785:791   */\n      0x00\n        /* \"#utility.yul\":835:838   */\n      dup4\n        /* \"#utility.yul\":828:832   */\n      0x1f\n        /* \"#utility.yul\":820:826   */\n      dup5\n        /* \"#utility.yul\":816:833   */\n      add\n        /* \"#utility.yul\":812:839   */\n      slt\n        /* \"#utility.yul\":802:924   */\n      tag_91\n      jumpi\n        /* \"#utility.yul\":843:922   */\n      tag_92\n      tag_39\n      jump\t// in\n    tag_92:\n        /* \"#utility.yul\":802:924   */\n    tag_91:\n        /* \"#utility.yul\":956:962   */\n      dup3\n        /* \"#utility.yul\":943:963   */\n      calldataload\n        /* \"#utility.yul\":933:963   */\n      swap1\n      pop\n        /* \"#utility.yul\":986:1004   */\n      0xffffffffffffffff\n        /* \"#utility.yul\":978:984   */\n      dup2\n        /* \"#utility.yul\":975:1005   */\n      gt\n        /* \"#utility.yul\":972:1089   */\n      iszero\n      tag_93\n      jumpi\n        /* \"#utility.yul\":1008:1087   */\n      tag_94\n      tag_40\n      jump\t// in\n    tag_94:\n        /* \"#utility.yul\":972:1089   */\n    tag_93:\n        /* \"#utility.yul\":1122:1126   */\n      0x20\n        /* \"#utility.yul\":1114:1120   */\n      dup4\n        /* \"#utility.yul\":1110:1127   */\n      add\n        /* \"#utility.yul\":1098:1127   */\n      swap2\n      pop\n        /* \"#utility.yul\":1176:1179   */\n      dup4\n        /* \"#utility.yul\":1168:1172   */\n      0x01\n        /* \"#utility.yul\":1160:1166   */\n      dup3\n        /* \"#utility.yul\":1156:1173   */\n      mul\n        /* \"#utility.yul\":1146:1154   */\n      dup4\n        /* \"#utility.yul\":1142:1174   */\n      add\n        /* \"#utility.yul\":1139:1180   */\n      gt\n        /* \"#utility.yul\":1136:1264   */\n      iszero\n      tag_95\n      jumpi\n        /* \"#utility.yul\":1183:1262   */\n      tag_96\n      tag_41\n      jump\t// in\n    tag_96:\n        /* \"#utility.yul\":1136:1264   */\n    tag_95:\n        /* \"#utility.yul\":717:1270   */\n      swap3\n      pop\n      swap3\n      swap1\n      pop\n      jump\t// out\n        /* \"#utility.yul\":1276:1805   */\n    tag_8:\n        /* \"#utility.yul\":1347:1353   */\n      0x00\n        /* \"#utility.yul\":1355:1361   */\n      0x00\n        /* \"#utility.yul\":1404:1406   */\n      0x20\n        /* \"#utility.yul\":1392:1401   */\n      dup4\n        /* \"#utility.yul\":1383:1390   */\n      dup6\n        /* \"#utility.yul\":1379:1402   */\n      sub\n        /* \"#utility.yul\":1375:1407   */\n      slt\n        /* \"#utility.yul\":1372:1491   */\n      iszero\n      tag_98\n      jumpi\n        /* \"#utility.yul\":1410:1489   */\n      tag_99\n      tag_37\n      jump\t// in\n    tag_99:\n        /* \"#utility.yul\":1372:1491   */\n    tag_98:\n        /* \"#utility.yul\":1558:1559   */\n      0x00\n        /* \"#utility.yul\":1547:1556   */\n      dup4\n        /* \"#utility.yul\":1543:1560   */\n      add\n        /* \"#utility.yul\":1530:1561   */\n      calldataload\n        /* \"#utility.yul\":1588:1606   */\n      0xffffffffffffffff\n        /* \"#utility.yul\":1580:1586   */\n      dup2\n        /* \"#utility.yul\":1577:1607   */\n      gt\n        /* \"#utility.yul\":1574:1691   */\n      iszero\n      tag_100\n      jumpi\n        /* \"#utility.yul\":1610:1689   */\n      tag_101\n      tag_38\n      jump\t// in\n    tag_101:\n        /* \"#utility.yul\":1574:1691   */\n    tag_100:\n        /* \"#utility.yul\":1723:1788   */\n      tag_102\n        /* \"#utility.yul\":1780:1787   */\n      dup6\n        /* \"#utility.yul\":1771:1777   */\n      dup3\n        /* \"#utility.yul\":1760:1769   */\n      dup7\n        /* \"#utility.yul\":1756:1778   */\n      add\n        /* \"#utility.yul\":1723:1788   */\n      tag_42\n      jump\t// in\n    tag_102:\n        /* \"#utility.yul\":1705:1788   */\n      swap3\n      pop\n      swap3\n      pop\n        /* \"#utility.yul\":1501:1798   */\n      pop\n        /* \"#utility.yul\":1276:1805   */\n      swap3\n      pop\n      swap3\n      swap1\n      pop\n      jump\t// out\n        /* \"#utility.yul\":1811:1910   */\n    tag_43:\n        /* \"#utility.yul\":1863:1869   */\n      0x00\n        /* \"#utility.yul\":1897:1902   */\n      dup2\n        /* \"#utility.yul\":1891:1903   */\n      mload\n        /* \"#utility.yul\":1881:1903   */\n      swap1\n      pop\n        /* \"#utility.yul\":1811:1910   */\n      swap2\n      swap1\n      pop\n      jump\t// out\n        /* \"#utility.yul\":1916:2085   */\n    tag_44:\n        /* \"#utility.yul\":2000:2011   */\n      0x00\n        /* \"#utility.yul\":2034:2040   */\n      dup3\n        /* \"#utility.yul\":2029:2032   */\n      dup3\n        /* \"#utility.yul\":2022:2041   */\n      mstore\n        /* \"#utility.yul\":2074:2078   */\n      0x20\n        /* \"#utility.yul\":2069:2072   */\n      dup3\n        /* \"#utility.yul\":2065:2079   */\n      add\n        /* \"#utility.yul\":2050:2079   */\n      swap1\n      pop\n        /* \"#utility.yul\":1916:2085   */\n      swap3\n      swap2\n      pop\n      pop\n      jump\t// out\n        /* \"#utility.yul\":2091:2230   */\n    tag_45:\n        /* \"#utility.yul\":2180:2186   */\n      dup3\n        /* \"#utility.yul\":2175:2178   */\n      dup2\n        /* \"#utility.yul\":2170:2173   */\n      dup4\n        /* \"#utility.yul\":2164:2187   */\n      mcopy\n        /* \"#utility.yul\":2221:2222   */\n      0x00\n        /* \"#utility.yul\":2212:2218   */\n      dup4\n        /* \"#utility.yul\":2207:2210   */\n      dup4\n        /* \"#utility.yul\":2203:2219   */\n      add\n        /* \"#utility.yul\":2196:2223   */\n      mstore\n        /* \"#utility.yul\":2091:2230   */\n      pop\n      pop\n      pop\n      jump\t// out\n        /* \"#utility.yul\":2236:2338   */\n    tag_46:\n        /* \"#utility.yul\":2277:2283   */\n      0x00\n        /* \"#utility.yul\":2328:2330   */\n      0x1f\n        /* \"#utility.yul\":2324:2331   */\n      not\n        /* \"#utility.yul\":2319:2321   */\n      0x1f\n        /* \"#utility.yul\":2312:2317   */\n      dup4\n        /* \"#utility.yul\":2308:2322   */\n      add\n        /* \"#utility.yul\":2304:2332   */\n      and\n        /* \"#utility.yul\":2294:2332   */\n      swap1\n      pop\n        /* \"#utility.yul\":2236:2338   */\n      swap2\n      swap1\n      pop\n      jump\t// out\n        /* \"#utility.yul\":2344:2721   */\n    tag_47:\n        /* \"#utility.yul\":2432:2435   */\n      0x00\n        /* \"#utility.yul\":2460:2499   */\n      tag_108\n        /* \"#utility.yul\":2493:2498   */\n      dup3\n        /* \"#utility.yul\":2460:2499   */\n      tag_43\n      jump\t// in\n    tag_108:\n        /* \"#utility.yul\":2515:2586   */\n      tag_109\n        /* \"#utility.yul\":2579:2585   */\n      dup2\n        /* \"#utility.yul\":2574:2577   */\n      dup6\n        /* \"#utility.yul\":2515:2586   */\n      tag_44\n      jump\t// in\n    tag_109:\n        /* \"#utility.yul\":2508:2586   */\n      swap4\n      pop\n        /* \"#utility.yul\":2595:2660   */\n      tag_110\n        /* \"#utility.yul\":2653:2659   */\n      dup2\n        /* \"#utility.yul\":2648:2651   */\n      dup6\n        /* \"#utility.yul\":2641:2645   */\n      0x20\n        /* \"#utility.yul\":2634:2639   */\n      dup7\n        /* \"#utility.yul\":2630:2646   */\n      add\n        /* \"#utility.yul\":2595:2660   */\n      tag_45\n      jump\t// in\n    tag_110:\n        /* \"#utility.yul\":2685:2714   */\n      tag_111\n        /* \"#utility.yul\":2707:2713   */\n      dup2\n        /* \"#utility.yul\":2685:2714   */\n      tag_46\n      jump\t// in\n    tag_111:\n        /* \"#utility.yul\":2680:2683   */\n      dup5\n        /* \"#utility.yul\":2676:2715   */\n      add\n        /* \"#utility.yul\":2669:2715   */\n      swap2\n      pop\n        /* \"#utility.yul\":2436:2721   */\n      pop\n        /* \"#utility.yul\":2344:2721   */\n      swap3\n      swap2\n      pop\n      pop\n      jump\t// out\n        /* \"#utility.yul\":2727:3040   */\n    tag_11:\n        /* \"#utility.yul\":2840:2844   */\n      0x00\n        /* \"#utility.yul\":2878:2880   */\n      0x20\n        /* \"#utility.yul\":2867:2876   */\n      dup3\n        /* \"#utility.yul\":2863:2881   */\n      add\n        /* \"#utility.yul\":2855:2881   */\n      swap1\n      pop\n        /* \"#utility.yul\":2927:2936   */\n      dup2\n        /* \"#utility.yul\":2921:2925   */\n      dup2\n        /* \"#utility.yul\":2917:2937   */\n      sub\n        /* \"#utility.yul\":2913:2914   */\n      0x00\n        /* \"#utility.yul\":2902:2911   */\n      dup4\n        /* \"#utility.yul\":2898:2915   */\n      add\n        /* \"#utility.yul\":2891:2938   */\n      mstore\n        /* \"#utility.yul\":2955:3033   */\n      tag_113\n        /* \"#utility.yul\":3028:3032   */\n      dup2\n        /* \"#utility.yul\":3019:3025   */\n      dup5\n        /* \"#utility.yul\":2955:3033   */\n      tag_47\n      jump\t// in\n    tag_113:\n        /* \"#utility.yul\":2947:3033   */\n      swap1\n      pop\n        /* \"#utility.yul\":2727:3040   */\n      swap3\n      swap2\n      pop\n      pop\n      jump\t// out\n        /* \"#utility.yul\":3046:3172   */\n    tag_48:\n        /* \"#utility.yul\":3083:3090   */\n      0x00\n        /* \"#utility.yul\":3123:3165   */\n      0xffffffffffffffffffffffffffffffffffffffff\n        /* \"#utility.yul\":3116:3121   */\n      dup3\n        /* \"#utility.yul\":3112:3166   */\n      and\n        /* \"#utility.yul\":3101:3166   */\n      swap1\n      pop\n        /* \"#utility.yul\":3046:3172   */\n      swap2\n      swap1\n      pop\n      jump\t// out\n        /* \"#utility.yul\":3178:3274   */\n    tag_49:\n        /* \"#utility.yul\":3215:3222   */\n      0x00\n        /* \"#utility.yul\":3244:3268   */\n      tag_116\n        /* \"#utility.yul\":3262:3267   */\n      dup3\n        /* \"#utility.yul\":3244:3268   */\n      tag_48\n      jump\t// in\n    tag_116:\n        /* \"#utility.yul\":3233:3268   */\n      swap1\n      pop\n        /* \"#utility.yul\":3178:3274   */\n      swap2\n      swap1\n      pop\n      jump\t// out\n        /* \"#utility.yul\":3280:3402   */\n    tag_50:\n        /* \"#utility.yul\":3353:3377   */\n      tag_118\n        /* \"#utility.yul\":3371:3376   */\n      dup2\n        /* \"#utility.yul\":3353:3377   */\n      tag_49\n      jump\t// in\n    tag_118:\n        /* \"#utility.yul\":3346:3351   */\n      dup2\n        /* \"#utility.yul\":3343:3378   */\n      eq\n        /* \"#utility.yul\":3333:3396   */\n      tag_119\n      jumpi\n        /* \"#utility.yul\":3392:3393   */\n      0x00\n        /* \"#utility.yul\":3389:3390   */\n      0x00\n        /* \"#utility.yul\":3382:3394   */\n      revert\n        /* \"#utility.yul\":3333:3396   */\n    tag_119:\n        /* \"#utility.yul\":3280:3402   */\n      pop\n      jump\t// out\n        /* \"#utility.yul\":3408:3547   */\n    tag_51:\n        /* \"#utility.yul\":3454:3459   */\n      0x00\n        /* \"#utility.yul\":3492:3498   */\n      dup2\n        /* \"#utility.yul\":3479:3499   */\n      calldataload\n        /* \"#utility.yul\":3470:3499   */\n      swap1\n      pop\n        /* \"#utility.yul\":3508:3541   */\n      tag_121\n        /* \"#utility.yul\":3535:3540   */\n      dup2\n        /* \"#utility.yul\":3508:3541   */\n      tag_50\n      jump\t// in\n    tag_121:\n        /* \"#utility.yul\":3408:3547   */\n      swap3\n      swap2\n      pop\n      pop\n      jump\t// out\n        /* \"#utility.yul\":3553:3630   */\n    tag_52:\n        /* \"#utility.yul\":3590:3597   */\n      0x00\n        /* \"#utility.yul\":3619:3624   */\n      dup2\n        /* \"#utility.yul\":3608:3624   */\n      swap1\n      pop\n        /* \"#utility.yul\":3553:3630   */\n      swap2\n      swap1\n      pop\n      jump\t// out\n        /* \"#utility.yul\":3636:3758   */\n    tag_53:\n        /* \"#utility.yul\":3709:3733   */\n      tag_124\n        /* \"#utility.yul\":3727:3732   */\n      dup2\n        /* \"#utility.yul\":3709:3733   */\n      tag_52\n      jump\t// in\n    tag_124:\n        /* \"#utility.yul\":3702:3707   */\n      dup2\n        /* \"#utility.yul\":3699:3734   */\n      eq\n        /* \"#utility.yul\":3689:3752   */\n      tag_125\n      jumpi\n        /* \"#utility.yul\":3748:3749   */\n      0x00\n        /* \"#utility.yul\":3745:3746   */\n      0x00\n        /* \"#utility.yul\":3738:3750   */\n      revert\n        /* \"#utility.yul\":3689:3752   */\n    tag_125:\n        /* \"#utility.yul\":3636:3758   */\n      pop\n      jump\t// out\n        /* \"#utility.yul\":3764:3903   */\n    tag_54:\n        /* \"#utility.yul\":3810:3815   */\n      0x00\n        /* \"#utility.yul\":3848:3854   */\n      dup2\n        /* \"#utility.yul\":3835:3855   */\n      calldataload\n        /* \"#utility.yul\":3826:3855   */\n      swap1\n      pop\n        /* \"#utility.yul\":3864:3897   */\n      tag_127\n        /* \"#utility.yul\":3891:3896   */\n      dup2\n        /* \"#utility.yul\":3864:3897   */\n      tag_53\n      jump\t// in\n    tag_127:\n        /* \"#utility.yul\":3764:3903   */\n      swap3\n      swap2\n      pop\n      pop\n      jump\t// out\n        /* \"#utility.yul\":3909:4383   */\n    tag_14:\n        /* \"#utility.yul\":3977:3983   */\n      0x00\n        /* \"#utility.yul\":3985:3991   */\n      0x00\n        /* \"#utility.yul\":4034:4036   */\n      0x40\n        /* \"#utility.yul\":4022:4031   */\n      dup4\n        /* \"#utility.yul\":4013:4020   */\n      dup6\n        /* \"#utility.yul\":4009:4032   */\n      sub\n        /* \"#utility.yul\":4005:4037   */\n      slt\n        /* \"#utility.yul\":4002:4121   */\n      iszero\n      tag_129\n      jumpi\n        /* \"#utility.yul\":4040:4119   */\n      tag_130\n      tag_37\n      jump\t// in\n    tag_130:\n        /* \"#utility.yul\":4002:4121   */\n    tag_129:\n        /* \"#utility.yul\":4160:4161   */\n      0x00\n        /* \"#utility.yul\":4185:4238   */\n      tag_131\n        /* \"#utility.yul\":4230:4237   */\n      dup6\n        /* \"#utility.yul\":4221:4227   */\n      dup3\n        /* \"#utility.yul\":4210:4219   */\n      dup7\n        /* \"#utility.yul\":4206:4228   */\n      add\n        /* \"#utility.yul\":4185:4238   */\n      tag_51\n      jump\t// in\n    tag_131:\n        /* \"#utility.yul\":4175:4238   */\n      swap3\n      pop\n        /* \"#utility.yul\":4131:4248   */\n      pop\n        /* \"#utility.yul\":4287:4289   */\n      0x20\n        /* \"#utility.yul\":4313:4366   */\n      tag_132\n        /* \"#utility.yul\":4358:4365   */\n      dup6\n        /* \"#utility.yul\":4349:4355   */\n      dup3\n        /* \"#utility.yul\":4338:4347   */\n      dup7\n        /* \"#utility.yul\":4334:4356   */\n      add\n        /* \"#utility.yul\":4313:4366   */\n      tag_54\n      jump\t// in\n    tag_132:\n        /* \"#utility.yul\":4303:4366   */\n      swap2\n      pop\n        /* \"#utility.yul\":4258:4376   */\n      pop\n        /* \"#utility.yul\":3909:4383   */\n      swap3\n      pop\n      swap3\n      swap1\n      pop\n      jump\t// out\n        /* \"#utility.yul\":4389:4506   */\n    tag_55:\n        /* \"#utility.yul\":4498:4499   */\n      0x00\n        /* \"#utility.yul\":4495:4496   */\n      0x00\n        /* \"#utility.yul\":4488:4500   */\n      revert\n        /* \"#utility.yul\":4512:4692   */\n    tag_56:\n        /* \"#utility.yul\":4560:4637   */\n      0x4e487b7100000000000000000000000000000000000000000000000000000000\n        /* \"#utility.yul\":4557:4558   */\n      0x00\n        /* \"#utility.yul\":4550:4638   */\n      mstore\n        /* \"#utility.yul\":4657:4661   */\n      0x41\n        /* \"#utility.yul\":4654:4655   */\n      0x04\n        /* \"#utility.yul\":4647:4662   */\n      mstore\n        /* \"#utility.yul\":4681:4685   */\n      0x24\n        /* \"#utility.yul\":4678:4679   */\n      0x00\n        /* \"#utility.yul\":4671:4686   */\n      revert\n        /* \"#utility.yul\":4698:4979   */\n    tag_57:\n        /* \"#utility.yul\":4781:4808   */\n      tag_136\n        /* \"#utility.yul\":4803:4807   */\n      dup3\n        /* \"#utility.yul\":4781:4808   */\n      tag_46\n      jump\t// in\n    tag_136:\n        /* \"#utility.yul\":4773:4779   */\n      dup2\n        /* \"#utility.yul\":4769:4809   */\n      add\n        /* \"#utility.yul\":4911:4917   */\n      dup2\n        /* \"#utility.yul\":4899:4909   */\n      dup2\n        /* \"#utility.yul\":4896:4918   */\n      lt\n        /* \"#utility.yul\":4875:4893   */\n      0xffffffffffffffff\n        /* \"#utility.yul\":4863:4873   */\n      dup3\n        /* \"#utility.yul\":4860:4894   */\n      gt\n        /* \"#utility.yul\":4857:4919   */\n      or\n        /* \"#utility.yul\":4854:4942   */\n      iszero\n      tag_137\n      jumpi\n        /* \"#utility.yul\":4922:4940   */\n      tag_138\n      tag_56\n      jump\t// in\n    tag_138:\n        /* \"#utility.yul\":4854:4942   */\n    tag_137:\n        /* \"#utility.yul\":4962:4972   */\n      dup1\n        /* \"#utility.yul\":4958:4960   */\n      0x40\n        /* \"#utility.yul\":4951:4973   */\n      mstore\n        /* \"#utility.yul\":4741:4979   */\n      pop\n        /* \"#utility.yul\":4698:4979   */\n      pop\n      pop\n      jump\t// out\n        /* \"#utility.yul\":4985:5114   */\n    tag_58:\n        /* \"#utility.yul\":5019:5025   */\n      0x00\n        /* \"#utility.yul\":5046:5066   */\n      tag_140\n      tag_36\n      jump\t// in\n    tag_140:\n        /* \"#utility.yul\":5036:5066   */\n      swap1\n      pop\n        /* \"#utility.yul\":5075:5108   */\n      tag_141\n        /* \"#utility.yul\":5103:5107   */\n      dup3\n        /* \"#utility.yul\":5095:5101   */\n      dup3\n        /* \"#utility.yul\":5075:5108   */\n      tag_57\n      jump\t// in\n    tag_141:\n        /* \"#utility.yul\":4985:5114   */\n      swap2\n      swap1\n      pop\n      jump\t// out\n        /* \"#utility.yul\":5120:5428   */\n    tag_59:\n        /* \"#utility.yul\":5182:5186   */\n      0x00\n        /* \"#utility.yul\":5272:5290   */\n      0xffffffffffffffff\n        /* \"#utility.yul\":5264:5270   */\n      dup3\n        /* \"#utility.yul\":5261:5291   */\n      gt\n        /* \"#utility.yul\":5258:5314   */\n      iszero\n      tag_143\n      jumpi\n        /* \"#utility.yul\":5294:5312   */\n      tag_144\n      tag_56\n      jump\t// in\n    tag_144:\n        /* \"#utility.yul\":5258:5314   */\n    tag_143:\n        /* \"#utility.yul\":5332:5361   */\n      tag_145\n        /* \"#utility.yul\":5354:5360   */\n      dup3\n        /* \"#utility.yul\":5332:5361   */\n      tag_46\n      jump\t// in\n    tag_145:\n        /* \"#utility.yul\":5324:5361   */\n      swap1\n      pop\n        /* \"#utility.yul\":5416:5420   */\n      0x20\n        /* \"#utility.yul\":5410:5414   */\n      dup2\n        /* \"#utility.yul\":5406:5421   */\n      add\n        /* \"#utility.yul\":5398:5421   */\n      swap1\n      pop\n        /* \"#utility.yul\":5120:5428   */\n      swap2\n      swap1\n      pop\n      jump\t// out\n        /* \"#utility.yul\":5434:5582   */\n    tag_60:\n        /* \"#utility.yul\":5532:5538   */\n      dup3\n        /* \"#utility.yul\":5527:5530   */\n      dup2\n        /* \"#utility.yul\":5522:5525   */\n      dup4\n        /* \"#utility.yul\":5509:5539   */\n      calldatacopy\n        /* \"#utility.yul\":5573:5574   */\n      0x00\n        /* \"#utility.yul\":5564:5570   */\n      dup4\n        /* \"#utility.yul\":5559:5562   */\n      dup4\n        /* \"#utility.yul\":5555:5571   */\n      add\n        /* \"#utility.yul\":5548:5575   */\n      mstore\n        /* \"#utility.yul\":5434:5582   */\n      pop\n      pop\n      pop\n      jump\t// out\n        /* \"#utility.yul\":5588:6013   */\n    tag_61:\n        /* \"#utility.yul\":5666:5671   */\n      0x00\n        /* \"#utility.yul\":5691:5757   */\n      tag_148\n        /* \"#utility.yul\":5707:5756   */\n      tag_149\n        /* \"#utility.yul\":5749:5755   */\n      dup5\n        /* \"#utility.yul\":5707:5756   */\n      tag_59\n      jump\t// in\n    tag_149:\n        /* \"#utility.yul\":5691:5757   */\n      tag_58\n      jump\t// in\n    tag_148:\n        /* \"#utility.yul\":5682:5757   */\n      swap1\n      pop\n        /* \"#utility.yul\":5780:5786   */\n      dup3\n        /* \"#utility.yul\":5773:5778   */\n      dup2\n        /* \"#utility.yul\":5766:5787   */\n      mstore\n        /* \"#utility.yul\":5818:5822   */\n      0x20\n        /* \"#utility.yul\":5811:5816   */\n      dup2\n        /* \"#utility.yul\":5807:5823   */\n      add\n        /* \"#utility.yul\":5856:5859   */\n      dup5\n        /* \"#utility.yul\":5847:5853   */\n      dup5\n        /* \"#utility.yul\":5842:5845   */\n      dup5\n        /* \"#utility.yul\":5838:5854   */\n      add\n        /* \"#utility.yul\":5835:5860   */\n      gt\n        /* \"#utility.yul\":5832:5944   */\n      iszero\n      tag_150\n      jumpi\n        /* \"#utility.yul\":5863:5942   */\n      tag_151\n      tag_55\n      jump\t// in\n    tag_151:\n        /* \"#utility.yul\":5832:5944   */\n    tag_150:\n        /* \"#utility.yul\":5953:6007   */\n      tag_152\n        /* \"#utility.yul\":6000:6006   */\n      dup5\n        /* \"#utility.yul\":5995:5998   */\n      dup3\n        /* \"#utility.yul\":5990:5993   */\n      dup6\n        /* \"#utility.yul\":5953:6007   */\n      tag_60\n      jump\t// in\n    tag_152:\n        /* \"#utility.yul\":5672:6013   */\n      pop\n        /* \"#utility.yul\":5588:6013   */\n      swap4\n      swap3\n      pop\n      pop\n      pop\n      jump\t// out\n        /* \"#utility.yul\":6033:6373   */\n    tag_62:\n        /* \"#utility.yul\":6089:6094   */\n      0x00\n        /* \"#utility.yul\":6138:6141   */\n      dup3\n        /* \"#utility.yul\":6131:6135   */\n      0x1f\n        /* \"#utility.yul\":6123:6129   */\n      dup4\n        /* \"#utility.yul\":6119:6136   */\n      add\n        /* \"#utility.yul\":6115:6142   */\n      slt\n        /* \"#utility.yul\":6105:6227   */\n      tag_154\n      jumpi\n        /* \"#utility.yul\":6146:6225   */\n      tag_155\n      tag_39\n      jump\t// in\n    tag_155:\n        /* \"#utility.yul\":6105:6227   */\n    tag_154:\n        /* \"#utility.yul\":6263:6269   */\n      dup2\n        /* \"#utility.yul\":6250:6270   */\n      calldataload\n        /* \"#utility.yul\":6288:6367   */\n      tag_156\n        /* \"#utility.yul\":6363:6366   */\n      dup5\n        /* \"#utility.yul\":6355:6361   */\n      dup3\n        /* \"#utility.yul\":6348:6352   */\n      0x20\n        /* \"#utility.yul\":6340:6346   */\n      dup7\n        /* \"#utility.yul\":6336:6353   */\n      add\n        /* \"#utility.yul\":6288:6367   */\n      tag_61\n      jump\t// in\n    tag_156:\n        /* \"#utility.yul\":6279:6367   */\n      swap2\n      pop\n        /* \"#utility.yul\":6095:6373   */\n      pop\n        /* \"#utility.yul\":6033:6373   */\n      swap3\n      swap2\n      pop\n      pop\n      jump\t// out\n        /* \"#utility.yul\":6379:6888   */\n    tag_19:\n        /* \"#utility.yul\":6448:6454   */\n      0x00\n        /* \"#utility.yul\":6497:6499   */\n      0x20\n        /* \"#utility.yul\":6485:6494   */\n      dup3\n        /* \"#utility.yul\":6476:6483   */\n      dup5\n        /* \"#utility.yul\":6472:6495   */\n      sub\n        /* \"#utility.yul\":6468:6500   */\n      slt\n        /* \"#utility.yul\":6465:6584   */\n      iszero\n      tag_158\n      jumpi\n        /* \"#utility.yul\":6503:6582   */\n      tag_159\n      tag_37\n      jump\t// in\n    tag_159:\n        /* \"#utility.yul\":6465:6584   */\n    tag_158:\n        /* \"#utility.yul\":6651:6652   */\n      0x00\n        /* \"#utility.yul\":6640:6649   */\n      dup3\n        /* \"#utility.yul\":6636:6653   */\n      add\n        /* \"#utility.yul\":6623:6654   */\n      calldataload\n        /* \"#utility.yul\":6681:6699   */\n      0xffffffffffffffff\n        /* \"#utility.yul\":6673:6679   */\n      dup2\n        /* \"#utility.yul\":6670:6700   */\n      gt\n        /* \"#utility.yul\":6667:6784   */\n      iszero\n      tag_160\n      jumpi\n        /* \"#utility.yul\":6703:6782   */\n      tag_161\n      tag_38\n      jump\t// in\n    tag_161:\n        /* \"#utility.yul\":6667:6784   */\n    tag_160:\n        /* \"#utility.yul\":6808:6871   */\n      tag_162\n        /* \"#utility.yul\":6863:6870   */\n      dup5\n        /* \"#utility.yul\":6854:6860   */\n      dup3\n        /* \"#utility.yul\":6843:6852   */\n      dup6\n        /* \"#utility.yul\":6839:6861   */\n      add\n        /* \"#utility.yul\":6808:6871   */\n      tag_62\n      jump\t// in\n    tag_162:\n        /* \"#utility.yul\":6798:6871   */\n      swap2\n      pop\n        /* \"#utility.yul\":6594:6881   */\n      pop\n        /* \"#utility.yul\":6379:6888   */\n      swap3\n      swap2\n      pop\n      pop\n      jump\t// out\n        /* \"#utility.yul\":6894:7042   */\n    tag_63:\n        /* \"#utility.yul\":6996:7007   */\n      0x00\n        /* \"#utility.yul\":7033:7036   */\n      dup2\n        /* \"#utility.yul\":7018:7036   */\n      swap1\n      pop\n        /* \"#utility.yul\":6894:7042   */\n      swap3\n      swap2\n      pop\n      pop\n      jump\t// out\n        /* \"#utility.yul\":7048:7204   */\n    tag_64:\n        /* \"#utility.yul\":7188:7196   */\n      0x44726166743a0000000000000000000000000000000000000000000000000000\n        /* \"#utility.yul\":7184:7185   */\n      0x00\n        /* \"#utility.yul\":7176:7182   */\n      dup3\n        /* \"#utility.yul\":7172:7186   */\n      add\n        /* \"#utility.yul\":7165:7197   */\n      mstore\n        /* \"#utility.yul\":7048:7204   */\n      pop\n      jump\t// out\n        /* \"#utility.yul\":7210:7610   */\n    tag_65:\n        /* \"#utility.yul\":7370:7373   */\n      0x00\n        /* \"#utility.yul\":7391:7475   */\n      tag_166\n        /* \"#utility.yul\":7473:7474   */\n      0x06\n        /* \"#utility.yul\":7468:7471   */\n      dup4\n        /* \"#utility.yul\":7391:7475   */\n      tag_63\n      jump\t// in\n    tag_166:\n        /* \"#utility.yul\":7384:7475   */\n      swap2\n      pop\n        /* \"#utility.yul\":7484:7577   */\n      tag_167\n        /* \"#utility.yul\":7573:7576   */\n      dup3\n        /* \"#utility.yul\":7484:7577   */\n      tag_64\n      jump\t// in\n    tag_167:\n        /* \"#utility.yul\":7602:7603   */\n      0x06\n        /* \"#utility.yul\":7597:7600   */\n      dup3\n        /* \"#utility.yul\":7593:7604   */\n      add\n        /* \"#utility.yul\":7586:7604   */\n      swap1\n      pop\n        /* \"#utility.yul\":7210:7610   */\n      swap2\n      swap1\n      pop\n      jump\t// out\n        /* \"#utility.yul\":7640:7970   */\n    tag_66:\n        /* \"#utility.yul\":7756:7759   */\n      0x00\n        /* \"#utility.yul\":7777:7866   */\n      tag_169\n        /* \"#utility.yul\":7859:7865   */\n      dup4\n        /* \"#utility.yul\":7854:7857   */\n      dup6\n        /* \"#utility.yul\":7777:7866   */\n      tag_63\n      jump\t// in\n    tag_169:\n        /* \"#utility.yul\":7770:7866   */\n      swap4\n      pop\n        /* \"#utility.yul\":7876:7932   */\n      tag_170\n        /* \"#utility.yul\":7925:7931   */\n      dup4\n        /* \"#utility.yul\":7920:7923   */\n      dup6\n        /* \"#utility.yul\":7913:7918   */\n      dup5\n        /* \"#utility.yul\":7876:7932   */\n      tag_60\n      jump\t// in\n    tag_170:\n        /* \"#utility.yul\":7957:7963   */\n      dup3\n        /* \"#utility.yul\":7952:7955   */\n      dup5\n        /* \"#utility.yul\":7948:7964   */\n      add\n        /* \"#utility.yul\":7941:7964   */\n      swap1\n      pop\n        /* \"#utility.yul\":7640:7970   */\n      swap4\n      swap3\n      pop\n      pop\n      pop\n      jump\t// out\n        /* \"#utility.yul\":7976:8537   */\n    tag_23:\n        /* \"#utility.yul\":8219:8222   */\n      0x00\n        /* \"#utility.yul\":8241:8389   */\n      tag_172\n        /* \"#utility.yul\":8385:8388   */\n      dup3\n        /* \"#utility.yul\":8241:8389   */\n      tag_65\n      jump\t// in\n    tag_172:\n        /* \"#utility.yul\":8234:8389   */\n      swap2\n      pop\n        /* \"#utility.yul\":8406:8511   */\n      tag_173\n        /* \"#utility.yul\":8507:8510   */\n      dup3\n        /* \"#utility.yul\":8498:8504   */\n      dup5\n        /* \"#utility.yul\":8490:8496   */\n      dup7\n        /* \"#utility.yul\":8406:8511   */\n      tag_66\n      jump\t// in\n    tag_173:\n        /* \"#utility.yul\":8399:8511   */\n      swap2\n      pop\n        /* \"#utility.yul\":8528:8531   */\n      dup2\n        /* \"#utility.yul\":8521:8531   */\n      swap1\n      pop\n        /* \"#utility.yul\":7976:8537   */\n      swap4\n      swap3\n      pop\n      pop\n      pop\n      jump\t// out\n        /* \"#utility.yul\":8543:8723   */\n    tag_67:\n        /* \"#utility.yul\":8591:8668   */\n      0x4e487b7100000000000000000000000000000000000000000000000000000000\n        /* \"#utility.yul\":8588:8589   */\n      0x00\n        /* \"#utility.yul\":8581:8669   */\n      mstore\n        /* \"#utility.yul\":8688:8692   */\n      0x22\n        /* \"#utility.yul\":8685:8686   */\n      0x04\n        /* \"#utility.yul\":8678:8693   */\n      mstore\n        /* \"#utility.yul\":8712:8716   */\n      0x24\n        /* \"#utility.yul\":8709:8710   */\n      0x00\n        /* \"#utility.yul\":8702:8717   */\n      revert\n        /* \"#utility.yul\":8729:9049   */\n    tag_27:\n        /* \"#utility.yul\":8773:8779   */\n      0x00\n        /* \"#utility.yul\":8810:8811   */\n      0x02\n        /* \"#utility.yul\":8804:8808   */\n      dup3\n        /* \"#utility.yul\":8800:8812   */\n      div\n        /* \"#utility.yul\":8790:8812   */\n      swap1\n      pop\n        /* \"#utility.yul\":8857:8858   */\n      0x01\n        /* \"#utility.yul\":8851:8855   */\n      dup3\n        /* \"#utility.yul\":8847:8859   */\n      and\n        /* \"#utility.yul\":8878:8896   */\n      dup1\n        /* \"#utility.yul\":8868:8949   */\n      tag_176\n      jumpi\n        /* \"#utility.yul\":8934:8938   */\n      0x7f\n        /* \"#utility.yul\":8926:8932   */\n      dup3\n        /* \"#utility.yul\":8922:8939   */\n      and\n        /* \"#utility.yul\":8912:8939   */\n      swap2\n      pop\n        /* \"#utility.yul\":8868:8949   */\n    tag_176:\n        /* \"#utility.yul\":8996:8998   */\n      0x20\n        /* \"#utility.yul\":8988:8994   */\n      dup3\n        /* \"#utility.yul\":8985:8999   */\n      lt\n        /* \"#utility.yul\":8965:8983   */\n      dup2\n        /* \"#utility.yul\":8962:9000   */\n      sub\n        /* \"#utility.yul\":8959:9043   */\n      tag_177\n      jumpi\n        /* \"#utility.yul\":9015:9033   */\n      tag_178\n      tag_67\n      jump\t// in\n    tag_178:\n        /* \"#utility.yul\":8959:9043   */\n    tag_177:\n        /* \"#utility.yul\":8780:9049   */\n      pop\n        /* \"#utility.yul\":8729:9049   */\n      swap2\n      swap1\n      pop\n      jump\t// out\n        /* \"#utility.yul\":9055:9196   */\n    tag_68:\n        /* \"#utility.yul\":9104:9108   */\n      0x00\n        /* \"#utility.yul\":9127:9130   */\n      dup2\n        /* \"#utility.yul\":9119:9130   */\n      swap1\n      pop\n        /* \"#utility.yul\":9150:9153   */\n      dup2\n        /* \"#utility.yul\":9147:9148   */\n      0x00\n        /* \"#utility.yul\":9140:9154   */\n      mstore\n        /* \"#utility.yul\":9184:9188   */\n      0x20\n        /* \"#utility.yul\":9181:9182   */\n      0x00\n        /* \"#utility.yul\":9171:9189   */\n      keccak256\n        /* \"#utility.yul\":9163:9189   */\n      swap1\n      pop\n        /* \"#utility.yul\":9055:9196   */\n      swap2\n      swap1\n      pop\n      jump\t// out\n        /* \"#utility.yul\":9202:9295   */\n    tag_69:\n        /* \"#utility.yul\":9239:9245   */\n      0x00\n        /* \"#utility.yul\":9286:9288   */\n      0x20\n        /* \"#utility.yul\":9281:9283   */\n      0x1f\n        /* \"#utility.yul\":9274:9279   */\n      dup4\n        /* \"#utility.yul\":9270:9284   */\n      add\n        /* \"#utility.yul\":9266:9289   */\n      div\n        /* \"#utility.yul\":9256:9289   */\n      swap1\n      pop\n        /* \"#utility.yul\":9202:9295   */\n      swap2\n      swap1\n      pop\n      jump\t// out\n        /* \"#utility.yul\":9301:9408   */\n    tag_70:\n        /* \"#utility.yul\":9345:9353   */\n      0x00\n        /* \"#utility.yul\":9395:9400   */\n      dup3\n        /* \"#utility.yul\":9389:9393   */\n      dup3\n        /* \"#utility.yul\":9385:9401   */\n      shl\n        /* \"#utility.yul\":9364:9401   */\n      swap1\n      pop\n        /* \"#utility.yul\":9301:9408   */\n      swap3\n      swap2\n      pop\n      pop\n      jump\t// out\n        /* \"#utility.yul\":9414:9807   */\n    tag_71:\n        /* \"#utility.yul\":9483:9489   */\n      0x00\n        /* \"#utility.yul\":9533:9534   */\n      0x08\n        /* \"#utility.yul\":9521:9531   */\n      dup4\n        /* \"#utility.yul\":9517:9535   */\n      mul\n        /* \"#utility.yul\":9556:9653   */\n      tag_183\n        /* \"#utility.yul\":9586:9652   */\n      0xffffffffffffffffffffffffffffffffffffffffffffffffffffffffffffffff\n        /* \"#utility.yul\":9575:9584   */\n      dup3\n        /* \"#utility.yul\":9556:9653   */\n      tag_70\n      jump\t// in\n    tag_183:\n        /* \"#utility.yul\":9674:9713   */\n      tag_184\n        /* \"#utility.yul\":9704:9712   */\n      dup7\n        /* \"#utility.yul\":9693:9702   */\n      dup4\n        /* \"#utility.yul\":9674:9713   */\n      tag_70\n      jump\t// in\n    tag_184:\n        /* \"#utility.yul\":9662:9713   */\n      swap6\n      pop\n        /* \"#utility.yul\":9746:9750   */\n      dup1\n        /* \"#utility.yul\":9742:9751   */\n      not\n        /* \"#utility.yul\":9735:9740   */\n      dup5\n        /* \"#utility.yul\":9731:9752   */\n      and\n        /* \"#utility.yul\":9722:9752   */\n      swap4\n      pop\n        /* \"#utility.yul\":9795:9799   */\n      dup1\n        /* \"#utility.yul\":9785:9793   */\n      dup7\n        /* \"#utility.yul\":9781:9800   */\n      and\n        /* \"#utility.yul\":9774:9779   */\n      dup5\n        /* \"#utility.yul\":9771:9801   */\n      or\n        /* \"#utility.yul\":9761:9801   */\n      swap3\n      pop\n        /* \"#utility.yul\":9490:9807   */\n      pop\n      pop\n        /* \"#utility.yul\":9414:9807   */\n      swap4\n      swap3\n      pop\n      pop\n      pop\n      jump\t// out\n        /* \"#utility.yul\":9813:9873   */\n    tag_72:\n        /* \"#utility.yul\":9841:9844   */\n      0x00\n        /* \"#utility.yul\":9862:9867   */\n      dup2\n        /* \"#utility.yul\":9855:9867   */\n      swap1\n      pop\n        /* \"#utility.yul\":9813:9873   */\n      swap2\n      swap1\n      pop\n      jump\t// out\n        /* \"#utility.yul\":9879:10021   */\n    tag_73:\n        /* \"#utility.yul\":9929:9938   */\n      0x00\n        /* \"#utility.yul\":9962:10015   */\n      tag_187\n        /* \"#utility.yul\":9980:10014   */\n      tag_188\n        /* \"#utility.yul\":9989:10013   */\n      tag_189\n        /* \"#utility.yul\":10007:10012   */\n      dup5\n        /* \"#utility.yul\":9989:10013   */\n      tag_52\n      jump\t// in\n    tag_189:\n        /* \"#utility.yul\":9980:10014   */\n      tag_72\n      jump\t// in\n    tag_188:\n        /* \"#utility.yul\":9962:10015   */\n      tag_52\n      jump\t// in\n    tag_187:\n        /* \"#utility.yul\":9949:10015   */\n      swap1\n      pop\n        /* \"#utility.yul\":9879:10021   */\n      swap2\n      swap1\n      pop\n      jump\t// out\n        /* \"#utility.yul\":10027:10102   */\n    tag_74:\n        /* \"#utility.yul\":10070:10073   */\n      0x00\n        /* \"#utility.yul\":10091:10096   */\n      dup2\n        /* \"#utility.yul\":10084:10096   */\n      swap1\n      pop\n        /* \"#utility.yul\":10027:10102   */\n      swap2\n      swap1\n      pop\n      jump\t// out\n        /* \"#utility.yul\":10108:10377   */\n    tag_75:\n        /* \"#utility.yul\":10218:10257   */\n      tag_192\n        /* \"#utility.yul\":10249:10256   */\n      dup4\n        /* \"#utility.yul\":10218:10257   */\n      tag_73\n      jump\t// in\n    tag_192:\n        /* \"#utility.yul\":10279:10370   */\n      tag_193\n        /* \"#utility.yul\":10328:10369   */\n      tag_194\n        /* \"#utility.yul\":10352:10368   */\n      dup3\n        /* \"#utility.yul\":10328:10369   */\n      tag_74\n      jump\t// in\n    tag_194:\n        /* \"#utility.yul\":10320:10326   */\n      dup5\n        /* \"#utility.yul\":10313:10317   */\n      dup5\n        /* \"#utility.yul\":10307:10318   */\n      sload\n        /* \"#utility.yul\":10279:10370   */\n      tag_71\n      jump\t// in\n    tag_193:\n        /* \"#utility.yul\":10273:10277   */\n      dup3\n        /* \"#utility.yul\":10266:10371   */\n      sstore\n        /* \"#utility.yul\":10184:10377   */\n      pop\n        /* \"#utility.yul\":10108:10377   */\n      pop\n      pop\n      pop\n      jump\t// out\n        /* \"#utility.yul\":10383:10456   */\n    tag_76:\n        /* \"#utility.yul\":10428:10431   */\n      0x00\n        /* \"#utility.yul\":10449:10450   */\n      0x00\n        /* \"#utility.yul\":10442:10450   */\n      swap1\n      pop\n        /* \"#utility.yul\":10383:10456   */\n      swap1\n      jump\t// out\n        /* \"#utility.yul\":10462:10651   */\n    tag_77:\n        /* \"#utility.yul\":10539:10571   */\n      tag_197\n      tag_76\n      jump\t// in\n    tag_197:\n        /* \"#utility.yul\":10580:10645   */\n      tag_198\n        /* \"#utility.yul\":10638:10644   */\n      dup2\n        /* \"#utility.yul\":10630:10636   */\n      dup5\n        /* \"#utility.yul\":10624:10628   */\n      dup5\n        /* \"#utility.yul\":10580:10645   */\n      tag_75\n      jump\t// in\n    tag_198:\n        /* \"#utility.yul\":10515:10651   */\n      pop\n        /* \"#utility.yul\":10462:10651   */\n      pop\n      pop\n      jump\t// out\n        /* \"#utility.yul\":10657:10843   */\n    tag_78:\n        /* \"#utility.yul\":10717:10837   */\n    tag_200:\n        /* \"#utility.yul\":10734:10737   */\n      dup2\n        /* \"#utility.yul\":10727:10732   */\n      dup2\n        /* \"#utility.yul\":10724:10738   */\n      lt\n        /* \"#utility.yul\":10717:10837   */\n      iszero\n      tag_202\n      jumpi\n        /* \"#utility.yul\":10788:10827   */\n      tag_203\n        /* \"#utility.yul\":10825:10826   */\n      0x00\n        /* \"#utility.yul\":10818:10823   */\n      dup3\n        /* \"#utility.yul\":10788:10827   */\n      tag_77\n      jump\t// in\n    tag_203:\n        /* \"#utility.yul\":10761:10762   */\n      0x01\n        /* \"#utility.yul\":10754:10759   */\n      dup2\n        /* \"#utility.yul\":10750:10763   */\n      add\n        /* \"#utility.yul\":10741:10763   */\n      swap1\n      pop\n        /* \"#utility.yul\":10717:10837   */\n      jump(tag_200)\n    tag_202:\n        /* \"#utility.yul\":10657:10843   */\n      pop\n      pop\n      jump\t// out\n        /* \"#utility.yul\":10849:11392   */\n    tag_79:\n        /* \"#utility.yul\":10950:10952   */\n      0x1f\n        /* \"#utility.yul\":10945:10948   */\n      dup3\n        /* \"#utility.yul\":10942:10953   */\n      gt\n        /* \"#utility.yul\":10939:11385   */\n      iszero\n      tag_205\n      jumpi\n        /* \"#utility.yul\":10984:11022   */\n      tag_206\n        /* \"#utility.yul\":11016:11021   */\n      dup2\n        /* \"#utility.yul\":10984:11022   */\n      tag_68\n      jump\t// in\n    tag_206:\n        /* \"#utility.yul\":11068:11097   */\n      tag_207\n        /* \"#utility.yul\":11086:11096   */\n      dup5\n        /* \"#utility.yul\":11068:11097   */\n      tag_69\n      jump\t// in\n    tag_207:\n        /* \"#utility.yul\":11058:11066   */\n      dup2\n        /* \"#utility.yul\":11054:11098   */\n      add\n        /* \"#utility.yul\":11251:11253   */\n      0x20\n        /* \"#utility.yul\":11239:11249   */\n      dup6\n        /* \"#utility.yul\":11236:11254   */\n      lt\n        /* \"#utility.yul\":11233:11282   */\n      iszero\n      tag_208\n      jumpi\n        /* \"#utility.yul\":11272:11280   */\n      dup2\n        /* \"#utility.yul\":11257:11280   */\n      swap1\n      pop\n        /* \"#utility.yul\":11233:11282   */\n    tag_208:\n        /* \"#utility.yul\":11295:11375   */\n      tag_209\n        /* \"#utility.yul\":11351:11373   */\n      tag_210\n        /* \"#utility.yul\":11369:11372   */\n      dup6\n        /* \"#utility.yul\":11351:11373   */\n      tag_69\n      jump\t// in\n    tag_210:\n        /* \"#utility.yul\":11341:11349   */\n      dup4\n        /* \"#utility.yul\":11337:11374   */\n      add\n        /* \"#utility.yul\":11324:11335   */\n      dup3\n        /* \"#utility.yul\":11295:11375   */\n      tag_78\n      jump\t// in\n    tag_209:\n        /* \"#utility.yul\":10954:11385   */\n      pop\n      pop\n        /* \"#utility.yul\":10939:11385   */\n    tag_205:\n        /* \"#utility.yul\":10849:11392   */\n      pop\n      pop\n      pop\n      jump\t// out\n        /* \"#utility.yul\":11398:11515   */\n    tag_80:\n        /* \"#utility.yul\":11452:11460   */\n      0x00\n        /* \"#utility.yul\":11502:11507   */\n      dup3\n        /* \"#utility.yul\":11496:11500   */\n      dup3\n        /* \"#utility.yul\":11492:11508   */\n      shr\n        /* \"#utility.yul\":11471:11508   */\n      swap1\n      pop\n        /* \"#utility.yul\":11398:11515   */\n      swap3\n      swap2\n      pop\n      pop\n      jump\t// out\n        /* \"#utility.yul\":11521:11690   */\n    tag_81:\n        /* \"#utility.yul\":11565:11571   */\n      0x00\n        /* \"#utility.yul\":11598:11649   */\n      tag_213\n        /* \"#utility.yul\":11646:11647   */\n      0x00\n        /* \"#utility.yul\":11642:11648   */\n      not\n        /* \"#utility.yul\":11634:11639   */\n      dup5\n        /* \"#utility.yul\":11631:11632   */\n      0x08\n        /* \"#utility.yul\":11627:11640   */\n      mul\n        /* \"#utility.yul\":11598:11649   */\n      tag_80\n      jump\t// in\n    tag_213:\n        /* \"#utility.yul\":11594:11650   */\n      not\n        /* \"#utility.yul\":11679:11683   */\n      dup1\n        /* \"#utility.yul\":11673:11677   */\n      dup4\n        /* \"#utility.yul\":11669:11684   */\n      and\n        /* \"#utility.yul\":11659:11684   */\n      swap2\n      pop\n        /* \"#utility.yul\":11572:11690   */\n      pop\n        /* \"#utility.yul\":11521:11690   */\n      swap3\n      swap2\n      pop\n      pop\n      jump\t// out\n        /* \"#utility.yul\":11695:11990   */\n    tag_82:\n        /* \"#utility.yul\":11771:11775   */\n      0x00\n        /* \"#utility.yul\":11917:11946   */\n      tag_215\n        /* \"#utility.yul\":11942:11945   */\n      dup4\n        /* \"#utility.yul\":11936:11940   */\n      dup4\n        /* \"#utility.yul\":11917:11946   */\n      tag_81\n      jump\t// in\n    tag_215:\n        /* \"#utility.yul\":11909:11946   */\n      swap2\n      pop\n        /* \"#utility.yul\":11979:11982   */\n      dup3\n        /* \"#utility.yul\":11976:11977   */\n      0x02\n        /* \"#utility.yul\":11972:11983   */\n      mul\n        /* \"#utility.yul\":11966:11970   */\n      dup3\n        /* \"#utility.yul\":11963:11984   */\n      or\n        /* \"#utility.yul\":11955:11984   */\n      swap1\n      pop\n        /* \"#utility.yul\":11695:11990   */\n      swap3\n      swap2\n      pop\n      pop\n      jump\t// out\n        /* \"#utility.yul\":11995:13390   */\n    tag_35:\n        /* \"#utility.yul\":12112:12149   */\n      tag_217\n        /* \"#utility.yul\":12145:12148   */\n      dup3\n        /* \"#utility.yul\":12112:12149   */\n      tag_43\n      jump\t// in\n    tag_217:\n        /* \"#utility.yul\":12214:12232   */\n      0xffffffffffffffff\n        /* \"#utility.yul\":12206:12212   */\n      dup2\n        /* \"#utility.yul\":12203:12233   */\n      gt\n        /* \"#utility.yul\":12200:12256   */\n      iszero\n      tag_218\n      jumpi\n        /* \"#utility.yul\":12236:12254   */\n      tag_219\n      tag_56\n      jump\t// in\n    tag_219:\n        /* \"#utility.yul\":12200:12256   */\n    tag_218:\n        /* \"#utility.yul\":12280:12318   */\n      tag_220\n        /* \"#utility.yul\":12312:12316   */\n      dup3\n        /* \"#utility.yul\":12306:12317   */\n      sload\n        /* \"#utility.yul\":12280:12318   */\n      tag_27\n      jump\t// in\n    tag_220:\n        /* \"#utility.yul\":12365:12432   */\n      tag_221\n        /* \"#utility.yul\":12425:12431   */\n      dup3\n        /* \"#utility.yul\":12417:12423   */\n      dup3\n        /* \"#utility.yul\":12411:12415   */\n      dup6\n        /* \"#utility.yul\":12365:12432   */\n      tag_79\n      jump\t// in\n    tag_221:\n        /* \"#utility.yul\":12459:12460   */\n      0x00\n        /* \"#utility.yul\":12483:12487   */\n      0x20\n        /* \"#utility.yul\":12470:12487   */\n      swap1\n      pop\n        /* \"#utility.yul\":12515:12517   */\n      0x1f\n        /* \"#utility.yul\":12507:12513   */\n      dup4\n        /* \"#utility.yul\":12504:12518   */\n      gt\n        /* \"#utility.yul\":12532:12533   */\n      0x01\n        /* \"#utility.yul\":12527:13145   */\n      dup2\n      eq\n      tag_223\n      jumpi\n        /* \"#utility.yul\":13189:13190   */\n      0x00\n        /* \"#utility.yul\":13206:13212   */\n      dup5\n        /* \"#utility.yul\":13203:13280   */\n      iszero\n      tag_224\n      jumpi\n        /* \"#utility.yul\":13255:13264   */\n      dup3\n        /* \"#utility.yul\":13250:13253   */\n      dup8\n        /* \"#utility.yul\":13246:13265   */\n      add\n        /* \"#utility.yul\":13240:13266   */\n      mload\n        /* \"#utility.yul\":13231:13266   */\n      swap1\n      pop\n        /* \"#utility.yul\":13203:13280   */\n    tag_224:\n        /* \"#utility.yul\":13306:13373   */\n      tag_225\n        /* \"#utility.yul\":13366:13372   */\n      dup6\n        /* \"#utility.yul\":13359:13364   */\n      dup3\n        /* \"#utility.yul\":13306:13373   */\n      tag_82\n      jump\t// in\n    tag_225:\n        /* \"#utility.yul\":13300:13304   */\n      dup7\n        /* \"#utility.yul\":13293:13374   */\n      sstore\n        /* \"#utility.yul\":13162:13384   */\n      pop\n        /* \"#utility.yul\":12497:13384   */\n      jump(tag_222)\n        /* \"#utility.yul\":12527:13145   */\n    tag_223:\n        /* \"#utility.yul\":12579:12583   */\n      0x1f\n        /* \"#utility.yul\":12575:12584   */\n      not\n        /* \"#utility.yul\":12567:12573   */\n      dup5\n        /* \"#utility.yul\":12563:12585   */\n      and\n        /* \"#utility.yul\":12613:12650   */\n      tag_226\n        /* \"#utility.yul\":12645:12649   */\n      dup7\n        /* \"#utility.yul\":12613:12650   */\n      tag_68\n      jump\t// in\n    tag_226:\n        /* \"#utility.yul\":12672:12673   */\n      0x00\n        /* \"#utility.yul\":12686:12894   */\n    tag_227:\n        /* \"#utility.yul\":12700:12707   */\n      dup3\n        /* \"#utility.yul\":12697:12698   */\n      dup2\n        /* \"#utility.yul\":12694:12708   */\n      lt\n        /* \"#utility.yul\":12686:12894   */\n      iszero\n      tag_229\n      jumpi\n        /* \"#utility.yul\":12779:12788   */\n      dup5\n        /* \"#utility.yul\":12774:12777   */\n      dup10\n        /* \"#utility.yul\":12770:12789   */\n      add\n        /* \"#utility.yul\":12764:12790   */\n      mload\n        /* \"#utility.yul\":12756:12762   */\n      dup3\n        /* \"#utility.yul\":12749:12791   */\n      sstore\n        /* \"#utility.yul\":12830:12831   */\n      0x01\n        /* \"#utility.yul\":12822:12828   */\n      dup3\n        /* \"#utility.yul\":12818:12832   */\n      add\n        /* \"#utility.yul\":12808:12832   */\n      swap2\n      pop\n        /* \"#utility.yul\":12877:12879   */\n      0x20\n        /* \"#utility.yul\":12866:12875   */\n      dup6\n        /* \"#utility.yul\":12862:12880   */\n      add\n        /* \"#utility.yul\":12849:12880   */\n      swap5\n      pop\n        /* \"#utility.yul\":12723:12727   */\n      0x20\n        /* \"#utility.yul\":12720:12721   */\n      dup2\n        /* \"#utility.yul\":12716:12728   */\n      add\n        /* \"#utility.yul\":12711:12728   */\n      swap1\n      pop\n        /* \"#utility.yul\":12686:12894   */\n      jump(tag_227)\n    tag_229:\n        /* \"#utility.yul\":12922:12928   */\n      dup7\n        /* \"#utility.yul\":12913:12920   */\n      dup4\n        /* \"#utility.yul\":12910:12929   */\n      lt\n        /* \"#utility.yul\":12907:13086   */\n      iszero\n      tag_230\n      jumpi\n        /* \"#utility.yul\":12980:12989   */\n      dup5\n        /* \"#utility.yul\":12975:12978   */\n      dup10\n        /* \"#utility.yul\":12971:12990   */\n      add\n        /* \"#utility.yul\":12965:12991   */\n      mload\n        /* \"#utility.yul\":13023:13071   */\n      tag_231\n        /* \"#utility.yul\":13065:13069   */\n      0x1f\n        /* \"#utility.yul\":13057:13063   */\n      dup10\n        /* \"#utility.yul\":13053:13070   */\n      and\n        /* \"#utility.yul\":13042:13051   */\n      dup3\n        /* \"#utility.yul\":13023:13071   */\n      tag_81\n      jump\t// in\n    tag_231:\n        /* \"#utility.yul\":13015:13021   */\n      dup4\n        /* \"#utility.yul\":13008:13072   */\n      sstore\n        /* \"#utility.yul\":12930:13086   */\n      pop\n        /* \"#utility.yul\":12907:13086   */\n    tag_230:\n        /* \"#utility.yul\":13132:13133   */\n      0x01\n        /* \"#utility.yul\":13128:13129   */\n      0x02\n        /* \"#utility.yul\":13120:13126   */\n      dup9\n        /* \"#utility.yul\":13116:13130   */\n      mul\n        /* \"#utility.yul\":13112:13134   */\n      add\n        /* \"#utility.yul\":13106:13110   */\n      dup9\n        /* \"#utility.yul\":13099:13135   */\n      sstore\n        /* \"#utility.yul\":12534:13145   */\n      pop\n      pop\n      pop\n        /* \"#utility.yul\":12497:13384   */\n    tag_222:\n      pop\n        /* \"#utility.yul\":12087:13390   */\n      pop\n      pop\n      pop\n        /* \"#utility.yul\":11995:13390   */\n      pop\n      pop\n      jump\t// out\n\n    auxdata: 0xa2646970667358221220530a7a66f8d7a1552ce9913f088c933f2f6d8ad280bf68776db7c40591f2523f64736f6c634300081c0033\n}\n",
				"bytecode": {
					"linkReferences": {},
					"object": "6080604052348015600e575f5ffd5b5061092e8061001c5f395ff3fe608060405234801561000f575f5ffd5b506004361061003f575f3560e01c80635e70133814610043578063c45d9bea14610073578063ce770b05146100a3575b5f5ffd5b61005d6004803603810190610058919061027c565b6100bf565b60405161006a9190610337565b60405180910390f35b61008d600480360381019061008891906103e4565b6100eb565b60405161009a9190610337565b60405180910390f35b6100bd60048036038101906100b8919061054a565b61019b565b005b606082826040516020016100d4929190610609565b604051602081830303815290604052905092915050565b5f602052815f5260405f208181548110610103575f80fd5b905f5260205f20015f9150915050805461011c90610659565b80601f016020809104026020016040519081016040528092919081815260200182805461014890610659565b80156101935780601f1061016a57610100808354040283529160200191610193565b820191905f5260205f20905b81548152906001019060200180831161017657829003601f168201915b505050505081565b5f5f3373ffffffffffffffffffffffffffffffffffffffff1673ffffffffffffffffffffffffffffffffffffffff1681526020019081526020015f2081908060018154018082558091505060019003905f5260205f20015f9091909190915090816102069190610829565b5050565b5f604051905090565b5f5ffd5b5f5ffd5b5f5ffd5b5f5ffd5b5f5ffd5b5f5f83601f84011261023c5761023b61021b565b5b8235905067ffffffffffffffff8111156102595761025861021f565b5b60208301915083600182028301111561027557610274610223565b5b9250929050565b5f5f6020838503121561029257610291610213565b5b5f83013567ffffffffffffffff8111156102af576102ae610217565b5b6102bb85828601610227565b92509250509250929050565b5f81519050919050565b5f82825260208201905092915050565b8281835e5f83830152505050565b5f601f19601f8301169050919050565b5f610309826102c7565b61031381856102d1565b93506103238185602086016102e1565b61032c816102ef565b840191505092915050565b5f6020820190508181035f83015261034f81846102ff565b905092915050565b5f73ffffffffffffffffffffffffffffffffffffffff82169050919050565b5f61038082610357565b9050919050565b61039081610376565b811461039a575f5ffd5b50565b5f813590506103ab81610387565b92915050565b5f819050919050565b6103c3816103b1565b81146103cd575f5ffd5b50565b5f813590506103de816103ba565b92915050565b5f5f604083850312156103fa576103f9610213565b5b5f6104078582860161039d565b9250506020610418858286016103d0565b9150509250929050565b5f5ffd5b7f4e487b71000000000000000000000000000000000000000000000000000000005f52604160045260245ffd5b61045c826102ef565b810181811067ffffffffffffffff8211171561047b5761047a610426565b5b80604052505050565b5f61048d61020a565b90506104998282610453565b919050565b5f67ffffffffffffffff8211156104b8576104b7610426565b5b6104c1826102ef565b9050602081019050919050565b828183375f83830152505050565b5f6104ee6104e98461049e565b610484565b90508281526020810184848401111561050a57610509610422565b5b6105158482856104ce565b509392505050565b5f82601f8301126105315761053061021b565b5b81356105418482602086016104dc565b91505092915050565b5f6020828403121561055f5761055e610213565b5b5f82013567ffffffffffffffff81111561057c5761057b610217565b5b6105888482850161051d565b91505092915050565b5f81905092915050565b7f44726166743a00000000000000000000000000000000000000000000000000005f82015250565b5f6105cf600683610591565b91506105da8261059b565b600682019050919050565b5f6105f08385610591565b93506105fd8385846104ce565b82840190509392505050565b5f610613826105c3565b91506106208284866105e5565b91508190509392505050565b7f4e487b71000000000000000000000000000000000000000000000000000000005f52602260045260245ffd5b5f600282049050600182168061067057607f821691505b6020821081036106835761068261062c565b5b50919050565b5f819050815f5260205f209050919050565b5f6020601f8301049050919050565b5f82821b905092915050565b5f600883026106e57fffffffffffffffffffffffffffffffffffffffffffffffffffffffffffffffff826106aa565b6106ef86836106aa565b95508019841693508086168417925050509392505050565b5f819050919050565b5f61072a610725610720846103b1565b610707565b6103b1565b9050919050565b5f819050919050565b61074383610710565b61075761074f82610731565b8484546106b6565b825550505050565b5f5f905090565b61076e61075f565b61077981848461073a565b505050565b5b8181101561079c576107915f82610766565b60018101905061077f565b5050565b601f8211156107e1576107b281610689565b6107bb8461069b565b810160208510156107ca578190505b6107de6107d68561069b565b83018261077e565b50505b505050565b5f82821c905092915050565b5f6108015f19846008026107e6565b1980831691505092915050565b5f61081983836107f2565b9150826002028217905092915050565b610832826102c7565b67ffffffffffffffff81111561084b5761084a610426565b5b6108558254610659565b6108608282856107a0565b5f60209050601f831160018114610891575f841561087f578287015190505b610889858261080e565b8655506108f0565b601f19841661089f86610689565b5f5b828110156108c6578489015182556001820191506020850194506020810190506108a1565b868310156108e357848901516108df601f8916826107f2565b8355505b6001600288020188555050505b50505050505056fea2646970667358221220530a7a66f8d7a1552ce9913f088c933f2f6d8ad280bf68776db7c40591f2523f64736f6c634300081c0033",
					"opcodes": "PUSH1 0x80 PUSH1 0x40 MSTORE CALLVALUE DUP1 ISZERO PUSH1 0xE JUMPI PUSH0 PUSH0 REVERT JUMPDEST POP PUSH2 0x92E DUP1 PUSH2 0x1C PUSH0 CODECOPY PUSH0 RETURN INVALID PUSH1 0x80 PUSH1 0x40 MSTORE CALLVALUE DUP1 ISZERO PUSH2 0xF JUMPI PUSH0 PUSH0 REVERT JUMPDEST POP PUSH1 0x4 CALLDATASIZE LT PUSH2 0x3F JUMPI PUSH0 CALLDATALOAD PUSH1 0xE0 SHR DUP1 PUSH4 0x5E701338 EQ PUSH2 0x43 JUMPI DUP1 PUSH4 0xC45D9BEA EQ PUSH2 0x73 JUMPI DUP1 PUSH4 0xCE770B05 EQ PUSH2 0xA3 JUMPI JUMPDEST PUSH0 PUSH0 REVERT JUMPDEST PUSH2 0x5D PUSH1 0x4 DUP1 CALLDATASIZE SUB DUP2 ADD SWAP1 PUSH2 0x58 SWAP2 SWAP1 PUSH2 0x27C JUMP JUMPDEST PUSH2 0xBF JUMP JUMPDEST PUSH1 0x40 MLOAD PUSH2 0x6A SWAP2 SWAP1 PUSH2 0x337 JUMP JUMPDEST PUSH1 0x40 MLOAD DUP1 SWAP2 SUB SWAP1 RETURN JUMPDEST PUSH2 0x8D PUSH1 0x4 DUP1 CALLDATASIZE SUB DUP2 ADD SWAP1 PUSH2 0x88 SWAP2 SWAP1 PUSH2 0x3E4 JUMP JUMPDEST PUSH2 0xEB JUMP JUMPDEST PUSH1 0x40 MLOAD PUSH2 0x9A SWAP2 SWAP1 PUSH2 0x337 JUMP JUMPDEST PUSH1 0x40 MLOAD DUP1 SWAP2 SUB SWAP1 RETURN JUMPDEST PUSH2 0xBD PUSH1 0x4 DUP1 CALLDATASIZE SUB DUP2 ADD SWAP1 PUSH2 0xB8 SWAP2 SWAP1 PUSH2 0x54A JUMP JUMPDEST PUSH2 0x19B JUMP JUMPDEST STOP JUMPDEST PUSH1 0x60 DUP3 DUP3 PUSH1 0x40 MLOAD PUSH1 0x20 ADD PUSH2 0xD4 SWAP3 SWAP2 SWAP1 PUSH2 0x609 JUMP JUMPDEST PUSH1 0x40 MLOAD PUSH1 0x20 DUP2 DUP4 SUB SUB DUP2 MSTORE SWAP1 PUSH1 0x40 MSTORE SWAP1 POP SWAP3 SWAP2 POP POP JUMP JUMPDEST PUSH0 PUSH1 0x20 MSTORE DUP2 PUSH0 MSTORE PUSH1 0x40 PUSH0 KECCAK256 DUP2 DUP2 SLOAD DUP2 LT PUSH2 0x103 JUMPI PUSH0 DUP1 REVERT JUMPDEST SWAP1 PUSH0 MSTORE PUSH1 0x20 PUSH0 KECCAK256 ADD PUSH0 SWAP2 POP SWAP2 POP POP DUP1 SLOAD PUSH2 0x11C SWAP1 PUSH2 0x659 JUMP JUMPDEST DUP1 PUSH1 0x1F ADD PUSH1 0x20 DUP1 SWAP2 DIV MUL PUSH1 0x20 ADD PUSH1 0x40 MLOAD SWAP1 DUP2 ADD PUSH1 0x40 MSTORE DUP1 SWAP3 SWAP2 SWAP1 DUP2 DUP2 MSTORE PUSH1 0x20 ADD DUP3 DUP1 SLOAD PUSH2 0x148 SWAP1 PUSH2 0x659 JUMP JUMPDEST DUP1 ISZERO PUSH2 0x193 JUMPI DUP1 PUSH1 0x1F LT PUSH2 0x16A JUMPI PUSH2 0x100 DUP1 DUP4 SLOAD DIV MUL DUP4 MSTORE SWAP2 PUSH1 0x20 ADD SWAP2 PUSH2 0x193 JUMP JUMPDEST DUP3 ADD SWAP2 SWAP1 PUSH0 MSTORE PUSH1 0x20 PUSH0 KECCAK256 SWAP1 JUMPDEST DUP2 SLOAD DUP2 MSTORE SWAP1 PUSH1 0x1 ADD SWAP1 PUSH1 0x20 ADD DUP1 DUP4 GT PUSH2 0x176 JUMPI DUP3 SWAP1 SUB PUSH1 0x1F AND DUP3 ADD SWAP2 JUMPDEST POP POP POP POP POP DUP2 JUMP JUMPDEST PUSH0 PUSH0 CALLER PUSH20 0xFFFFFFFFFFFFFFFFFFFFFFFFFFFFFFFFFFFFFFFF AND PUSH20 0xFFFFFFFFFFFFFFFFFFFFFFFFFFFFFFFFFFFFFFFF AND DUP2 MSTORE PUSH1 0x20 ADD SWAP1 DUP2 MSTORE PUSH1 0x20 ADD PUSH0 KECCAK256 DUP2 SWAP1 DUP1 PUSH1 0x1 DUP2 SLOAD ADD DUP1 DUP3 SSTORE DUP1 SWAP2 POP POP PUSH1 0x1 SWAP1 SUB SWAP1 PUSH0 MSTORE PUSH1 0x20 PUSH0 KECCAK256 ADD PUSH0 SWAP1 SWAP2 SWAP1 SWAP2 SWAP1 SWAP2 POP SWAP1 DUP2 PUSH2 0x206 SWAP2 SWAP1 PUSH2 0x829 JUMP JUMPDEST POP POP JUMP JUMPDEST PUSH0 PUSH1 0x40 MLOAD SWAP1 POP SWAP1 JUMP JUMPDEST PUSH0 PUSH0 REVERT JUMPDEST PUSH0 PUSH0 REVERT JUMPDEST PUSH0 PUSH0 REVERT JUMPDEST PUSH0 PUSH0 REVERT JUMPDEST PUSH0 PUSH0 REVERT JUMPDEST PUSH0 PUSH0 DUP4 PUSH1 0x1F DUP5 ADD SLT PUSH2 0x23C JUMPI PUSH2 0x23B PUSH2 0x21B JUMP JUMPDEST JUMPDEST DUP3 CALLDATALOAD SWAP1 POP PUSH8 0xFFFFFFFFFFFFFFFF DUP2 GT ISZERO PUSH2 0x259 JUMPI PUSH2 0x258 PUSH2 0x21F JUMP JUMPDEST JUMPDEST PUSH1 0x20 DUP4 ADD SWAP2 POP DUP4 PUSH1 0x1 DUP3 MUL DUP4 ADD GT ISZERO PUSH2 0x275 JUMPI PUSH2 0x274 PUSH2 0x223 JUMP JUMPDEST JUMPDEST SWAP3 POP SWAP3 SWAP1 POP JUMP JUMPDEST PUSH0 PUSH0 PUSH1 0x20 DUP4 DUP6 SUB SLT ISZERO PUSH2 0x292 JUMPI PUSH2 0x291 PUSH2 0x213 JUMP JUMPDEST JUMPDEST PUSH0 DUP4 ADD CALLDATALOAD PUSH8 0xFFFFFFFFFFFFFFFF DUP2 GT ISZERO PUSH2 0x2AF JUMPI PUSH2 0x2AE PUSH2 0x217 JUMP JUMPDEST JUMPDEST PUSH2 0x2BB DUP6 DUP3 DUP7 ADD PUSH2 0x227 JUMP JUMPDEST SWAP3 POP SWAP3 POP POP SWAP3 POP SWAP3 SWAP1 POP JUMP JUMPDEST PUSH0 DUP2 MLOAD SWAP1 POP SWAP2 SWAP1 POP JUMP JUMPDEST PUSH0 DUP3 DUP3 MSTORE PUSH1 0x20 DUP3 ADD SWAP1 POP SWAP3 SWAP2 POP POP JUMP JUMPDEST DUP3 DUP2 DUP4 MCOPY PUSH0 DUP4 DUP4 ADD MSTORE POP POP POP JUMP JUMPDEST PUSH0 PUSH1 0x1F NOT PUSH1 0x1F DUP4 ADD AND SWAP1 POP SWAP2 SWAP1 POP JUMP JUMPDEST PUSH0 PUSH2 0x309 DUP3 PUSH2 0x2C7 JUMP JUMPDEST PUSH2 0x313 DUP2 DUP6 PUSH2 0x2D1 JUMP JUMPDEST SWAP4 POP PUSH2 0x323 DUP2 DUP6 PUSH1 0x20 DUP7 ADD PUSH2 0x2E1 JUMP JUMPDEST PUSH2 0x32C DUP2 PUSH2 0x2EF JUMP JUMPDEST DUP5 ADD SWAP2 POP POP SWAP3 SWAP2 POP POP JUMP JUMPDEST PUSH0 PUSH1 0x20 DUP3 ADD SWAP1 POP DUP2 DUP2 SUB PUSH0 DUP4 ADD MSTORE PUSH2 0x34F DUP2 DUP5 PUSH2 0x2FF JUMP JUMPDEST SWAP1 POP SWAP3 SWAP2 POP POP JUMP JUMPDEST PUSH0 PUSH20 0xFFFFFFFFFFFFFFFFFFFFFFFFFFFFFFFFFFFFFFFF DUP3 AND SWAP1 POP SWAP2 SWAP1 POP JUMP JUMPDEST PUSH0 PUSH2 0x380 DUP3 PUSH2 0x357 JUMP JUMPDEST SWAP1 POP SWAP2 SWAP1 POP JUMP JUMPDEST PUSH2 0x390 DUP2 PUSH2 0x376 JUMP JUMPDEST DUP2 EQ PUSH2 0x39A JUMPI PUSH0 PUSH0 REVERT JUMPDEST POP JUMP JUMPDEST PUSH0 DUP2 CALLDATALOAD SWAP1 POP PUSH2 0x3AB DUP2 PUSH2 0x387 JUMP JUMPDEST SWAP3 SWAP2 POP POP JUMP JUMPDEST PUSH0 DUP2 SWAP1 POP SWAP2 SWAP1 POP JUMP JUMPDEST PUSH2 0x3C3 DUP2 PUSH2 0x3B1 JUMP JUMPDEST DUP2 EQ PUSH2 0x3CD JUMPI PUSH0 PUSH0 REVERT JUMPDEST POP JUMP JUMPDEST PUSH0 DUP2 CALLDATALOAD SWAP1 POP PUSH2 0x3DE DUP2 PUSH2 0x3BA JUMP JUMPDEST SWAP3 SWAP2 POP POP JUMP JUMPDEST PUSH0 PUSH0 PUSH1 0x40 DUP4 DUP6 SUB SLT ISZERO PUSH2 0x3FA JUMPI PUSH2 0x3F9 PUSH2 0x213 JUMP JUMPDEST JUMPDEST PUSH0 PUSH2 0x407 DUP6 DUP3 DUP7 ADD PUSH2 0x39D JUMP JUMPDEST SWAP3 POP POP PUSH1 0x20 PUSH2 0x418 DUP6 DUP3 DUP7 ADD PUSH2 0x3D0 JUMP JUMPDEST SWAP2 POP POP SWAP3 POP SWAP3 SWAP1 POP JUMP JUMPDEST PUSH0 PUSH0 REVERT JUMPDEST PUSH32 0x4E487B7100000000000000000000000000000000000000000000000000000000 PUSH0 MSTORE PUSH1 0x41 PUSH1 0x4 MSTORE PUSH1 0x24 PUSH0 REVERT JUMPDEST PUSH2 0x45C DUP3 PUSH2 0x2EF JUMP JUMPDEST DUP2 ADD DUP2 DUP2 LT PUSH8 0xFFFFFFFFFFFFFFFF DUP3 GT OR ISZERO PUSH2 0x47B JUMPI PUSH2 0x47A PUSH2 0x426 JUMP JUMPDEST JUMPDEST DUP1 PUSH1 0x40 MSTORE POP POP POP JUMP JUMPDEST PUSH0 PUSH2 0x48D PUSH2 0x20A JUMP JUMPDEST SWAP1 POP PUSH2 0x499 DUP3 DUP3 PUSH2 0x453 JUMP JUMPDEST SWAP2 SWAP1 POP JUMP JUMPDEST PUSH0 PUSH8 0xFFFFFFFFFFFFFFFF DUP3 GT ISZERO PUSH2 0x4B8 JUMPI PUSH2 0x4B7 PUSH2 0x426 JUMP JUMPDEST JUMPDEST PUSH2 0x4C1 DUP3 PUSH2 0x2EF JUMP JUMPDEST SWAP1 POP PUSH1 0x20 DUP2 ADD SWAP1 POP SWAP2 SWAP1 POP JUMP JUMPDEST DUP3 DUP2 DUP4 CALLDATACOPY PUSH0 DUP4 DUP4 ADD MSTORE POP POP POP JUMP JUMPDEST PUSH0 PUSH2 0x4EE PUSH2 0x4E9 DUP5 PUSH2 0x49E JUMP JUMPDEST PUSH2 0x484 JUMP JUMPDEST SWAP1 POP DUP3 DUP2 MSTORE PUSH1 0x20 DUP2 ADD DUP5 DUP5 DUP5 ADD GT ISZERO PUSH2 0x50A JUMPI PUSH2 0x509 PUSH2 0x422 JUMP JUMPDEST JUMPDEST PUSH2 0x515 DUP5 DUP3 DUP6 PUSH2 0x4CE JUMP JUMPDEST POP SWAP4 SWAP3 POP POP POP JUMP JUMPDEST PUSH0 DUP3 PUSH1 0x1F DUP4 ADD SLT PUSH2 0x531 JUMPI PUSH2 0x530 PUSH2 0x21B JUMP JUMPDEST JUMPDEST DUP2 CALLDATALOAD PUSH2 0x541 DUP5 DUP3 PUSH1 0x20 DUP7 ADD PUSH2 0x4DC JUMP JUMPDEST SWAP2 POP POP SWAP3 SWAP2 POP POP JUMP JUMPDEST PUSH0 PUSH1 0x20 DUP3 DUP5 SUB SLT ISZERO PUSH2 0x55F JUMPI PUSH2 0x55E PUSH2 0x213 JUMP JUMPDEST JUMPDEST PUSH0 DUP3 ADD CALLDATALOAD PUSH8 0xFFFFFFFFFFFFFFFF DUP2 GT ISZERO PUSH2 0x57C JUMPI PUSH2 0x57B PUSH2 0x217 JUMP JUMPDEST JUMPDEST PUSH2 0x588 DUP5 DUP3 DUP6 ADD PUSH2 0x51D JUMP JUMPDEST SWAP2 POP POP SWAP3 SWAP2 POP POP JUMP JUMPDEST PUSH0 DUP2 SWAP1 POP SWAP3 SWAP2 POP POP JUMP JUMPDEST PUSH32 0x44726166743A0000000000000000000000000000000000000000000000000000 PUSH0 DUP3 ADD MSTORE POP JUMP JUMPDEST PUSH0 PUSH2 0x5CF PUSH1 0x6 DUP4 PUSH2 0x591 JUMP JUMPDEST SWAP2 POP PUSH2 0x5DA DUP3 PUSH2 0x59B JUMP JUMPDEST PUSH1 0x6 DUP3 ADD SWAP1 POP SWAP2 SWAP1 POP JUMP JUMPDEST PUSH0 PUSH2 0x5F0 DUP4 DUP6 PUSH2 0x591 JUMP JUMPDEST SWAP4 POP PUSH2 0x5FD DUP4 DUP6 DUP5 PUSH2 0x4CE JUMP JUMPDEST DUP3 DUP5 ADD SWAP1 POP SWAP4 SWAP3 POP POP POP JUMP JUMPDEST PUSH0 PUSH2 0x613 DUP3 PUSH2 0x5C3 JUMP JUMPDEST SWAP2 POP PUSH2 0x620 DUP3 DUP5 DUP7 PUSH2 0x5E5 JUMP JUMPDEST SWAP2 POP DUP2 SWAP1 POP SWAP4 SWAP3 POP POP POP JUMP JUMPDEST PUSH32 0x4E487B7100000000000000000000000000000000000000000000000000000000 PUSH0 MSTORE PUSH1 0x22 PUSH1 0x4 MSTORE PUSH1 0x24 PUSH0 REVERT JUMPDEST PUSH0 PUSH1 0x2 DUP3 DIV SWAP1 POP PUSH1 0x1 DUP3 AND DUP1 PUSH2 0x670 JUMPI PUSH1 0x7F DUP3 AND SWAP2 POP JUMPDEST PUSH1 0x20 DUP3 LT DUP2 SUB PUSH2 0x683 JUMPI PUSH2 0x682 PUSH2 0x62C JUMP JUMPDEST JUMPDEST POP SWAP2 SWAP1 POP JUMP JUMPDEST PUSH0 DUP2 SWAP1 POP DUP2 PUSH0 MSTORE PUSH1 0x20 PUSH0 KECCAK256 SWAP1 POP SWAP2 SWAP1 POP JUMP JUMPDEST PUSH0 PUSH1 0x20 PUSH1 0x1F DUP4 ADD DIV SWAP1 POP SWAP2 SWAP1 POP JUMP JUMPDEST PUSH0 DUP3 DUP3 SHL SWAP1 POP SWAP3 SWAP2 POP POP JUMP JUMPDEST PUSH0 PUSH1 0x8 DUP4 MUL PUSH2 0x6E5 PUSH32 0xFFFFFFFFFFFFFFFFFFFFFFFFFFFFFFFFFFFFFFFFFFFFFFFFFFFFFFFFFFFFFFFF DUP3 PUSH2 0x6AA JUMP JUMPDEST PUSH2 0x6EF DUP7 DUP4 PUSH2 0x6AA JUMP JUMPDEST SWAP6 POP DUP1 NOT DUP5 AND SWAP4 POP DUP1 DUP7 AND DUP5 OR SWAP3 POP POP POP SWAP4 SWAP3 POP POP POP JUMP JUMPDEST PUSH0 DUP2 SWAP1 POP SWAP2 SWAP1 POP JUMP JUMPDEST PUSH0 PUSH2 0x72A PUSH2 0x725 PUSH2 0x720 DUP5 PUSH2 0x3B1 JUMP JUMPDEST PUSH2 0x707 JUMP JUMPDEST PUSH2 0x3B1 JUMP JUMPDEST SWAP1 POP SWAP2 SWAP1 POP JUMP JUMPDEST PUSH0 DUP2 SWAP1 POP SWAP2 SWAP1 POP JUMP JUMPDEST PUSH2 0x743 DUP4 PUSH2 0x710 JUMP JUMPDEST PUSH2 0x757 PUSH2 0x74F DUP3 PUSH2 0x731 JUMP JUMPDEST DUP5 DUP5 SLOAD PUSH2 0x6B6 JUMP JUMPDEST DUP3 SSTORE POP POP POP POP JUMP JUMPDEST PUSH0 PUSH0 SWAP1 POP SWAP1 JUMP JUMPDEST PUSH2 0x76E PUSH2 0x75F JUMP JUMPDEST PUSH2 0x779 DUP2 DUP5 DUP5 PUSH2 0x73A JUMP JUMPDEST POP POP POP JUMP JUMPDEST JUMPDEST DUP2 DUP2 LT ISZERO PUSH2 0x79C JUMPI PUSH2 0x791 PUSH0 DUP3 PUSH2 0x766 JUMP JUMPDEST PUSH1 0x1 DUP2 ADD SWAP1 POP PUSH2 0x77F JUMP JUMPDEST POP POP JUMP JUMPDEST PUSH1 0x1F DUP3 GT ISZERO PUSH2 0x7E1 JUMPI PUSH2 0x7B2 DUP2 PUSH2 0x689 JUMP JUMPDEST PUSH2 0x7BB DUP5 PUSH2 0x69B JUMP JUMPDEST DUP2 ADD PUSH1 0x20 DUP6 LT ISZERO PUSH2 0x7CA JUMPI DUP2 SWAP1 POP JUMPDEST PUSH2 0x7DE PUSH2 0x7D6 DUP6 PUSH2 0x69B JUMP JUMPDEST DUP4 ADD DUP3 PUSH2 0x77E JUMP JUMPDEST POP POP JUMPDEST POP POP POP JUMP JUMPDEST PUSH0 DUP3 DUP3 SHR SWAP1 POP SWAP3 SWAP2 POP POP JUMP JUMPDEST PUSH0 PUSH2 0x801 PUSH0 NOT DUP5 PUSH1 0x8 MUL PUSH2 0x7E6 JUMP JUMPDEST NOT DUP1 DUP4 AND SWAP2 POP POP SWAP3 SWAP2 POP POP JUMP JUMPDEST PUSH0 PUSH2 0x819 DUP4 DUP4 PUSH2 0x7F2 JUMP JUMPDEST SWAP2 POP DUP3 PUSH1 0x2 MUL DUP3 OR SWAP1 POP SWAP3 SWAP2 POP POP JUMP JUMPDEST PUSH2 0x832 DUP3 PUSH2 0x2C7 JUMP JUMPDEST PUSH8 0xFFFFFFFFFFFFFFFF DUP2 GT ISZERO PUSH2 0x84B JUMPI PUSH2 0x84A PUSH2 0x426 JUMP JUMPDEST JUMPDEST PUSH2 0x855 DUP3 SLOAD PUSH2 0x659 JUMP JUMPDEST PUSH2 0x860 DUP3 DUP3 DUP6 PUSH2 0x7A0 JUMP JUMPDEST PUSH0 PUSH1 0x20 SWAP1 POP PUSH1 0x1F DUP4 GT PUSH1 0x1 DUP2 EQ PUSH2 0x891 JUMPI PUSH0 DUP5 ISZERO PUSH2 0x87F JUMPI DUP3 DUP8 ADD MLOAD SWAP1 POP JUMPDEST PUSH2 0x889 DUP6 DUP3 PUSH2 0x80E JUMP JUMPDEST DUP7 SSTORE POP PUSH2 0x8F0 JUMP JUMPDEST PUSH1 0x1F NOT DUP5 AND PUSH2 0x89F DUP7 PUSH2 0x689 JUMP JUMPDEST PUSH0 JUMPDEST DUP3 DUP2 LT ISZERO PUSH2 0x8C6 JUMPI DUP5 DUP10 ADD MLOAD DUP3 SSTORE PUSH1 0x1 DUP3 ADD SWAP2 POP PUSH1 0x20 DUP6 ADD SWAP5 POP PUSH1 0x20 DUP2 ADD SWAP1 POP PUSH2 0x8A1 JUMP JUMPDEST DUP7 DUP4 LT ISZERO PUSH2 0x8E3 JUMPI DUP5 DUP10 ADD MLOAD PUSH2 0x8DF PUSH1 0x1F DUP10 AND DUP3 PUSH2 0x7F2 JUMP JUMPDEST DUP4 SSTORE POP JUMPDEST PUSH1 0x1 PUSH1 0x2 DUP9 MUL ADD DUP9 SSTORE POP POP POP JUMPDEST POP POP POP POP POP POP JUMP INVALID LOG2 PUSH5 0x6970667358 0x22 SLT KECCAK256 MSTORE8 EXP PUSH27 0x66F8D7A1552CE9913F088C933F2F6D8AD280BF68776DB7C40591F2 MSTORE EXTCODEHASH PUSH5 0x736F6C6343 STOP ADDMOD SHR STOP CALLER "
				},
				"gasEstimates": {
					"creation": {
						"codeDepositCost": "470000",
						"executionCost": "503",
						"totalCost": "470503"
					},
					"external": {
						"messagePrewiew(string)": "infinite",
						"messages(address,uint256)": "infinite",
						"storedMessages(string)": "infinite"
					}
				},
				"methodIdentifiers": {
					"messagePrewiew(string)": "5e701338",
					"messages(address,uint256)": "c45d9bea",
					"storedMessages(string)": "ce770b05"
				}
			},
			"storageLayout": {
				"storage": [
					{
						"astId": 6,
						"contract": "BlockchainFundamentals/02-exercises/01-messageBoard.sol:messageBoard",
						"label": "messages",
						"offset": 0,
						"slot": "0",
						"type": "t_mapping(t_address,t_array(t_string_storage)dyn_storage)"
					}
				],
				"types": {
					"t_address": {
						"encoding": "inplace",
						"label": "address",
						"numberOfBytes": "20"
					},
					"t_array(t_string_storage)dyn_storage": {
						"base": "t_string_storage",
						"encoding": "dynamic_array",
						"label": "string[]",
						"numberOfBytes": "32"
					},
					"t_mapping(t_address,t_array(t_string_storage)dyn_storage)": {
						"encoding": "mapping",
						"key": "t_address",
						"label": "mapping(address => string[])",
						"numberOfBytes": "32",
						"value": "t_array(t_string_storage)dyn_storage"
					},
					"t_string_storage": {
						"encoding": "bytes",
						"label": "string",
						"numberOfBytes": "32"
					}
				}
			},
			"userdoc": {
				"kind": "user",
				"methods": {},
				"version": 1
			}
		}
	}
}