{
	"data": {
		"bytecode": {
			"linkReferences": {},
			"object": "6080604052348015600e575f5ffd5b506102698061001c5f395ff3fe608060405234801561000f575f5ffd5b5060043610610034575f3560e01c80631537d5e2146100385780631b4f409e14610054575b5f5ffd5b610052600480360381019061004d9190610140565b610072565b005b61005c610104565b604051610069919061018d565b60405180910390f35b5f81036100ab576040517f36beb19600000000000000000000000000000000000000000000000000000000815260040160405180910390fd5b80826100b791906101d3565b5f819055505f81836100c99190610203565b14610100576040517fe2eace0d00000000000000000000000000000000000000000000000000000000815260040160405180910390fd5b5050565b5f5481565b5f5ffd5b5f819050919050565b61011f8161010d565b8114610129575f5ffd5b50565b5f8135905061013a81610116565b92915050565b5f5f6040838503121561015657610155610109565b5b5f6101638582860161012c565b92505060206101748582860161012c565b9150509250929050565b6101878161010d565b82525050565b5f6020820190506101a05f83018461017e565b92915050565b7f4e487b71000000000000000000000000000000000000000000000000000000005f52601260045260245ffd5b5f6101dd8261010d565b91506101e88361010d565b9250826101f8576101f76101a6565b5b828204905092915050565b5f61020d8261010d565b91506102188361010d565b925082610228576102276101a6565b5b82820690509291505056fea2646970667358221220f09fa4825e02e956c347ee5583e8e9a3522ee2e7d43a0c351ab245f116c9677064736f6c634300081c0033",
			"opcodes": "PUSH1 0x80 PUSH1 0x40 MSTORE CALLVALUE DUP1 ISZERO PUSH1 0xE JUMPI PUSH0 PUSH0 REVERT JUMPDEST POP PUSH2 0x269 DUP1 PUSH2 0x1C PUSH0 CODECOPY PUSH0 RETURN INVALID PUSH1 0x80 PUSH1 0x40 MSTORE CALLVALUE DUP1 ISZERO PUSH2 0xF JUMPI PUSH0 PUSH0 REVERT JUMPDEST POP PUSH1 0x4 CALLDATASIZE LT PUSH2 0x34 JUMPI PUSH0 CALLDATALOAD PUSH1 0xE0 SHR DUP1 PUSH4 0x1537D5E2 EQ PUSH2 0x38 JUMPI DUP1 PUSH4 0x1B4F409E EQ PUSH2 0x54 JUMPI JUMPDEST PUSH0 PUSH0 REVERT JUMPDEST PUSH2 0x52 PUSH1 0x4 DUP1 CALLDATASIZE SUB DUP2 ADD SWAP1 PUSH2 0x4D SWAP2 SWAP1 PUSH2 0x140 JUMP JUMPDEST PUSH2 0x72 JUMP JUMPDEST STOP JUMPDEST PUSH2 0x5C PUSH2 0x104 JUMP JUMPDEST PUSH1 0x40 MLOAD PUSH2 0x69 SWAP2 SWAP1 PUSH2 0x18D JUMP JUMPDEST PUSH1 0x40 MLOAD DUP1 SWAP2 SUB SWAP1 RETURN JUMPDEST PUSH0 DUP2 SUB PUSH2 0xAB JUMPI PUSH1 0x40 MLOAD PUSH32 0x36BEB19600000000000000000000000000000000000000000000000000000000 DUP2 MSTORE PUSH1 0x4 ADD PUSH1 0x40 MLOAD DUP1 SWAP2 SUB SWAP1 REVERT JUMPDEST DUP1 DUP3 PUSH2 0xB7 SWAP2 SWAP1 PUSH2 0x1D3 JUMP JUMPDEST PUSH0 DUP2 SWAP1 SSTORE POP PUSH0 DUP2 DUP4 PUSH2 0xC9 SWAP2 SWAP1 PUSH2 0x203 JUMP JUMPDEST EQ PUSH2 0x100 JUMPI PUSH1 0x40 MLOAD PUSH32 0xE2EACE0D00000000000000000000000000000000000000000000000000000000 DUP2 MSTORE PUSH1 0x4 ADD PUSH1 0x40 MLOAD DUP1 SWAP2 SUB SWAP1 REVERT JUMPDEST POP POP JUMP JUMPDEST PUSH0 SLOAD DUP2 JUMP JUMPDEST PUSH0 PUSH0 REVERT JUMPDEST PUSH0 DUP2 SWAP1 POP SWAP2 SWAP1 POP JUMP JUMPDEST PUSH2 0x11F DUP2 PUSH2 0x10D JUMP JUMPDEST DUP2 EQ PUSH2 0x129 JUMPI PUSH0 PUSH0 REVERT JUMPDEST POP JUMP JUMPDEST PUSH0 DUP2 CALLDATALOAD SWAP1 POP PUSH2 0x13A DUP2 PUSH2 0x116 JUMP JUMPDEST SWAP3 SWAP2 POP POP JUMP JUMPDEST PUSH0 PUSH0 PUSH1 0x40 DUP4 DUP6 SUB SLT ISZERO PUSH2 0x156 JUMPI PUSH2 0x155 PUSH2 0x109 JUMP JUMPDEST JUMPDEST PUSH0 PUSH2 0x163 DUP6 DUP3 DUP7 ADD PUSH2 0x12C JUMP JUMPDEST SWAP3 POP POP PUSH1 0x20 PUSH2 0x174 DUP6 DUP3 DUP7 ADD PUSH2 0x12C JUMP JUMPDEST SWAP2 POP POP SWAP3 POP SWAP3 SWAP1 POP JUMP JUMPDEST PUSH2 0x187 DUP2 PUSH2 0x10D JUMP JUMPDEST DUP3 MSTORE POP POP JUMP JUMPDEST PUSH0 PUSH1 0x20 DUP3 ADD SWAP1 POP PUSH2 0x1A0 PUSH0 DUP4 ADD DUP5 PUSH2 0x17E JUMP JUMPDEST SWAP3 SWAP2 POP POP JUMP JUMPDEST PUSH32 0x4E487B7100000000000000000000000000000000000000000000000000000000 PUSH0 MSTORE PUSH1 0x12 PUSH1 0x4 MSTORE PUSH1 0x24 PUSH0 REVERT JUMPDEST PUSH0 PUSH2 0x1DD DUP3 PUSH2 0x10D JUMP JUMPDEST SWAP2 POP PUSH2 0x1E8 DUP4 PUSH2 0x10D JUMP JUMPDEST SWAP3 POP DUP3 PUSH2 0x1F8 JUMPI PUSH2 0x1F7 PUSH2 0x1A6 JUMP JUMPDEST JUMPDEST DUP3 DUP3 DIV SWAP1 POP SWAP3 SWAP2 POP POP JUMP JUMPDEST PUSH0 PUSH2 0x20D DUP3 PUSH2 0x10D JUMP JUMPDEST SWAP2 POP PUSH2 0x218 DUP4 PUSH2 0x10D JUMP JUMPDEST SWAP3 POP DUP3 PUSH2 0x228 JUMPI PUSH2 0x227 PUSH2 0x1A6 JUMP JUMPDEST JUMPDEST DUP3 DUP3 MOD SWAP1 POP SWAP3 SWAP2 POP POP JUMP INVALID LOG2 PUSH5 0x6970667358 0x22 SLT KECCAK256 CREATE SWAP16 LOG4 DUP3 MCOPY MUL 0xE9 JUMP 0xC3 SELFBALANCE 0xEE SSTORE DUP4 0xE8 0xE9 LOG3 MSTORE 0x2E 0xE2 0xE7 0xD4 GASPRICE 0xC CALLDATALOAD BYTE 0xB2 GASLIMIT CALL AND 0xC9 PUSH8 0x7064736F6C634300 ADDMOD SHR STOP CALLER "
		},
		"gasEstimates": {
			"creation": {
				"codeDepositCost": "123400",
				"executionCost": "169",
				"totalCost": "123569"
			},
			"external": {
				"billing(uint256,uint256)": "infinite",
				"splitExpenses()": "2424"
			}
		},
		"methodIdentifiers": {
			"billing(uint256,uint256)": "1537d5e2",
			"splitExpenses()": "1b4f409e"
		}
	},
	"abi": [
		{
			"inputs": [],
			"name": "UnevenDivision",
			"type": "error"
		},
		{
			"inputs": [],
			"name": "ZeroParticipants",
			"type": "error"
		},
		{
			"inputs": [
				{
					"internalType": "uint256",
					"name": "totalExpenses",
					"type": "uint256"
				},
				{
					"internalType": "uint256",
					"name": "numberOfPeople",
					"type": "uint256"
				}
			],
			"name": "billing",
			"outputs": [],
			"stateMutability": "nonpayable",
			"type": "function"
		},
		{
			"inputs": [],
			"name": "splitExpenses",
			"outputs": [
				{
					"internalType": "uint256",
					"name": "",
					"type": "uint256"
				}
			],
			"stateMutability": "view",
			"type": "function"
		}
	]
}